:02000000ff00ff
:080002004c6174746963650030
:17000a00694345637562653220323031372e30382e32373934300069
:15002100506172743a2069434534305550354b2d53473438002c
:1b003600446174653a204d617220313320323031392030303a31323a34330089
:0200510000ffae
:040053007eaa997e6a
:02005700510056
:0200590001059f
:03005b00920020f0
:03005e006202b388
:03006100720150d9
:0300640082000017
:02006700110086
:02006900010193
:20006b00000000000000000000000010000000000000400000000000010000000000000420
:20008b000000000000001000000000000040200000000000000000000040000000000001a4
:1600ab0000000000000004000000000000100000000000004000eb
:2000c1000000000000000000000000020000000000000800000000000020000000000000f5
:2000e10080000000000000000000000000000000000002000000000000000000000000007d
:1701010020000000000000800000000000020000000000000800003d
:200118000000000000000000000000000000000000000000000000000000000000000000c7
:20013800000000000000000000000000000010000000000000000000000000000000000097
:160158000000000000000000000000000000000000000000000091
:20016e00000000000000000000000000000000000000000000000000000000000000000071
:20018e00000000000000000000000000000000000000010000000000000000000000000050
:1701ae0000000000000000000000000000000000000000000000003a
:2001c50000000000000000000000000000000000000000000000000000000000000000001a
:2001e5000000000000000000000000000000200000000000000000000000000000000000da
:1602050000000000000000000000000000000000000000000000e3
:20021b000000000000000000000000000000000000000000000000000000000000000000c3
:20023b000000000000000000000000000000000000000c0000000000000000000000000097
:17025b0000000000000000000000000000000000000000000000008c
:2002720000000000000000000000000000000000000000000000000000000000000000006c
:2002920000000000000000000000000000000000000000000000000000000000000000004c
:1602b2000000000000000000000000000000000000000000000036
:2002c800000000000000000000000000000000000000000000000000000000000000000016
:2002e8000000000000000000000000000000000000000000000000000000000000000000f6
:170308000000000000000000000000000000000000000000000000de
:20031f000000000000000000000000000000000000000000000000000000000000000000be
:20033f00000000000000100000000000004000000080000000000000004000000000041179
:16035f000000000000000000000000000080000000000000000008
:20037500000000000000000000000000000000000000000000000000000000000000000068
:200395000000000000000000000000000000000000000000000000d0000000000000000078
:1703b500000000000000000000000000000000000000000000000031
:2003cc00000000000000000000000000000000000000000000000000000000000000000011
:2003ec00000000000000c0000000000003000000000000000000000003000000000000002b
:16040c0000000000000000000000000000000000000000000000da
:200422000000000000000000000000000000000000000000000000000000000000000000ba
:20044200000002000000000000080000000000000000000000080000001000000000000078
:17046200000000000000000000000000000000000000000000000083
:20047900000000000000000000000000000000000000000000000000000000000000000063
:2004990000000000000000000000000000000001c000000000000000000000000000000082
:1604b900000000000000000000000000000000000000000000002d
:2004cf0000000000000000000000000000000000000000000000000000000000000000000d
:2004ef000000010034000000000400f00000000002000000000400000000000010000100ad
:17050f000000000000000000000000000000000000000000000000d5
:200526000000000000000000000000000000000000000000000000000000000000000000b5
:2005460000000000004000000000000100000000000000000000000100000000000004004f
:16056600000000000000000000000000000000000000000000007f
:20057c0000000000000000000000000000000000000000000000000000000000000000005f
:20059c00000002000000000000080000000000000000000000080000000000000000040029
:1705bc00000000000000000000000000000000000000000000000028
:2005d300000000000c302000000000000000000000000000000000000000000000000000ac
:2005f300000000000000000000000000000000000100000000400001e00080000080136f44
:160613006940000000578a000000001b00402000000000000000cc
:200629000000000000c30000000000000000000000000000000000000000000000000000ee
:2006490000000000000000000000000000000000008000000008000002c0000000010a1329
:1706690029400000002800a000000000802c00080000000000000095
:20068000000000000c302000000000000000000000000000000000000000000000000000fe
:2006a0000000000000000000000000000003a000000000000e0000000996803800d9b57034
:1606c0000000e003c04680c0238000010603e0000000000000006e
:2006d6000000000000c3000000000000000000000000000000000000000000000000000041
:2006f60000000000000000000000000000002100000000000080000000d6900200050affcd
:17071600480008000437f00400210000a0703c0000000000000000e0
:20072d00000000000c30200000000000000000000000000000000000000000000000000050
:20074d00000000080056a58800000000000000c000b6a1540000006548f0c0000059a869cf
:16076d00fd080000002ce3c4200000001683e00000000000000005
:200783000000000000c3000000000000000000000000000000000000000000000000000093
:2007a30000000000d000025800000000000000000003e604000000020200f00000000030fb
:1707c3002fc810000001607c0100000000a43c00000000000000005a
:2007da00000000000c302000000000000000000000000000000000000000000000000000a3
:2007fa0000000000000000000000000000000003810000000000060548f0c0000079896cea
:16081a0008000003c0000ff000000998023c04000080000000009b
:200830000000000000c30000000000000000000000000000000000000000000000000000e5
:200850000000000030000000000000000000000000b00000000000020200f000030d001f85
:17087000400000002c0000ff000000500003c00000100000000000e3
:20088700000000000c302000000000000000000000000000000000000000000000000000f5
:2008a700000000000000000000000000000000001c00000000002001e8f0c0000019cb690f
:1608c7007d80000003bfe014000009803fbd008000000000000063
:2008dd000000000000c3000000000000000000000000000000000000000000000000000038
:2008fd000000000000000000000000000000000000000000000001400000f000000000307a
:17091d003fc80000003c6d0e000000f00383c00000000000000000cf
:20093400000000000c30200000000000000000000000000000000000000000000000000047
:2009540000000000000000000000000000000000000000000000006968f0c0000000f9e227
:1609740000000001c06fe5f20000001cb68510800000000000007f
:20098a000000000000c300000000000000000000000000000000000000000000000000008a
:2009aa000000000000000000000000000000000010000000000000000000f000000f089b7b
:1709ca00800000000230e0ff000000000b00c00000000000000000ba
:2009e100000000000c3020000000000000000000000000000000000000000000000000009a
:200a010000000000000000000000000000000000000000000000000168f0c00000000b6e43
:160a210095200000005fe0942000000086c7c0000000000000000a
:200a37000000000000c30000000000000000000000000000000000000000000000000000dc
:200a57000000000000000000000000000000000000000000000000000200f000000d0e531f
:170a7700368000001c202009000000000524bc000000000000000068
:200a8e00000000000c302000000000000000000000000000000000000000000000000000ec
:200aae00000000000000000000000000000100000000000000002065e8f0c00000000ba956
:160ace00c100000360400000000000005e83c0000000000000000d
:200ae4000000000000c300000000000000000000000000000000000000000000000000002f
:200b04000000000000000000000000000000300000000000000000428200f000000000539a
:170b24003c00000014200000000000f009803c000000000000000095
:200b3b00000000000c3020000000000000000000000000000000000000000000000000003e
:200b5b00000000000000000000000000000000000006bc1000000001c8f0c0000058b00027
:160b7b00000000000000000000000018f25680002000015cf0c057
:200b91000000000000c3000000000000000000000000000000000000000000000000000081
:200bb10000000000000000000000000000000000000003c0000020000000f04000000a0007
:170bd100000000040000000000000000efede80004000001a0f000b0
:200be800000000000c30200000000000000000000000000000000000000000000000000091
:200c0800000000000000000000000000000380000007bc100e000001c8f0c038005800005f
:160c28000000e0100000000000000101fb36888e002001c8f0c0e4
:200c3e000000000000c30000000000000000000000000000000000000000000000000000d3
:200c5e0000000000000000000000000000002000000003c0008000000000f0020000000021
:170c7e00000008000000000000000008ab43d4008002c00000f0005b
:200c9500000000000c302000000000000000000000000000000000000000000000000000e3
:200cb5000000000000000000000000000000000000073c180000006548f0c0000011a102b3
:160cd50094000a0140000000000000007ac3800000366548f0c0da
:200ceb000000000000c3000000000000000000000000000000000000000000000000000026
:200d0b0000000000000000000000000000000000000003c0050000020200f00000050a906d
:170d2b000000004002000000000000100f3830000000420200f000b4
:200d4200000000000c30200000000000000000000000000000000000000000000000000035
:200d620000000000000000000000000000000008000000000000060548f0c00002501b6a8f
:160d820000080001400000000000081ebbc2000000060548f0c06c
:200d98000000000000c3000000000000000000000000000000000000000000000000000078
:200db8000000000000000000000000000000000010000000000000020200f00000000c10fb
:170dd80000000000022c000000000050a13c00000000020200f000b5
:200def00000000000c30200000000000000000000000000000000000000000000000000088
:200e0f000000000000000000000000000000000980033c1000000001e8f0c00080000520ad
:160e2f0000080010001ce0a000000501bb020000000001e8f0c09d
:200e45000000000000c30000000000000000000000000000000000000000000000000000ca
:200e650000000000000000000000000000000000100003c0000000000000f000100d0ed4ab
:170e8500200000008000100a00000050833000000000000000f000a9
:200e9c00000000000c302000000000000000000000000000000000000000000000000000da
:200ebc000000000000000000000000000000000981033c100000000168f0c00000518d7dc9
:160edc00680000034036aa1020000d8a07f0400000803968f0e086
:200ef2000000000000c300000000000000000000000000000000000000000000000000001d
:200f12000000000000000000000000000000000050a003c0000000000000f000000080b7e5
:170f3200c9400000240340a000000050053708000010040000f00000
:200f4900000000000c3020000000000000000000000000000000000000000000000000002c
:200f690000000000000000000000000000000000000000000000260168f0c00000300da844
:160f890030080002002fe0042000050a76a8008000060168f0c019
:200f9f000000000000c300000000000000000000000000000000000000000000000000006f
:200fbf000000000000000000000000000000000000a00000000000400200f0000000807c44
:170fdf00020000001c27d00880000090a94090010000000200f00062
:200ff600000000000c3020000000000000000000000000000000000000000000000000007f
:2010160000000000000000000000000000000007003f420040002061e8f0c04000108f33c7
:161036000d0cc000068000000000051b9a0f0084002061e8f0c0df
:20104c000000000000c30000000000000000000000000000000000000000000000000000c1
:20106c0000000000000000000000000000000000580fb800000000400200f0000000993446
:17108c0020c044000028000000000050a5c0b0004000400200f0002a
:2010a300000000000c302000000000000000000000000000000000000000000000000000d1
:2010c300000000000000000000000000000000000100000000000001c8f0c0000000003360
:1610e300c10000000646a0a00000501900000000000001c8f0c0c8
:2010f9000000000000c3000000000000000000000000000000000000000000000000000014
:201119000000000000000000000008000000000000800000000000000000f04000000004fa
:171139003c0000000028000a00000000a00000000080000000f0c061
:20115000000000000c30200000000000000000000000000000000000000000000000000023
:2011700000000000000000000000000000038008007729580e000061c8f0c03800000000bd
:161190000000e00160168000238005007ba5940e000001c8f0c08f
:2011a6000000000000c3000000000000000000000000000000000000000000000000000066
:2011c60000000000000000000000000000002000100d7e54008000040000f00a000000007c
:1711e600000008016428f00200200000008258048002400000f000bb
:2011fd00000000000c30200000000000000000000000000000000000000000000000000076
:20121d000000000000000000000000000000000000f2b0d00000006548f0c0300000003b77
:16123d00c100000206ac80f00000001ab686800000006548f0c083
:201253000000000000c30000000000000000000000000000000000000000000000000000b8
:201273000000000000000000000000000000010000a7e744800000020200f0030000000011
:171293003c000000142250050000000003f400000000020200f00092
:2012aa00000000000c302000000000000000000000000000000000000000000000000000c8
:2012ca0000000000000000000000000000000001000000000000360148f0c04000380073e9
:1612ea00c1000000e6bfa05480000519b690c08000066548f0c00d
:201300000000000000c300000000000000000000000000000000000000000000000000000a
:201320000000000000000000000000000000000008000000000000600200f00000008004cf
:171340003c000000022f60003880005195c108000000020200f0006e
:20135700000000000c3020000000000000000000000000000000000000000000000000001a
:20137700000000000000000000000000000000000072f0d000000001685540000000b00076
:16139700000000014005ea000000001b1f968080000001e8f0c0a7
:2013ad000000000000c300000000000000000000000000000000000000000000000000005d
:2013cd00000000000000000000000000000000009003e34480000002c005500000001f0090
:1713ed0000000000000030a000000050ad4004000000000000f000e8
:20140400000000000c3020000000000000000000000000000000000000000000000000006c
:2014240000000000000000000000000000000000010000000000002aeca0000000000033be
:16144400c10000000015880020000800b280000000000168f0c0c1
:20145a000000000000c30000000000000000000000000000000000000000000000000000af
:20147a000000000000000000000000000000000000a0000000000346ad000000000f0b049e
:17149a003c00000000036000000000500f6404000000000000f000e5
:2014b100000000000c302000000000000000000000000000000000000000000000000000bf
:2014d1000000000000000000000000000000000180000000000026001d2000000080800017
:1614f100000000000006b8000000018017c9400000260168f0c146
:201507000000000000c3000000000000000000000000000000000000000000000000000001
:201527000000000000000000000000000000000000a00000000000402dc1000000071000bf
:171547000000000000024b000000000009e860000000400200f000bd
:20155e00000000000c30200000000000000000000000000000000000000000000000000011
:20157e00000000000000000000000000000100058000000000000002fa5a001000000073ee
:16159e00c100000007018c00230005190783d00400200168554025
:2015b4000000000000c3000000000000000000000000000000000000000000000000000054
:2015d400000000000000000000000000000030000000000000000000260500070000000095
:1715f4003c000000006410c000300008a0403c244000400205500021
:20160b00000000000c30200000000000000000000000000000000000000000000000000063
:20162b0000000000000000000000000000000000190000000000002800000000800003fedd
:16164b000400000262b6a2400000018000000000000066ddf54090
:201661000000000000c30000000000000000000000000000000000000000000000000000a6
:20168100000000000000000000000000000000000080000000000006c0000000000000f310
:1716a100600000000e6e7d10000100000000000000000296bfb09031
:2016b800000000000c302000000000000000000000000000000000000000000000000000b6
:2016d80000000000000000000000000000038000000000000e0020016f04003800000b7a10
:1616f800040800c006e4ea72238000007e68580e0026005ce54034
:20170e000000000000c30000000000000000000000000000000000000000000000000000f8
:20172e00000000000000000000000000000020000000000000800042cfb0000200000e7cae
:17174e0030820000002b50e708200050013744208000402ecc0000a2
:20176500000000000c30200000000000000000000000000000000000000000000000000008
:20178500000000000000000000000000000000001817015000001405ee7f0200001187f2b2
:1617a500800000016040000000000000f3795800000002cca1409a
:2017bb000000000000c300000000000000000000000000000000000000000000000000004b
:2017db0000000000000000000000000000000000000982a8000000222f0a50000001090006
:1717fb0028002000002800000000000001bb00000000000ede20009f
:20181200000000000c3020000000000000000000000000000000000000000000000000005a
:201832000000000000000000000000000000000380ba494000002e3c5aa1420000500529ab
:1618520001000402001e81c08010038000000000001c64dce54086
:201868000000000000c300000000000000000000000000000000000000000000000000009d
:20188800000000000000000000000000000000000807f694000001e3ae07a00000008e5a86
:1718a800e0400020142c793c00000008000000000000022e9c000020
:2018bf00000000000c302000000000000000000000000000000000000000000000000000ad
:2018df0000000000000000000000000000000000007f015080001c624bc7400000000fa812
:1618ff00000000000056a850200001800000000000067ec9a140b6
:201915000000000000c30000000000000000000000000000000000000000000000000000ef
:20193500000000000000000000000000000000000009031400000022578c220000000ab889
:17195500014000000030108500000008000000000000020f8e2000ae
:20196c00000000000c302000000000000000000000000000000000000000000000000000ff
:20198c000000000000000000000000000000000518000000000020600000000100d007bc0a
:1619ac00000000140024ab5020000018000000000026007de540f2
:2019c2000000000000c3000000000000000000000000000000000000000000000000000042
:2019e2000000000000000000000000000000000000f00000000003c00000000000050a52d1
:171a0200e0000000000240bd0000000100000000000a602c8c0000cb
:201a1900000000000c30200000000000000000000000000000000000000000000000000051
:201a3900000000000000000000000000000000001c0000000000003f6ba540000018a8031f
:161a59009d0900086616bc10000000010000000000007a7aa140ab
:201a6f000000000000c3000000000000000000000000000000000000000000000000000094
:201a8f00000000000000000000000000000000000100000000000006959a6200000000306f
:171aaf0036c000010003f98100000000800000000000000dfd100012
:201ac600000000000c302000000000000000000000000000000000000000000000000000a4
:201ae6000000000000000000000000000001040800f2d8900c1000015bc34001401895e030
:161b0600280001000380ef30210401800000000c1004017da140d9
:201b1c000000000000c30000000000000000000000000000000000000000000000000000e6
:201b3c00000000000000000000000000000030001003f7040040000234de2080280598048e
:171b5c0002800000000000f30170000800000000c000002ebe2000b8
:201b7300000000000000000000000000000000000000000000000000000000000000000052
:201b930000000000000000000000000000000001819a814000000000000000000001c00094
:161bb300000000e00016000800000000000000000000000000001e
:201bc9000000000000000000000000000000000000000000000000000000000000000000fc
:201be900000000000000000000000000000000000091c0000000000000000000000010007b
:171c09000000000000002d0000000000d000000000000000000000c7
:201c20000000000000000000000000000000000000000000000000000000000000000000a4
:201c4000000000000000000000000000000380000a12b954800000041f10003800000000ed
:161c60000000e000001c8f0c03800800000000000000000000004c
:201c760000000000000000000000000000000000000000000000000000000000000000004e
:201c96000000000000000000000000000000200050018160000000027de2000200000a006f
:171cb600000008000000000f1120007000000000000000000000005f
:201ccd000000000000000000000000000000000000000000000000000000000000000000f7
:201ced00000000000000000000000000000000038000000000414603ee0a00000050a000e2
:161d0d000000000006548f0c0300000080295200000000000000cd
:201d23000000000000000000000000000000000000000000000000000000000000000000a0
:201d43000000000000000000000000000000000000a00000000208203d0000000000000079
:171d6300000000000020200f01100000070168000000000000000099
:201d7a00000000000000000000000000000000000000000000000000000000000000000049
:201d9a000000000000000000000000000000000100062800000000001f040000008001fb5b
:161dba00e880000140148f0c00000000073c100000000000000068
:201dd0000000000000000000000000000000000000000000000000000000000000000000f3
:201df00000000000000000000000000000000000000d0140200000003de08000000300982d
:171e10003c0040000020200f010000000043c02000000000000000cc
:201e270000000000000000000000000000000000000000000000000000000000000000009b
:201e4700000000000000000000000000000000000000000000000023ee000000000003f374
:161e6700e8000000001e8f0c0000000100000000000000000000c3
:201e7d00000000000000000000000000000000000000000000000000000000000000000045
:201e9d000000000000000000000000000000000000000000000000003d005080000000d444
:171ebd00140000000020000f08000000d000000000000000000000f3
:201ed4000000000000000000000000000000000000000000000000000000000000000000ee
:201ef4000000000000000000000000000000000000000000000000006a5a000000188d283d
:161f1400210a0000001e8f0c0000000100000000000000000000d2
:201f2a00000000000000000000000000000000000000000000000000000000000000000097
:201f4a000000000000000000000000000000000000000000000000002e05000000000058ec
:171f6a00090020000000000f08000000e00000000000000000000040
:201f8100000000000000000000000000000000000000000000000000000000000000000040
:201fa100000000000000000000000000000000000000000000000007ee0000000059b00022
:161fc10000000000601e85540000000000000000000000000000b3
:201fd7000000000000000000000000000000000000000000000000000000000000000000ea
:201ff7000000000000000000000000000000000000000000000080027d0a000000000a00b7
:17201700000000000000205508000000000000000000000000000035
:20202e00000000000000000000000000000000000000000000000000000000000000000092
:20204e0000000000000000000000000000010400000000000000206000000000401007385e
:16206e00700041026040000001040100023c1000000000000000b5
:2020840000000000000000000000000000000000000000000000000000000000000000003c
:2020a40000000000000000000000000000003000000000000000124400000000000080f620
:1720c4004f020c0004200000001000080043c0040000000000000065
:2020db000000000000000000000000000000000000000000000000000000000000000000e5
:2020fb000000000000000000000000000000000000000000000000000000000000000000c5
:16211b0000000000000000000000000000000000000000000000ae
:2021310000000000000000000000000000000000000000000000000000000000000000008e
:20311300000000000c30200000000000000000000000000000000000000000000000000040
:2031330000000000000000000000000000000000000000000000000000000000000000007c
:163153000000000000000000000000000000000000000000000066
:203169000000000000c3000000000000000000000000000000000000000000000000000083
:20318900000000000000000000000000000000000000000000000000000000000000000026
:1731a90000000000000000000000000000000000000000000000000f
:2031c000000000000c30200000000000000000000000000000000000000000000000000093
:2031e0000000000000000000000000000000000000000000000000000000000000000000cf
:1632000000000000000000000000000000000000000000000000b8
:203216000000000000c30000000000000000000000000000000000000000000000000000d5
:20323600000000000000000000000000000000000000000000000000000000000000000078
:17325600000000000000000000000000000000000000000000000061
:20326d00000000000c302000000000000000000000000000000000000000000000000000e5
:20328d00000000000000000000000000000000000000000000000000000000000000000021
:1632ad00000000000000000000000000000000000000000000000b
:2032c3000000000000c3000000000000000000000000000000000000000000000000000028
:2032e3000000000000000000000000000000000000000000000000000000000000000000cb
:173303000000000000000000000000000000000000000000000000b3
:20331a00000000000c30200000000000000000000000000000000000000000000000000037
:20333a00000000000000000000000000000000000000000000000000000000000000000073
:16335a00000000000000000000000000000000000000000000005d
:203370000000000000c300000000000000000000000000000000000000000000000000007a
:2033900000000000000000000000000000000000000000000000000000000000000000001d
:1733b000000000000000000000000000000000000000000000000006
:2033c700000000000c3020000000000000000000000000000000000000000000000000008a
:2033e7000000000000000000000000000000000000000000000000000000000000000000c6
:1634070000000000000000000000000000000000000000000000af
:20341d000000000000c30000000000000000000000000000000000000000000000000000cc
:20343d0000000000000000000000000000000000000000000000000000000000000000006f
:17345d00000000000000000000000000000000000000000000000058
:20347400000000000c302000000000000000000000000000000000000000000000000000dc
:20349400000000000000000000000000000000000000000000000000000000000000000018
:1634b4000000000000000000000000000000000000000000000002
:2034ca000000000000c300000000000000000000000000000000000000000000000000001f
:2034ea000000000000000000000000000000000000000000000000000000000000000000c2
:17350a000000000000000000000000000000000000000000000000aa
:20352100000000000c3020000000000000000000000000000000000000000000000000002e
:2035410000000000000000000000000000000000000000000000000000000000000000006a
:163561000000000000000000000000000000000000000000000054
:203577000000000000c3000000000000000000000000000000000000000000000000000071
:20359700000000000000000000000000000000000000000000000000000000000000000014
:1735b7000000000000000000000000000000000000000000000000fd
:2035ce00000000000c30200000000000000000000000000000000000000000000000000081
:2035ee000000000000000000000000000000000000000000000000000000000000000000bd
:16360e0000000000000000000000000000000000000000000000a6
:203624000000000000c30000000000000000000000000000000000000000000000000000c3
:20364400000000000000000000000000000000000000000000000000000000000000000066
:1736640000000000000000000000000000000000000000000000004f
:20367b0000000000000000000000000000000000000000000000000000000000000000002f
:20369b0000000000000000000000000000000000000000000000000000000000000000000f
:204c1b00000000000c3020000000000000000000000000000000000000000000000000001d
:204c3b00000000000000000000000000000000000000000000000000000000000000000059
:164c5b000000000000000000000000000000000000000000000043
:204c71000000000000c3000000000000000000000000000000000000000000000000000060
:204c9100000000000000000000000000000000000000000000000000000000000000000003
:174cb1000000000000000000000000000000000000000000000000ec
:204cc800000000000c30200000000000000000000000000000000000000000000000000070
:204ce8000000000000000000000000000000000000000000000000000000000000000000ac
:164d08000000000000000000000000000000000000000000000095
:204d1e000000000000c30000000000000000000000000000000000000000000000000000b2
:204d3e00000000000000000000000000000000000000000000000000000000000000000055
:174d5e0000000000000000000000000000000000000000000000003e
:204d7500000000000c302000000000000000000000000000000000000000000000000000c2
:204d95000000000000000000000000000000000000000000000000000000000000000000fe
:164db50000000000000000000000000000000000000000000000e8
:204dcb000000000000c3000000000000000000000000000000000000000000000000000005
:204deb000000000000000000000000000000000000000000000000000000000000000000a8
:174e0b00000000000000000000000000000000000000000000000090
:204e2200000000000c30200000000000000000000000000000000000000000000000000014
:204e4200000000000000000000000000000000000000000000000000000000000000000050
:164e6200000000000000000000000000000000000000000000003a
:204e78000000000000c3000000000000000000000000000000000000000000000000000057
:204e98000000000000000000000000000000000000000000000000000000000000000000fa
:174eb8000000000000000000000000000000000000000000000000e3
:204ecf00000000000c30200000000000000000000000000000000000000000000000000067
:204eef000000000000000000000000000000000000000000000000000000000000000000a3
:164f0f00000000000000000000000000000000000000000000008c
:204f25000000000000c30000000000000000000000000000000000000000000000000000a9
:204f450000000000000000000000000000000000000000000000000000000000000000004c
:174f6500000000000000000000000000000000000000000000000035
:204f7c00000000000c302000000000000000000000000000000000000000000000000000b9
:204f9c000000000000000000000000000000000000000000000000000000000000000000f5
:164fbc0000000000000000000000000000000000000000000000df
:204fd2000000000000c30000000000000000000000000000000000000000000000000000fc
:204ff20000000000000000000000000000000000000000000000000000000000000000009f
:17501200000000000000000000000000000000000000000000000087
:20502900000000000c3020000000000000000000000000000000000000000000000000000b
:20504900000000000000000000000000000000000000000000000000000000000000000047
:165069000000000000000000000000000000000000000000000031
:20507f000000000000c300000000000000000000000000000000000000000000000000004e
:20509f000000000000000000000000000000000000000000000000000000000000000000f1
:1750bf000000000000000000000000000000000000000000000000da
:2050d600000000000c3020000000000000000000000000000000000000000000000000005e
:2050f60000000000000000000000000000000000000000000000000000000000000000009a
:165116000000000000000000000000000000000000000000000083
:20512c000000000000c30000000000000000000000000000000000000000000000000000a0
:20514c00000000000000000000000000000000000000000000000000000000000000000043
:17516c0000000000000000000000000000000000000000000000002c
:2051830000000000000000000000000000000000000000000000000000000000000000000c
:2051a3000000000000000000000000000000000000000000000000000000000000000000ec
:20672300000000000c302000000000000000000000000000000000000000000000000000fa
:20674300000000000000000000000000000000000000000000000000000000000000000036
:166763000000000000000000000000000000000000000000000020
:206779000000000000c300000000000000000000000000000000000000000000000000003d
:206799000000000000000000000000000000000000000000000000000000000000000000e0
:1767b9000000000000000000000000000000000000000000000000c9
:2067d000000000000c3020000000000000000000000000000000000000000000000000004d
:2067f000000000000000000000000000000000000000000000000000000000000000000089
:166810000000000000000000000000000000000000000000000072
:206826000000000000c300000000000000000000000000000000000000000000000000008f
:20684600000000000000000000000000000000000000000000000000000000000000000032
:1768660000000000000000000000000000000000000000000000001b
:20687d00000000000c3020000000000000000000000000000000000000000000000000009f
:20689d000000000000000000000000000000000000000000000000000000000000000000db
:1668bd0000000000000000000000000000000000000000000000c5
:2068d3000000000000c30000000000000000000000000000000000000000000000000000e2
:2068f300000000000000000000000000000000000000000000000000000000000000000085
:1769130000000000000000000000000000000000000000000000006d
:20692a00000000000c302000000000000000000000000000000000000000000000000000f1
:20694a0000000000000000000000000000000000000000000000000000000000000000002d
:16696a000000000000000000000000000000000000000000000017
:206980000000000000c3000000000000000000000000000000000000000000000000000034
:2069a0000000000000000000000000000000000000000000000000000000000000000000d7
:1769c0000000000000000000000000000000000000000000000000c0
:2069d700000000000c30200000000000000000000000000000000000000000000000000044
:2069f700000000000000000000000000000000000000000000000000000000000000000080
:166a17000000000000000000000000000000000000000000000069
:206a2d000000000000c3000000000000000000000000000000000000000000000000000086
:206a4d00000000000000000000000000000000000000000000000000000000000000000029
:176a6d00000000000000000000000000000000000000000000000012
:206a8400000000000c30200000000000000000000000000000000000000000000000000096
:206aa4000000000000000000000000000000000000000000000000000000000000000000d2
:166ac40000000000000000000000000000000000000000000000bc
:206ada000000000000c30000000000000000000000000000000000000000000000000000d9
:206afa0000000000000000000000000000000000000000000000000000000000000000007c
:176b1a00000000000000000000000000000000000000000000000064
:206b3100000000000c302000000000000000000000000000000000000000000000000000e8
:206b5100000000000000000000000000000000000000000000000000000000000000000024
:166b7100000000000000000000000000000000000000000000000e
:206b87000000000000c300000000000000000000000000000000000000000000000000002b
:206ba7000000000000000000000000000000000000000000000000000000000000000000ce
:176bc7000000000000000000000000000000000000000000000000b7
:206bde00000000000c3020000000000000000000000000000000000000000000000000003b
:206bfe00000000000000000000000000000000000000000000000000000000000000000077
:166c1e000000000000000000000000000000000000000000000060
:206c34000000000000c300000000000000000000000000000000000000000000000000007d
:206c5400000000000000000000000000000000000000000000000000000000000000000020
:176c7400000000000000000000000000000000000000000000000009
:206c8b00000000000c3020000000000000000000000000000000000000000000000000008d
:206cab000000000000000000000000000000000000000000000000000000000000000000c9
:166ccb0000000000000000000000000000000000000000000000b3
:206ce1000000000000c30000000000000000000000000000000000000000000000000000d0
:206d0100000000000000000000000000000000000000000000000000000000000000000072
:176d210000000000000000000000000000000000000000000000005b
:206d3800000000000c302000000000000000000000000000000000000000000000000000df
:206d580000000000000000000000000000000000000000000000000000000000000000001b
:166d78000000000000000000000000000000000000000000000005
:206d8e000000000000c3000000000000000000000000000000000000000000000000000022
:206dae000000000000000000000000000000000000000000000000000000000000000000c5
:176dce000000000000000000000000000000000000000000000000ae
:206de500000000000c30200000000000000000000000000000000000000000000000000032
:206e050000000000000000000000000000000000000000000000000000000000000000006d
:166e25000000000000000000000000000000000000000000000057
:206e3b000000000000c3000000000000000000000000000000000000000000000000000074
:206e5b00000000000000000000000000000000000000000000000000000000000000000017
:176e7b00000000000000000000000000000000000000000000000000
:206e9200000000000c30200000000000000000000000000000000000000000000000000084
:206eb2000000000000000000000000000000000000000000000000000000000000000000c0
:166ed20000000000000000000000000000000000000000000000aa
:206ee8000000000000c30000000000000000000000000000000000000000000000000000c7
:206f0800000000000000000000000000000000000000000000000000000000000000000069
:176f2800000000000000000000000000000000000000000000000052
:206f3f00000000000c302000000000000000000000000000000000000000000000000000d6
:206f5f00000000000000000000000000000000000000000000000000000000000000000012
:166f7f0000000000000000000000000000000000000000000000fc
:206f95000000000000c3000000000000000000000000000000000000000000000000000019
:206fb5000000000000000000000000000000000000000000000000000000000000000000bc
:176fd5000000000000000000000000000000000000000000000000a5
:206fec00000000000c30200000000000000000000000000000000000000000000000000029
:20700c00000000000000000000000000000000000000000000000000000000000000000064
:16702c00000000000000000000000000000000000000000000004e
:207042000000000000c300000000000000000000000000000000000000000000000000006b
:2070620000000000000000000000000000000000000000000000000000000000000000000e
:177082000000000000000000000000000000000000000000000000f7
:20709900000000000c3020000000000000000000000000000000000000000000000000007b
:2070b9000000000000000000000000000000000000000000000000000000000000000000b7
:1670d90000000000000000000000000000000000000000000000a1
:2070ef000000000000c30000000000000000000000000000000000000000000000000000be
:20710f00000000000000000000000000000000000000000000000000000000000000000060
:17712f00000000000000000000000000000000000000000000000049
:20714600000000000c302000000000000000000000000000000000000000000000000000cd
:20716600000000000000000000000000000000000000000000000000000000000000000009
:1671860000000000000000000000000000000000000000000000f3
:20719c000000000000c3000000000000000000000000000000000000000000000000000010
:2071bc000000000000000000000000000000000000000000000000000000000000000000b3
:1771dc0000000000000000000000000000000000000000000000019b
:0271f30000009a
:0371f5007200b075
:0271f800110183
:0271fa00010191
:2071fc0000000000000000000000001000000000000040000000000001000000000000041e
:20721c000000000000001000000000000040000000001000000000000040000000000001b1
:16723c0000000000000004000000000000100000000000004000e8
:207252000000000000000000000000020000000000000800000000000020000000000000f2
:20727200800000000000020000000000000800000000020000000000000000000000000070
:1772920020000000000000800000000000020000000000000800003b
:2072a9000000000000000000000000000000000000000000000000000000000000000000c5
:2072c9000000000000000000000000000000000000000000000000000000000000000000a5
:1672e900000000000000000000000000000000004000000000004f
:2072ff0000000000000000000000000000000000000000000000000000000000000000006f
:20731f0000000000000000000000000000000000000000000000000000000000000000004e
:17733f00000000000000000000000000000000000000000004000033
:20735600000000000000000000000000000000000000000000000000000000000000000017
:207376000000000000000000000000000000000000000000000000000000000000000000f7
:1673960000000000000000000000000000000000000000000000e1
:2073ac000000000000000000000000000000000000000000000000000000000000000000c1
:2073cc000000000000000000000000000000000000000000000000000000000000000000a1
:1773ec0000000000000000000000000000000000000000000000008a
:20740300000000000000000000000000000000000000000000000000000000000000000069
:20742300000000000000000000000000000000000000000000000000000000000000000049
:167443000000000000000000000000000000000000000100000032
:20745900000000000000000000000000000000000000000000000000000000000000000013
:207479000000000000000000000000000000000000000000000000000000000000000000f3
:177499000000000000000000000000000000000000000000000000dc
:2074b0000000000000000000000000000000000000000000000000000000000000000000bc
:2074d00000000000000000000000000000000000000000000000000000400000000000005c
:1674f0000000000000000000000000000000000000000200000084
:20750600000000000000000000000000000000000000000000000000000000000000000065
:20752600000000000000000000000000000000000000000000000000000000000000000045
:1775460000000000000000000000000000000000000000000000002e
:20755d0000000000000000000000000000000000000000000000000000000000000000000e
:20757d000000000000000000000000000000000000000000000000000000000000000000ee
:16759d0000000000000000000000000000000000000000000000d8
:2075b3000000000000000000000000000000000000000000000000000000000000000000b8
:2075d300000000000000000000000000000000000000000000080000000000000000000090
:1775f300000000000000000000000000000000000000000000000081
:20760a00000000000000000000000000000000000000000000000000000000000000000060
:20762a00000000000000000000000000000000000000000000000000000000000000000040
:16764a00000000000000000000000000000000000000000000002a
:2076600000000000000000000000000000000000000000000000000000000000000000000a
:207680000000000000000000000000000000000000000000000400000000000000000000e6
:1776a0000000000000000000000000000000000000000000000000d3
:2076b7000000000000000000000000000000000000000000000000000000000000000000b3
:2076d700000000000000000000000000000000000000000000000001000000000000000092
:1676f700000000000000000000000000000000000000000000007d
:20770d0000000000000000000000000000000000000000000000000000000000000000005c
:20772d00000000000000000000000000000000000000000000080000000000000000000034
:17774d00000000000000000000000000000000000000000000000025
:20776400000000000c300000000000000000000000000000000000000000000000000000c9
:207784000000000000000000000000000000000000000000000000000000000000000000e5
:1677a40000000000000000000000000000000000000000000000cf
:2077ba000000000000c30200000000000000000000000000000000000000000000000000ea
:2077da0000000000000000000000000000000000000000000000000000000000000000008f
:1777fa00000000000000000000000000000000000000000000000078
:20781100000000000c3000000000000000000000000000000000000000000000000000001b
:20783100000000000000000000000000000000000000000000000000000000000000000037
:167851000000000000000000000000000000000000000000000021
:207867000000000000c302000000000000000000000000000000000000000000000000003c
:207887000000000000000000000000000000000000000000000000000000000000000000e1
:1778a7000000000000000000000000000000000000000000000000ca
:2078be00000000000c3000000000000000000000000000000000000000000000000000006e
:2078de0000000000000000000000000000000000000000000000000000000000000000008a
:1678fe000000000000000000000000000000000000000000000074
:207914000000000000c302000000000000000000000000000000000000000000000000008e
:20793400000000000000000000000000000000000000000000000000000000000000000033
:1779540000000000000000000000000000000000000000000000001c
:20796b00000000000c300000000000000000000000000000000000000000000000000000c0
:20798b000000000000000000000000000000000000000000000000000000000000000000dc
:1679ab0000000000000000000000000000000000000000000000c6
:2079c1000000000000c30200000000000000000000000000000000000000000000000000e1
:2079e100000000000000000000000000000000000000000000000000000000000000000086
:177a010000000000000000000000000000000000000000000000006e
:207a1800000000000c30000000000000000000000000000000000000000000000000000012
:207a380000000000000000000000000000000000000000000000000000000000000000002e
:167a58000000000000000000000000000000000000000000000018
:207a6e000000000000c3020000000000000000000000000000000000000000000000000033
:207a8e000000000000000000000000000000000000000000000000000000000000000000d8
:177aae000000000000000000000000000000000000000000000000c1
:207ac500000000000c30000000000000000000000000000000000000000000000000000065
:207ae500000000000000000000000000000000000000000000000000000000000000000081
:167b0500000000000000000000000000000000000000000000006a
:207b1b000000000000c3020000000000000000000000000000000000000000000000000085
:207b3b0000000000000000000000000000000000000000000000000000000000000000002a
:177b5b00000000000000000000000000000000000000000000000013
:207b7200000000000c300000000000000000000000000000000000000000000000000000b7
:207b92000000000000000000000000000000000000000000000000000000000000000000d3
:167bb20000000000000000000000000000000000000000000000bd
:207bc8000000000000c30200000000000000000000000000000000000000000000000000d8
:207be80000000000000000000000000000000000000000000000000000000000000000007d
:177c0800000000000000000000000000000000000000000000000065
:207c1f00000000000c30000000000000000000000000000000000000000000000000000009
:207c3f00000000000000000000000000000000000000000000000000000000000000000025
:167c5f00000000000000000000000000000000000000000000000f
:207c75000000000000c302000000000000000000000000000000000000000000000000002a
:207c95000000000000000000000000000000000000000000000000000000000000000000cf
:177cb5000000000000000000000000000000000000000000000000b8
:207ccc00000000000c3000000000000000000000000000000000000000000000000000005c
:207cec00000000000000000000000000000000000000000000000000000000000000000078
:167d0c000000000000000000000000000000000000000000000061
:207d22000000000000c302000000000000000000000000000000000000000000000000007c
:207d4200000000000000000000000000000000000000000000000000000000000000000021
:177d620000000000000000000000000000000000000000000000000a
:207d7900000000000c300000000000000000000000000000000000000000000000000000ae
:207d99000000000000000000000000000000000000000000000000000000000000000000ca
:167db90000000000000000000000000000000000000000000000b4
:207dcf000000000000c30200000000000000000000000000000000000000000000000000cf
:207def00000000000000000000000000000000000000000000000000000000000000000074
:177e0f0000000000000000000000000000000000000000000000005c
:207e2600000000000c30000000000000000000000000000000000000000000000000000000
:207e460000000000000000000000000000000000000000000000000000000000000000001c
:167e66000000000000000000000000000000000000000000000006
:207e7c000000000000c3020000000000000000000000000000000000000000000000000021
:207e9c000000000000000000000000000000000000000000000000000000000000000000c6
:177ebc000000000000000000000000000000000000000000000000af
:207ed300000000000c30000000000000000000000000000000000000000000000000000053
:207ef30000000000000000000000000000000000000000000000000000000000000000006f
:167f13000000000000000000000000000000000000000000000058
:207f29000000000000c3020000000000000000000000000000000000000000000000000073
:207f4900000000000000000000000000000000000000000000000000000000000000000018
:177f6900000000000000000000000000000000000000000000000001
:207f8000000000000c300000000000000000000000000000000000000000000000000000a5
:207fa0000000000000000000000000000000000000000000000000000000000000000000c1
:167fc00000000000000000000000000000000000000000000000ab
:207fd6000000000000c30200000000000000000000000000000000000000000000000000c6
:207ff60000000000000000000000000000000000000000000000000000000000000000006b
:17801600000000000000000000000000000000000000000000000053
:20802d00000000000c300000000000000000000000000000000000000000000000000000f7
:20804d00000000000000000000000000000000000000000000000000000000000000000013
:16806d0000000000000000000000000000000000000000000000fd
:208083000000000000c3020000000000000000000000000000000000000000000000000018
:2080a3000000000000000000000000000000000000000000000000000000000000000000bd
:1780c3000000000000000000000000000000000000000000000000a6
:2080da00000000000c3000000000000000000000000000000000000000000000000000004a
:2080fa00000000000000000000000000000000000000000000000000000000000000000066
:16811a00000000000000000000000000000000000000000000004f
:208130000000000000c302000000000000000000000000000000000000000000000000006a
:2081500000000000000000000000000000000000000000000000000000000000000000000f
:178170000000000000000000000000000000000000000000000000f8
:20818700000000000c3000000000000000000000000000000000000000000000000000009c
:2081a7000000000000000000000000000000000000000000000000000000000000000000b8
:1681c70000000000000000000000000000000000000000000000a2
:2081dd000000000000c30200000000000000000000000000000000000000000000000000bd
:2081fd00000000000000000000000000000000000000000000000000000000000000000062
:17821d0000000000000000000000000000000000000000000000004a
:20823400000000000c300000000000000000000000000000000000000000000000000000ee
:2082540000000000000000000000000000000000000000000000000000000000000000000a
:1682740000000000000000000000000000000000000000000000f4
:20828a000000000000c302000000000000000000000000000000000000000000000000000f
:2082aa000000000000000000000000000000000000000000000000000000000000000000b4
:1782ca0000000000000000000000000000000000000000000000009d
:2082e100000000000c30000000000000000000000000000000000000000000000000000041
:2083010000000000000000000000000000000000000000000000000000000000000000005c
:168321000000000000000000000000000000000000000000000046
:208337000000000000c3020000000000000000000000000000000000000000000000000061
:20835700000000000000000000000000000000000000000000000000000000000000000006
:178377000000000000000000000000000000000000000000000000ef
:20838e00000000000c30000000000000000000000000000000000000000000000000000093
:2083ae000000000000000000000000000000000000000000000000000000000000000000af
:1683ce000000000000000000000000000000000000000000000099
:2083e4000000000000c30200000000000000000000000000000000000000000000000000b4
:20840400000000000000000000000000000000000000000000000000000000000000000058
:17842400000000000000000000000000000000000000000000000041
:20843b00000000000c300000000000000000000000000000000000000000000000000000e5
:20845b00000000000000000000000000000000000000000000000000000000000000000001
:16847b0000000000000000000000000000000000000000000000eb
:208491000000000000c3020000000000000000000000000000000000000000000000000006
:2084b1000000000000000000000000000000000000000000000000000000000000000000ab
:1784d100000000000000000000000000000000000000000000000094
:2084e800000000000c30000000000000000000000000000000000000000000000000000038
:20850800000000000000000000000000000000000000000000000000000000000000000053
:16852800000000000000000000000000000000000000000000003d
:20853e000000000000c3020000000000000000000000000000000000000000000000000058
:20855e000000000000000000000000000000000000000000000000000000000000000000fd
:17857e000000000000000000000000000000000000000000000000e6
:20859500000000000c3000000000000000000000000000000000000000000000000000008a
:2085b5000000000000000000000000000000000000000000000000000000000000000000a6
:1685d5000000000000000000000000000000000000000000000090
:2085eb000000000000c30200000000000000000000000000000000000000000000000000ab
:20860b0000000000000000000000000000000000000000000000000000000000000000004f
:17862b00000000000000000000000000000000000000000000000038
:20864200000000000c300000000000000000000000000000000000000000000000000000dc
:208662000000000000000000000000000000000000000000000000000000000000000000f8
:1686820000000000000000000000000000000000000000000000e2
:208698000000000000c30200000000000000000000000000000000000000000000000000fd
:2086b8000000000000000000000000000000000000000000000000000000000000000000a2
:1786d80000000000000000000000000000000000000000000000008b
:2086ef00000000000c3000000000000000000000000000000000000000000000000000002f
:20870f0000000000000000000000000000000000000000000000000000000000000000004a
:16872f000000000000000000000000000000000000000000000034
:208745000000000000c302000000000000000000000000000000000000000000000000004f
:208765000000000000000000000000000000000000000000000000000000000000000000f4
:178785000000000000000000000000000000000000000000000000dd
:20879c00000000000c30000000000000000000000000000000000000000000000000000081
:2087bc0000000000000000000000000000000000000000000000000000000000000000009d
:1687dc000000000000000000000000000000000000000000000087
:2087f2000000000000c30200000000000000000000000000000000000000000000000000a2
:20881200000000000000000000000000000000000000000000000000000000000000000046
:1788320000000000000000000000000000000000000000000000002f
:20884900000000000c300000000000000000000000000000000000000000000000000000d3
:208869000000000000000000000000000000000000000000000000000000000000000000ef
:1688890000000000000000000000000000000000000000000000d9
:20889f000000000000c30200000000000000000000000000000000000000000000000000f4
:2088bf00000000000000000000000000000000000000000000000000000000000000000099
:1788df00000000000000000000000000000000000000000000000082
:2088f600000000000c30000000000000000000000000000000000000000000000000000026
:20891600000000000000000000000000000000000000000000000000000000000000000041
:16893600000000000000000000000000000000000000000000002b
:20894c000000000000c3020000000000000000000000000000000000000000000000000046
:20896c000000000000000000000000000000000000000000000000000000000000000000eb
:17898c000000000000000000000000000000000000000000000000d4
:2089a300000000000c30000000000000000000000000000000000000000000000000000078
:2089c300000000000000000000000000000000000000000000000000000000000000000094
:1689e300000000000000000000000000000000000000000000007e
:2089f9000000000000c3020000000000000000000000000000000000000000000000000099
:208a190000000000000000000000000000000000000000000000000000000000000000003d
:178a3900000000000000000000000000000000000000000000000026
:208a5000000000000c300000000000000000000000000000000000000000000000000000ca
:208a70000000000000000000000000000000000000000000000000000000000000000000e6
:168a900000000000000000000000000000000000000000000000d0
:208aa6000000000000c30200000000000000000000000000000000000000000000000000eb
:208ac600000000000000000000000000000000000000000000000000000000000000000090
:178ae600000000000000000000000000000000000000000000000079
:208afd00000000000c3000000000000000000000000000000000000000000000000000001d
:208b1d00000000000000000000000000000000000000000000000000000000000000000038
:168b3d000000000000000000000000000000000000000000000022
:208b53000000000000c302000000000000000000000000000000000000000000000000003d
:208b73000000000000000000000000000000000000000000000000000000000000000000e2
:178b93000000000000000000000000000000000000000000000000cb
:208baa00000000000c3000000000000000000000000000000000000000000000000000006f
:208bca0000000000000000000000000000000000000000000000000000000000000000008b
:168bea000000000000000000000000000000000000000000000075
:208c00000000000000c302000000000000000000000000000000000000000000000000008f
:208c2000000000000000000000000000000000000000000000000000000000000000000034
:178c400000000000000000000000000000000000000000000000001d
:208c5700000000000c300000000000000000000000000000000000000000000000000000c1
:208c77000000000000000000000000000000000000000000000000000000000000000000dd
:168c970000000000000000000000000000000000000000000000c7
:208cad000000000000c30200000000000000000000000000000000000000000000000000e2
:208ccd00000000000000000000000000000000000000000000000000000000000000000087
:178ced00000000000000000000000000000000000000000000000070
:208d040000000000000000000000000000000000000000000000000000000000000000004f
:208d240000000000000000000000000000000000000000000000000000000000000000002f
:20a2a400000000000c3000000000000000000000000000000000000000000000000000005e
:20a2c40000000000000000000000000000000000000000000000000000000000000000007a
:16a2e4000000000000000000000000000000000000000000000064
:20a2fa000000000000c302000000000000000000000000000000000000000000000000007f
:20a31a00000000000000000000000000000000000000000000000000000000000000000023
:17a33a0000000000000000000000000000000000000000000000000c
:20a35100000000000c300000000000000000000000000000000000000000000000000000b0
:20a371000000000000000000000000000000000000000000000000000000000000000000cc
:16a3910000000000000000000000000000000000000000000000b6
:20a3a7000000000000c30200000000000000000000000000000000000000000000000000d1
:20a3c700000000000000000000000000000000000000000000000000000000000000000076
:17a3e70000000000000000000000000000000000000000000000005f
:20a3fe00000000000c30000000000000000000000000000000000000000000000000000003
:20a41e0000000000000000000000000000000000000000000000000000000000000000001e
:16a43e000000000000000000000000000000000000000000000008
:20a454000000000000c3020000000000000000000000000000000000000000000000000023
:20a474000000000000000000000000000000000000000000000000000000000000000000c8
:17a494000000000000000000000000000000000000000000000000b1
:20a4ab00000000000c30000000000000000000000000000000000000000000000000000055
:20a4cb00000000000000000000000000000000000000000000000000000000000000000071
:16a4eb00000000000000000000000000000000000000000000005b
:20a501000000000000c3020000000000000000000000000000000000000000000000000075
:20a5210000000000000000000000000000000000000000000000000000000000000000001a
:17a54100000000000000000000000000000000000000000000000003
:20a55800000000000c300000000000000000000000000000000000000000000000000000a7
:20a578000000000000000000000000000000000000000000000000000000000000000000c3
:16a5980000000000000000000000000000000000000000000000ad
:20a5ae000000000000c30200000000000000000000000000000000000000000000000000c8
:20a5ce0000000000000000000000000000000000000000000000000000000000000000006d
:17a5ee00000000000000000000000000000000000000000000000056
:20a60500000000000c300000000000000000000000000000000000000000000000000000f9
:20a62500000000000000000000000000000000000000000000000000000000000000000015
:16a6450000000000000000000000000000000000000000000000ff
:20a65b000000000000c302000000000000000000000000000000000000000000000000001a
:20a67b000000000000000000000000000000000000000000000000000000000000000000bf
:17a69b000000000000000000000000000000000000000000000000a8
:20a6b200000000000c3000000000000000000000000000000000000000000000000000004c
:20a6d200000000000000000000000000000000000000000000000000000000000000000068
:16a6f2000000000000000000000000000000000000000000000052
:20a708000000000000c302000000000000000000000000000000000000000000000000006c
:20a72800000000000000000000000000000000000000000000000000000000000000000011
:17a748000000000000000000000000000000000000000000000000fa
:20a75f00000000000c3000000000000000000000000000000000000000000000000000009e
:20a77f000000000000000000000000000000000000000000000000000000000000000000ba
:16a79f0000000000000000000000000000000000000000000000a4
:20a7b5000000000000c30200000000000000000000000000000000000000000000000000bf
:20a7d500000000000000000000000000000000000000000000000000000000000000000064
:17a7f50000000000000000000000000000000000000000000000004d
:20a80c00000000000c300000000000000000000000000000000000000000000000000000f0
:20a82c0000000000000000000000000000000000000000000000000000000000000000000c
:16a84c0000000000000000000000000000000000000000000000f6
:20a862000000000000c3020000000000000000000000000000000000000000000000000011
:20a882000000000000000000000000000000000000000000000000000000000000000000b6
:17a8a20000000000000000000000000000000000000000000000009f
:20a8b900000000000c30000000000000000000000000000000000000000000000000000043
:20a8d90000000000000000000000000000000000000000000000000000000000000000005f
:16a8f9000000000000000000000000000000000000000000000049
:20a90f000000000000c3020000000000000000000000000000000000000000000000000063
:20a92f00000000000000000000000000000000000000000000000000000000000000000008
:17a94f000000000000000000000000000000000000000000000000f1
:20a96600000000000c30000000000000000000000000000000000000000000000000000095
:20a986000000000000000000000000000000000000000000000000000000000000000000b1
:16a9a600000000000000000000000000000000000000000000009b
:20a9bc000000000000c30200000000000000000000000000000000000000000000000000b6
:20a9dc0000000000000000000000000000000000000000000000000000000000000000005b
:17a9fc00000000000000000000000000000000000000000000000044
:20aa1300000000000c300000000000000000000000000000000000000000000000000000e7
:20aa3300000000000000000000000000000000000000000000000000000000000000000003
:16aa530000000000000000000000000000000000000000000000ed
:20aa69000000000000c3020000000000000000000000000000000000000000000000000008
:20aa89000000000000000000000000000000000000000000000000000000000000000000ad
:17aaa900000000000000000000000000000000000000000000000096
:20aac000000000000c3000000000000000000000000000000000000000000000000000003a
:20aae000000000000000000000000000000000000000000000000000000000000000000056
:16ab0000000000000000000000000000000000000000000000003f
:20ab16000000000000c302000000000000000000000000000000000000000000000000005a
:20ab36000000000000000000000000000000000000000000000000000000000000000000ff
:17ab56000000000000000000000000000000000000000000000000e8
:20ab6d00000000000c3000000000000000000000000000000000000000000000000000008c
:20ab8d000000000000000000000000000000000000000000000000000000000000000000a8
:16abad000000000000000000000000000000000000000000000092
:20abc3000000000000c30200000000000000000000000000000000000000000000000000ad
:20abe300000000000000000000000000000000000000000000000000000000000000000052
:17ac030000000000000000000000000000000000000000000000003a
:20ac1a00000000000c300000000000000000000000000000000000000000000000000000de
:20ac3a000000000000000000000000000000000000000000000000000000000000000000fa
:16ac5a0000000000000000000000000000000000000000000000e4
:20ac70000000000000c30200000000000000000000000000000000000000000000000000ff
:20ac90000000000000000000000000000000000000000000000000000000000000000000a4
:17acb00000000000000000000000000000000000000000000000008d
:20acc700000000000c30000000000000000000000000000000000000000000000000000031
:20ace70000000000000000000000000000000000000000000000000000000000000000004d
:16ad07000000000000000000000000000000000000000000000036
:20ad1d000000000000c3020000000000000000000000000000000000000000000000000051
:20ad3d000000000000000000000000000000000000000000000000000000000000000000f6
:17ad5d000000000000000000000000000000000000000000000000df
:02ad74000000dd
:03ad760072015017
:02ad79001102c5
:02ad7b000101d4
:20ad7d0000000000000000000200000000000008000000000000000000001000008000001c
:20ad9d000000000200000000008000000000000200000000000008000000000000200000ea
:16adbd000000000080006800000002000000000000000000000492
:20add30000000000000000000010000000000000400000000000010000000000000400000b
:20adf3000000000010000000000400000000000010000000000000400000000000000000dc
:17ae13000000000000000400000000100000000000004000000000d4
:20ae2a000000000000000000000000000000000000000000000000000000200000000000e8
:20ae4a000000000000000000000000000000000000000000000000000000000000000000e8
:16ae6a0000000000000000000000000000000000000000000008ca
:20ae80000000000000000000000000000000000000000000000002000000000000000000b0
:20aea000000000000000000000000000000000000000000000000000000000000000000092
:17aec0000000000000000000000000000000000000008000000000fb
:20aed700000000000000000000000000000000000000000000000800000010000000000043
:20aef70000000000000000000000000000000000000000000000000000000000000000003b
:16af17000000000000000000000000000000000000000000000420
:20af2d000000000000000000000000000000000000000000000000c0000000000000000044
:20af4d000000000000000000000000000000000000000000000000000000000000000000e4
:17af6d000000000000000000000000000000000000002000000000ad
:20af84000000000000000000000000000000000000000000000000000000000000000000ad
:20afa40000000000000000000000000000000000000000000000000000000000000000008d
:16afc4000000000000000000000000000000000000000000000077
:20afda00000000000000000000000000000000000000000000000000000000000000000057
:20affa00000000000000000000000000000000000000000000000000000000000000000037
:17b01a0000000000000000000000000000000000000000000000001f
:20b031000000000000000000000000000000000000000000000000041c00000000000000df
:20b051000000000000000000000000000000000000000000000000000000000000200000bf
:16b071000000000080000000000000000000000000010100000047
:20b087000000000000000000000000000000000000000000000000000000000000000000a9
:20b0a700000000000000000000000000000000000000000000000000000000000000000089
:17b0c700000000000000000000000000000000000000000000000072
:20b0de00000000000000000000000000000000000000000000000000000000000000000052
:20b0fe00000000000000000000000000000000000000000000000000000000000008000e1c
:16b11e0000000000300000000000000000000000000000000000eb
:20b134000000000000000000000000000000000000000000000000000000000000000000fb
:20b1540000000000000000000000000000000000000000000000000000000000000080005b
:17b174001001000003000000040000000000000000000000000000ac
:20b18b000000000000000000000000000000000000000000000000000000000000000000a4
:20b1ab00000000000000000000000000000000000000000000000000000000000000000084
:16b1cb00000000000000000000000000000000000000000000006e
:20b1e10000000000000000000000000000000000000000000000000000000000000000004e
:20b2010000000000000000000000000000000000000000000000000000000000000000002d
:17b2210000020000000000000800000000000000000000000000000c
:20b238000000000000000000000000000000000000000000000000000000000000000000f6
:20b258000000000000000000000000000000000000000000000000000000000000000800ce
:16b27800000000000020000000000000000000000000800400001c
:20b28e000000000000000000000000000000000000000000000000000000000000000000a0
:20b2ae00000000000000000000000000000000000000000000000000000000000000000080
:17b2ce0000010000000000000400000000000000000000003800002c
:20b2e5001030c0000000000000000000000000000000000000000000000000000000000049
:20b30500000000000000000000000000000000000000000000000000000000000000000028
:16b325000000000000000000000000000000000000000000000012
:20b33b0000030c0000000000000000000000000000000000000000000000000000000000e3
:20b35b000000000000000000000000000000000000000000000000000000000000000000d2
:17b37b000000000000000000000000000000000000000000000000bb
:20b392001030c000000000000000000000000000000000000000000000000000000000009b
:20b3b20000000000000000000000000000000000000000000000000000000000000000007b
:16b3d2000000000000000000000000000000000000000000000065
:20b3e80000030c000000000000000000000000000000000000000000000000000000000036
:20b40800000000000000000000000000000000000000000000000000000000000000000024
:17b4280000000000000000000000000000000000000000000000000d
:20b43f001030c00000000000000000000000000000000000000000000000000000000000ed
:20b45f000000000000000000000000000010000000000000000000000000000000000000bd
:16b47f0000000000000000000000000000000000000000000000b7
:20b4950000030c000000000000000000000000000000000000000000000000000000000088
:20b4b500000000000000000000000000000000000000000000000000000000000000000077
:17b4d500000000000000000000000000000000000000000000002040
:20b4ec001030c0000000000000000000000000000000000000000000000000000000000040
:20b50c0000000000000000000000000000000000000000000000000000000000000000001f
:16b52c000000000000000000000000000000000000000000000009
:20b5420000030c0000000000000000000000000000000000000000000000000000000000da
:20b562000000000000000000000000000000000000000000000000000000000000000000c9
:17b582000000000000000000000000000000000000000000000000b2
:20b599001030c0000000000000000000000000000000000000000000000000000000000092
:20b5b900000000000000000000000000000000000000000000000000000000000000000072
:16b5d900000000000000000000000000000000000000000000005c
:20b5ef0000030c0000000000000000000000000000000000000000000000300000000000fd
:20b60f0000000000000000000000000000000000000000000000000000000000000000001b
:17b62f00000000000000000000000000000000000000000000000004
:20b646001030c00000000000000000000000000000000000000000000000000000000000e4
:20b666000000000000000000000000000000000000000000000000000000000000000000c4
:16b6860000000000000000000000000000000000000000000000ae
:20b69c0000030c00000000000000000000000000000000000000000000000000000000007f
:20b6bc0000000000000000000000000000000000000000000000000000000000000000006e
:17b6dc00000000000000000000000000000000000000000000400017
