:02000000ff00ff
:080002004c6174746963650030
:17000a00694345637562653220323031372e30382e32373934300069
:15002100506172743a2069434534305550354b2d53473438002c
:1b003600446174653a204d617220313020323031392031393a34323a3239007b
:0200510000ffae
:040053007eaa997e6a
:02005700510056
:0200590001059f
:03005b00920020f0
:03005e006202b388
:03006100720150d9
:0300640082000017
:02006700110086
:02006900010193
:20006b00000000000000000000000010000000000000400000000000010000000000000420
:20008b000000000000001000000000000040000000001000000000000040000000000001b4
:1600ab0000000000000004000000000000100000000000004000eb
:2000c1000000000000000000000000020000000000000800000000000020000000000000f5
:2000e100800000000000020000000000000800000000020000000000000000000000000073
:1701010020000000000000800000000000020000000000000800003d
:200118000000000000000000000000000000000000000000000000000000000000000000c7
:200138000000000000000000000000000000000000000000000000000000000000000000a7
:160158000000000000000000000000000000000000000000000091
:20016e00000000000000000000000000000000000000000000000000000000000000000071
:20018e00000000000000000000000000000000000000000000000000000000000000000051
:1701ae0000000000000000000000000000000000000000000000003a
:2001c50000000000000000000000000000000000000000000000000000000000000000001a
:2001e5000000000000000000000000000000000000000000000000000000000000000000fa
:1602050000000000000000000000000000000000000000000000e3
:20021b000000000000000000000000000000000000000000000000000000000000000000c3
:20023b000000000000000000000000000000000000000000000000000000000000000000a3
:17025b0000000000000000000000000000000000000000000000008c
:2002720000000000000000000000000000000000000000000000000000000000000000006c
:2002920000000000000000000000000000000000000000000000000000000000000000004c
:1602b2000000000000000000000000000000000000000000000036
:2002c800000000000000000000000000000000000000000000000000000000000000000016
:2002e8000000000000000000000000000000000000000000000000000000000000000000f6
:170308000000000000000000000000000000000000000000000000de
:20031f000000000000000000000000000000000000000000000000000000000000000000be
:20033f00000000000000000000000000000000000000000000000000004000000000040159
:16035f000000000000000000000000000000000000000000000088
:20037500000000000000000000000000000000000000000000000000000000000000000068
:20039500000000000000000000000000000000000000000000000000000000000000000048
:1703b500000000000000000000000000000000000000000000000031
:2003cc00000000000000000000000000000000000000000000000000000000000000000011
:2003ec000000000000000000000000000000000000000000000000000100000100000000ef
:16040c0000000000000000000000000000000000000000000000da
:200422000000000000000000000000000000000000000000000000000000000000000000ba
:20044200000000000000000000000000000000000000000000080000000000000000000092
:17046200000000000000000000000000000000000000000000000083
:20047900000000000000000000000000000000000000000000000000000000000000000063
:20049900000000000000000000000000000000000000000000000000000000010000400002
:1604b900000000000000000000000000000000000000000000002d
:2004cf0000000000000000000000000000000000000000000000000000000000000000000d
:2004ef000000000000000000000000000000000000000000000400000000000010000000d9
:17050f000000000000000000000000000000000000000000000000d5
:200526000000000000000000000000000000000000000000000000000000000000000000b5
:20054600000000000000000000000000000000000000000000000d01000000010000040082
:16056600000000000000000000000000000000000000000000007f
:20057c0000000000000000000000000000000000000000000000000000000000000000005f
:20059c00000000000000000000000000000000000000000000080000000000000000000037
:1705bc00000000000000000000000000000000000000000000000028
:2005d300000000000c302000000000000000000000000000000000000000000000000000ac
:2005f3000000000000000000000000000000000000000000000000000000000000000000e8
:1606130000000000000000000000000000000000000000000000d1
:200629000000000000c30000000000000000000000000000000000000000000000000000ee
:20064900000000000000000000000000000000000000000000000000000000000000000091
:1706690000000000000000000000000000000000000000000000007a
:20068000000000000c302000000000000000000000000000000000000000000000000000fe
:2006a00000000000000000000000000000000000000000000000000000000000000000003a
:1606c0000000000000000000000000000000000000000000000024
:2006d6000000000000c3000000000000000000000000000000000000000000000000000041
:2006f6000000000000000000000000000000000000000000000000000000000000000000e4
:170716000000000000000000000000000000000000000000000000cc
:20072d00000000000c30200000000000000000000000000000000000000000000000000050
:20074d0000000000000000000000000000000000000000000000000000000000000000008c
:16076d000000000000000000000000000000000000000000000076
:200783000000000000c3000000000000000000000000000000000000000000000000000093
:2007a300000000000000000000000000000000000000000000000000000000000000000036
:1707c30000000000000000000000000000000000000000000000001f
:2007da00000000000c302000000000000000000000000000000000000000000000000000a3
:2007fa000000000000000000000000000000000000000000000000000000000400000000db
:16081a0000000000000000000000000000000000000000000000c8
:200830000000000000c30000000000000000000000000000000000000000000000000000e5
:20085000000000000000000000000000000000000000000000000000000000000000000088
:17087000000000000000000000000000000000000000000000000071
:20088700000000000c302000000000000000000000000000000000000000000000000000f5
:2008a700000000000000000000000000000000000000000000000000000000000000000031
:1608c700000000000000000000000000000000000000000000001b
:2008dd000000000000c3000000000000000000000000000000000000000000000000000038
:2008fd000000000000000000000000000000000000000000000000000000000000000000db
:17091d000000000000000000000000000000000000000000000000c3
:20093400000000000c30200000000000000000000000000000000000000000000000000047
:20095400000000000000000000000000000000000000000000000000000000000000000083
:16097400000000000000000000000000000000000000000000006d
:20098a000000000000c300000000000000000000000000000000000000000000000000008a
:2009aa0000000000000000000000000000000000000000000000000000000000000000002d
:1709ca00000000000000000000000000000000000000000000000016
:2009e100000000000c3020000000000000000000000000000000000000000000000000009a
:200a01000000000000000000000000000000000000000000000000000000000000000000d5
:160a210000000000000000000000000000000000000000000000bf
:200a37000000000000c30000000000000000000000000000000000000000000000000000dc
:200a570000000000000000000000000000000000000000000000000000000000000000007f
:170a7700000000000000000000000000000000000000000000000068
:200a8e00000000000c302000000000000000000000000000000000000000000000000000ec
:200aae00000000000000000000000000000000000000000000000000000000000000000028
:160ace000000000000000000000000000000000000000000000012
:200ae4000000000000c300000000000000000000000000000000000000000000000000002f
:200b04000000000000000000000000000000000000000000000000000000000000000000d1
:170b24000000000000000000000000000000000000000000000000ba
:200b3b00000000000c3020000000000000000000000000000000000000000000000000003e
:200b5b0000000000000000000000000000000000000000000000000000000000000000007a
:160b7b000000000000000000000000000000000000000000000064
:200b91000000000000c3000000000000000000000000000000000000000000000000000081
:200bb100000000000000000000000000000000000000000000000000000000000000000024
:170bd10000000000000000000000000000000000000000000000000d
:200be800000000000c30200000000000000000000000000000000000000000000000000091
:200c08000000000000000000000000000000000000000000000000000000000000000000cc
:160c280000000000000000000000000000000000000000000000b6
:200c3e000000000000c30000000000000000000000000000000000000000000000000000d3
:200c5e00000000000000000000000000000000000000000000000000000000000000000076
:170c7e0000000000000000000000000000000000000000000000005f
:200c9500000000000c302000000000000000000000000000000000000000000000000000e3
:200cb50000000000000000000000000000000000000000000000000000000000000000001f
:160cd5000000000000000000000000000000000000000000000009
:200ceb000000000000c3000000000000000000000000000000000000000000000000000026
:200d0b000000000000000000000000000000000000000000000000000000000000000000c8
:170d2b000000000000000000000000000000000000000000000000b1
:200d4200000000000c30200000000000000000000000000000000000000000000000000035
:200d6200000000000000000000000000000000000000000000000000000000000000000071
:160d8200000000000000000000000000000000000000000000005b
:200d98000000000000c3000000000000000000000000000000000000000000000000000078
:200db80000000000000000000000000000000000000000000000000000000000000000001b
:170dd800000000000000000000000000000000000000000000000004
:200def00000000000c30200000000000000000000000000000000000000000000000000088
:200e0f000000000000000000000000000000000000000000000000000000000000000000c3
:160e2f0000000000000000000000000000000000000000000000ad
:200e45000000000000c30000000000000000000000000000000000000000000000000000ca
:200e650000000000000000000000000000000000000000000000000000000000000000006d
:170e8500000000000000000000000000000000000000000000000056
:200e9c00000000000c302000000000000000000000000000000000000000000000000000da
:200ebc00000000000000000000000000000000000000000000000000000000000000000016
:160edc000000000000000000000000000000000000000000000000
:200ef2000000000000c300000000000000000000000000000000000000000000000000001d
:200f12000000000000000000000000000000000000000000000000000000000000000000bf
:170f32000000000000000000000000000000000000000000000000a8
:200f4900000000000c3020000000000000000000000000000000000000000000000000002c
:200f6900000000000000000000000000000000000000000000000000000000000000000068
:160f89000000000000000000000000000000000000000000000052
:200f9f000000000000c300000000000000000000000000000000000000000000000000006f
:200fbf00000000000000000000000000000000000000000000000000000000000000000012
:170fdf000000000000000000000000000000000000000000000000fb
:200ff600000000000c3020000000000000000000000000000000000000000000000000007f
:201016000000000000000000000000000000000000000000000000000000000000000000ba
:1610360000000000000000000000000000000000000000000000a4
:20104c000000000000c30000000000000000000000000000000000000000000000000000c1
:20106c00000000000000000000000000000000000000000000000000000000000000000064
:17108c0000000000000000000000000000000000000000000000004d
:2010a300000000000c302000000000000000000000000000000000000000000000000000d1
:2010c30000000000000000000000000000000000000000000000000000000000000000000d
:1610e30000000000000000000000000000000000000000000000f7
:2010f9000000000000c3000000000000000000000000000000000000000000000000000014
:201119000000000000000000000000000000000000000000000000000000000000000000b6
:1711390000000000000000000000000000000000000000000000009f
:20115000000000000c30200000000000000000000000000000000000000000000000000023
:2011700000000000000000000000000000000000000000000000000000000000000000005f
:161190000000000000000000000000000000000000000000000049
:2011a6000000000000c3000000000000000000000000000000000000000000000000000066
:2011c600000000000000000000000000000000000000000000000000000000000000000009
:1711e6000000000000000000000000000000000000000000000000f2
:2011fd00000000000c30200000000000000000000000000000000000000000000000000076
:20121d000000000000000000000000000000000000000000000000000000000000000000b1
:16123d00000000000000000000000000000000000000000000009b
:201253000000000000c30000000000000000000000000000000000000000000000000000b8
:2012730000000000000000000000000000000000000000000000000000000000000000005b
:17129300000000000000000000000000000000000000000000000044
:2012aa00000000000c302000000000000000000000000000000000000000000000000000c8
:2012ca00000000000000000000000000000000000000000000000000000000000000000004
:1612ea0000000000000000000000000000000000000000000000ee
:201300000000000000c300000000000000000000000000000000000000000000000000000a
:201320000000000000000000000000000000000000000000000000000000000000000000ad
:17134000000000000000000000000000000000000000000000000096
:20135700000000000c3020000000000000000000000000000000000000000000000000001a
:20137700000000000000000000000000000000000000000000000000000000000000000056
:161397000000000000000000000000000000000000000000000040
:2013ad000000000000c300000000000000000000000000000000000000000000000000005d
:2013cd00000000000000000000000000000000000000000000000000000000000000000000
:1713ed000000000000000000000000000000000000000000000000e9
:20140400000000000c3020000000000000000000000000000000000000000000000000006c
:201424000000000000000000000000000000000000000000000000000000000000000000a8
:161444000000000000000000000000000000000000000000000092
:20145a000000000000c30000000000000000000000000000000000000000000000000000af
:20147a00000000000000000000000000000000000000000000000000000000000000000052
:17149a0000000000000000000000000000000000000000000000003b
:2014b100000000000c302000000000000000000000000000000000000000000000000000bf
:2014d1000000000000000000000000000000000000000000000000000000000000000000fb
:1614f10000000000000000000000000000000000000000000000e5
:201507000000000000c3000000000000000000000000000000000000000000000000000001
:201527000000000000000000000000000000000000000000000000000000000000000000a4
:1715470000000000000000000000000000000000000000000000008d
:20155e00000000000c30200000000000000000000000000000000000000000000000000011
:20157e0000000000000000000000000000000000000000000000000000000000000000004d
:16159e000000000000000000000000000000000000000000000037
:2015b4000000000000c3000000000000000000000000000000000000000000000000000054
:2015d4000000000000000000000000000000000000000000000000000000000000000000f7
:1715f4000000000000000000000000000000000000000000000000e0
:20160b00000000000c30200000000000000000000000000000000000000000000000000063
:20162b0000000000000000000000000000000000000000000000000000000000000000009f
:16164b000000000000000000000000000000000000000000000089
:201661000000000000c30000000000000000000000000000000000000000000000000000a6
:20168100000000000000000000000000000000000000000000000000000000000000000049
:1716a100000000000000000000000000000000000000000000000032
:2016b800000000000c302000000000000000000000000000000000000000000000000000b6
:2016d8000000000000000000000000000000000000000000000000000000000000000000f2
:1616f80000000000000000000000000000000000000000000000dc
:20170e000000000000c30000000000000000000000000000000000000000000000000000f8
:20172e0000000000000000000000000000000000000000000000000000000000000000009b
:17174e00000000000000000000000000000000000000000000000084
:20176500000000000c30200000000000000000000000000000000000000000000000000008
:20178500000000000000000000000000000000000000000000000000000000000000000044
:1617a500000000000000000000000000000000000000000000002e
:2017bb000000000000c300000000000000000000000000000000000000000000000000004b
:2017db000000000000000000000000000000000000000000000000000000000000000000ee
:1717fb000000000000000000000000000000000000000000000000d7
:20181200000000000c3020000000000000000000000000000000000000000000000000005a
:20183200000000000000000000000000000000000000000000000000000000000000000096
:161852000000000000000000000000000000000000000000000080
:201868000000000000c300000000000000000000000000000000000000000000000000009d
:20188800000000000000000000000000000000000000000000000000000000000000000040
:1718a800000000000000000000000000000000000000000000000029
:2018bf00000000000c302000000000000000000000000000000000000000000000000000ad
:2018df000000000000000000000000000000000000000000000000000000000000000000e9
:1618ff0000000000000000000000000000000000000000000000d3
:201915000000000000c30000000000000000000000000000000000000000000000000000ef
:20193500000000000000000000000000000000000000000000000000000000000000000092
:1719550000000000000000000000000000000000000000000000007b
:20196c00000000000c302000000000000000000000000000000000000000000000000000ff
:20198c0000000000000000000000000000000000000000000000000000000000000000003b
:1619ac000000000000000000000000000000000000000000000025
:2019c2000000000000c3000000000000000000000000000000000000000000000000000042
:2019e2000000000000000000000000000000000000000000000000000000000000000000e5
:171a02000000000000000000000000000000000000000000000000cd
:201a1900000000000c30200000000000000000000000000000000000000000000000000051
:201a390000000000000000000000000000000000000000000000000000000000000000008d
:161a59000000000000000000000000000000000000000000000077
:201a6f000000000000c3000000000000000000000000000000000000000000000000000094
:201a8f00000000000000000000000000000000000000000000000000000000000000000037
:171aaf00000000000000000000000000000000000000000000000020
:201ac600000000000c302000000000000000000000000000000000000000000000000000a4
:201ae6000000000000000000000000000000000000000000000000000000000000000000e0
:161b060000000000000000000000000000000000000000000000c9
:201b1c000000000000c30000000000000000000000000000000000000000000000000000e6
:201b3c00000000000000000000000000000000000000000000000000000000000000000089
:171b5c00000000000000000000000000000000000000000000000072
:201b7300000000000000000000000000000000000000000000000000000000000000000052
:201b9300000000000000000000000000000000000000000000000000000000000000000032
:161bb300000000000000000000000000000000000000000000001c
:201bc9000000000000000000000000000000000000000000000000000000000000000000fc
:201be9000000000000000000000000000000000000000000000000000000000000000000dc
:171c09000000000000000000000000000000000000000000000000c4
:201c20000000000000000000000000000000000000000000000000000000000000000000a4
:201c4000000000000000000000000000000000000000000000000000000000000000000084
:161c6000000000000000000000000000000000000000000000006e
:201c760000000000000000000000000000000000000000000000000000000000000000004e
:201c960000000000000000000000000000000000000000000000000000000000000000002e
:171cb600000000000000000000000000000000000000000000000017
:201ccd000000000000000000000000000000000000000000000000000000000000000000f7
:201ced000000000000000000000000000000000000000000000000000000000000000000d7
:161d0d0000000000000000000000000000000000000000000000c0
:201d23000000000000000000000000000000000000000000000000000000000000000000a0
:201d4300000000000000000000000000000000000000000000000000000000000000000080
:171d6300000000000000000000000000000000000000000000000069
:201d7a00000000000000000000000000000000000000000000000000000000000000000049
:201d9a00000000000000000000000000000000000000000000000000000000040000000025
:161dba000000000000000000000000000000000000000000000013
:201dd0000000000000000000000000000000000000000000000000000000000000000000f3
:201df0000000000000000000000000000000000000000000000000000000000000000000d3
:171e10000000000000000000000000000000000000000000000000bb
:20311300000000000c30200000000000000000000000000000000000000000000000000040
:2031330000000000000000000000000000000000000000000000000000000000000000007c
:163153000000000000000000000000000000000000000000000066
:203169000000000000c3000000000000000000000000000000000000000000000000000083
:20318900000000000000000000000000000000000000000000000000000000000000000026
:1731a90000000000000000000000000000000000000000000000000f
:2031c000000000000c30200000000000000000000000000000000000000000000000000093
:2031e0000000000000000000000000000000000000000000000000000000000000000000cf
:1632000000000000000000000000000000000000000000000000b8
:203216000000000000c30000000000000000000000000000000000000000000000000000d5
:20323600000000000000000000000000000000000000000000000000000000000000000078
:17325600000000000000000000000000000000000000000000000061
:20326d00000000000c302000000000000000000000000000000000000000000000000000e5
:20328d00000000000000000000000000000000000000000000000000000000000000000021
:1632ad00000000000000000000000000000000000000000000000b
:2032c3000000000000c3000000000000000000000000000000000000000000000000000028
:2032e3000000000000000000000000000000000000000000000000000000000000000000cb
:173303000000000000000000000000000000000000000000000000b3
:20331a00000000000c30200000000000000000000000000000000000000000000000000037
:20333a0000000000000000000000000000000000000000000000000000000004000000006f
:16335a00000000000000000000000000000000000000000000005d
:203370000000000000c300000000000000000000000000000000000000000000000000007a
:2033900000000000000000000000000000000000000000000000000000000000000000001d
:1733b000000000000000000000000000000000000000000000000006
:2033c700000000000c3020000000000000000000000000000000000000000000000000008a
:2033e7000000000000000000000000000000000000000000000000000000000000000000c6
:1634070000000000000000000000000000000000000000000000af
:20341d000000000000c30000000000000000000000000000000000000000000000000000cc
:20343d0000000000000000000000000000000000000000000000000000000000000000006f
:17345d00000000000000000000000000000000000000000000000058
:20347400000000000c302000000000000000000000000000000000000000000000000000dc
:20349400000000000000000000000000000000000000000000000000000000000000000018
:1634b4000000000000000000000000000000000000000000000002
:2034ca000000000000c300000000000000000000000000000000000000000000000000001f
:2034ea000000000000000000000000000000000000000000000000000000000000000000c2
:17350a000000000000000000000000000000000000000000000000aa
:20352100000000000c3020000000000000000000000000000000000000000000000000002e
:2035410000000000000000000000000000000000000000000000000000000000000000006a
:163561000000000000000000000000000000000000000000000054
:203577000000000000c3000000000000000000000000000000000000000000000000000071
:20359700000000000000000000000000000000000000000000000000000000000000000014
:1735b7000000000000000000000000000000000000000000000000fd
:2035ce00000000000c30200000000000000000000000000000000000000000000000000081
:2035ee000000000000000000000000000000000000000000000000000000000000000000bd
:16360e0000000000000000000000000000000000000000000000a6
:203624000000000000c30000000000000000000000000000000000000000000000000000c3
:20364400000000000000000000000000000000000000000000000000000000000000000066
:1736640000000000000000000000000000000000000000000000004f
:20367b0000000000000000000000000000000000000000000000000000000000000000002f
:20369b0000000000000000000000000000000000000000000000000000000000000000000f
:20482d00000000000000000000000000000000000000000000000000000000040000000067
:16484d000000000000000000000000000000000000000000000055
:20486300000000000000000000000000000000000000000000000000000000000000000035
:204883000000000000000000000000000000000000000000000000000000000040000000d5
:1748a3000000000000000000000000000000000000000000000000fe
:2048ba000000000000000000000000000000000000000000000000000000000000000000de
:2048da000000000000000000000000000000000000000000000000000000000000000000be
:1648fa0000000000000000000000000000000000000000000000a8
:20491000000000000000000000000000000000000000000000000000000000000000000087
:20493000000000000000000000000000000000000000000000000000000000000000000067
:17495000000000000000000000000000000000000000000000000050
:20496700000000000000000000000000000000000000000000000000000000000000000030
:20498700000000000000000000000000000000000000000000000000000000000000000010
:1649a70000000000000000000000000000000000000000000000fa
:2049bd000000000000000000000000000000000000000000000000000000000000000000da
:2049dd000000000000000000000000000000000000000000000000000000000000000000ba
:1749fd000000000000000000000000000000000000000000000000a3
:204a1400000000000000000000000000000000000000000000000000000000000000000082
:204a3400000000000000000000000000000000000000000000000000000000000000000062
:164a5400000000000000000000000000000000000000000000004c
:204a6a0000000000000000000000000000000000000000000000000000000000000000002c
:204a8a0000000000000000000000000000000000000000000000000000000000000000000c
:174aaa000000000000000000000000000000000000000000000000f5
:204ac1000000000000000000000000000000000000000000000000000000000000000000d5
:204ae1000000000000000000000000000000000000000000000000000000000000000000b5
:164b0100000000000000000000000000000000000000000000009e
:204b170000000000000000000000000000000000000000000000000000000000000000007e
:204b370000000000000000000000000000000000000000000000000000000000000000005e
:174b5700000000000000000000000000000000000000000000000047
:204b6e00000000000000000000000000000000000000000000000000000000000000000027
:204b8e00000000000000000000000000000000000000000000000000000000000000000007
:164bae0000000000000000000000000000000000000000000000f1
:204bc4000000000000000000000000000000000000000000000000000000000000000000d1
:204be4000000000000000000000000000000000000000000000000000000000000000000b1
:174c0400000000000000000000000000000000000000000000000099
:204c1b00000000000c3020000000000000000000000000000000000000000000000000001d
:204c3b00000000000000000000000000000000000000000000000000000000000000000059
:164c5b000000000000000000000000000000000000000000000043
:204c71000000000000c3000000000000000000000000000000000000000000000000000060
:204c9100000000000000000000000000000000000000000000000000000000000000000003
:174cb1000000000000000000000000000000000000000000000000ec
:204cc800000000000c30200000000000000000000000000000000000000000000000000070
:204ce8000000000000000000000000000000000000000000000000000000000000040000a8
:164d08000000000000000000000000000000000000000000000095
:204d1e000000000000c30000000000000000000000000000000000000000000000000000b2
:204d3e00000000000000000000000000000000000000000000000000000000000000000055
:174d5e0000000000000000000000000000000000000000000000003e
:204d7500000000000c302000000000000000000000000000000000000000000000000000c2
:204d95000000000000000000000000000000000000000000000000000000000000000000fe
:164db50000000000000000000000000000000000000000000000e8
:204dcb000000000000c3000000000000000000000000000000000000000000000000000005
:204deb000000000000000000000000000000000000000000000000000000000000000000a8
:174e0b00000000000000000000000000000000000000000000000090
:204e2200000000000c30200000000000000000000000000000000000000000000000000014
:204e4200000000000000000000000000000000000000000000000000000000000000000050
:164e6200000000000000000000000000000000000000000000003a
:204e78000000000000c3000000000000000000000000000000000000000000000000000057
:204e98000000000000000000000000000000000000000000000000000000000000000000fa
:174eb8000000000000000000000000000000000000000000000000e3
:204ecf00000000000c30200000000000000000000000000000000000000000000000000067
:204eef000000000000000000000000000000000000000000000000000000000000000000a3
:164f0f00000000000000000000000000000000000000000000008c
:204f25000000000000c30000000000000000000000000000000000000000000000000000a9
:204f450000000000000000000000000000000000000000000000000000000000000000004c
:174f6500000000000000000000000000000000000000000000000035
:204f7c00000000000c302000000000000000000000000000000000000000000000000000b9
:204f9c000000000000000000000000000000000000000000000000000000000000000000f5
:164fbc0000000000000000000000000000000000000000000000df
:204fd2000000000000c30000000000000000000000000000000000000000000000000000fc
:204ff20000000000000000000000000000000000000000000000000000000000000000009f
:17501200000000000000000000000000000000000000000000000087
:20502900000000000c3020000000000000000000000000000000000000000000000000000b
:20504900000000000000000000000000000000000000000000000000000000000000000047
:165069000000000000000000000000000000000000000000000031
:20507f000000000000c300000000000000000000000000000000000000000000000000004e
:20509f000000000000000000000000000000000000000000000000000000000000000000f1
:1750bf000000000000000000000000000000000000000000000000da
:2050d600000000000c3020000000000000000000000000000000000000000000000000005e
:2050f60000000000000000000000000000000000000000000000000000000000000000009a
:165116000000000000000000000000000000000000000000000083
:20512c000000000000c30000000000000000000000000000000000000000000000000000a0
:20514c00000000000000000000000000000000000000000000000000000000000000000043
:17516c0000000000000000000000000000000000000000000000002c
:2051830000000000000000000000000000000000000000000000000000000000000000000c
:2051a3000000000000000000000000000000000000000000000000000000000000000000ec
:1651c30000000000000000000000000000000000000000000000d6
:2051d9000000000000000000000000000000000000000000000000000000000000000000b6
:2051f900000000000000000000000000000000000000000000000000000000000000000096
:1752190000000000000000000000000000000000000000000000007e
:2052300000000000000000000000000000000000000000000000000000000000000000005e
:2052500000000000000000000000000000000000000000000000000000000000000000003e
:165270000000000000000000000000000000000000000000000028
:20528600000000000000000000000000000000000000000000000000000000000000000008
:2052a6000000000000000000000000000000000000000000000000000000000000000000e8
:1752c6000000000000000000000000000000000000000000000000d1
:2052dd000000000000000000000000000000000000000000000000000000000000000000b1
:2052fd00000000000000000000000000000000000000000000000000000000000000000091
:16531d00000000000000000000000000000000000000000000007a
:2053330000000000000000000000000000000000000000000000000000000000000000005a
:2053530000000000000000000000000000000000000000000000000000000000000000003a
:17537300000000000000000000000000000000000000000000000023
:20538a00000000000000000000000000000000000000000000000000000000000000000003
:2053aa000000000000000000000000000000000000000000000000000000000000000000e3
:1653ca0000000000000000000000000000000000000000000000cd
:2053e0000000000000000000000000000000000000000000000000000000000000000000ad
:2054000000000000000000000000000000000000000000000000000000000000000000008c
:17542000000000000000000000000000000000000000000000000075
:20543700000000000000000000000000000000000000000000000000000000000000000055
:20545700000000000000000000000000000000000000000000000000000000000200000033
:16547700000000000000000000000000000000000000000000001f
:20548d000000000000000000000000000000000000000000000000000000000000000000ff
:2054ad0000000000000000000000000000000000000000000000000000000000005000008f
:1754cd000000000000000000000000000000000000000000000000c8
:2054e4000000000000000000000000000000000000000000000000000000000000000000a8
:20550400000000000000000000000000000000000000000000000000000000000000000087
:165524000000000000000000000000000000000000000000000071
:205dcd000000000000000000000000000000000000000000000000000000000400000000b2
:165ded0000000000000000000000000000000000000000000000a0
:205e030000000000000000000000000000000000000000000000000000000000000000007f
:205e230000000000000000000000000000000000000000000000000000000000400000001f
:175e4300000000000000000000000000000000000000000000000048
:205e5a00000000000000000000000000000000000000000000000000000000000000000028
:205e7a00000000000000000000000000000000000000000000000000000000000000000008
:165e9a0000000000000000000000000000000000000000000000f2
:206696000000000000000000010000000000000000000000000000000000000000000000e3
:1666b60000000000000000000000000000000000000000000000ce
:2066cc000000000000000000000000000000000000000000000000000000000000000000ae
:2066ec0000000000000000000010000000000000000000000000000000000000000000007e
:17670c00000000000000000000000000000000000000000000000076
:20672300000000000c302000000000000000000000000000000000000000000000000000fa
:20674300000000000000000000000000000000000000000000000000000000000000000036
:166763000000000000000000000000000000000000000000000020
:206779000000000000c300000000000000000000000000000000000000000000000000003d
:206799000000000000000000000000000000000000000000000000000000000000000000e0
:1767b9000000000000000000000000000000000000000000000000c9
:2067d000000000000c3020000000000000000000000000000000000000000000000000004d
:2067f000000000000000000000000000000000000000000000000000000000000000000089
:166810000000000000000000000000000000000000000000000072
:206826000000000000c300000000000000000000000000000000000000000000000000008f
:20684600000000000000000000000000000000000000000000000000000000000000000032
:1768660000000000000000000000000000000000000000000000001b
:20687d00000000000c3020000000000000000000000000000000000000000000000000009f
:20689d000000000000000000000000000000000000000000000000000000000000000000db
:1668bd0000000000000000000000000000000000000000000000c5
:2068d3000000000000c30000000000000000000000000000000000000000000000000000e2
:2068f300000000000000000000000000000000000000000000000000000000000000000085
:1769130000000000000000000000000000000000000000000000006d
:20692a00000000000c302000000000000000000000000000000000000000000000000000f1
:20694a0000000000000000000000000000000000000000000000000000000000000000002d
:16696a000000000000000000000000000000000000000000000017
:206980000000000000c3000000000000000000000000000000000000000000000000000034
:2069a0000000000000000000000000000000000000000000000000000000000000000000d7
:1769c0000000000000000000000000000000000000000000000000c0
:2069d700000000000c30200000000000000000000000000000000000000000000000000044
:2069f700000000000000000000000000000000000000000000000000000000000000000080
:166a17000000000000000000000000000000000000000000000069
:206a2d000000000000c3000000000000000000000000000000000000000000000000000086
:206a4d00000000000000000000000000000000000000000000000000000000000000000029
:176a6d00000000000000000000000000000000000000000000000012
:206a8400000000000c30200000000000000000000000000000000000000000000000000096
:206aa4000000000000000000000000000000000000000000000000000000000000000000d2
:166ac40000000000000000000000000000000000000000000000bc
:206ada000000000000c30000000000000000000000000000000000000000000000000000d9
:206afa0000000000000000000000000000000000000000000000000000000000000000007c
:176b1a00000000000000000000000000000000000000000000000064
:206b3100000000000c302000000000000000000000000000000000000000000000000000e8
:206b5100000000000000000000000000000000000000000000000000000000000000000024
:166b7100000000000000000000000000000000000000000000000e
:206b87000000000000c300000000000000000000000000000000000000000000000000002b
:206ba7000000000000000000000000000000000000000000000000000000000000000000ce
:176bc7000000000000000000000000000000000000000000000000b7
:206bde00000000000c3020000000000000000000000000000000000000000000000000003b
:206bfe00000000000000000000000000000000000000000000000000000000000000000077
:166c1e000000000000000000000000000000000000000000000060
:206c34000000000000c300000000000000000000000000000000000000000000000000007d
:206c5400000000000000000000000000000000000000000000000000000000000000000020
:176c7400000000000000000000000000000000000000000000000009
:206c8b00000000000c3020000000000000000000000000000000000000000000000000008d
:206cab000000000000000000000000000000000000000000000000000000000000000000c9
:166ccb0000000000000000000000000000000000000000000000b3
:206ce1000000000000c30000000000000000000000000000000000000000000000000000d0
:206d0100000000000000000000000000000000000000000000000000000000000000000072
:176d210000000000000000000000000000000000000000000000005b
:206d3800000000000c302000000000000000000000000000000000000000000000000000df
:206d580000000000000000000000000000000000000000000000000000000000000000001b
:166d78000000000000000000000000000000000000000000000005
:206d8e000000000000c3000000000000000000000000000000000000000000000000000022
:206dae000000000000000000000000000000000000000000000000000000000000000000c5
:176dce000000000000000000000000000000000000000000000000ae
:206de500000000000c30200000000000000000000000000000000000000000000000000032
:206e050000000000000000000000000000000000000000000000000000000000000000006d
:166e25000000000000000000000000000000000000000000000057
:206e3b000000000000c3000000000000000000000000000000000000000000000000000074
:206e5b00000000000000000000000000000000000000000000000000000000000000000017
:176e7b00000000000000000000000000000000000000000000000000
:206e9200000000000c30200000000000000000000000000000000000000000000000000084
:206eb2000000000000000000000000000000000000000000000000000000000000000000c0
:166ed20000000000000000000000000000000000000000000000aa
:206ee8000000000000c30000000000000000000000000000000000000000000000000000c7
:206f0800000000000000000000000000000000000000000000000000000000000000000069
:176f2800000000000000000000000000000000000000000000000052
:206f3f00000000000c302000000000000000000000000000000000000000000000000000d6
:206f5f00000000000000000000000000000000000000000000000000000000000000000012
:166f7f0000000000000000000000000000000000000000000000fc
:206f95000000000000c3000000000000000000000000000000000000000000000000000019
:206fb5000000000000000000000000000000000000000000000000000000000000000000bc
:176fd5000000000000000000000000000000000000000000000000a5
:206fec00000000000c30200000000000000000000000000000000000000000000000000029
:20700c00000000000000000000000000000000000000000000000000000000000000000064
:16702c00000000000000000000000000000000000000000000004e
:207042000000000000c300000000000000000000000000000000000000000000000000006b
:2070620000000000000000000000000000000000000000000000000000000000000000000e
:177082000000000000000000000000000000000000000000000000f7
:20709900000000000c3020000000000000000000000000000000000000000000000000007b
:2070b9000000000000000000000000000000000000000000000000000000000000000000b7
:1670d90000000000000000000000000000000000000000000000a1
:2070ef000000000000c30000000000000000000000000000000000000000000000000000be
:20710f00000000000000000000000000000000000000000000000000000000000000000060
:17712f00000000000000000000000000000000000000000000000049
:20714600000000000c302000000000000000000000000000000000000000000000000000cd
:20716600000000000000000000000000000000000000000000000000000000000000000009
:1671860000000000000000000000000000000000000000000000f3
:20719c000000000000c3000000000000000000000000000000000000000000000000000010
:2071bc000000000000000000000000000000000000000000000000000000000000000000b3
:1771dc0000000000000000000000000000000000000000000000019b
:0271f30000009a
:0371f5007200b075
:0271f800110183
:0271fa00010191
:2071fc0000000000000000000000001000000000000040000000000001000000000000041e
:20721c000000000000001000000000000040000000001000000000000040000000000001b1
:16723c0000000000000004000000000000100000000000004000e8
:207252000000000000000000000000020000000000000800000000000020000000000000f2
:20727200800000000000020000000000000800000000020000000000000000000000000070
:1772920020000000000000800000000000020000000000000800003b
:2072a9000000000000000000000000000000000000000000000000000000000000000000c5
:2072c9000000000000000000000000000000000000000000000000000000000000000000a5
:1672e900000000000000000000000000000000004000000000004f
:2072ff0000000000000000000000000000000000000000000000000000000000000000006f
:20731f0000000000000000000000000000000000000000000000000000000000000000004e
:17733f00000000000000000000000000000000000000000004000033
:20735600000000000000000000000000000000000000000000000000000000000000000017
:207376000000000000000000000000000000000000000000000000000000000000000000f7
:1673960000000000000000000000000000000000000000000000e1
:2073ac000000000000000000000000000000000000000000000000000000000000000000c1
:2073cc000000000000000000000000000000000000000000000000000000000000000000a1
:1773ec0000000000000000000000000000000000000000000000008a
:20740300000000000000000000000000000000000000000000000000000000000000000069
:20742300000000000000000000000000000000000000000000000000000000000000000049
:167443000000000000000000000000000000000000000100000032
:20745900000000000000000000000000000000000000000000000000000000000000000013
:207479000000000000000000000000000000000000000000000000000000000000000000f3
:177499000000000000000000000000000000000000000000000000dc
:2074b0000000000000000000000000000000000000000000000000000000000000000000bc
:2074d00000000000000000000000000000000000000000000000000000400000000000005c
:1674f0000000000000000000000000000000000000000200000084
:20750600000000000000000000000000000000000000000000000000000000000000000065
:20752600000000000000000000000000000000000000000000000000000000000000000045
:1775460000000000000000000000000000000000000000000000002e
:20755d0000000000000000000000000000000000000000000000000000000000000000000e
:20757d000000000000000000000000000000000000000000000000000100000000000000ed
:16759d0000000000000000000000000000000000000000000000d8
:2075b3000000000000000000000000000000000000000000000000000000000000000000b8
:2075d300000000000000000000000000000000000000000000080000000000000000000090
:1775f300000000000000000000000000000000000000000000000081
:20760a00000000000000000000000000000000000000000000000000000000000000000060
:20762a00000000000000000000000000000000000000000000000000000000000000000040
:16764a00000000000000000000000000000000000000000000002a
:2076600000000000000000000000000000000000000000000000000000000000000000000a
:207680000000000000000000000000000000000000000000000400000000000000000000e6
:1776a0000000000000000000000000000000000000000000000000d3
:2076b7000000000000000000000000000000000000000000000000000000000000000000b3
:2076d70000000000000000000000000001800000000000000000050100000000000000000c
:1676f700000000000000000000000000000000000000000000007d
:20770d0000000000000000000000000000000000000000000000000000000000000000005c
:20772d000000000000000000000000000000000000000000000800800000000000000000b4
:17774d00000000000000000000000000000000000000000000000025
:20776400000000000c300000000000000000000000000000000000000000000000000000c9
:207784000000000000000000000000000000000000000000000000000000000000000000e5
:1677a40000000000000000000000000000000000000000000000cf
:2077ba000000000000c30200000000000000000000000000000000000000000000000000ea
:2077da0000000000000000000000000000000000000000000000000000000000000000008f
:1777fa00000000000000000000000000000000000000000000000078
:20781100000000000c3000000000000000000000000000000000000000000000000000001b
:20783100000000000000000000000000000000000000000000000000000000000000000037
:167851000000000000000000000000000000000000000000000021
:207867000000000000c302000000000000000000000000000000000000000000000000003c
:207887000000000000000000000000000000000000000000000000000000000000000000e1
:1778a7000000000000000000000000000000000000000000000000ca
:2078be00000000000c3000000000000000000000000000000000000000000000000000006e
:2078de0000000000000000000000000000000000000000000000000000000000000000008a
:1678fe000000000000000000000000000000000000000000000074
:207914000000000000c302000000000000000000000000000000000000000000000000008e
:20793400000000000000000000000000000000000000000000000000000000000000000033
:1779540000000000000000000000000000000000000000000000001c
:20796b00000000000c300000000000000000000000000000000000000000000000000000c0
:20798b000000000000000000000000000000000000000000000000000000000000000000dc
:1679ab0000000000000000000000000000000000000000000000c6
:2079c1000000000000c30200000000000000000000000000000000000000000000000000e1
:2079e100000000000000000000000000000000000000000000000000000000000000000086
:177a010000000000000000000000000000000000000000000000006e
:207a1800000000000c30000000000000000000000000000000000000000000000000000012
:207a380000000000000000000000000000000000000000000000000000000000000000002e
:167a58000000000000000000000000000000000000000000000018
:207a6e000000000000c3020000000000000000000000000000000000000000000000000033
:207a8e000000000000000000000000000000000000000000000000000000000000000000d8
:177aae000000000000000000000000000000000000000000000000c1
:207ac500000000000c30000000000000000000000000000000000000000000000000000065
:207ae500000000000000000000000000000000000000000000000000000000000000000081
:167b0500000000000000000000000000000000000000000000006a
:207b1b000000000000c3020000000000000000000000000000000000000000000000000085
:207b3b0000000000000000000000000000000000000000000000000000000000000000002a
:177b5b00000000000000000000000000000000000000000000000013
:207b7200000000000c300000000000000000000000000000000000000000000000000000b7
:207b92000000000000000000000000000000000000000000000000000000000000000000d3
:167bb20000000000000000000000000000000000000000000000bd
:207bc8000000000000c30200000000000000000000000000000000000000000000000000d8
:207be80000000000000000000000000000000000000000000000000000000000000000007d
:177c0800000000000000000000000000000000000000000000000065
:207c1f00000000000c30000000000000000000000000000000000000000000000000000009
:207c3f00000000000000000000000100000000000000000000000000000000000000000024
:167c5f00000000000000000000000000000000000000000000000f
:207c75000000000000c302000000000000000000000000000000000000000000000000002a
:207c95000000000000000000000000000000000000000000000000000000000000000000cf
:177cb5000000000000000000000000000000000000000000000000b8
:207ccc00000000000c3000000000000000000000000000000000000000000000000000005c
:207cec00000000000000000000000000000000000000000000000000000000000000000078
:167d0c000000000000000000000000000000000000000000000061
:207d22000000000000c302000000000000000000000000000000000000000000000000007c
:207d4200000000000000000000000000000000000000000000000000000000000000000021
:177d620000000000000000000000000000000000000000000000000a
:207d7900000000000c300000000000000000000000000000000000000000000000000000ae
:207d99000000000000000000000000000000000000000000000000000000000000000000ca
:167db90000000000000000000000000000000000000000000000b4
:207dcf000000000000c30200000000000000000000000000000000000000000000000000cf
:207def00000000000000000000000000000000000000000000000000000000000000000074
:177e0f0000000000000000000000000000000000000000000000005c
:207e2600000000000c30000000000000000000000000000000000000000000000000000000
:207e460000000000000000000000000000000000000000000000000000000000000000001c
:167e66000000000000000000000000000000000000000000000006
:207e7c000000000000c3020000000000000000000000000000000000000000000000000021
:207e9c000000000000000000000000000000000000000000000000000000000000000000c6
:177ebc000000000000000000000000000000000000000000000000af
:207ed300000000000c30000000000000000000000000000000000000000000000000000053
:207ef30000000000000000000000000000000000000000000000000000000000000000006f
:167f13000000000000000000000000000000000000000000000058
:207f29000000000000c3020000000000000000000000000000000000000000000000000073
:207f4900000000000000000000000000000000000000000000000000000000000000000018
:177f6900000000000000000000000000000000000000000000000001
:207f8000000000000c300000000000000000000000000000000000000000000000000000a5
:207fa0000000000000000000000000000000000000000000000000000000000000000000c1
:167fc00000000000000000000000000000000000000000000000ab
:207fd6000000000000c30200000000000000000000000000000000000000000000000000c6
:207ff60000000000000000000000000000000000000000000000000000000000000000006b
:17801600000000000000000000000000000000000000000000000053
:20802d00000000000c300000000000000000000000000000000000000000000000000000f7
:20804d00000000000000000000000000000000000000000000000000000000000000000013
:16806d0000000000000000000000000000000000000000000000fd
:208083000000000000c3020000000000000000000000000000000000000000000000000018
:2080a3000000000000000000000000000000000000000000000000000000000000000000bd
:1780c3000000000000000000000000000000000000000000000000a6
:2080da00000000000c3000000000000000000000000000000000000000000000000000004a
:2080fa00000000000000000000000000000000000000000000000000000000000000000066
:16811a00000000000000000000000000000000000000000000004f
:208130000000000000c302000000000000000000000000000000000000000000000000006a
:2081500000000000000000000000000000000000000000000000000000000000000000000f
:178170000000000000000000000000000000000000000000000000f8
:20818700000000000c3000000000000000000000000000000000000000000000000000009c
:2081a7000000000000000000000000000000000000000000000000000000000000000000b8
:1681c70000000000000000000000000000000000000000000000a2
:2081dd000000000000c30200000000000000000000000000000000000000000000000000bd
:2081fd00000000000000000000000000000000000000000000000000000000000000000062
:17821d0000000000000000000000000000000000000000000000004a
:20823400000000000c300000000000000000000000000000000000000000000000000000ee
:2082540000000000000000000000000000000000000000000000000000000000000000000a
:1682740000000000000000000000000000000000000000000000f4
:20828a000000000000c302000000000000000000000000000000000000000000000000000f
:2082aa000000000000000000000000000000000000000000000000000000000000000000b4
:1782ca0000000000000000000000000000000000000000000000009d
:2082e100000000000c30000000000000000000000000000000000000000000000000000041
:2083010000000000000000000000000000000000000000000000000000000000000000005c
:168321000000000000000000000000000000000000000000000046
:208337000000000000c3020000000000000000000000000000000000000000000000000061
:20835700000000000000000000000000000000000000000000000000000000000000000006
:178377000000000000000000000000000000000000000000000000ef
:20838e00000000000c30000000000000000000000000000000000000000000000000000093
:2083ae000000000000000000000000000000000000000000000000000000000000000000af
:1683ce000000000000000000000000000000000000000000000099
:2083e4000000000000c30200000000000000000000000000000000000000000000000000b4
:20840400000000000000000000000000000000000000000000000000000000000000000058
:17842400000000000000000000000000000000000000000000000041
:20843b00000000000c300000000000000000000000000000000000000000000000000000e5
:20845b00000000000000000000000000000000000000000000000000000000000000000001
:16847b0000000000000000000000000000000000000000000000eb
:208491000000000000c3020000000000000000000000000000000000000000000000000006
:2084b1000000000000000000000000000000000000000000000000000000000000000000ab
:1784d100000000000000000000000000000000000000000000000094
:2084e800000000000c30000000000000000000000000000000000000000000000000000038
:20850800000000000000000000000000000000000000000000000000000000000000000053
:16852800000000000000000000000000000000000000000000003d
:20853e000000000000c3020000000000000000000000000000000000000000000000000058
:20855e000000000000000000000000000000000000000000000000000000000000000000fd
:17857e000000000000000000000000000000000000000000000000e6
:20859500000000000c3000000000000000000000000000000000000000000000000000008a
:2085b5000000000000000000000000000000000000000000000000000000000000000000a6
:1685d5000000000000000000000000000000000000000000000090
:2085eb000000000000c30200000000000000000000000000000000000000000000000000ab
:20860b0000000000000000000000000000000000000000000000000000000000000000004f
:17862b00000000000000000000000000000000000000000000000038
:20864200000000000c300000000000000000000000000000000000000000000000000000dc
:208662000000000000000000000000000000000000000000000000000000000000000000f8
:1686820000000000000000000000000000000000000000000000e2
:208698000000000000c30200000000000000000000000000000000000000000000000000fd
:2086b8000000000000000000000000000000000000000000000000000000000000000000a2
:1786d80000000000000000000000000000000000000000000000008b
:2086ef00000000000c3000000000000000000000000000000000000000000000000000002f
:20870f0000000000000000000000000000000000000000000000000000000000000000004a
:16872f000000000000000000000000000000000000000000000034
:208745000000000000c302000000000000000000000000000000000000000000000000004f
:208765000000000000000000000000000000000000000000000000000000000000000000f4
:178785000000000000000000000000000000000000000000000000dd
:20879c00000000000c30000000000000000000000000000000000000000000000000000081
:2087bc0000000000000000000000000000000000000000000000000000000000000000009d
:1687dc000000000000000000000000000000000000000000000087
:2087f2000000000000c30200000000000000000000000000000000000000000000000000a2
:20881200000000000000000000000000000000000000000000000000000000000000000046
:1788320000000000000000000000000000000000000000000000002f
:20884900000000000c300000000000000000000000000000000000000000000000000000d3
:208869000000000000000000000000000000000000000000000000000000000000000000ef
:1688890000000000000000000000000000000000000000000000d9
:20889f000000000000c30200000000000000000000000000000000000000000000000000f4
:2088bf00000000000000000000000000000000000000000000000000000000000000000099
:1788df00000000000000000000000000000000000000000000000082
:2088f600000000000c30000000000000000000000000000000000000000000000000000026
:20891600000000000000000000000000000000000000000000000000000000000000000041
:16893600000000000000000000000000000000000000000000002b
:20894c000000000000c3020000000000000000000000000000000000000000000000000046
:20896c000000000000000000000000000000000000000000000000000000000000000000eb
:17898c000000000000000000000000000000000000000000000000d4
:2089a300000000000c30000000000000000000000000000000000000000000000000000078
:2089c300000000000000000000000000000000000000000000000000000000000000000094
:1689e300000000000000000000000000000000000000000000007e
:2089f9000000000000c3020000000000000000000000000000000000000000000000000099
:208a190000000000000000000000000000000000000000000000000000000000000000003d
:178a3900000000000000000000000000000000000000000000000026
:208a5000000000000c300000000000000000000000000000000000000000000000000000ca
:208a70000000000000000000000000000000000000000000000000000000000000000000e6
:168a900000000000000000000000000000000000000000000000d0
:208aa6000000000000c30200000000000000000000000000000000000000000000000000eb
:208ac600000000000000000000000000000000000000000000000000000000000000000090
:178ae600000000000000000000000000000000000000000000000079
:208afd00000000000c3000000000000000000000000000000000000000000000000000001d
:208b1d00000000000000000000000000000000000000000000000000000000000000000038
:168b3d000000000000000000000000000000000000000000000022
:208b53000000000000c302000000000000000000000000000000000000000000000000003d
:208b73000000000000000000000000000000000000000000000000000000000000000000e2
:178b93000000000000000000000000000000000000000000000000cb
:208baa00000000000c3000000000000000000000000000000000000000000000000000006f
:208bca0000000000000000000000000000000000000000000000000000000000000000008b
:168bea000000000000000000000000000000000000000000000075
:208c00000000000000c302000000000000000000000000000000000000000000000000008f
:208c2000000000000000000000000000000000000000000000000000000000000000000034
:178c400000000000000000000000000000000000000000000000001d
:208c5700000000000c300000000000000000000000000000000000000000000000000000c1
:208c77000000000000000000000000000000000000000000000000000000000000000000dd
:168c970000000000000000000000000000000000000000000000c7
:208cad000000000000c30200000000000000000000000000000000000000000000000000e2
:208ccd00000000000000000000000000000000000000000000000000000000000000000087
:178ced00000000000000000000000000000000000000000000000070
:208d040000000000000000000000000000000000000000000000000000000000000000004f
:208d240000000000000000000000000000000000000000000000000000000000000000002f
:20a2a400000000000c3000000000000000000000000000000000000000000000000000005e
:20a2c40000000000000000000000000000000000000000000000000000000000000000007a
:16a2e4000000000000000000000000000000000000000000000064
:20a2fa000000000000c302000000000000000000000000000000000000000000000000007f
:20a31a00000000000000000000000000000000000000000000000000000000000000000023
:17a33a0000000000000000000000000000000000000000000000000c
:20a35100000000000c300000000000000000000000000000000000000000000000000000b0
:20a371000000000000000000000000000000000000000000000000000000000000000000cc
:16a3910000000000000000000000000000000000000000000000b6
:20a3a7000000000000c30200000000000000000000000000000000000000000000000000d1
:20a3c700000000000000000000000000000000000000000000000000000000000000000076
:17a3e70000000000000000000000000000000000000000000000005f
:20a3fe00000000000c30000000000000000000000000000000000000000000000000000003
:20a41e0000000000000000000000000000000000000000000000000000000000000000001e
:16a43e000000000000000000000000000000000000000000000008
:20a454000000000000c3020000000000000000000000000000000000000000000000000023
:20a474000000000000000000000000000000000000000000000000000000000000000000c8
:17a494000000000000000000000000000000000000000000000000b1
:20a4ab00000000000c30000000000000000000000000000000000000000000000000000055
:20a4cb00000000000000000000000000000000000000000000000000000000000000000071
:16a4eb00000000000000000000000000000000000000000000005b
:20a501000000000000c3020000000000000000000000000000000000000000000000000075
:20a5210000000000000000000000000000000000000000000000000000000000000000001a
:17a54100000000000000000000000000000000000000000000000003
:20a55800000000000c300000000000000000000000000000000000000000000000000000a7
:20a578000000000000000000000000000000000000000000000000000000000000000000c3
:16a5980000000000000000000000000000000000000000000000ad
:20a5ae000000000000c30200000000000000000000000000000000000000000000000000c8
:20a5ce0000000000000000000000000000000000000000000000000000000000000000006d
:17a5ee00000000000000000000000000000000000000000000000056
:20a60500000000000c300000000000000000000000000000000000000000000000000000f9
:20a62500000000000000000000000000000000000000000000000000000000000000000015
:16a6450000000000000000000000000000000000000000000000ff
:20a65b000000000000c302000000000000000000000000000000000000000000000000001a
:20a67b000000000000000000000000000000000000000000000000000000000000000000bf
:17a69b000000000000000000000000000000000000000000000000a8
:20a6b200000000000c3000000000000000000000000000000000000000000000000000004c
:20a6d200000000000000000000000000000000000000000000000000000000000000000068
:16a6f2000000000000000000000000000000000000000000000052
:20a708000000000000c302000000000000000000000000000000000000000000000000006c
:20a72800000000000000000000000000000000000000000000000000000000000000000011
:17a748000000000000000000000000000000000000000000000000fa
:20a75f00000000000c3000000000000000000000000000000000000000000000000000009e
:20a77f000000000000000000000000000000000000000000000000000000000000000000ba
:16a79f0000000000000000000000000000000000000000000000a4
:20a7b5000000000000c30200000000000000000000000000000000000000000000000000bf
:20a7d500000000000000000000000000000000000000000000000000000000000000000064
:17a7f50000000000000000000000000000000000000000000000004d
:20a80c00000000000c300000000000000000000000000000000000000000000000000000f0
:20a82c0000000000000000000000000000000000000000000000000000000000000000000c
:16a84c0000000000000000000000000000000000000000000000f6
:20a862000000000000c3020000000000000000000000000000000000000000000000000011
:20a882000000000000000000000000000000000000000000000000000000000000000000b6
:17a8a20000000000000000000000000000000000000000000000009f
:20a8b900000000000c30000000000000000000000000000000000000000000000000000043
:20a8d90000000000000000000000000000000000000000000000000000000000000000005f
:16a8f9000000000000000000000000000000000000000000000049
:20a90f000000000000c3020000000000000000000000000000000000000000000000000063
:20a92f00000000000000000000000000000000000000000000000000000000000000000008
:17a94f000000000000000000000000000000000000000000000000f1
:20a96600000000000c30000000000000000000000000000000000000000000000000000095
:20a986000000000000000000000000000000000000000000000000000000000000000000b1
:16a9a600000000000000000000000000000000000000000000009b
:20a9bc000000000000c30200000000000000000000000000000000000000000000000000b6
:20a9dc0000000000000000000000000000000000000000000000000000000000000000005b
:17a9fc00000000000000000000000000000000000000000000000044
:20aa1300000000000c300000000000000000000000000000000000000000000000000000e7
:20aa3300000000000000000000000000000000000000000000000000000000000000000003
:16aa530000000000000000000000000000000000000000000000ed
:20aa69000000000000c3020000000000000000000000000000000000000000000000000008
:20aa89000000000000000000000000000000000000000000000000000000000000000000ad
:17aaa900000000000000000000000000000000000000000000000096
:20aac000000000000c3000000000000000000000000000000000000000000000000000003a
:20aae000000000000000000000000000000000000000000000000000000000000000000056
:16ab0000000000000000000000000000000000000000000000003f
:20ab16000000000000c302000000000000000000000000000000000000000000000000005a
:20ab36000000000000000000000000000000000000000000000000000000000000000000ff
:17ab56000000000000000000000000000000000000000000000000e8
:20ab6d00000000000c3000000000000000000000000000000000000000000000000000008c
:20ab8d000000000000000000000000000000000000000000000000000000000400000000a4
:16abad000000000000000000000000000000000000000000000092
:20abc3000000000000c30200000000000000000000000000000000000000000000000000ad
:20abe300000000000000000000000000000000000000000000000000000000004000000012
:17ac030000000000000000000000000000000000000000000000003a
:20ac1a00000000000c300000000000000000000000000000000000000000000000000000de
:20ac3a000000000000000000000000000000000000000000000000000000000000000000fa
:16ac5a0000000000000000000000000000000000000000000000e4
:20ac70000000000000c30200000000000000000000000000000000000000000000000000ff
:20ac90000000000000000000000000000000000000000000000000000000000000000000a4
:17acb00000000000000000000000000000000000000000000000008d
:20acc700000000000c30000000000000000000000000000000000000000000000000000031
:20ace70000000000000000000000000000000000000000000000000000000000000000004d
:16ad07000000000000000000000000000000000000000000000036
:20ad1d000000000000c3020000000000000000000000000000000000000000000000000051
:20ad3d000000000000000000000000000000000000000000000000000000000000000000f6
:17ad5d000000000000000000000000000000000000000000000000df
:02ad74000000dd
:03ad760072015017
:02ad79001102c5
:02ad7b000101d4
:20ad7d0000000000000000000000001001000008000000000000000001001000008000000c
:20ad9d0000000002000000000000000000400002000000000000080000000000002000002a
:16adbd0000000000800000000000020000000000000000000004fa
:20add30000000000000000000010000a00000000400000000000010000e000000004000021
:20adf3000000000010000000000400000000000010000000000000400000000000010000db
:17ae13000000000004000000000000100000000000004000000000d4
:20ae2a000000000000000000000000000200000000000000000000000000200000000000e6
:20ae4a00000000000000000000000000008000000000000000000000000000000000000068
:16ae6a0000000000000000000000000000000000000000000008ca
:20ae8000000000000000000000200000000000000000000000000200000000000000000090
:20aea00000000000000000000008000000000000000000000000000000000000000000008a
:17aec0000000000000000000000000000000000000008000000000fb
:20aed700000000000000000000c00000010000000000000000000c0000001000000000007e
:20aef7000000000000000000001000040040000000000000000000000000000000000000e7
:16af17000000000000000000000000000000000000000000000420
:20af2d000000000000000000000c00000000000000000000000000c0000000000000000038
:20af4d0000000000000000000003000280000000000000000000000000000000000000005f
:17af6d0000000000000000000000000000000000000030000000009d
:20af84000000000000000000000000000000000000000000000000000000000000000000ad
:20afa40000000000000000000000000000000000000000000000000000000000000000008d
:16afc4000000000000000000000000000000000000000000000077
:20afda00000000000000000000000000000000000000000000000000000000000000000057
:20affa00000000000000000000000000000000000000000000000000000000000000000037
:17b01a0000000000000000000000000000000000000000000000001f
:20b031000000000000000000000040000000000000000000000000040000000000000000bb
:20b051000000000000000000000010000000000000000000000000000000000000000000cf
:16b0710000000000000000000000000000000000000001000000c8
:20b087000000000000000000000000000000000000000000000000000000000000000000a9
:20b0a700000000000000000000000000000000000000000000000020000000000000000069
:17b0c700000000000000000000000000000000000000000000000072
:20b0de00000000000000000000000000000000000000000000000000000000000000000052
:20b0fe00000000000000000000000000000000000000000000000000000000000000000032
:16b11e00000000000000000000000000000000000000000000001b
