:02000000ff00ff
:080002004c6174746963650030
:17000a00694345637562653220323031372e30382e32373934300069
:15002100506172743a2069434534305550354b2d53473438002c
:1b003600446174653a204d617920313620323031392032313a31383a31390073
:0200510000ffae
:040053007eaa997e6a
:02005700510056
:0200590001059f
:03005b00920020f0
:03005e006202b388
:03006100720150d9
:0300640082000017
:02006700110086
:02006900010193
:20006b00000000000000000000000010000000000000400000000000010000000000000420
:20008b000000000000001000000000000040000000001000000000000040000000000001b4
:1600ab0000000000000004000000000000100000000000004000eb
:2000c1000000000000000000000000020000000000000800000000000020000000000000f5
:2000e10080000000000002000000000000080000000002000000000000080000000000006b
:1701010020000000000000800000000000020000000000000800003d
:200118000000000000000000000000000000000000000000000000000000000000000000c7
:200138000000000000000000000000000000000000000000000000000000000000000000a7
:160158000000000000000000000000000000000000000001000090
:20016e00000000000000000000000000000000000000000000000000000000000000000071
:20018e00000000000000000000000000000000000000000000000000000000000000000051
:1701ae0000000000000000000000000000000000000000000000003a
:2001c50000000000000000000000000000000000000000000000000000000000000000001a
:2001e5000000000000000000000008000000000000000000000000000000000000000000f2
:1602050000000000000000000000000000000000000000000000e3
:20021b000000000000000000000000000000000000000000000000000000000000000000c3
:20023b00000000000000000000000050000000000000000000000000000000000000000053
:17025b0000000000000000000000000000000000000000000000008c
:2002720000000000000000000000000000000000000000000000000000000000000000006c
:2002920000000000000000000000000000000000000000000000000000000000000000004c
:1602b2000000000000000000000000000000000000000000000036
:2002c800000000000000000000000000000000000000000000000000000000000000000016
:2002e8000000000000000000000000000000000000000000000000000000000000000000f6
:170308000000000000000000000000000000000000000000000000de
:20031f000000000000000000000000000000000000000000000000000000000000000000be
:20033f00000000000000000000000000000000000000000000000000000000000000040199
:16035f000000000000000000000000000000000000000000000088
:20037500000000000000000000000000000000000000000000000000000000000000000167
:20039500000000000000000000000000000000000000000000000000000000000000000048
:1703b500000000000000000000000000000000000000000000000031
:2003cc00000000000000000000000000000000000000000000000000000000000000000011
:2003ec00000000000000000000000000008000000000000000000000000000000000000071
:16040c00000000000000000000000000000000000000000040009a
:200422000000000000000000000000000000000000000000000000000000000000000000ba
:20044200000000000000000000000000000c0000000000000000000000000000000000008e
:1704620000000000000000000000000000000000000030000400004f
:20047900000000000000000000000000000000000000000000000000000000000000000063
:20049900000000000000000000000000000000000000000000000000000000000000000043
:1604b900000000000000000000000000000000000000000000002d
:2004cf0000000000000000000000000000000000000000000000000000000000000000000d
:2004ef000000000000000000000000000000000000000000000000000000000010000100dc
:17050f000000000000000000000000000000000000000000000000d5
:200526000000000000000000000000000000000000000000000000000000000000000000b5
:20054600000000000000000000000000000000000000000000000000000000000000040091
:16056600000000000000000000000000000000000000000000007f
:20057c0000000000000000000000000000000000000000000000000000000000000000005f
:20059c0000000000000000000000000000000000000000000000000000000000000004003b
:1705bc00000000000000000000000000000000000000000000000028
:2005d300000000000c302000000000000000000000000000000000000000000000000000ac
:2005f3000000000000000000000000000000000000000000000000000000000000000000e8
:1606130000000000000000000000000000000000000000000000d1
:200629000000000000c30000000000000000000000000000000000000000000000000000ee
:20064900000000000000000000000000000000000000000000000000000000000000000091
:1706690000000000000000000000000000000000000000000000007a
:20068000000000000c302000000000000000000000000000000000000000000000000000fe
:2006a00000000000000000000000000000000000000000000000000000000000000000003a
:1606c0000000000000000000000000000000000000000000000024
:2006d6000000000000c3000000000000000000000000000000000000000000000000000041
:2006f6000000000000000000000000000000000000000000000000000000000000000000e4
:170716000000000000000000000000000000000000000000000000cc
:20072d00000000000c30200000000000000000000000000000000000000000000000000050
:20074d0000000000000000000000000000000000000000000000000000000000000000008c
:16076d000000000000000000000000000000000000000000000076
:200783000000000000c3000000000000000000000000000000000000000000000000000093
:2007a300000000000000000000000000000000000000000000000000000000000000000036
:1707c30000000000000000000000000000000000000000000000001f
:2007da00000000000c302000000000000000000000000000000000000000000000000000a3
:2007fa000000000000000000000000000000000000000000000000000000000000000000df
:16081a0000000000000000000000000000000000000000000000c8
:200830000000000000c30000000000000000000000000000000000000000000000000000e5
:20085000000000000000000000000000000000000000000000000000000000000000000088
:17087000000000000000000000000000000000000000000000000071
:20088700000000000c302000000000000000000000000000000000000000000000000000f5
:2008a700000000000000000000000000000000000000000000000000000000000000000031
:1608c700000000000000000000000000000000000000000000001b
:2008dd000000000000c3000000000000000000000000000000000000000000000000000038
:2008fd000000000000000000000000000000000000000000000000000000000000000000db
:17091d000000000000000000000000000000000000000000000000c3
:20093400000000000c30200000000000000000000000000000000000000000000000000047
:20095400000000000000000000000000000000000000000000000000000000000000000083
:16097400000000000000000000000000000000000000000000006d
:20098a000000000000c300000000000000000000000000000000000000000000000000008a
:2009aa0000000000000000000000000000000000000000000000000000000000000000002d
:1709ca00000000000000000000000000000000000000000000000016
:2009e100000000000c3020000000000000000000000000000000000000000000000000009a
:200a01000000000000000000000000000000000000000000000000000000000000000000d5
:160a210000000000000000000000000000000000000000000000bf
:200a37000000000000c30000000000000000000000000000000000000000000000000000dc
:200a570000000000000000000000000000000000000000000000000000000000000000007f
:170a7700000000000000000000000000000000000000000000000068
:200a8e00000000000c302000000000000000000000000000000000000000000000000000ec
:200aae00000000000000000000000000000000000000000000000000000000000000000028
:160ace000000000000000000000000000000000000000000000012
:200ae4000000000000c300000000000000000000000000000000000000000000000000002f
:200b04000000000000000000000000000000000000000000000000000000000000000000d1
:170b24000000000000000000000000000000000000000000000000ba
:200b3b00000000000c3020000000000000000000000000000000000000000000000000003e
:200b5b0000000000000000000000000000000000000000000000000000000000000000007a
:160b7b000000000000000000000000000000000000000000000064
:200b91000000000000c3000000000000000000000000000000000000000000000000000081
:200bb100000000000000000000000000000000000000000000000000000000000000000024
:170bd10000000000000000000000000000000000000000000000000d
:200be800000000000c30200000000000000000000000000000000000000000000000000091
:200c08000000000000000000000000000000000000000000000000000000000000000000cc
:160c280000000000000000000000000000000000000000000000b6
:200c3e000000000000c30000000000000000000000000000000000000000000000000000d3
:200c5e00000000000000000000000000000000000000000000000000000000000000000076
:170c7e0000000000000000000000000000000000000000000000005f
:200c9500000000000c302000000000000000000000000000000000000000000000000000e3
:200cb50000000000000000000000000000000000000000000000000000000000000000001f
:160cd5000000000000000000000000000000000000000000000009
:200ceb000000000000c3000000000000000000000000000000000000000000000000000026
:200d0b000000000000000000000000000000000000000000000000000000000000000000c8
:170d2b000000000000000000000000000000000000000000000000b1
:200d4200000000000c30200000000000000000000000000000000000000000000000000035
:200d6200000000000000000000000000000000000000000000000000000000000100000070
:160d8200000000000000000000000000000000000000000000005b
:200d98000000000000c3000000000000000000000000000000000000000000000000000078
:200db80000000000000000000000000000000000000000000000000000000000000000001b
:170dd800000000000000000000000000000000000000000000000004
:200def00000000000c30200000000000000000000000000000000000000000000000000088
:200e0f000000000000000000000000000000000000000000000000000000000000000000c3
:160e2f0000000000000000000000000000000000000000000000ad
:200e45000000000000c30000000000000000000000000000000000000000000000000000ca
:200e650000000000000000000000000000000000000000000000000000000000000000006d
:170e8500000000000000000000000000000000000000000000000056
:200e9c00000000000c302000000000000000000000000000000000000000000000000000da
:200ebc00000000000000000000000000000000000000000000000000000000000000000016
:160edc000000000000000000000000000000000000000000000000
:200ef2000000000000c300000000000000000000000000000000000000000000000000001d
:200f12000000000000000000000000000000000000000000000000000000000000000000bf
:170f32000000000000000000000000000000000000000000000000a8
:200f4900000000000c3020000000000000000000000000000000000000000000000000002c
:200f6900000000000000000000000000000000000000000000000000000000000000000068
:160f89000000000000000000000000000000000000000000000052
:200f9f000000000000c300000000000000000000000000000000000000000000000000006f
:200fbf00000000000000000000000000000000000000000000000000000000000000000012
:170fdf000000000000000000000000000000000000000000000000fb
:200ff600000000000c3020000000000000000000000000000000000000000000000000007f
:201016000000000000000000000000000000000000000000000000000000000000000000ba
:1610360000000000000000000000000000000000000000000000a4
:20104c000000000000c30000000000000000000000000000000000000000000000000000c1
:20106c00000000000000000000000000000000000000000000000000000000000000000064
:17108c0000000000000000000000000000000000000000000000004d
:2010a300000000000c302000000000000000000000000000000000000000000000000000d1
:2010c30000000000000000000000000000000000000000000000000000000000000000000d
:1610e30000000000000000000000000000000000000000000000f7
:2010f9000000000000c3000000000000000000000000000000000000000000000000000014
:201119000000000000000000000000000000000000000000000000000000000000000000b6
:1711390000000000000000000000000000000000000000000000009f
:20115000000000000c30200000000000000000000000000000000000000000000000000023
:2011700000000000000000000000000000000000000000000000000000000000000000005f
:161190000000000000000000000000000000000000000000000049
:2011a6000000000000c3000000000000000000000000000000000000000000000000000066
:2011c600000000000000000000000000000000000000000000000000000000000000000009
:1711e6000000000000000000000000000000000000000000000000f2
:2011fd00000000000c30200000000000000000000000000000000000000000000000000076
:20121d000000000000000000000000000000000000000000000000000000000000000000b1
:16123d00000000000000000000000000000000000000000000009b
:201253000000000000c30000000000000000000000000000000000000000000000000000b8
:2012730000000000000000000000000000000000000000000000000000000000000000005b
:17129300000000000000000000000000000000000000000000000044
:2012aa00000000000c302000000000000000000000000000000000000000000000000000c8
:2012ca00000000000000000000000000000000000000000000000000000000000000000004
:1612ea0000000000000000000000000000000000000000000000ee
:201300000000000000c300000000000000000000000000000000000000000000000000000a
:201320000000000000000000000000000000000000000000000000000000000000000000ad
:17134000000000000000000000000000000000000000000000000096
:20135700000000000c3020000000000000000000000000000000000000000000000000001a
:20137700000000000000000000000000000000000000000000000000000000000000000056
:161397000000000000000000000000000000000000000000000040
:2013ad000000000000c300000000000000000000000000000000000000000000000000005d
:2013cd00000000000000000000000000000000000000000000000000000000000000000000
:1713ed000000000000000000000000000000000000000000000000e9
:20140400000000000c3020000000000000000000000000000000000000000000000000006c
:201424000000000000000000000000000000000000000000000000000000000000000000a8
:161444000000000000000000000000000000000000000000000092
:20145a000000000000c30000000000000000000000000000000000000000000000000000af
:20147a00000000000000000000000000000000000000000000000000000000000000000052
:17149a0000000000000000000000000000000000000000000000003b
:2014b100000000000c302000000000000000000000000000000000000000000000000000bf
:2014d1000000000000000000000000000000000000000000000000000000000000000000fb
:1614f10000000000000000000000000000000000000000000000e5
:201507000000000000c3000000000000000000000000000000000000000000000000000001
:201527000000000000000000000000000000000000000000000000000000000000000000a4
:1715470000000000000000000000000000000000000000000000008d
:20155e00000000000c30200000000000000000000000000000000000000000000000000011
:20157e0000000000000000000000000000000000000000000000000000000000000000004d
:16159e000000000000000000000000000000000000000000000037
:2015b4000000000000c3000000000000000000000000000000000000000000000000000054
:2015d4000000000000000000000000000000000000000000000000000000000000000000f7
:1715f4000000000000000000000000000000000000000000000000e0
:20160b00000000000c30200000000000000000000000000000000000000000020000000061
:20162b0000000000000000000000000000000000000000000000000000000000000000009f
:16164b000000000000000000000000000000000000000000000089
:201661000000000000c3000000000000000000000000000000000000000000004000000066
:20168100000000000000000000000000000000000000000000000000000000000000000049
:1716a100000000000000000000000000000000000000000000000032
:2016b800000000000c302000000000000000000000000000000000000000000000000000b6
:2016d8000000000000000000000000000000000000000000000000000000000000000000f2
:1616f80000000000000000000000000000000000000000000000dc
:20170e000000000000c30000000000000000000000000000000000000000000000000000f8
:20172e0000000000000000000000000000000000000000000000000000000000000000009b
:17174e00000000000000000000000000000000000000000000000084
:20176500000000000c30200000000000000000000000000000000000000000000000000008
:20178500000000000000000000000000000000000000000000000000000000000000000044
:1617a500000000000000000000000000000000000000000000002e
:2017bb000000000000c300000000000000000000000000000000000000000000000000004b
:2017db000000000000000000000000000000000000000000000000000000000000000000ee
:1717fb000000000000000000000000000000000000000000000000d7
:20181200000000000c3020000000000000000000000000000000000000000000000000005a
:20183200000000000000000000000000000000000000000000000000000000000000000096
:161852000000000000000000000000000000000000000000000080
:201868000000000000c300000000000000000000000000000000000000000000000000009d
:20188800000000000000000000000000000000000000000000000000000000000000000040
:1718a800000000000000000000000000000000000000000000000029
:2018bf00000000000c302000000000000000000000000000000000000000000000000000ad
:2018df000000000000000000000000000000000000000000000000000000000000000000e9
:1618ff0000000000000000000000000000000000a0000000000033
:201915000000000000c30000000000000000000000000000000000000000000000000000ef
:20193500000000000000000000000000000000000000000000000000000000000000000092
:1719550000000000000000000000000000000000000000000000007b
:20196c00000000000c302000000000000000000000000000000000000000000000000000ff
:20198c0000000000000000000000000000000000000000000000000000000000000000003b
:1619ac000000000000000000000000000000000000000000000025
:2019c2000000000000c3000000000000000000000000000000000000000000000000000042
:2019e2000000000000000000000000000000000000000000000000000000000000000000e5
:171a02000000000000000000000000000000000000000000000000cd
:201a1900000000000c30200000000000000000000000000000000000000000000000000051
:201a390000000000000000000000000000000000000000000000000000000000000000008d
:161a59000000000000000000000000000000000000000000000077
:201a6f000000000000c3000000000000000000000000000000000000000000000000000094
:201a8f00000000000000000000000000000000000000000000000000000000000000000037
:171aaf00000000000000000000000000000000000000000000000020
:201ac600000000000c302000000000000000000000000000000000000000000000000000a4
:201ae6000000000000000000000000000000000000000000000000000000000000000000e0
:161b060000000000000000000000000000000000000000000000c9
:201b1c000000000000c30000000000000000000000000000000000000000000000000000e6
:201b3c00000000000000000000000000000000000000000000000000000000000000000089
:171b5c00000000000000000000000000000000000000000000000072
:201b7300000000000000000000000000000000000000000000000000000000000000000052
:201b9300000000000000000000000000000000000000000000000000000000000000000032
:20202e00000000000000000000000000000000000000000000000000000000010000000091
:20204e0000000400000000000000000000000400000000000000000000000000000000006a
:16206e00000000000000000000000000000000000000000000005c
:2020840000000000000000000000000000000000000000000000000000000000000000003c
:2020a40000000000000000000000000000000000000000000000000000000000000000001c
:1720c400000000000000000000000000000000000000000000000005
:2020db000000000000000000000000000000000000000000000000000000000000000000e5
:2020fb000000000000000000000000000000000000000000000000000000000000000000c5
:16211b0000000000000000000000000000000000000000000000ae
:2021310000000000000000000000000000000000000000000000000000000000000000008e
:2021510000000000000000000000000000000000000000000000000000000000000000006e
:17217100000000000000000000000000000000000000000000000057
:20218800000000000000000000000000000000000000000000000000000000000000000037
:2021a800000000000000000000000000000380000000000000000000000000000000000094
:1621c8000000000000000000000000000000000000000000000001
:2021de000000000000000000000000000000000000000000000000000000000000000000e1
:2021fe000000000000000000000000000000200000000000000000000000000000000000a1
:17221e000000000000000000000000000000000000000000000000a9
:20223500000000000000000000000000000000000000000000000000000000000000000089
:20225500000000000000000000000000000000000003bc1800000000000000000000000092
:162275000000000000000000000000000000000000000000000053
:20228b00000000000000000000000000000000000000000000000000000000000000000033
:2022ab0000000000000000000000000000000000000043c000000000000000000000000010
:1722cb000000000000000000000000000000000000000000000000fc
:2022e2000000000000000000000000000000000000000000000000000000000000000000dc
:20230200000000000000000000a0000000000000000000000000000000000000000000001b
:1623220000000000000000000000000000000000000000000000a5
:20233800000000000000000000000000000000000000000000000000000000000000000085
:20235800000000000000000000040000000000000000000000000000000000000000000061
:1723780000000000000000000000000000000000000000000000004e
:20238f0000000000000000000000000000000000000000000000000000000000000000002e
:2023af0000000000000000000000000000000000000000000000000000000000000000000e
:1623cf0000000000000000000000000000000000000000000000f8
:2023e5000000000000000000000000000000000000000000000000000000000000000000d8
:202405000000000000000000000000000000000000000000000000000000000000000000b7
:172425000000000000000000000000000000000000000000000000a0
:20243c00000000000000000000000000000000000000000000000000000000000000000080
:20245c00000000000000000000000000000000000000000000000000000000000000000060
:16247c00000000000000000000000000000000000000000000004a
:2024920000000000000000000000000000000000000000000000000000000000000000002a
:2024b20000000000000000000000000000000000000000000000000000000000000000000a
:1724d2000000000000000000000000000000000000000000000000f3
:2024e9000000000000000000000000000000000000000000000000000000000000000000d3
:202509000000000000000000000000000000000001000000000000000000000000000000b1
:16252900000000000000000000000000000000000000000000009c
:20253f0000000000000000000000000000000000000000000000000000000000000000007c
:20255f000000000000000000000000000000000000e000000000000000000000000000007c
:17257f00000000000000000000000000000000000000000000000045
:20259600000000000000000000000000000000000000000000000000000000000000000025
:2025b6000000000000000000000000000000000000000000000000000000000008000000fd
:1625d60000000000000000000000000000000000000000000000ef
:2025ec000000000000000000000000000000000000000000000000000000000000000000cf
:20260c000000000000000000000000000000000000000000000000000000000000000000ae
:17262c00000000000000000000000000000000000000000000000097
:20264300000000000000000000000000000000000000000000000000000000000000000077
:20266300000000000000000000000000000000000000000000000000000000000000000057
:162683000000000000000000000000000000000000000000000041
:20269900000000000000000000000000000000000000000000000000000000000000000021
:2026b900000000000000000000000000000000000000000000000000000000000000000001
:1726d9000000000000000000000000000000000000000000000000ea
:2026f0000000000000000000000000000000000000000000000000000000000000000000ca
:202710000000000000000000000000000000000000000000000000000000000000000000a9
:162730000000000000000000000000000000000000000000000093
:20274600000000000000000000000000000000000000000000000000000000000000000073
:20276600000000000000000000000000000000000000000000000000000000000000000053
:1727860000000000000000000000000000000000000000000000003c
:20279d0000000000000000000000000000000000000000000000000000000000000000001c
:2027bd000000000000000000000000000000000000000000000000000000000000000000fc
:1627dd0000000000000000000000000000000000000000000000e6
:2027f3000000000000000000000000000000000000000000000000000000000000000000c6
:202813000000000000000000000000000000000000000000000000000000000000000000a5
:1728330000000000000000000000000000000000000000000000008e
:20284a0000000000000000000000000000000000000000000000000000000000000000006e
:20286a0000000000000000000000000000000000000000000000000000000000000000004e
:16288a000000000000000000000000000000000000000000000038
:2028a000000000000000000000000000000000000000000000000000000000000000000018
:2028c0000000000000000000000000000000000000000000000000000000000000000000f8
:1728e0000000000000000000000000000000000000000000000000e1
:2028f7000000000000000000000000000000000000000000000000000000000000000000c1
:202917000000000000000000000000000000000000000000000000000000000000000000a0
:162937000000000000000000000000000000000100000000000089
:20294d0000000000000000000000000000000000000000000000000000000000000000006a
:20296d0000000000000000000000000000000000000000000000000000000000000000004a
:17298d00000000000000000000000000000000000000000000000033
:2029a400000000000000000000000000000000000000000000000000000000000000000013
:2029c4000000000000000000000000000000000000000000000000000000000000000000f3
:1629e40000000000000000000000000000000000000100000000dc
:2029fa000000000000000000000000000000000000000000000000000000000000000000bd
:202a1a0000000000000000000000000000000000000000000000000000000000000000009c
:172a3a00000000000000000000000000000000000000000000000085
:202a5100000000000000000000000000000000000000000000000000000000000000000065
:202a7100000000000000000000000000000000000000000000000000000000000000000045
:162a9100000000000000000000000000000000000000000000002f
:202aa70000000000000000000000000000000000000000000000000000000000000000000f
:202ac7000000000000000000000000000000000000000000000000000000000000000000ef
:172ae7000000000000000000000000000000000000000000000000d8
:202afe000000000000000000000000000000000000000000000000000000000000000000b8
:202b1e00000000000000000000000000000000000000000000000000000000000000000097
:162b3e000000000000000000000000000000000000000000000081
:202b5400000000000000000000000000000000000000000000000000000000000000000061
:202b7400000000000000000000000000000000000000000000000000000000000000000041
:172b940000000000000000000000000000000000000000000000002a
:202bab0000000000000000000000000000000000000000000000000000000000000000000a
:202bcb000000000008000000000000000000000000000000000000000000000000000000e2
:162beb0000000000000000000000000000000000000000000000d4
:202c01000000000000000000000000000000000000000000000000000000000000000000b3
:202c2100000000000000000000000000000000000000000000000000000000000000000093
:172c410000000000000000000000000000000000000000000000007c
:202c580000000000000000000000000000000000000000000000000000000000000000005c
:202c78000003800000000000000000000000000000000000000000000000000000000000b9
:162c98000000000000000000000000000000000000000000000026
:202cae00000000000000000000000000000000000000000000000000000000000000000006
:202cce000000200000000000000000000000000000000000000000000000000000000000c6
:172cee000000000000000000000000000000000000000000000000cf
:202d05000000000000000000000000000000000000000000000000000000000000000000ae
:202d25000000000000023c1000000000000000000000000000000000000000000000000040
:162d45000000000000000000000000000000000000000000000078
:202d5b00000000000000000000000000000000000000000000000000000000000000000058
:202d7b0000000000000043c000000000000000000000000000000000000000000000000035
:172d9b00000000000000000000000000000000000000000000000021
:202db200000000000000000000000000000000000000000000000000000000000000000001
:202dd2000000000000000000000000000000000000000000000000000000000000000000e1
:162df20000000000000000000000000000000000000000000000cb
:202e08000000000000000000000000000000000000000000000000000000000000000000aa
:202e280000000000000000000000000000000000000000000000000000000000000000008a
:172e4800000000000000000000000000000000000000000000000073
:202e5f00000000000000000000000000000000000000000000000000000000000000000053
:202e7f00000000000000000000000000000000000000000000000000000000000000000033
:162e9f00000000000000000000000000000000000000000000001d
:202eb5000000000000000000000000000000000000000000000000000000000000000000fd
:202ed5000000000000000000000000000000000000000000000000000000000000000000dd
:172ef5000000000000000000000000000000000000000000000000c6
:202f0c000000000000000000000000000000000000000000000000000000000000000000a5
:202f2c00000000000000000000000000000000000000000000000000000000000000000085
:162f4c00000000000000000000000000000000000000000000006f
:202f620000000000000000000000000000000000000000000000000000000000000000004f
:202f820000000000000000000000000000000000000000000000000000000000000000002f
:172fa200000000000000000000000000000000000000000000000018
:202fb9000000000000000000000000000000000000000000000000000000000200000000f6
:202fd9000000000000000000000000000000000000000000000000000000000000000000d8
:162ff90000000000000000000000000000000000000000000000c2
:20300f00000000000000000000000000000000000000000000000000000000004000000061
:20302f00000000000000000000000000000000000000000000000000000000000000000081
:17304f0000000000000000000000000000000000000000000000006a
:2030660000000000000000000000000000000000000000000000000000000000000000004a
:2030860000000000000000000000000000000000000000000000000000000000000000002a
:1630a6000000000000000000000000000000000000000000000014
:2030bc000000000000000000000000000000000000000000000000000000000000000000f4
:2030dc000000000000000000000000000000000000000000000000000000000000000000d4
:1730fc000000000000000000000000000000000000000000000000bd
:20311300000000000c30200000000000000000000000000000000000000000000000000040
:2031330000000000000000000000000000000000000000000000000000000000000000007c
:163153000000000000000000000000000000000000000000000066
:203169000000000000c3000000000000000000000000000000000000000000000000000083
:20318900000000000000000000000000000000000000000000000000000000000000000026
:1731a90000000000000000000000000000000000000000000000000f
:2031c000000000000c30200000000000000000000000000000000000000000e000000000b3
:2031e0000000000000000000000000000000000000000000000000000000000000000000cf
:1632000000000000000000000000000000000000000000000000b8
:203216000000000000c30000000000000000000000000000000000000000000800000000cd
:20323600000000000000000000000000000000000000000000000000000000000000000078
:17325600000000000000000000000000000000000000000000000061
:20326d00000000000c3020000000000000000000000000000000000000000000000040aff6
:20328d0004000000000000000000000000000000000000000000000000000000000000001d
:1632ad00000000000000000000000000000000000000000000000b
:2032c3000000000000c30000000000000000000000000000000000000000000000002410f4
:2032e300f000000000000000000000000000000000000000000000000000000000000000db
:173303000000000000000000000000000000000000000000000000b3
:20331a00000000000c30200000000000000000000000000000000000000000000000000037
:20333a00000000000000000000000000000000000000000000000000000000000000000073
:16335a00000000000000000000000000000000000000000000005d
:203370000000000000c300000000000000000000000000000000000000000000000000007a
:2033900000000000000000000000000000000000000000000000000000000000000000001d
:1733b000000000000000000000000000000000000000000000000006
:2033c700000000000c3020000000000000000000000000000000000000000000000000008a
:2033e7000000000000000000000000000000000000000000000000000000000000000000c6
:1634070000000000000000000000000000000000000000000000af
:20341d000000000000c30000000000000000000000000000000000000000000000000000cc
:20343d0000000000000000000000000000000000000000000000000000000000000000006f
:17345d00000000000000000000000000000000000000000000000058
:20347400000000000c302000000000000000000000000000000000000000000000000000dc
:20349400000000000000000000000000000000000000000000000000000000000000000018
:1634b4000000000000000000000000000000000000000000000002
:2034ca000000000000c300000000000000000000000000000000000000000000000000001f
:2034ea000000000000000000000000000000000000000000000000000000000000000000c2
:17350a000000000000000000000000000000000000000000000000aa
:20352100000000000c3020000000000000000000000000000000000000000000000000002e
:2035410000004000000000000000000000000000000000000000000000000000000000002a
:163561000000000000000000000000000000000000000000000054
:203577000000000000c3000000000000000000000000000000000000000000000000000071
:20359700000000000000000000000000000000000000000000000000000000000000000014
:1735b7000000000000000000000000000000000000000000000000fd
:2035ce00000000000c30200000000000000000000000000000000000000000000000000081
:2035ee000000000000000000000000000000000000000000000000000000000000000000bd
:16360e0000000000000000000000000000000000000000000000a6
:203624000000000000c30000000000000000000000000000000000000000000000000000c3
:20364400000000000000000000000000000000000000000000000000000000000000000066
:1736640000000000000000000000000000000000000000000000004f
:20367b0000000000000000000000000000000000000000000000000000000000000000af80
:20369b00040800000000000000000000000000000000000000000000000000000000000003
:1636bb0000000000000000000000000000000000000000000000f9
:2036d1000000000000000000000000000000000000000000000000000000000000000010c9
:2036f100f000000000000000000000000000000000000000000000000000000000000000c9
:173711000000000000000000000000000000000000000000000000a1
:20372800000000000000000000000000000000000000000000000000000000e000000000a1
:20374800000000000000000000000000000000000000000000000000000000000000000061
:16376800000000000000000000000000000000000000000000004b
:20377e00000000000000000000000000000000000000000000000000000000080000000023
:20379e0000000000000000000000000000000000000000000000000000000000000000000b
:1737be000000000000000000000000000000000000000000000000f4
:2037d5000000000000000000000000000000000000000000000000000000000000000000d4
:2037f5000000000000000000000000000000000000000000000000000000000000000000b4
:16381500000000000000000000000000000000000000000000009d
:20382b00000000000000000000000000000000000000000000000000000000000000280055
:20384b0000000000000000000000000000000000000000000000000000000000000000005d
:17386b00000000000000000000000000000000000000000000000046
:20388200000000000000000000000000000000000000000000000000000000000000000026
:2038a200000000000000000000000000000000000000000000000000000000000000000006
:17428e00000000000000000000000000000000000000020000000017
:2042a5000000000000000000000000000000000000000000000000000000000000000000f9
:2042c5000000000000000000000000000000000000000000000000000000000008000000d1
:1642e50000000000000000000000000000000000000000000000c3
:2042fb000000000000000000000000000000000000000000000000000000000000000000a3
:20431b00000000000000000000000000000000000000000000000000000000000000000082
:17433b0000000000000000000000000000000000000000000000006b
:2043520000000000000000000000000000000000000000000000000000000000000000004b
:2043720000000000000000000000000000000000000000000000000000000000000000002b
:164392000000000000000000000000000000000000000000000015
:2043a8000000000000000000000000000000000000000000000000000000000000000000f5
:2043c8000000000000000000000000000000000000000000000000000000000000000000d5
:1743e8000000000000000000000000000000000000000000000000be
:2043ff00000000000000000000000000000000000000000000000000000000080000000096
:20441f0000000000000000000000000000000000000000000000000000000000000000007d
:16443f000000000000000000000000000000000000000000000067
:20445500000000000000000000000000000000000000000000000000000000000000000047
:20447500000000000000000000000000000000000000000000000000000000000000000027
:17449500000000000000000000000000000000000000000000000010
:2044ac000000000000000000000000000000000000000000000000000000000000000000f0
:2044cc000000000000000000000000000000000000000000000000000000000000000000d0
:1644ec000000000000000000000000000000000c000000000000ae
:20450200000000000000000000000000000000000000000000000000000000000000000099
:20452200000000000000000000000000000000000000000000000000000000000000000079
:17454200000000000000000000000000000000004000000000000022
:20455900000000000000000000000000000000000000000000000000000000000000000042
:20457900000000000000000000000000000000000000000000000000000000000000000022
:1645990000000000000000000000000000000000001e00000000ee
:2045af000000000000000000000000000000000000000000000000000000000000000000ec
:2045cf000000000000000000000000000000000000000000000000000000000000000000cc
:1745ef00000000000000000000000000000000000000200000000095
:20460600000000000000000000000000000000000000000000000000000000000000000094
:20462600000000000000000000000000000000000000000000000000000000000000000074
:16464600000000000000000000000000000000000000006eaf0041
:20465c008000000000000000000000000000000000000000000000000000000000000000be
:20467c0000000000000000000000000000000000000000000000000000000000000000001e
:17469c0000000000000000000000000000000000000000020af0000b
:2046b3000000000000000000000000000000000000000000000000000000000000000000e7
:2046d3000000000000000000000000000000000000000000000000000000000000000000c7
:1646f30000000000000000000000000000000000000000000000b1
:20470900000000000000000000000000000000000000000000000000000000000000000090
:20472900000000000000000000000000000000000000000000000000000000000000000070
:17474900000000000000000000000000000000000000000000000059
:20476000000000000000000000000000000000000000000000000000000000e00000000059
:20478000000380000000000000000000000000000000000000000000000000000000000096
:1647a0000000000000000000000000000000000000000000000003
:2047b6000000000000000000000000000000000000000000000000000000000800000000db
:2047d6000000200000000000000000000000000000000000000000000000000000000000a3
:1747f6000000000000000000000000000000000000000000000000ac
:20480d00000000000000000000000000000000000000000000000000000000000006000085
:20482d0000000000000000000000000000000000000000000000000000000000000000006b
:16484d000000000000000000000000000000000000000000000055
:20486300000000000000000000000000000000000000000000000000000000000000000035
:20488300000000000000000000000000000000000000000000000000000000000000000015
:1748a3000000000000000000000000000000000000000000000000fe
:2048ba000000000000000000000000000000000000000000000000000000000000000ea927
:2048da0064000000000000000000000000000000000000000000000000000000000000005a
:1648fa0000000000000000000000000000000000000000000000a8
:20491000000000000000000000000000000000000000000000000000000000000000003057
:20493000960140000000000000000000000000000000000000000000000000000000000090
:17495000000000000000000000000000000000000000000000000050
:20496700000000000000000000000000000000000000000000000000000000000000000030
:20498700000000000000000000000000000000000000000000000000000000000000000010
:1649a70000000000000000000000000000000000000000000000fa
:2049bd000000000000000000000000000000000000000000000000000000000000000000da
:2049dd000000000000000000000000000000000000000000000000000000000000000000ba
:1749fd000000000000000000000000000000000000000000000000a3
:204a1400000000000000000000000000000000000000000000000000000000000000400042
:204a340000000008000000000000000000000000000000000000000000000000000000005a
:164a5400000000000000000000000000000000000000000000004c
:204a6a00000000000000000000000000000000000000000000000000000000000000280004
:204a8a000000000030000000000000000000000000000000000000000000000000000000dc
:174aaa000000000000000000000000000000000000000000000000f5
:204ac1000000000000000000000000000000000000000000000000000000000000000000d5
:204ae10000000000000783d04000000000000000000000000000000000000000000000001b
:164b0100000000000000000000000000000000000000000000009e
:204b170000000000000000000000000000000000000000000000000000000000000000007e
:204b3700000000000000403c000000000000000000000000000000000000000000000000e2
:174b5700000000000000000000000000000000000000000000000047
:204b6e00000000000000000000000000000000000000000000000000000000c000e0000087
:204b8e00000300000100000000000000000000000000000000000000000000000000000003
:164bae0000000000000000000000000000000000000000000000f1
:204bc4000000000000000000000000000000000000000000000000000000000c00000000c5
:204be400000010000080000000000000000000000000000000000000000000000000000021
:174c0400000000000000000000000000000000000000000000000099
:204c1b00000000000c3020000000000000000000000000000000000000000000000000001d
:204c3b00000000000000000000000000000000000000000000000000000000000000000059
:164c5b000000000000000000000000000000000000000000000043
:204c71000000000000c3000000000000000000000000000000000000000000000000000060
:204c9100000000000000000000000000000000000000000000000000000000000000000003
:174cb1000000000000000000000000000000000000000000000000ec
:204cc800000000000c30200000000000000000000000000000000000000000e00000000090
:204ce8000000000000000000000000000000000000000000000000000000000000000000ac
:164d08000000000000000000000000000000000000000000000095
:204d1e000000000000c30000000000000000000000000000000000000000000800000000aa
:204d3e00000000000000000000000000000000000000000000000000000000000000000055
:174d5e0000000000000000000000000000000000000000000000003e
:204d7500000000000c30200000000000000000000000000000000000000000000140000081
:204d95000000000000000000000000000000000000000000000000000000000000000000fe
:164db50000000000000000000000000000000000000000000000e8
:204dcb000000000000c3000000000000000000000000000000000000000000000002000003
:204deb000000000000000000000000000000000000000000000000000000000000000000a8
:174e0b00000000000000000000000000000000000000000000000090
:204e2200000000000c302000000000000000000000000000000000000000000000007eaaec
:204e4200f00000000000000000000000000000000000000000000000000000000000000060
:164e6200000000000000000000000000000000000000000000003a
:204e78000000000000c30000000000000000000000000000000000000000000000002360d4
:204e98000a00000000000000000000000000000000000000000000000000000000000000f0
:174eb8000000000000000000000000000000000000000000000000e3
:204ecf00000000000c30200000000000000000000000000000000000000000000000000067
:204eef000000000000000000000000000000000000000000000000000000000000000000a3
:164f0f00000000000000000000000000000000000000000000008c
:204f25000000000000c30000000000000000000000000000000000000000000000000000a9
:204f450000000000000000000000000000000000000000000000000000000000000000004c
:174f6500000000000000000000000000000000000000000000000035
:204f7c00000000000c302000000000000000000000000000000000000000000000000000b9
:204f9c000000000000000000000000000000000000000000000000000000000000000000f5
:164fbc0000000000000000000000000000000000000000000000df
:204fd2000000000000c30000000000000000000000000000000000000000000000000000fc
:204ff20000000000000000000000000000000000000000000000000000000000000000009f
:17501200000000000000000000000000000000000000000000000087
:20502900000000000c3020000000000000000000000000000000000000000000000000ef1c
:2050490004180000000000000000000000000000000000000000000000000000000000002b
:165069000000000000000000000000000000000000000000000031
:20507f000000000000c300000000000000000000000000000000000000000000000c000042
:20509f00f00000000000000000000000000000000000000000000000000000000000000001
:1750bf000000000000000000000000000000000000000000000000da
:2050d600000000000c3020000000000000000000000000000000000000000001000300005a
:2050f600000004000000000000000000000000000000000000000000000000000000000096
:165116000000000000000000000000000000000000000000000083
:20512c000000000000c3000000000000000000000000000000000000000000000000400060
:20514c00000000000000000000000000000000000000000000000000000000000000000043
:17516c0000000000000000000000000000000000010000000000002b
:2051830000000000000000000000000000000000034a0560000080000000000400028ce068
:2051a300a000000000184020000000000000000000000000000000000000000000000000d4
:1651c30000000000000000000000000000000000000000000000d6
:2051d90000000000000000000000000000000000001d05500000050b00000000a000001084
:2051f9000a0000000000a000000000000000000000000000000000000000000000000000ec
:1752190000000000000000000000000000000000000000000000007e
:20523000000000000000000000000000000e002000000000000100097a8000e0020006a0a4
:20525000a40380001c723c300000000000000000000000000000000000000000000000001d
:165270000000000000000000000000000000000000000000000028
:20528600000000000000000000000000000080004000000000002000500000080c04025e60
:2052a600010020007100003c0000000000000000000000000000000000000000000000001a
:1752c6000000000000000000000000000000000000000000000000d1
:2052dd0000000000000000000000000000000020014d514000000010000000001202a1b03d
:2052fd002000000019523c300000000000000000000000000000000000000000000000009a
:16531d00000000000000000000000000000000000000000000007a
:2053330000000000000000000000000000000003c3eee8a01000000a00000000000442cfef
:20535300010000080080803c000000000000000000000000000000000000000000000000f5
:17537300000000000000000000000000000000000000000000000023
:20538a0000000000000000000000000000000000000000000000800000000000000046af8e
:2053aa0040a0000780523c30000000000000000000000000000000000000000000000000be
:1653ca0000000000000000000000000000000000000000000000cd
:2053e0000000000000000000000000000000000000000000000005000000000000343550ef
:20540000fc1000020000803c000000000000000000000000000000000000000000000000c2
:17542000000000000000000000000000000000000000000000000075
:2054370000000000000000000000000000000016074b054100000000000000000066efc092
:2054570050000000007a3c30000000000000000000000000000000000000000000000000ff
:16547700000000000000000000000000000000000000000000001f
:20548d00000000000000000000000000000000000205eca0000000000000000000002ad072
:2054ad00000000000000003c000000000000000000000000000000000000000000000000a3
:1754cd000000000000000000000000000000000000000000000000c8
:2054e40000000000000000000000000000000000000000000000000921c00000016641e036
:20550400b2200000007a3c38000000000000000000000000000000000000000000000000c7
:165524000000000000000000000000000000000000000000000071
:20553a0000000000000000000000000000000000000000000000000056fc000000002bd004
:20555a00070000000000003c000000000000000000000000000000000000000000004000ae
:17557a0000000000000000000000000000000000000000000000001a
:2055910000000000000000000000000000000000000000000000000000000000036001a8ee
:2055b10000100001807a15504000000000000000000000000000000000000000000000002a
:1655d10000000000000000000000000000000000000000000000c4
:2055e70000000000000000000000000000000000000000000000000000000000002c2ddd6e
:205607004000000500008154a00000000000000000000000000000000000000000000000c9
:1756270000000000000000000000000000000000000000000000006c
:20563e00000000000000000400000000000c101600000000004058000000000102038cf1fb
:20565e00c001040981000000000000000000000000000000001000000000000000000000cd
:16567e000000000000000000000000000000000000000000000016
:2056940000000000000000004000000000008100000000000004000000000000101402ee1d
:2056b4003c0030001080000000000000000000400000000000010000000000000000000099
:1756d4000000000000000000000000000000000000000000000000bf
:2056eb000000000000000000000000000000000003da050000001807ba800200000646c94d
:20570b00600000038a00000000000000000000000000000000000000000000000000000091
:16572b000000000000000000000000000000000000000000000068
:205741000000000000000000000000000000000002bf00f000000080b00000000000640003
:2057610096000000080000000000000000000000000000000000000000000000000000008a
:17578100000000000000000000000000000000000000000000000011
:20579800000000000000000000000000000000000000000038000007e80408e003407fce4e
:2057b800342801000000000000000000000000000000000000000000000000000000000074
:1657d80000000000000000000000000000000000000000000000bb
:2057ee000000000000000000000000000000000000000000020000003c000018002625609a
:20580e00c300000000000000000000000000000000000000000000000000000000000000b7
:17582e00000000000000000000000000000000000000000000000063
:205845000000000000000000000000000000000000000000000098057015080000606cf05d
:2058650000000000001202800000000000000000000000000000000000000000000000008f
:16588500000000000000000000000000000000000000000000000d
:20589b00000000000000000000000000000000014000000000000580540100100002287a1e
:2058bb00400000000000402800000000000000000000000000000000000000000000000025
:1758db000000000000000000000000000000000000000000000000b6
:2058f2000000000000000000000000000000000004000000000001837014000000603fc526
:20591200f48c000000000000000000000000000000000000000000000000000000000000f5
:16593200000000000000000000000000000000000000000000005f
:205948000000000000000000000000000000000143800000000000107800004000362960f4
:20596800ff10400000000000000000000000000000000000000000000000000000000000d0
:17598800000000000000000000000000000000000000000000000008
:20599f00000000000000000000000000000000000000000000007017b81400000072369855
:2059bf001010000000000000000000000000000000000000000000000000000000000000a8
:1659df0000000000000000000000000000000000000000000000b2
:2059f500000000000000000000000000000000000000000000000089b00000100000407a8f
:205a1500400000000000000000000000000000000000000000000000000000000000000031
:175a350000000000000000000000000000000000000000000000005a
:205a4c000000000000000000000000000000000000000000000081a37028040000001d80dd
:205a6c000030000000000000000000000000000000000000000000000000000000000000ea
:165a8c000000000000000000000000000000000000000000000004
:205aa20000000000000000000000000000000000000000000000090078000000001c02f055
:205ac2000800000000000000000000000000000000000000000000000000000000000000bc
:175ae2000000000000000000000000000000000000000000000000ad
:205af90000000000000000000000000000000000056a50000000f007b8000400000660a015
:205b1900a000000000000000000000000000000000000000000000000000000000000000cc
:165b39000000000000000000000000000000000000000000000056
:205b4f000000000000000000000000000000000002a4000004000980b028000000002850b3
:205b6f00050000000000000000000000000000000000000000000000000000000000000011
:175b8f000000000000000000000000000000000000000000000000ff
:205ba6000000000000000000000000000000000068000000000081c77a800000000204a48b
:205bc60030200000000000000000000000000000000000000000000000000000000000006f
:165be60000000000000000000000000000000000000000000000a9
:205bfc000000000000000000000000000000000000000000000009101400000000004260ba
:205c1c00c300000000000000000000000000000000000000000000000000000000000000a5
:175c3c00000000000000000000000000000000000000000000000051
:205c530000000000000000000000533c3000000006ce0a000000000000000000004015b48b
:205c7300700000000018002000000000000000000000000000000000000000000000000069
:165c930000000000000000000000000000000000000000000000fb
:205ca90000000000000000000000007c3c000000020e0000000000000000000000022eeaf9
:205cc9005b0000000000380000000000000000000000000000000000000000000000000028
:175ce9000000000000000000000000000000000000000000000000a4
:205d000000000000000003800800723c300e001604dd3e003800d800000000e0020005825e
:205d20005403800580523c2000000000000000000000000000000000000000000000000059
:165d4000000000000000000000000000000000000000000000004d
:205d56000000000000000020003000003c00800002aec3c00200090000000008000400e8ef
:205d76005a0020000000003c00000000000000000000000000000000000000000000000057
:175d96000000000000000000000000000000000000000000000000f6
:205dad0000000000000000000819523c3000002001ea3c020000100f6295000000023fe86f
:205dcd000000000599523c300000000000000000000000000000000000000000000000005a
:165ded0000000000000000000000000000000000000000000000a0
:205e03000000000000000000281080803c000000401c01c000000080b83e804000006bec61
:205e2300000100000080803c00000000000000000000000000000000000000000000000022
:175e4300000000000000000000000000000000000000000000000048
:205e5a0000000000000000000181523c300000346dfc5e02000000000000000001401ef09c
:205e7a002000000181523c30000000000000000000000000000000000000000000000000a8
:165e9a0000000000000000000000000000000000000000000000f2
:205eb0000000000000000000000080803c000001620305e00000000000000000001e27cb3b
:205ed000000000000080803c00000000000000000000000000000000000000000000000076
:175ef00000000000000000000000000000000000000000000000009b
:205f07000000000000000000001a7a3c300000002a7b0800000010000000000001604ee02e
:205f270000200000007a3c3000000000000000000000000000000000000000000000000054
:165f47000000000000000000000000000000000000000000000044
:205f5d000000000000000000000000003c00000006e4b0000000000000000000001427c053
:205f7d00800000000000003c00000000000000000000000000000000000000000000000048
:175f9d000000000000000000000000000000000000000000000000ed
:205fb400000000000000000050005a3c300000142be95a210000501d620584000060148dbb
:205fd400a4240000005a3c300000000000000000000000000000000000000000000000001f
:165ff4000000000000000000000000000000000000000000000097
:20600a000000000000000000020000003c00000366edf0800000000f33100010020000709e
:20602a005a0000080000003c000000000000000000000000000000000000000000000000b8
:17604a0000000000000000000000000000000000000000000000003f
:206061000000000000000000019a5a3c30000014021ae54200000010000000000062c00035
:2060810000000001805a3c30000000000000000000000000000000000000000000000000b8
:1660a10000000000000000000000000000000000000000000000e9
:2060b7000000000000000000000000803c00000360150da00000000800000000001c28009c
:2060d700000000000800803c000000000000000000000000000000000000000000000000e5
:1760f700000000000000000000000000000000000000000000000092
:20610e00000000000000010008187a3c300c00362a1ea000b0000000000000000b66c0005f
:20612e0000000008187a3c300000000000000000000000000000000000000000000000004b
:16614e00000000000000000000000000000000000000000000003b
:206164000000000000000010001000803c00800046f4050002000000000000000114280041
:20618400000000101000803c0000000000000000000000000000000000000000000000001f
:1761a4000000000000000000000000000000000000000000000000e4
:2061bb0000000000000000000000723c3000000000000000000001952b1d0000000700ea17
:2061db000000000000723c30000000000000000000000000000000000000000000000000c6
:1661fb00000000000000000000000000000000010000000000008d
:206211000000000000000000000000003c10000000000000000001081b308040000079d0c4
:20623100500000000000003c100000000000000000000000000000000000000000000000b1
:17625100000000000000000000000000000000000000000000000036
:2062680000000000000003800000723c300e00202bdae540380070112ec102e000e001e111
:206288000003800000723c3000000000000000000000000000000000000000000000000095
:1662a80000000000000000000000000000000000000000000000e0
:2062be000000000000000020000000003c008000402ccc001200070d523c4008000221ddb0
:2062de00200020000000003c00000000000000000000000000000000000000000000000024
:1762fe00000000000000000000000000000000000000000000000089
:2063150000000000000000000019523c300000000000000000009807ab1d000000060ff025
:206335000000000019523c3000000000000000000000000000000000000000000000000071
:166355000000000000000000000000000000000000000000000032
:20636b000000000000000000000080803c000000000000000000090e1a708800001c437bd3
:20638b00100800000080803c0000000000000000000000000000000000000000000000009e
:1763ab000000000000000000000000000000000000000000000000db
:2063c20000000000000000000199523c300000342000000000003191620d000000e2378f36
:2063e200a100000181523c30000000000000000000000000000000000000000000000000ba
:166402000000000000000000000000000000000000000000000084
:206418000000000000000000000080803c00000044000000000000085278c010000240d030
:20643800f00000000080803c00000000000000000000000000000000000000000000000018
:1764580000000000000000000000000000000000000000000000002d
:20646f00000000000000000000007a3c30000e06037ee5400000d8032f1d00000047acaaa9
:20648f0050100000007a3c30000000000000000000000000000000000000000000000000a7
:1664af0000000000000000000000000000000000000000000000d7
:2064c5000000000000000000000000003c0000000014ec000000010013308010000035c0b2
:2064e500500000000000003c0000000000000000000000000000000000000000000000000b
:1765050000000000000000000000000000000000000000000000007f
:20651c00000000000000000008005a3c30000000287aa00080009801660d04c00066ac8f5e
:20653c0004000000005a3c3000000000000000000000000000000000000000000000000075
:16655c000000000000000000000000000000000000000000000029
:20657200000000000000000000b000003c00000000010a00000001005738c0040000007945
:20659200f20880000000003c00000000000000000000000000000000000000000000000033
:1765b2000000000000000000000000000000000000000000000000d2
:2065c900000000000000000009805a3c3000009e0000000000001005aa85800001606ce054
:2065e90000000009805a3c3000000000000000000000000000000000000000000000000043
:16660900000000000000000000000000000000000000000000007b
:20661f000000000000000000001000803c00001400000000000000007a29c00000042be009
:20663f00050000001000803c0000000000000000000000000000000000000000000000006a
:17665f00000000000000000000000000000000000000000000000024
:20667600000000000000030008005a15500c000063faa541100000116ec1000400638000b4
:2066960000000808187a3c30000000000000000000000000000000000000000000000000d6
:1666b60000000000000000000000000000000000000000000000ce
:2066cc000000000000000010001000815400800240260fa00303830a57bc4040a0007000ec
:2066ec00000000001000803c000000000000000000000000000000000000000000000000c2
:17670c00000000000000000000000000000000000000000000000076
:20672300000000000c3020000018180020000020036f0a0000000013e03c0000001036a8f1
:206743000000000000723c300000000000000000007e3d40000000780000000000000000e5
:166763000000000000000000000000000000000000000000000020
:206779000000000000c3000000000080000800004395b0d01000000f940140000034014ce8
:20679900000800000000003c1000000000000000000083d4410000000000000000000000f4
:1767b9000000000000000000000000000000000000000000000000c9
:2067d000000000000c302380098a7703e00e0000000000003800188d6af588e001420000e8
:2067f0000003805000723c300000000000000001000000000e000002ee30408000000000e9
:166810000000000000000000000000000000000000000000000072
:206826000000000000c300200071d0003c0080000000000002000080101f000800160000a3
:206846000000200250a0003c20000000000000000000000000800000149f39000000000058
:1768660000000000000000000000000000000000000000000000001b
:20687d00000000000c30200000015643e00000000000000000001007a97c0000016380aa5b
:20689d000000000018723c30000000000000000000000000000000004e5060800000000067
:1668bd0000000000000000000000000000000000000000000000c5
:2068d3000000000000c30000000080a43c000000000000000000000e0417c40080142c5085
:2068f300500000000000803c00000000000000000000000000000000030508000000000069
:1769130000000000000000000000000000000000000000000000006d
:20692a00000000000c3020000518023c080000366c000000000091ef7940000002606ea83b
:20694a000020038000523c3200000000000000000000000000014000000000000000000386
:16696a00fc400200000000000000000000000000000000000000d9
:206980000000000000c3000000f80003c00000014380000000000b1074000000022e207066
:2069a000001100000000803c000000000000000000000000000009c0000000000000000041
:1769c0003fc040000000000000000000000000000000000000000081
:2069d700000000000c302000080087c250000000696de700000000087810000002068000ce
:2069f70000000000007a15500000000000030000000000000000000000000000000000009e
:166a17000000000000000000000000000000000000000000000069
:206a2d000000000000c3000000b003681800000002afee3000000000d382000000146400b7
:206a4d000000000000000154000000000000100000000000000000000000000000000000c4
:176a6d00000000000000000000000000000000000000000000000012
:206a8400000000000c3020000801df449001a00002480842000010076c0000000000000022
:206aa40000000000001e420000000000000000000000000000000000000000000000000072
:166ac40000000000000000000000000000000000000000000000bc
:206ada000000000000c300000010cf22040014e0001d018a00000000d782000000002c00b3
:206afa0000000000000fb800200000000000000000000000000001c00000000000000000d4
:176b1a00000000000000000000000000000000000000000000000064
:206b3100000000000c30200001805a69400000000400000030001c05aa8000c00006978008
:206b5100140800098100000000000000000000000000000000000604000000000000000074
:166b7100000000000000000000000000000000000000000000000e
:206b87000000000000c30000000003769c0000000280000001000080042808040000417f1b
:206ba700030000001080000000000000000000000000000000001402000000000000000025
:176bc7000000000000000000000000000000000000000000000000b7
:206bde00000000000c30200000011e8a108d00360000000000000085fa80000000000d8f24
:206bfe0050080008000000000000000000000000010000000c00000000000000000000000a
:166c1e000000000000000000000000000000000000000000000060
:206c34000000000000c3000000008040a000900140000000000009100c280000000002e01d
:206c5400a508001810000000000000000000000000e00000008000000000000000000000eb
:176c7400000000000000000000010000000000000000000000000008
:206c8b00000000000c302000080ed391d0000020000ef040000000053a95800000003caaab
:206cab00540000800000000000000000000000000000000000000002fe00000000000000f5
:166ccb0000000001e02ef020000000000000000000000000000094
:206ce1000000000000c300000010072388200001c0000f008400000e302a82400000274009
:206d01005510000100000000000000000000000000000000000000032c05000000000000d8
:176d2100000000000202ff83000000000000000000000000000000d5
:206d3800000000000c30238010080000000e0040001cf04038000015302800e000024000e3
:206d580000000000000000000000000000000000000000000e0000037bc1000000000000ce
:166d7800000000e2078ecc70200000000000000000000000000032
:206d8e000000000000c30020320000000000800800010f000200000c080280080000300068
:206dae0000000000000000000000c0000000000000000000008000001ec80000020000009d
:176dce00000000003c4010c70000000000000000000000000000005b
:206de500000000000c30200008000000000c0e00001ef0400100f983e800080001c01caace
:206e0500560000000000000000000000000000000000000000003c794ee70200100000001b
:166e25000000000000000000000000000000000000000000000057
:206e3b000000000000c3000000f000000000400003c00f0010000b8050008200801c026007
:206e5b005518000000000000000000000000000000000000000000402d0f700000000000be
:176e7b00000000000000000000000000000000000000000000000000
:206e9200000000000c302040000b7b11d00001600040a540000080012bd580000867618afc
:206eb200000000000000000000000000000000000000000000000663de0c0200000000006b
:166ed20000000000000000000000000000000000000000000000aa
:206ee8000000000000c300040000f5b744200009c0000a50000001007c28024001407b509d
:206f0800500800000000000000000000000000000000000000000002740f3010000000004c
:176f2800000000000100000000000000000000000000000000000051
:206f3f00000000000c3020000018000000000000040af04000008015ba9584004000018f48
:206f5f0030241000000000000000000000000007000000000000007800000000000000002f
:166f7f0000000000000000000000000000000000000000000000fc
:206f95000000000000c3000000b000000000000003410f000000010db015400000000010f3
:206fb500f300000000000000000000000000000008f000000000000680000000000000004b
:176fd50000000000002c000000000000000000000000000000000079
:206fec00000000000c302028001806dfc0000040040ef0400000180067898400000015af72
:20700c00560000000000000000000000000000000000000000000e7e5a30400000000000b8
:16702c000000000147fd8950080000000000000000000000000028
:207042000000000000c300010000096efc00000802810f000000000c7734400000400140e5
:20706200a000400000000000000000000000000000000000000000262eef320000000000b9
:17708200000000000678c8a50000000000000000000000000000000c
:20709900000000000c30230000085e3d40000020681af0400400000fba9540c0020040001f
:2070b900000000a000000000000200000000008001f320c000a01c06ce6540000800000084
:1670d90000000000e067d04010000000000000000000000000003a
:2070ef000000000000c30010009100c3d420000140000f0000000100b815420400042000de
:20710f000000000000000000000000000000000000f7b78c400405e3aeb6a080280000004e
:17712f00000000000238ff0000000000000000000000000000000010
:20714600000000000c302300010cf683c00c0176001ef04132007810000000c000c0000078
:2071660000000000000000000000000000000001000000000c003c075a30400000000000ef
:1671860000000000020000000000000000000000000000000000f1
:20719c000000000000c3002000080bc03c00800940000f00031280880000000c00400000a0
:2071bc000000000000000000000000000000000000000000008401c3fdef3200000000004d
:1771dc00000000080040000000000000000000000000000000000153
:0271f30000009a
:0371f5007200b075
:0271f800110183
:0271fa00010191
:2071fc0000000000000000000000001000000000000040000000000001000000000000041e
:20721c000000000000001000000000000040000000001000000000000040000000000001b1
:16723c0000000000000004000000000000100000000000004000e8
:207252000000000000000000000000020000000000000800000000000020000000000000f2
:20727200800000000000020000000000000800000000020000000000000800000000000068
:1772920020000000000000800000000000020000000000000800003b
:2072a9000000000000000000000000000000000000000000000000000000000000000000c5
:2072c9000000000000000000000000000000000000000000000000000000000000000000a5
:1672e900000000000000000000000000000000004000000000004f
:2072ff0000000000000000000000000000000000000000000000000000000000000000006f
:20731f0000000000000000000000000000000000000000000000000000000000000000004e
:17733f00000000000000000000000000000000000000000004000033
:20735600000000000000000000000000000000000000000000000000000000000000000017
:207376000000000000000000000000000000000000000000000000000000000000000000f7
:1673960000000000000000000000000000000000000000000000e1
:2073ac000000000000000000000000000000000000000000000000000000000000000000c1
:2073cc000000000000000000000000000000000000000000000000000000000000000000a1
:1773ec0000000000000000000000000000000000000000000000008a
:20740300000000000000000000000000000000000000000000000000000000000000000069
:20742300000000000000000000000000000000000000000000000000000000000000000049
:167443000000000000000000000000000000000000000100000032
:20745900000000000000000000000000000000000000000000000000000000000000000013
:207479000000000000000000000000000000000000000000000000000000000000000000f3
:177499000000000000000000000000000000000000000000000000dc
:2074b0000000000000000000000000000000000000000000000000000000000000000000bc
:2074d00000000000000000000000000000000000000000000000000000000000000000009c
:1674f0000000000000000000000000000000000000000200000084
:20750600000000000000000000000000000000000000000000000000000000000000000065
:20752600000000000000000000000000000000000000000000000000000000000000000045
:1775460000000000000000000000000000000000000000000000002e
