:02000000ff00ff
:080002004c6174746963650030
:17000a00694345637562653220323031372e30382e32373934300069
:15002100506172743a2069434534305550354b2d53473438002c
:1b003600446174653a204d617920313620323031392032323a30343a33380076
:0200510000ffae
:040053007eaa997e6a
:02005700510056
:0200590001059f
:03005b00920020f0
:03005e006202b388
:03006100720150d9
:0300640082000017
:02006700110086
:02006900010193
:20006b00000000000000000000000010000000000000400000000000010000000000000420
:20008b000000000000001000000000000040200000000000000000000040000000000001a4
:1600ab0000000000000004000000000000100000000000004000eb
:2000c1000000000000000000000000020000000000000800000000000020000000000000f5
:2000e100800000000000000000000000000000000000020000000000000800000000000075
:1701010020000000000000800000000000020000000000000800003d
:200118000000000000000000000000000000000000000000000000000000000000000000c7
:20013800000000000000000000000000000010000000000000000000000000000000000097
:160158000000000000000000000000000000000000000000000091
:20016e00000000000000000000000000000000000000000000000000000000000000000071
:20018e00000000000000000000000000000000000000010000000000000000000000000050
:1701ae0000000000000000000000000000000000000000000000003a
:2001c50000000000000000000000000000000000000000000000000000000000000000001a
:2001e5000000000000000000000000000000200000000000000000000000000000000000da
:1602050000000000000000000000000000000000000000000000e3
:20021b000000000000000000000000000000000000000000000000000000000000000000c3
:20023b000000000000000000000000000000000000000000000000000000000000000000a3
:17025b0000000000000000000000000000000000000000000000008c
:2002720000000000000000000000000000000000000000000000000000000000000000006c
:2002920000000000000000000000000000000000000000000000000000000000000000004c
:1602b2000000000000000000000000000000000000000000000036
:2002c800000000000000000000000000000000000000000000000000000000000000000016
:2002e8000000000000000000000000000000000000000000000000000000000000000000f6
:170308000000000000000000000000000000000000000000000000de
:20031f000000000000000000000000000000000000000000000000000000000000000000be
:20033f00000000000000100000000000004000000080000000000001004000000000040188
:16035f000000000000000000000000000000000000000000000088
:20037500000000000000000000000000000000000000000000000000000000000000000068
:20039500000000000000000000000000000000000000000000000000000000000000000048
:1703b500000000000000000000000000000000000000000000000031
:2003cc00000000000000000000000000000000000000000000000000000000000000000011
:2003ec0000000000c0004000000000000000000000000000000000000000000000000000f1
:16040c0000000000000000000000000000000000000000000000da
:200422000000000000000000000000000000000000000000000000000000000000000000ba
:20044200000002002000040000080000000c00000000000000000000000000000000000060
:1704620000000000000000000000000000000000000000000c000077
:20047900000000000000000000000000000000000000000000000000000000000000000063
:2004990000000000000000000000070000000000000000000000000000000000000000003c
:1604b90000000000000000000000000000000000000180000000ac
:2004cf0000000000000000000000000000000000000000000000000000000000000000000d
:2004ef000000010000000000000400000000000000000000000400000000000010000000d4
:17050f000000000000000000000000000000000000000800000000cd
:200526000000000000000000000000000000000000000000000000000000000000000000b5
:2005460000000000004000000000000100000000000000000000000100000000000004004f
:16056600000000000000000000000000000000000000000000007f
:20057c0000000000000000000000000000000000000000000000000000000000000000005f
:20059c00000002000000000000080000000000000000000000000000000000000000000035
:1705bc00000000000000000000000000000000000000000000000028
:2005d300000000000c302000000000000000000000000000000000000000000000000000ac
:2005f300000000000000000000000000000000000000000000000000000000000000007375
:16061300c100000000000000000000000000000000000000000010
:200629000000000000c30000000000000000000000000000000000000000000000000000ee
:20064900000000000000000000000000000000000000000000000000000000000000000091
:170669003c000000000000000000000000000000000000000000003e
:20068000000000000c302000000000000000000000000000000000000000000000000000fe
:2006a00000000000000000000000000000000000000000000e0000001af0403800000000aa
:1606c0000000000000000000000000000000000000000000000024
:2006d6000000000000c3000000000000000000000000000000000000000000000000000041
:2006f600000000000000000000000000000000000000000000800140010f0002000500000c
:17071600000000000000000000000200000000000000430000000087
:20072d00000000000c30200000000000000000000000000000000000000000000000000050
:20074d0000000000000000000000000000000000000000000000000000000000000000008c
:16076d000000000000000000000000000000000000000000000076
:200783000000000000c3000000000000000000000000000000000000000000000000000093
:2007a300000000100000000000000000000000000000000000000000000000000000000026
:1707c30000000000000000000000000000000000000000000000001f
:2007da00000000000c302000000000000000000000000000000000000000000000000000a3
:2007fa0000000000000000000000000000000000000000000000006000000000000000007f
:16081a000000000000000000000000000000000c00000078f5004f
:200830000000000000c30000000000000000000000000000000000000000000000000000e5
:20085000000000000000000000000000000000000000000000000000000000000000000088
:1708700000000000000000000000000000000000400000020f5000d0
:20088700000000000c302000000000000000000000000000000000000000000000000000f5
:2008a700000000000000000000000000000000000000000000000000000000000000000031
:1608c700000000000000000000000000000000000000000000001b
:2008dd000000000000c3000000000000000000000000000000000000000000000000000038
:2008fd000000000000000000000000000000000000000000000000000000000000000000db
:17091d000000000000000000000000000000000000000000000000c3
:20093400000000000c30200000000000000000000000000000000000000000000000000047
:20095400000000000000000000000000000000000000000000000000000000000018006308
:16097400c1000000000000000000000000000000000000000000ac
:20098a000000000000c300000000000000000000000000000000000000000000000000008a
:2009aa0000000000000000000000000000000000000000000000000000000000000000002d
:1709ca003c00000000000000000000000000000000000000000000da
:2009e100000000000c3020000000000000000000000000000000000000000000000000009a
:200a0100000040000000000000000000000000000000000000000000000000000000000095
:160a210000000000000000000000000000000000000000000000bf
:200a37000000000000c30000000000000000000000000000000000000000000000000000dc
:200a570000000000000000000000000000000000000000000000000000000000000000007f
:170a7700000000000000000000000000000000000000000000000068
:200a8e00000000000c302000000000000000000000000000000000000000000000000000ec
:200aae0000000000000000000000000000000000000000000000010018f0400000000000df
:160ace000000000000000000000000000000000000000000000012
:200ae4000000000000c300000000000000000000000000000000000000000000000000002f
:200b0400000000000000000000000000000000000000000000000000000f000000000000c2
:170b24000000000000000000000000000000000000000000000000ba
:200b3b00000000000c3020000000000000000000000000000000000000000000000000003e
:200b5b0000000000000000000000000000000000000000000000000000000000000000007a
:160b7b000000000000000000000000000000000000000000000064
:200b91000000000000c3000000000000000000000000000000000000000000000000000081
:200bb10000000000000000000000000000000000000000000000000000000000000500001f
:170bd10000000000000000000000000000000000000000000000000d
:200be800000000000c30200000000000000000000000000000000000000000000000000091
:200c080000000000000000000000000000000000000000000e0000000af04038000000004c
:160c280000000000000000000000000000000000000000000000b6
:200c3e000000000000c30000000000000000000000000000000000000000000000000000d3
:200c5e00000000000000000000000000000000000000000000800000000f001200000000d5
:170c7e0000000000000000000000000000000000000000000000005f
:200c9500000000000c302000000000000000000000000000000000000000000000000000e3
:200cb50000000000000000000000000000000000000000000000140000000000000000000b
:160cd5000000000000000000000000000000000000000000000009
:200ceb000000000000c3000000000000000000000000000000000000000000000000000026
:200d0b000000000000000000000000000000000000000000000000000000000000000000c8
:170d2b000000000000000000000000000000000000000000000000b1
:200d4200000000000c30200000000000000000000000000000000000000000000000000035
:200d6200000000000000000000000000000000000000000000000000000000000000000071
:160d8200000000000000000000000000000000000000000000005b
:200d98000000000000c3000000000000000000000000000000000000000000000000000078
:200db80000000000000000000000000000000000000000000000000000000000000000001b
:170dd800000000000000000000000000000000000000000000000004
:200def00000000000c30200000000000000000000000000000000000000000000000000088
:200e0f00000000000000000000a00000000000000000000000000000000000000000000023
:160e2f0000000000000000000000000000000000000000000000ad
:200e45000000000000c30000000000000000000000000000000000000000000000000000ca
:200e650000000000000000000000000000000000000000000000000000000000000000006d
:170e8500000000000000000000000000000000000000000000000056
:200e9c00000000000c302000000000000000000000000000000000000000000000000000da
:200ebc00000000000000000000000000000000000000000000000000000000000000000016
:160edc000000000000000000000000000000000000000000000000
:200ef2000000000000c300000000000000000000000000000000000000000000000000001d
:200f12000000000000000000000000000000000000000000000000000000000000000000bf
:170f32000000000000000000000000000000000000000000000000a8
:200f4900000000000c3020000000000000000000000000000000000000000000000000002c
:200f6900000000000000000000000000000000000000000000000000000000000000000068
:160f89000000000000000000000000000000000000000000000052
:200f9f000000000000c300000000000000000000000000000000000000000000000000006f
:200fbf00000000000000000000000000000000000000000000000000000000000000000012
:170fdf000000000000000000000000000000000000000000000000fb
:200ff600000000000c3020000000000000000000000000000000000000000000000000007f
:201016000000000000000000000000000000000000000000000000000000000000000102b7
:16103600950000000000000000000000000000000000000000000f
:20104c000000000000c30000000000000000000000000000000000000000000000000000c1
:20106c00000000000000000000000000000000000000000000000000000000000000000064
:17108c002940000000000000000000000000000000000000000000e4
:2010a300000000000c302000000000000000000000000000000000000000000000000000d1
:2010c30000000000000000000000000000000000000000000000000000000000000000000d
:1610e30000000000000000000000000000000000000000000000f7
:2010f9000000000000c3000000000000000000000000000000000000000000000000000014
:201119000000000000000000000000000000000000000000000000000000000000000000b6
:1711390000000000000000000000000000000000000000000000009f
:20115000000000000c30200000000000000000000000000000000000000000000000000023
:20117000000000000000000000000000000000000000000000000000000000380000006bbc
:16119000c100000000000000000000000000000000000000000088
:2011a6000000000000c3000000000000000000000000000000000000000000000000000066
:2011c60000000000000000000000000000000000000000000000c000000000020000000443
:1711e6003c00000000000000000000000000000000000000000000b6
:2011fd00000000000c30200000000000000000000000000000000000000000000000000076
:20121d000000000000000000000000000000000000000000000000000000000000000000b1
:16123d00000000000000000000000000000000000000000000009b
:201253000000000000c30000000000000000000000000000000000000000000000000000b8
:2012730000000000000000000000000000000000000000000000000000000000000000005b
:17129300000000000000000000000000000000000000000000000044
:2012aa00000000000c302000000000000000000000000000000000000000000000000000c8
:2012ca00000000000000000000000000000000000000000000000000000000000000a00064
:1612ea0000000000000000000000000000000000000000000000ee
:201300000000000000c300000000000000000000000000000000000000000000000000000a
:201320000000000000000000000000000000000000000000000000000000000000000000ad
:17134000000000000000000000000000000000000000000000000096
:20135700000000000c3020000000000000000000000000000000000000000000000000001a
:2013770000000000000000000000000000000000000000000000000000000000001800003e
:161397000000000000000000000000000000000000000000000040
:2013ad000000000000c300000000000000000000000000000000000000000000000000005d
:2013cd00000000000000000000000000000000000000000000000000000000000000000000
:1713ed000000000000000000000000000000000000000000000000e9
:20140400000000000c3020000000000000000000000000000000000000000000000000006c
:201424000000000000000000000000000000000000000000000000000000000000000000a8
:161444000000000000000000000000000000000020000000000072
:20145a000000000000c30000000000000000000000000000000000000000000000000000af
:20147a00000000000000000000000000000000000000000000000000000000000000000052
:17149a0000000000000000000000000000000000000000000000003b
:2014b100000000000c302000000000000000000000000000000000000000000000000000bf
:2014d1000000000000000000000000000000000000000000000000000000000000000033c8
:1614f100c102000000000000000000000000000000000000000022
:201507000000000000c3000000000000000000000000000000000000000000000000000001
:201527000000000000000000000000000000000000000000000000000000000000000000a4
:171547003c0810000000000000000000000000000a0000000000002f
:20155e00000000000c30200000000000000000000000000000000000000000000000000011
:20157e0000000000000000000000000000000000000000000000000000000000000000004d
:16159e000000000000000000000000000000000000000000000037
:2015b4000000000000c3000000000000000000000000000000000000000000000000000054
:2015d4000000000000000000000000000000000000000000000000000000000000000000f7
:1715f4000000000000000000000000000000000000000000000000e0
:20160b00000000000c30200000000000000000000000000000000000000000000000000063
:20162b0000000000000000000000000000000000000000000000000000000000000000009f
:16164b00000000000000000000000000033c10200000000000001a
:201661000000000000c30000000000000000000000000000000000000000000000000000a6
:20168100000000000000000000000000000000000000000000000000000000000000000049
:1716a1000000000000000000000000000003c000000000000000006f
:2016b800000000000c302000000000000000000000000000000000000000000000000000b6
:2016d8000000000000000000000000000000000000000000000000000000000000000000f2
:1616f8000000000000000000038000000000000000000000000059
:20170e000000000000c30000000000000000000000000000000000000000000000000000f8
:20172e0000000000000000000000000000000000000000000000000000000000000000009b
:17174e00000000000000000000200000000000000000000000000064
:20176500000000000c30200000000000000000000000000000000000000000000000000008
:201785000000000000000000000000000000000000000000000e0000000000000000000036
:1617a500000000000000000000000000000000000000000000002e
:2017bb000000000000c300000000000000000000000000000000000000000000000000004b
:2017db000000000000000000000000000000000000000000000000000000000000000000ee
:1717fb000000000000000000000000000000000000000000000000d7
:20181200000000000c3020000000000000000000000000000000000000000000000000005a
:20183200000000000000000000000000000000000000000000000000000000000000000096
:161852000000000000000000000000000000000000000000000080
:201868000000000000c300000000000000000000000000000000000000000000000000009d
:20188800000000000000000000000000000000000000000000000000000000000000000040
:1718a800000000000000000000000000000000000000000000000029
:2018bf00000000000c302000000000000000000000000000000000000000000000000000ad
:2018df000000000000000000000000000000000000000000000000000000000000000000e9
:1618ff00000000000000000000000780000000000000000000004c
:201915000000000000c30000000000000000000000000000000000000000000000000000ef
:20193500000000000000000000000000000000000000000000000000000000000000000092
:17195500000000000000000000000008000000000000000000000073
:20196c00000000000c302000000000000000000000000000000000000000000000000000ff
:20198c0000000000000000000000000000000000000000000000000000000000000000003b
:1619ac000000000000000000000000000000000000000000000025
:2019c2000000000000c3000000000000000000000000000000000000000000000000000042
:2019e2000000000000000000000000000000000000000000000000000000000000000000e5
:171a02000000000000000000000000000000000000000000000000cd
:201a1900000000000c30200000000000000000000000000000000000000000000000000051
:201a390000000000000000000000000000000000000000000000000000000000000000008d
:161a59000000000000000000000000000000000000000000000077
:201a6f000000000000c3000000000000000000000000000000000000000000000000000094
:201a8f00000000000000000000000000000000000000000000000000000000000000000037
:171aaf00000000000000000000000000000000000000000000000020
:201ac600000000000c302000000000000000000000000000000000000000000000000000a4
:201ae600000000000000000000000000000000000000000000100000000000004000000090
:161b060000000000000000000004000000000000000000000000c5
:201b1c000000000000c30000000000000000000000000000000000000000000000000000e6
:201b3c00000000000000000000000000000000000000000000000000000000000000000089
:171b5c00000000000000000000000000000000000100000000000071
:201b7300000000000c302000000007bc102000000000000000000008614101000000000058
:201b9300000000000000000000000000000000000000000000000000000000000000000032
:161bb300000000000000000000000000000000000000000000001c
:201bc9000000000000c3000000000003c080000000000000000000001028000000000000be
:201be9000000000000000000000000000000000000000000000000000000000000000000dc
:171c09000000000000000000000000000000000000000000000000c4
:201c2000000000000c30238000000000000e00000000000038003007e01500000000000053
:201c4000000000000000000000000000000000000000000000000000000000000000000084
:161c6000000000004000000000000000000000000000000000002e
:201c76000000000000c300200000000000008000000000000200010000014200080000009d
:201c960000000000000000000000000000000000000000000000000000000000000000002e
:171cb600000000000000000000000000000000000000000000000017
:201ccd00000000000c3021000000802950040000000000003000000000000000000000006d
:201ced000000000000000000000000000000000000000000000000000000000000000000d7
:161d0d000000000000158fa000000000000000000000000000007c
:201d23000000000000c3002000000f01688080000000000003000000000000000000000042
:201d4300000000180000000000000000000000000000000000000000000000000000000068
:171d630000000000002020fa0000000000000000000000000000002f
:201d7a00000000000c302000000000295000001c001af040b000000000000000000000005e
:201d9a000000004000000000000000000000000000000000000000000000000100000000e8
:161dba000000000000000000000000000000000000000000000013
:201dd0000000000000c30000000003016804000000000f00000000000000000100000000b0
:201df0000000002000000000000000000000000000000000000000000000000008000000ab
:171e10000000000000000000000000000000000000000000000000bb
:201e2700000000000c30a000070e033c10400000000ef041000000000000000000000000dc
:201e470000000000000000000000000000000000000000000000000000000000000000007b
:161e67000000c000000000000000000000000000000000000000a5
:201e7d000000400000c3000000000043c000000000000f0000000000000000000000000030
:201e9d00000000000000000000000000000000000000000000000000000000000000000025
:171ebd0000000400000000000000000000000000000000000000000a
:201ed400000000000c303004000e0000000010000000000000400000000000000000000020
:201ef4000000100000000000000000000000000000000000000000000000000400000000ba
:161f140000000000000000000000000000000000000000000000b7
:201f2a000000000000c300004000000000000100000000000004000f000000000000000080
:201f4a00000002000000000000000000000000000000000000000000000000000000000075
:171f6a00000000000000000000000000000000000000000000000060
:201f8100000000000c3020000380073c10400020000000000000008000000000000000002e
:201fa100000000000000000000000000000000000000000000000000000000000000000020
:161fc100000000000000000000000000000000000000000000000a
:201fd7000000000000c3004000080043c0800001c00000000000001000000000000000008b
:201ff7000000000000000000000000000000000000000000000000000000000000000000ca
:172017000000000000000000000000000000000000000000000000b2
:20202e00000000000c302104000a03bc140410000000000000403803e015000100000000cf
:20204e0000000400000000000000000000000400000000000010000000000000400000001a
:16206e000000010000000000000400000000000010000000000047
:202084000000000000c3002000d10003c000800000000000000000000801420010000000ea
:2020a400000000400000000000000000000000400000000000010000000000000400000097
:1720c4000000011000000000000000000000000001000000000000f3
:2020db00010000218c302000000180295020000004000000000000000000000000000000c9
:2020fb00000000000000000000000000000002800e0000000000000178f520400080076080
:16211b00190000000000ef0700000d000000000000000000000092
:2021310000100002c0c310000000af016800000002c000000000000000000000000000000f
:20215100000000000000000000000000000000000100000000000000010f5000000100fe0e
:1721710000c40000002800f0004000d8000000000000000000000063
:202188000001e001ec3023800000073c100e0000221a50400000000000000000c8000000a1
:2021a800000380000000000000000000000380080000000000000020dca0003800008000b5
:1621c8000000e0000000000003800000000000000000000000009e
:2021de0000003c0000c3012000000043c040800000240a010020000000000000014400006a
:2021fe00000020000000000000000000000020001000000000000000000a00020000000065
:17221e00000008000000000000200000000000000000000000000081
:2022350000000041ac3021000000073c1004000000d80540000000000000000000000000d7
:20225500000000000000000000000000000000000000000000000000000000010000000068
:162275000000400000000000000000000000000000000000000013
:20228b000000003800c3002000000043c00140000001005100000000000000000000000082
:2022ab000000000000000000000000000000020000000000000000000000000020000000f1
:1722cb000000040000000000000000000000000000000000000000f8
:2022e200010200418c3020000581033c10004a9e0000000001000000000000c04007800077
:20230200000000078000000000000000000000000000000000002000000000000400000010
:1623220000000004000000000040000013c010000000000000007e
:2023380000001c3800c301000000a043c0010214200000000000000000000004000040004f
:20235800000004000800000000000000000000040000000000040140000000000000000010
:172378000000000780000000000400d001294805000000000000007c
:20238f0000000001ac3020000700033c1200005c01d805400000000000000000000000005f
:2023af0000000000000000000000000000000007803279580000a0000000000000000000e4
:1623cf0000000000000000000000000000000000000000000000f8
:2023e5000000000010c300000000b003c00000082003005200000000000000000000000015
:202405000000000000000000000000000000000000076354000001400000000000000000b8
:172425000000000000000000000000000000000000000000000000a0
:20243c0000000000ec302000000a06bc100000000000000000000000000000000000000068
:20245c000000000018000000000000000000001000000000000080000000000002000000b6
:16247c000000000000000000000800000000000000000000000042
:2024920000003c3810c300000001b003c0010000000000000000000000000000000000006e
:2024b200000000040000000000000000000000020000000000001340000000000040000071
:1724d2000000000000000000000000000000000000000000000000f3
:2024e90000000380ac302000000006bc100c00000000000000000000000000000000000076
:2025090000001000000000000000000000000085800000000c000000000000300000f00071
:162529000000000200000000000007000000000000000000000093
:20253f000000004010c3000000000043c001000003c00000000000000000000000000000a2
:20255f000000000000000000000020000000000000000000004000000000000100001e00dd
:17257f00000000001c00000000000000000000000000000000000029
:202596000001c001cc3021000018023c120000000000000000000000000000000200378f16
:2025b6005103100700fe8010200140000003030000000000000000000000000005000000a0
:1625d6000000c0000000000000000000000000000000000000002f
:2025ec000000020000c3002000010043c0001000000000000002000000000000003c01e0b7
:20260c00f001a280000b0014800008000000200000000000000000000000000000200000b4
:17262c0000000800000000000000000000000000000000000000008f
:20264300000003afac3024000000000000000000040000000000000000000000000007caf0
:202663000000000018000000000000000000008000000000000c00015ff0c00000000000a3
:16268300000000200000000000000018d056a000400003cdd04023
:2026990000100077f0c30000000000000000000003c0000000200000000000000000000004
:2026b900a0000000000000000000000000000000000000000000000000c0f00000000000b1
:1726d9000000000000000000000000000dac00000a000016cf00043e
:2026f0000001e3d58c30278000000000000e000000000000010000000000000001e02fc8c7
:20271000002380000000000000000000000380000a0000000e000001c8f0c03800000000ba
:162730000000e000001d80f003805000523c200e000001f80f008f
:202746000000007c30c300200000000000008000400000000028000000000000000003d029
:202766000000200000000000000000000000200001000000008040000000f0020000000060
:17278600000008000403c0050020020000803c008000023500500083
:20279d000001e21e8c30210000000000000400000000000000040000000000000000000036
:2027bd0000000000000000000000000000000000180000000000206548f0c0000000000067
:1627dd0000000000002fabd42000000a323c2000002006eebc426e
:2027f3000080024030c30020000000000000400000000000000000000000000000000000b1
:202813000000000000000000000000000000000000000000000000420200f0000000000071
:17283300000000000000c07c20000000b0003c000003c2360fc080fc
:20284a000100c004ac302400058006bc182c000000d80540003800000000000000000000c9
:20286a000000000000b7b958000000000000000500d6e8500000260548f0c0000000000050
:16288a000000c00000000000000001985a154000001628000000f2
:2028a0000000023420c3000000000003c000000000020050100000000000000002000000d8
:2028c00000000000000fe7000000000000000000080bbf88000000420200f0000100000073
:1728e000000004001c00000000000000000154000000040000000068
:2028f70010000047cc3020000000000000000000040000000000000000000000000000004a
:2029170000000000010000000000000000000000003e3d504000000168f0c000007000000b
:16293700000000000000000000000500b394804000160000000068
:20294d000000002c20c3008000000000000000000380000000000000000000000000000058
:20296d000000000000e000000000000000000000000dc3c0040000000000f000000780005f
:17298d000000000000000000000000d8e537cc8000000000000000f3
:2029a4000001e39dac3020402000000000010000000000000400000000000000c3c00000ae
:2029c400000000800000000000000000000003000e0000000000000168f0c0000000100039
:1629e40000000001600000000000001837c1500c00206000000090
:2029fa000000020020c300040400000000000000000000000000000000000000002c38006c
:202a1a000000000000000000000000000000000000000000000003400000f0000000080061
:172a3a00000000002400000000000000097808044001400000000053
:202a51000001679d8c30200000000000000000040000000000000000000000000000000080
:202a710000000000000000000000000000000000000000000000060168f0c000000007b56a
:162a91001d400001c0400000004008000000000000202800000041
:202aa7000000023820c30000000000000000000020000000000000000000000000000000d2
:202ac7000000000000000000000000000000000000000000000000000200f0000000003bc2
:172ae700744000000220000000000050000000000002c200000000ee
:202afe000000070cec302100000000000000008001d8054100020000000000008000000047
:202b1e00000300000f0000000000000000030300010000000c0c0461e8f0c0300000000039
:162b3e0000000000000000000000080cb7c09040001429df0040ca
:202b54008000003820c30020000000000000001000000050000040000000000000002800de
:202b74000000200001d00000000000000000200000f0000000c003400200f0020000090040
:172b94000000000000000000000000110b781400000022d7fa1080ff
:202bab00000000000c30240000000000000000000000000000000000000000000140000069
:202bcb000000000580000000000000000000000818b3cf8000000001c8f0c00100000bad11
:162beb00414000000077f1000400850196bd0800000060000000a6
:202c01000010000000c30000000000000000000000000000000000000000000000000000e0
:202c21000000000000f0000000000000000000001003f8f0000000000000f040000d00b2b9
:172c4100344240000025da00000000588b63d4240000020000000087
:202c5800000000000c30200000000000000e00000000000000000000000000e000001fae45
:202c780054038040000000000000000000000008185e02000e000001c8f0c03800900374df
:162c98009542e0004025e056238800187225800e080071e9054045
:202cae000000000000c3000018000000000080000000000000000000000000080c0000f89f
:202cce00c0006000f0000000000000000000000091073000008000000000f0020007803fd6
:172cee00064248000002e00100210001f0c258008000040fb02000cd
:202d050000e000000c3020000000000000040000000000000000000000000000000000006e
:202d2500000000000000000000000000000000080edb02800000006548f0c001008000003d
:162d45000000000003cf805400000b00ba901080000001e896006e
:202d5b000000000000c3000000000000000080000000000000000000000000000000000015
:202d7b0000000000300000000000040000000000f103c000000000020200f000000100005b
:172d9b0000000000007ece010000005003020400000000030960000f
:202db2000a0000000c302000000000000000004000000000000000000000000000068000d5
:202dd20000004300000000000000000000004001819386808000066548f0c000000185fae0
:162df200800000146600000000000818dbe8480000006fe801420c
:202e08000000000000c30000000000000000000000000000000000000000000000004000a7
:202e28000000040000f00000000000000000040058990168000000020200f000000000083c
:172e480028000000be00000000000070b7a50801000002b7003000cf
:202e5f00100000000c302000000000000000000000000000000058033c00000000600000f0
:202e7f000000000001d3e840000000000000000d9ad7868080000001e8f0c00004180d323f
:162e9f000028c0420075fe0000000000000000000016000000006a
:202eb5000000000000c300000000000000000000000000000000000eb30808000000000069
:202ed5000000000000d736800000000000000000b00b4028000000000000f000000009f044
:172ef500000004001c22fac00040003000000000000000000000005a
:202f0c00000000000c30200810000000000000000000000000000000000000000000000031
:202f2c000000005018fe0f0080000000000000080f3ac7084001600168f0c0000558100049
:162f4c00000000016201ef3220000381033c1820000000000000cf
:202f62000000000000c300010000000000000003c000000000000f000000000000000000b9
:202f82000000000200ef00e0000000000000000050a9f43000000bc00000f00000a00800de
:172fa20000000000006000f3010000b0a003c080000400000000002d
:202fb900000000000c3020100000000000000000000000000000000000000000000000008c
:202fd9000000000800168090800000000000000981ba10080000260168f0c0000001a7e304
:162ff900c0440601e06f80600000059cfe11c4000006046ea020dc
:20300f000000000000c3000080000000000000000000000000000700000000000000000057
:20302f00000000007409400e000000000000000050abed08000000400200f000000010f094
:17304f003d40400000234d0a000000010dea9c00000003c30a0000cf
:20306600000000000c3020000000000000040000001cf04080000000000000c000078000d7
:20308600000302850132795001000000000000058eb781088c0020016855410100b9c9683a
:1630a600d1480000e00cac35280000019f0152c040006d6ea00098
:2030bc000000000000c30000000000000000800000000f000000000000000008000040005a
:2030dc00000020000885f700041000000000000000954060004000400205520028059074dd
:1730fc0008024000002bd04300000050d5800880100002820a00006a
:20311300004000000c3020000000033c1000000000000000000000000000000002000000af
:20313300000000000000000000000000000000000003bc1000000001400080000080073b2a
:163153001d0000000017cf04000000005316800000000000000076
:203169000000000000c3000000000043c0010000038000000000000000000000003c0000c0
:2031890000000000000000000000000000000000009043c08400000000c0000000010996af
:1731a900304000000002e00f010000d007b49400000240000000004c
:2031c000000000000c3023800000073c180e00400000000000000000000000021000000055
:2031e0000003800000000000000000000003800000073c10000016054896a03800000000a5
:163200000000e00002000000038020005b06108e002028000000ec
:203216000000000000c3002000000043c000800040000000000000000000000000000000f2
:2032360000002000000000000000000000002000000043c00000000380c96002000900007e
:173256000000080000000000002004000b4080248000400000000086
:20326d00000000000c302108000003bc1804000000000000000000000000000001400000c0
:20328d0000000000015728100000000000010000008029500000366d489680040000000092
:1632ad000000c000000fe0000000000100000000402000000000fb
:2032c3000000000000c3002000000003c00040000000000000000000000000000000000005
:2032e300000000000080c2822100000000001280000301680000014282d9600040000000aa
:1733030000000c000000e0a000000000c00000000002400000000025
:20331a00000000000c30200008000000000c20002178056000000000000000000000000005
:20333a00000000081800000000000000000000000007bc100000000548968001028000009a
:16335a000000000000000000000301800000000000006000000079
:203370000000000000c3000000700000000004600402005000400000000000000a00000006
:2033900000000010f00000000000000000000001000043c00000000282d96000000100005b
:1733b0000000000000380000000000000000000000000400000000ca
:2033c700000000000c302000001c07bc100000000000000000080000000000000000000093
:2033e7000000000000000000000000000000000000000000000014286996800000800dbac4
:1634070085000001604000000000018c00000000000001fdc741f6
:20341d000006000000c3000000010003c00100000000000000000000000000000000000001
:20343d00000000020000000000000000000000000000000000000366c0c96000000d0037d7
:17345d0029c40000243c000000000009f000000000000007bc30849b
:20347400000000000c3020000000000000008000000000000400000000000000000004a0b4
:20349400a00000401c00000000000000000000070003bc1000001404e9968000120000001d
:1634b40000000001e7e0d4001000000110204000000020000000c5
:2034ca000000000000c300000000e00000000000000000000000000000000000000000003f
:2034ea000a00000200000000000000000000000018a043c000000363c2c96000004f00005b
:17350a00000000000029cd8000000000832c00000000000000000085
:20352100000400000c302000000006bc120000000000000000000000000000000000000056
:20354100000000000000000000000000000000000f073c1000000069699680000080100090
:163561000000c000022d8fa01000098033bc10800000000000001e
:203577000000000000c3000000700003c0000000000000000000000000000000000000003e
:203597000000000100000000000000000000000001c003c00000000402996000000d0e0075
:1735b700000004000002d0f0018000900783c82000000000000000b4
:2035ce00000000000c3021001000000000020000000000000000000000000000000000006e
:2035ee000003000700dfe85000014000000300000e00000000400001c8f0801000000000c1
:16360e000000c00000000000000080003b82804000000658f40196
:203624000000000000c3002002700000000000000000000000000000000000000000000031
:2036440000002000000bab88200008000000200001000000000a00000200f00100000000c2
:1736640000000800240000000000000003ad2800000002e4af500066
:20367b00000000000c3020000000033c1000000001780540000000000000000002000000c4
:20369b00000000079a000000000000000000000000063c1800003400c9968000008003047a
:1636bb000200000002c00000000000009aa80000000000e0008093
:2036d1000000000000c3000000000043c040000003c100508000000000000000085c0000db
:2036f10000000000010000000000000000000000000043c00010c14000f960400005000204
:17371100c0000000006000000000000001400004000000020000201a
:20372800080000000c302380001a073c100e000c200000003c0000002bc100e01000040acd
:20374800540380050100000000008000000380001c02bc100e000004080f0038040003220d
:163768005b80e00a66000000001005005aa14080200c01c8f080eb
:20377e000040000000c3002000000003c0048000000000000200a000043c080808000000c7
:20379e00a590200008f000000000140000002030010003c0008000438000f0020020000b36
:1737be00258808060c000000000000d800821400000003800f00002d
:2037d500000000000c3021000000063c18040000046aaa10100000c0000000c000078000da
:2037f500000000001c573d4000000000000300070007bc1000000000000000300000032292
:163815005b000000000fac350000050000000000000030c8f080e5
:20382b000000000000c3002000000043c000400003810aa002020000000000040000000021
:20384b000000000001d0c3d48000000000001000080003c000000000000000030000000b8c
:17386b00658800a00028c9e200000000b0000000000000020f000025
:20388200000000000c3020000000033c1000002004000000000000000000000060000000f7
:2038a2000000000001f6600000008000000001800003bc100c800000000000000001a3a20d
:1638c2005b0000020026cc740000000a00000000014001e8f08089
:2038d8000000000000c3000000000003c0800003c3c0000000000000000000000000000044
:2038f8000000000000816c0020000c0000000000000043c000400000000000002000000331
:17391800658800000c02cdc11000000000000000000800000f0010d8
:20392f00000000000c303000050a073c1000000001d805600000000000000000000000006c
:20394f00000000080006028000000000000000000007bc100001fe0000000000001993a6a4
:16396f005b00000006000000000000000000000000007809f0a0d0
:203985000006000000c3000000d9b043c004002000030050000000000000000000802800ae
:2039a50000000000f00700140000000000000000009043c000001a63c0000000000099038b
:1739c5002588400004000000000000000000000000000400ff0000f7
:2039dc00001400000c302020081c033c18000000021c5060001d000000000000a00000af86
:2039fc00040020001fd6000080000000000000000007bc1000008101f8f50043019993a6ba
:163a1c005b000000e286dc74000800000000000000007948f08048
:203a32000000800000c3010100b10043c0000003d0240a0000002040000000000e000010fc
:203a5200f0004000018dc0042000600000000000000043c000001000000f50000809990b2b
:173a7200258c0000020348c10800000000000000000800020f00005d
:203a8900000000000c3120800700033c100c0000057805400000000000000000000000001c
:203aa900000000078012509020000000000000000e00000000000001ff5040800201e3a6ba
:163ac9005b400014000000000000000000000000001e0068f08042
:203adf000006800000c3000000000003c080000003c3005080000000000000000080000025
:203aff000000000000037744840000000000002801000000000000002d9e22080040000bfc
:173b1f00658000008000000000000000000000000001e0000f00003a
:203b3600000000000c302100000003bc100000003a1e504010000000000000c0000000008b
:203b56000000100000000000000000000003100f8807bc120100943c4c55003000000126f7
:163b76005b40c001e006dc741000000000000000001e7868f08029
:203b8c000000000000c3002000000003c020000004250a0082010000000000080000000095
:203bac000000020500000000000000000000208078f003c200101462040550022000000321
:173bcc0065800c00000249c1000001000000000000002402ef0004cb
:203be30001000000cc3020000000033c18000000000000000000000000000000000000004e
:203c03000000000000000000000000000000001000000000000000015ff0c0000100172247
:163c23005b810000000000000000000172cc1000400000e85540a3
:203c390000100003d0c3000000000003c00000000000000000000000000000000000000002
:203c59000000000000f000000000000000000002000000000000000000c0f00000200e0378
:173c7900a581000000000000000000008babcc80000003820550486a
:203c900000000001ec3023800f000000000e00000000000038000000000000ea0000000015
:203cb00000038001005a280800000000000380000076a9503e000001c8f0c03800000023e2
:163cd000c100000000000000038007000000000e00000000000085
:203ce6000000000000c30020005000000000800000000000020000000000000808000000f9
:203d0600000020000400c2800000000000002000f00f43e80080e3c00000f00200000000d8
:173d26003c0800000000000000200000e000000080000000000000c2
:203d3d0000000001cc3021000000063c102c00000000000030050000000000000000000095
:203d5d000000000780063cc8800000000000000100000000000a206548f0c010000000009d
:163d7d0000000000002ee00000080d019a9090040000000000004e
:203d93000000000000c3002000000003c00000000000000003000000000000000000000067
:203db3000000000000d003cc000000000000000000000000000000420200f001000000001c
:173dd300000000000000d00a20010010d966442040000000000000eb
:203dea0001040001cc302000001b063c18000000000000000280000000000000000300009d
:203e0a00000000019a00000000000000000000001c0000000000260548f0c00005000000b9
:163e2a00000000000001d2000001038016280000000000000000ed
:203e40000000800010c300003800a003c00000000000000000000000000000000000000074
:203e60000000000000000000000000000000000000000000000000420200f000000000000e
:173e8000000000000003cc100000007800c280000000000000000092
:203e970000020200ec302000550000000000000000000000028000000000000000000000f4
:203eb70000030000080000000000000000000000010000000000000168f0c00000000000c6
:163ed70000000000002ee000000000007f101080000000000000a8
:203eed0000001c4010c3000000080000000000000000000000008000000000000a000000f4
:203f0d000000100801000000000000000000000000d00000000000000000f00000000000bb
:173f2d00000000000000d00501000000e5009420000000000000000e
:203f44000003c300cc302000000003bc10000020000000000000000073c100000006000052
:203f6400000000000056941c2000000000000001985628186100800168f0c00000000000ee
:163f84000000000360000000000001809ac19000020078000000de
:203f9a0000003c7c00c3008000000043c0800804c000000000000100003c00400000200020
:203fba000000000000073788000000000000001000000280210017400000f0000000000027
:173fda0000000000140000000000180005b00c0400000000000000df
:203ff10000000741cc302000000a06bc100000000000000000000080000000000000200ac6
:204011005610000000563d400000000000000001813f28020080060168f0c00038980000fc
:164031000000020000400000000000007f028000014000000000f5
:204047000006007810c3000000010043c0800000000000000001800000000000000002c041
:204067005a004000900983c0010000000000000000f08280040400000200f000000980004d
:17408700000000000028000000000000990000040008000000000055
:20409e000004e001cc302110500006bc180c8200001cf04170040000000000c0004037ea56
:2040be005400000000000000002000000003000000b6a95004000061e8f0c031000000008e
:1640de000000000000000000030008008244000c000000000000ef
:2040f4000000820000c3002080000043c000800000000f000200000000000008000002e049
:20411400f5000000000000000000000000002000000bc3d4004003400200f002000000005d
:174134000000000000000000002000100378800080000000000000c9
:20414b00000a0316ec3024000000000000004000000000000000000d3f95020000000dffc2
:20416b000008000000000000000000000000000000b6828000000001c8f0c00100000000fa
:16418b00000000000000ef060001080b1331d000000420e000807d
:2041a10000113c7560c3000000000000000000000000000000000000b67980000000035a0d
:2041c1000f00000500f0000000000000000000000003c000000000000000f04028000000bf
:1741e10000000000000000f0010080118be308000001e000000020ce
:2041f800000207c5ec3023a00800063c102e0000000000003c3210100000000000003eefb7
:2042180000038000000000000000000000000009980000000e014001c8f0c0000001a000f9
:164238000000e0000000cf050b80000077395000000001e8f080d8
:20424e0000001c7c00c3002000f00003c0008000000000000200408900000000000002f0e5
:20426e005a00200000000000000000000000000099000000008000000000f00000000000ad
:17428e0000000800000010f001200090bb3e140000000002af00049e
:2042a5000001c055cc3021000000000000040000000000000000d0153f950000000601ee14
:2042c500102b0000010000000000000000000000001bc2000000006548f0c00000900000d3
:1642e500000040c00681cf06080007187331d000040000c8f08090
:2042fb000000003c30c300a0000000000000800010000000000001885e79804000000350d1
:20431b00d200000000c00000000000000000000000072000000800020200f000000b800042
:17433b0000000c00004000f00000000803e704000001c0000f000069
:20435200010207d78c302000000000000000000000000000010298100000000000606cc057
:20437200f000004000000000000000000000000019db06888000146548f0c002811015ab35
:16439200c0210001e001ef070000098a56395000004001c8f08071
:2043a80000003c3830c300000000000000000040000000000008410900000000000020d00c
:2043c800f000000200000000000000000000000000998168000000220200f00040200a5093
:1743e8003d400000000010f0010000110bfe140000000002af000061
:2043ff0000000005cc30201380000000000004000000000000000005bf95040000604000e9
:20441f00000000000002bc1200000000000000081b7f07c080000001e8f0c0000000080320
:16443f009cc800000040000000000809db285001001c7048f0a0fa
:204455000000000020c30080800000000000000003c0000000000000f6798000403c3c00fa
:2044750000000000000043c0000000000000000010a0c07c000000000000f00000000a50ee
:1744950036c0000000280000000000b0bd769c00004004000f000020
:2044ac00000047068c30200000000000000001000000000004303801efd5040000c3afca55
:2044cc005000000000000000000000000000000d9a00000000404001e8f0c0002851dbb4b8
:1644ec002004000160000000002850015ab95000000e0008f080d3
:204502000000027010c3008000000000000000080000000000000009fb344000001e6b606b
:20452200f020000000000000000000000000000050000000000800000000f00002051f37c4
:17454200c000000000000000000100908b3e140000002000df000035
:204559000400c007ac302000000000000000000000000000000001c1e9400000000781d632
:204579009000000000000000000000000000000d800000000000260168f0c0000001c07392
:16459900000800020000000000000189f371d00000003848f08054
:2045af0000a0260020c30800000000000000000000000000000000090414004000006bdf90
:2045cf009600000000000000000000000000000050000000000040400200f0000000100460
:1745ef00300000001400000000000000b1f70400000000028f000034
:204606000001c01dcc3021280000000000040000000cf040713270000000000000068fc9c0
:20462600602b400000023c10000000000000000001374f80040126016855400204000f75a1
:164646006804400006800000030007187bb95000000c71e8f0a091
:20465c000000000010c300a0100000000000800000010f0003084000000000000c003be0b9
:20467c0096002400000043c0000000000000000000abb0f000c008400205500010200a9edf
:17469c00c2000c0000000000003000000bfe1400000024000f0000b9
:2046b300000000000c30200000000000000040000000000000380185fe0000000006000089
:2046d3000000000000367c080000000000000000005e3d40200000026a5050800019897074
:1646f30040000000060000000001000000000000000000e8f09002
:204709000010000000c30080000000000000000000000000000000005e8000000000280037
:2047290000000000000d343c000000000000000000e043d4000003c02cfe2080000000531c
:1747490040000000004000000000000000000000000000020f004088
:20476000000000000c30238000000000000e0140000000003a8050a063c100e0020000db80
:204780004203800900f7bc000000000000038000080000000e00240058a000380000af6894
:1647a0002108e0000000000003800000ff39d00e00000148f080a8
:2047b6000000000000c3002000000000000080000000000002100d9b043c0008000c01cfa2
:2047d60078002000380b4168000000000000200000000000008001e2000a0002000010940c
:1747f600092048003c000000002100000f738820800800000f00809d
:20480d00000800000c302300000007bc100400800000000030001805a42080c0000005cea9
:20482d00102300001806384080000000000000000abb941030802e00ca800200000000008f
:16484d000000c0e060008f04080000000000000c001601c8f0805f
:204863000003000000c3000000000003c00180000000000000000000568000000000003025
:20488300e1200000000d034804000000000000000107ff8824000063d500000400000000c9
:1748a30000000c00020010f01000000000000000c00800000f000009
:2048ba00001400000c3020400100000000010000000000000000980063c1010006002196b2
:2048da009000100180de03c0000000000000000800000000000054000000000000d0afeb36
:1648fa00958210020040000000000000fb028000001c00c8f0806e
:204910000000800000c300000000000000001040000000000000010f003c00000ca4014cab
:2049300096004080000703c00000000000000000300000000000c8200000000000018adec6
:1749500070000100242400000000000007c00000001020020f00008f
:20496700000000000c3020000000000000000080000000000000000063c1000000001ee032
:20498700f000000180000000000000000000000000000000000016000000000000001df27a
:1649a700818100400001af078001018107c1001080002cc8f08042
:2049bd000000000000c3000000000000000000140000000000000000003c0000003c00e0ab
:2049dd00f000000000000000000000000000000000000000000000000000000000000c506e
:1749fd003c0a0000000000f000000100fb3c2000000007420f0000bd
:204a1400000400000c302000000000000000201c00000000000000007bc1010016c725e9be
:204a34006020080009063c1000000000000028000c5228004c00800178f500000050000047
:164a5400000000000000af0610000801000000000e003968f0904f
:204a6a000000800000c3000000000000000004002000000000030000003c0000010641e05e
:204a8a006900400000d003c000000000000001000000c28020400403810f501000008000b6
:174aaa0000000000000000f0000000f0d000000000c00400ff000082
:204ac100000000000c3020100000000000000e00001cf040000050e063c10200020000efc8
:204ae100040000070087ed0000000000000300001f00000000200078000000000018000064
:164b0100000000000201af060800000007c8000000803808f0401f
:204b17000000800000c30000000000000000000000000f020000009b043c0040001c0000f3
:204b3700f0000000080129e0000000000000100000800000000020000000000000000000ac
:174b570000000000004010f0000000000b3c4000000042c00f0080ef
:204b6e00000000000c302300000006bc1004000000000000300010173c2000c00ae06fea3c
:204b8e00500300401e80295800000000000000010000000000004000000000300000a00044
:164bae0000004008000000000300011efb00000c4c000000000034
:204bc4000000000000c3002000700003c00180000000000002000088f6c00048067e21c04d
:204be400f0006002b1010168000420000000000008000000000008000000000200401000be
:174c040000000400000000000010001197c014008a0000000000007f
:204c1b00000400000c3020100000000000000006024f20200000b817859a800000007cc0c8
:204c3b004400000000073c10000140000000280000000000000094024dc3204000000d63e3
:164c5b00d001000200178e7600000000000000000c000000000049
:204c71000000000000c3000280000000000000000025800000000b0c0b598000000034cc3e
:204c91000a000000000003c0040008000000000000e00000000006625c9cb00000000053e7
:174cb100bc0040003c22f8e2000000000000000000000000000000b8
:204cc800000000000c30200000007b3c000e0b207c0cf040040201c3265a80e204600ef3b7
:204ce800800380000000000000008000000380001c0000000e016020000000380010076646
:164d08008500e002020000000380080000000000000000000000a1
:204d1e000000000000c30000000007816800808847c00f00080040000a658008408002faa9
:204d3e002428202000000000000014000000200000000000008002c60000000200000e57e6
:174d5e00788008003c400000002000b00000000000000000000000f2
:204d7500000000000c30200000000000000c0000780cf04000301003225a80c005e047e1f6
:204d9500042300000007bc180000000000000000187e2800000000024d02200000000000cd
:164db50000000000001dba3603000000b7be9000041e00000000b1
:204dcb000000000000c300000000a0000000000004000f00080000080a258004000034005b
:204deb0010000000000043c000000000000000000000c280440000001cc00000000d0e0018
:174e0b00000000000002f8f3001000000b43c00400a00000000000e1
:204e2200000000000c302040000000000000a140001ef070000080e3a25a800a020781b151
:204e42000400000000033c1000a0000000000000005238d080800000000000000059a76a99
:164e6200800000000040000000000500bf20500000000000000046
:204e78000000000000c30000000000000000040800000f0000000b1002e580000e3400d8a0
:204e980020000008000043c004008000000000200000c38c000000000000000000000000dc
:174eb80028004080003c0000000000080f72840400000000000000ae
:204ecf00000000000c3020000b810000000000940200a551001001b3a25a000002628d801e
:204eef00040010278103bc1000400000000010000000000000003638000000302a00187b6d
:164f0f008d080020000000000000430800000000000005fcf50096
:204f25000000000000c3000000dcb00000000001403c05a000000f0a0b25800000243d4091
:204f45000a00008400e043c0000000000000028000000000000001c40000000100500990aa
:174f650034c000a00024000000000001f0000000000003420f5008e0
:204f7c00000000000c3020040000000000001000035ef001020085b5225a000002404dc844
:204f9c001000100f00073c180000000000000000000000000c00660058a060000051e5e685
:164fbc0085800008602c9e741020080006041040015438caf51046
:204fd2000000000000c3000040000000000001e0002700f00010050903a580004e263f4e7d
:204ff20080000280f00003c000000000000002000000000000400140000a0008000080f7de
:17501200b440000200037cd1000000308b3880020000203e0a000064
:20502900000000000c3020840000533c0040100006189600014a8005a25a00010a068dc1c9
:20504900062044001f033c10000a0000000000000000000000000000eca0000002180000bf
:16506900000004000000000000000000b3f9d800809c000000008d
:20507f000000800000c3000000b00b8168000000023db6920000050002658800003c000073
:20509f001000000100f003c000000000000004000000000000000000010a000000100f00ff
:1750bf0000000080003c00000000007001bfdc80001402400000003c
:2050d600000000000c302004001c0000000c10147b5ea52100400015a25a00c90340208f63
:2050f600740307000103bc100001000000032450000000000c1216024c800230c480036eeb
:165116008000c101400000000104400e00000001101c07de00009c
:20512c000000000000c30000400100000000810000270f000005000a0a25804c1014005c1e
:20514c00fb00204000f043c0000008000000214200f000000081000026000002142100dfdd
:17516c0038000c00000000000030400180000000010003ec005200b5
:20518300001400000c3020082018d3281000000004daf020000511c1a65a010000001e105d
:2051a300080000090a12381000000000000000000c56c20000000000000000000099c522d3
:1651c30095000420000000000003810c00000000061c644e03486e
:2051d9000000000000c3000100000103d404000003dc90f000000090036581008000002a94
:2051f9000000000078977e804000000000000000d001e0004000000000000000000710f44d
:175219003e8000800000000000013801000000000006e3dcca300047
:20523000000000000c3023a000189bbd54000026036c0f0004003805a65a00e000000c8941
:205250006c0380050a1f420000000000000380080000000000000600daaf0038000005fa8e
:1652700085200a0000000000000800000000000e000e01c95068d3
:205286000000000000c3002100b00b0140000003e01f0f00004040000ae580080000000c14
:2052a6009628200050ad380000000000000020001000000000000022000af00200500096a1
:1752c600388000000000000000000000000000008001e01d8e2000ed
:2052dd00000800000c3020034801d7a81040408000dae12200309003225a01c000000c8900
:2052fd006c010000081b100080a1400000030000000000000240000000000000108180003a
:16531d00000000000000000000000000170000008000016e034829
:205333000001000000c30002001081c3d4040a0000000e10000007000aa580000400002ed8
:205353009628300000a70000000408000000000070b0000000001400000000000001000064
:1753730000000000000000000000000003c028001400001cda3008f6
:20538a00000000000c30200008011b28100000263bfc0f00000001d7225a800400404e89f0
:2053aa006c0000000096000020000000000090000000000000001400000000000038092bb1
:1653ca00cd0008016016ca0008000780bb2000800036044e4748b6
:2053e0004000000000c3000000108903e8800002400e0f000000000e0265800020023c2fc5
:205400009628000000097410000000000000008000b000000000000000000000000f80572b
:17542000cc001000000010a00001003003c000000402c39c981000e8
:20543700001000000c312041050006ec5000000604000000010500d5225a040022e74e891b
:205457006d1000010e7ba00080000000000000070003bc10000020700000000000000000a8
:16547700000000e00000000000000f00dfb80080002004000000f5
:20548d000000000000c3000000d8bb21c804000022c000000008200e03e5802000267c2f4b
:2054ad00960000800199c0000000000000000000000043c0000a01460000000000100d00fe
:1754cd000000000000380000000002f0b34300000000420000000066
:2054e400000000000c312004018e9fa81400003c3b6cf00000000413225a00001607cc8985
:205504006e00000000373dc880000000000000001ef382000c0056020c0a00080018037eaf
:1655240085000000000000000020051e5fbdc090000601fde74012
:20553a000000000000c3000040000343e80001e0c01f05a000000f0f0ba58020003c382eab
:20555a00962040403093c3cc0100000000000000010ba40000400800050050001380009b2d
:17557a003880004000000000000100d9e343cc000400401ccd108891
:20559100000800000c3020042180dba81040100702f8960202c0b1e123c2040502665e99d4
:2055b1006d00040719033cc0804a0000000004079fb28004800a0000000000003801b0002d
:1655d1000000100000000000000000009781400001d40000000087
:2055e7000001000000c300000400e1c3d40000000006096200004fc00003c020003e640c53
:2056070096000000008003cc410200000000000009f70004000000000000000040000d000a
:1756270000000100010000000004000007000020000be00000000054
:20563e00000000000c312104071c9fa810411000721be10104450003a3c204c103c01e99c0
:20565e006c130681800000000000000000030407800000000010000378f000304419800090
:16567e0000000100000000000004059b00000004101401f9e74028
:205694008000000000c300204001b903e8000101c404dd21004400000003c028101e240b5a
:2056b40096083040f0f00000000000000000204000000000001100000ddf120207009000e0
:1756d400000000180000000000004099e0000000c100201cbd120022
:2056eb00000000218c302010081a72281800409c280000000005780123c2400088004e89b8
:20570b006c00000000367c0000000000000000000006bc1000402601cca4608000000000d7
:16572b00000000600000000000007b00328000008e0022d90d0045
:205741004010003d40c3000080f001c3e8000814200000000002808e0003c100006c342bc1
:2057610096240000000d683c0002000000000000000003c0000803c006eda8002010000062
:175781000000000000000000000007b80dc1402004e0041c80c000e0
:205798000001e001cc302380080183ac540e0a20027af00000005807a3c240e008004c996f
:2057b8006d0380081e9fbc000000000000038100000000000e000021caa140008000000082
:1657d80000000000000f880000000000fbb94080002e0000000082
:2057ee000000020010c3002000108f3dc8008000403505a0000000000003c0080100280c68
:20580e009600300011e341680000e000000020000000000000c080003dbe2000101000009c
:17582e000000004000375d000000001003436c00002240000000006b
:2058450000020000cc30200380187328104c0c067c4ae1320084580323c240c400021e8937
:205865006e0368001806384080000000000300500002bc1001400025d8f5000000000000e0
:16588500000020000057e8002028000d0000000000200000000039
:20589b0000003c0000c3000000000b83e800000022430e100010200a0803c000201c402d47
:2058bb0096000500000d43484000000000000002b0d043c0001800031f0f019000000000fb
:1758db00000000002c2c108000013001a00000000021c38000000098
:2058f2000101c000ec302000081853281840000074000000000000a323c20000000006891a
:205912006f00001181be03c0008080000000280000073c1000002001caa1400003000000a9
:1659320000000000002f808003000000163d484000002000000032
:205948000000000010c3000000500f83d400000007c00000000040000003c0100000202f8d
:2059680096000002008b43c00004100000000004b00043c0040080503f8e200000800000ed
:17598800000000000c315f00001000000003d4820000000000000003
:20599f000001c000ac3020000501f6a8100040800200a540010000c7a3c20000ca07d48975
:2059bf006d0000019e802950000000000000028000000000004a04016ee54000000000005f
:1659df00000000000395e0202000801cf7814010200c000000006a
:2059f5000000020000c3000000d88183e88000a0003405a0000a8f000003c04000546808b0
:205a150096000004010f01680000000000000000000000000008002035fc00000000000005
:175a3500000000003c43d000000030000f800000000000000000004c
:205a4c0000000000ec30300005007f2814004000034aa500000200e8215400000166ce89df
:205a6c006d1028df88077840000000000000000001000000020000061cf5000880000000ad
:165a8c000000004203bed00000001180570b00000000017ca5001c
:205aa2000000002000c3000000d8bf03d4000a00003e0f020003c010702a8040000c2c2da8
:205ac20096000202f9fb6f48000000000000000000c0000000002802250fa0800020000021
:175ae200000000003c02eb080000000091f430220000025705508077
:205af90000004201ec3020002180f72810004080021b690002810191aa580004e8005c8910
:205b19006d1000201c875a4000000000000000000002bc100c0606656ea000000000000039
:165b39000000000003c000000000000800000000a0000348a010f0
:205b4f000000024010c3000000009983e8c00000003589600000001e57da4000210c380942
:205b6f0096000005000f22580000000000000080000003c000400003010a00004000000021
:175b8f00000000000078000000000001a00000000400002f0f500054
:205ba600000000008c30250001815f28104c0000054a9602000010096bc000c000004e99c7
:205bc6006c0341401e772580800000000003c000000000000c000061eae342800400000052
:165be60000000000038000000000038800000000000c000000008f
:205bfc000000003c10c3002000009fc3d40080000206096200000f00bfc3c0180000380b85
:205c1c0096082002000bc1a400000000000020000400000000900000030e308002a0000021
:175c3c0000000000007c00000000005800000000000020000000005d
:205c53000000006eac302000600c7b83c000e02064c9f0200000518127c0000000001c8902
:205c73006c00200800000000000000000000000000000000004e0000600080001879bbab58
:165c9300cd0000020007d082000009cd3abcd000000660000000d1
:205ca90000103c3960c3000007710183c0000a01c675a0f00000050c7683c0000000002fa8
:205cc9009604000050000000000000000000000000000000000000000200002000004ed28f
:175ce9004c04000014006900000000318db8c080022143c0000000fb
:205d00000001c38ecc302380000a3eb3008e0060047ef00038008005303c00e40800569933
:205d20006c0003d000000000000e8000000000500000000001000e20e8f0803800580b38ec
:165d4000c140e00007400000038000011700102e0020004081006b
:205d56000000024030c30020000100c3300480c8431d05a002000100f83c0009a1402c2a1c
:205d7600962000000000000000040400000000001000000000000006420f0012000000dafc
:175d9600fcc008000068000000200000e1401441800040149a500076
:205dad000000c387ac3025680000beaa880c00806008e122300081e1238408c0020054994c
:205dcd006c0000101b00000000000000000000038000000000400001c8f090000080100083
:165ded0000000001630000000000280c7a11d000400001ee144a20
:205e030000000e7c20c3002400000302a800000000350d2000000f10043840000014280afe
:205e23009600000000a00000000000000000000000000000000a0000020f000020010e00df
:175e43000000000000400000000001100767448008004005030080f5
:205e5a000104e005cc3024130819fbccc800000606580f0000001811a3c00004cb668e8910
:205e7a006c00000d9b000000000000000003000000563d4800004e0068f080000019b00027
:165e9a0000000000004000000080081a0000000001060178a008e8
:205eb00000003c3c00c300028010892f30000000022d0f000000010854168000210c002b94
:205ed0009600000050a000000000000000001000000003d400004000020f000003800d0064
:175ef000000000000028000000000011000000000408003c0000001a
:205f070000000046ac3020100000023c10404c060200a540000000000295000000079c998e
:205f27006c0000100000000000000000000000000000000000000000e9f090000000000075
:165f470000000003600000000041070eb68c1000040001ea004208
:205f5d000000003810c3000280000043c0800000003c05a0000009009016800000002809d3
:205f7d0096000002000000000000000000000000000000000000000002af000000000b00b0
:175f9d0000000000140000000004000903bbcc80000003440b52809e
:205fb400000207548c302000018003bc104000203ae8a510000500097a940014e002cc9996
:205fd4006c0002800000000000008000000000081fbf400010003c78e9f08000807017688d
:165ff400c1840000602eaa64000057090000000000000568045095
:20600a0000003c7430c3000000108043c0000002c0350f0000000000d43c0000a000382e24
:20602a009600000000000000000014000000000070e7b480000003d7408f00001000089ac6
:17604a00fcc001000400dc9a20000291d0000000000002fd83408043
:206061000001e017ec302001031c3e82800000a0060f6900000018102da4000c06424e8949
:206081006c00128000dac20000000000000000000000000000000000e9f090040019c167b7
:1660a10089040000001788000002a180b7bcd4000100040000004e
:2060b7000000020030c300000030000028000012c2bc89600000000e92258000e0be742e7e
:2060d70096000200d0056c008000000000000000000000000000000300af00004a001093b1
:1760f70062c000000000f800000001000d78c0040014020000000018
:20610e0000000054ec3021000301fb80c08c0c0020e89602300000e97a5808c0c2039e89ca
:20612e006c0000000092820000000000000000080000000000000401e9f080300200000039
:16614e000000c0000020a80123000901fe14100d002100dca000b9
:206164008000003800c300a28000d901a8008000003d09620200001054258008003c402d18
:2061840096000100000d78008000000000000000f000000000000020008f0002005000006e
:1761a400000008000000c040002000708343ea80900040270000081d
:2061bb00001000000c30200300193a528000000000d9f00000020187ea94000400001689bc
:2061db006c00000800dbbc0200000000000000000000000000008001c9f080400000132961
:1661fb00d10000000000000000000000000000000614640000003f
:206211000010000000c30800000089610c0000000035a0f080004000dc2800002000002ac9
:2062310096040000109501680000000000000000000000000000140000df0040000008b3b7
:17625100f44000000000000000003800000000000000238000000027
:20626800000000000c3023800d0b1ea8c08e002072ee0f0038009807f04008e000001699de
:20628800670380018092a94000000000000000000800000000000031c8f0a038005819b81e
:1662a800c140000000000000000000000000000e01007168424075
:2062be004000000000c300200011878314208000401e0f000200010eb4000008000001eca7
:2062de000f0020000003c03c0000000000000000000000000000000000ef000200100adb8c
:1762fe003cc0000000000000000000000000000080000405ce220014
:20631500000000000c30235010001e82800c00806018e1220000008f688108c00040000002
:2063350000032980189fa58080000000000000038800000000000001e8f08002008009b021
:166355000d40000200000000002000000000000000007a58424867
:20636b000000000000c30006800000002800001400350d2000000000dc2d400000000000e2
:20638b00000001800003425800000000000002800800000000000000020f0000100100d256
:1763ab007cc0000014000000000138000000000000000415dd12004a
:2063c200000000000c30200007185f3c0000005c026cf00000000095680d00001407c00006
:2063e2000000002f8080295000000000000000070000000000000001e8f080000500f0009e
:1664020000000000002ce08200000000000000000024016a4240e5
:206418000000000000c3000000500fc03c000000200d05a00000010c3e68c00004003000cd
:2064380000000001180301680100000000000000080000000000000002ef000000001f00a6
:17645800000000000003ca000000010000000000000040059e230059
:20646f00000000000c302002800083ed000000460000a540010019efb51d000000000000b9
:20648f00000002098003bc10000000000000200000be3c002000000468f0800820700000e5
:1664af00000000000000000000000000000000000026365b3040b0
:2064c5000000000000c3000000000b6de0000000036c05a0002a8000da2040000040000064
:2064e50000000000d0f003c00000000000000100000f6fe000000003c20f001000000b00c6
:17650500000000003400000000040000000000000001521ca7220807
:20651c00000000000c3020000181ffbc0000000e066c0f00000001d1ec0d0000016000000b
:20653c000000200100db03c000000000000000078056bd4000002000c8f08000000000004e
:16655c000000000000000000000000000000000000000000000029
:206572000000000000c300000000b9403c000000220d0f00800000083e28c0000c00000019
:2065920000000180780503c02000a00000000018000003d4440000c2020f00002000000042
:1765b200000000000000000000000000000000000023c000000000ef
:2065c900000000000c30200008008661c00020160000a54000000013e82800000200000067
:2065e900000000480037b84080000000000301800000000000029e01c8f0800000188000a6
:1666090000000001400000000000200000000000000000dea0009c
:20661f000000000000c3000000b0cf792c000400201c05a0000000080802820000140000e7
:20663f0000000002d0004384040000000000100000000000000011e3420f00000000000049
:17665f00000000000200000000000000000000000000000e00000014
:20667600000000000c302340239a073c100c000002eef00030807000000000c40000000085
:206696000003000000933c0080204000000000001c00000000010074e8f080300200000017
:1666b6000000000000000000000800000000000c000400000000b6
:2066cc000000000000c3002000090043c0008001c01e05a01210008f0000000826000000dc
:2066ec000000200400f1403c00040000000000000100000000000803800f00060000000058
:17670c0000000000002c0000000100000000000040026000000000a7
