:02000000ff00ff
:080002004c6174746963650030
:17000a00694345637562653220323031372e30382e32373934300069
:15002100506172743a2069434534305550354b2d53473438002c
:1a003600446174653a20417072203320323031392032323a31303a333900b1
:0200500000ffaf
:040052007eaa997e6b
:02005600510057
:020058000105a0
:03005a00920020f1
:03005d006202b389
:03006000720150da
:0300630082000018
:02006600110087
:02006800010194
:20006a00000000000000000000000010000000000000400000000000010000000000000421
:20008a000000000000001000000000000040000000001000000000000040000000000001b5
:1600aa0000000000000004000000000000100000000000004000ec
:2000c0000000000000000000000000020000000000000800000000000020000000000000f6
:2000e00080000000000000000000000000080000000002000000000000080000000000006e
:1701000020000000000000800000000000020000000000000800003e
:200117000000000000000000000000000000000000000000000000000400000000000000c4
:200137000000000000000000000000000000000000000000000000000000000000000000a8
:160157000000000000000000000000000060000000000000000032
:20016d00000000000000000000000000000000000000000000000000000000000000000072
:20018d00000000000000000000000000000000000000000000000000000000000000000052
:1701ad0000000000000000000000000000000000000000000000003b
:2001c40000000000000000000000000000000000000000000000000000000000000000001b
:2001e40000000001600000000000000000000000000000000000000000000000000000009a
:1602040000000000000000000000000000000000000800000000dc
:20021a000000000000000000000000000000000000000000000000000000000000000000c4
:20023a000000000002000000000000000000000000000000000000000000000000000000a2
:17025a000000000000000000000000000000000000009000000000fd
:2002710000000000000000000000000000000000000000000000000000000000000000006d
:2002910000000000000000000000000000000000000000000000000000000000000000004d
:1602b1000000000000000000000000000000000000000000000037
:2002c700000000000000000000000000000000000000000000000000000000000000000017
:2002e7000000000000000000000000000000000000000000000000000000000000000000f7
:170307000000000000000000000000000000000000000000000000df
:20031e000000000000000000000000000000000000000000000000000000000000000000bf
:20033e000000000000001000000005800000000000000000000000010040000000000401c4
:16035e000000000000000000000000000000000000000000000089
:20037400000000000000000000000000000000000000000000000000000000000000000069
:20039400000000000000000000000000000000000000000000000000000000000000000049
:1703b400000000000000000000000000000000000000000000000032
:2003cb00000000000000000000000000000000000000000000000000000000000000000012
:2003eb00000000000000c000000000000040000000000000000000000000000000000000f2
:16040b00000000000000000000000000000000000000000080005b
:200421000000000000000000000000000000000000000000000000000000000000000000bb
:20044100000002000000080000000000000c00000000000000000000000000000000000085
:1704610000000000000000000000000000000000000000000c000078
:20047800000000000000000000000000000000000000000000000000000000000000000064
:20049800000000000000000000000000000000000000000000000000000000000000000044
:1604b800000000000000000000000000000000000000000000002e
:2004ce0000000000000000000000000000000000000000000000000000000000000000000e
:2004ee000000010000000000000000000000000000000000000400000000000010000000d9
:17050e000000000000000000000000000000000000000000100000c6
:200525000000000000000000000000000000000000000000000000000000000000000000b6
:200545000000000000400000000000000000000000000000000000010000000000000c0049
:160565000000000000000000000000000000000000000000000080
:20057b00000000000000000000000000000000000000000000000000000000000000000060
:20059b0000000200000000000000000000000000000000000000000000000000000000003e
:1705bb00000000000000000000000000000000000000000000000029
:2005d200000000000c302000000000000000000000000000000000000000000000000000ad
:2005f2000000000000000000000000000000000000000000000000000000000000000000e9
:1606120000000000000000000000000000000000000000000000d2
:200628000000000000c30000000000000000000000000000000000000000000000000000ef
:20064800000000000000000000000000000000000000000000000000000000000000000092
:1706680000000000000000000000000000000000000000000000007b
:20067f00000000000c302000000000000000000000000000000000000000000000000000ff
:20069f000000000000000000000000000003800800000000000000000000000000000000b0
:1606bf000000000000000000000000000000000000040000000021
:2006d5000000000000c3000000000000000000000000000000000000000000000000000042
:2006f500000000000000000000000000000020009000000000000000000000000000000035
:170715000000000000000000000000000000000000000000000000cd
:20072c00000000000c30200000000000000000000000000000000000000000000000000051
:20074c0000000000000000000000000000000000000000000000000000000000000000008d
:16076c0000000000000000000000000000000000000001d8f500a9
:200782000000000000c3000000000000000000000000000000000000000000000000000094
:2007a200000000000000000000000000000000000000000000000000000000000000000037
:1707c20000000000000000000000000000000000000000020f5000bf
:2007d900000000000c302000000000000000000000000000000000000000000000000000a4
:2007f9000000000000000000000000000000000000000000000000000000000000000000e0
:1608190000000000000000000000000000000000000000000000c9
:20082f000000000000c30000000000000000000000000000000000000000000000000000e6
:20084f00000000000000000000000000000000000000000000000000000000000000000089
:17086f00000000000000000000000000000000000000000000000072
:20088600000000000c302000000000000000000000000000000000000000000000000000f6
:2008a600000000000000000000000000000000000000000000000000000000000000000032
:1608c6000000000000000000000000000000000c00000000000010
:2008dc000000000000c3000000000000000000000000000000000000000000000000000039
:2008fc000000000000000000000000000000000000000000000000000000000000000000dc
:17091c00000000000000000000000000000000004000000000000084
:20093300000000000c30200000000000000000000000000000000000000000000000000048
:20095300000000000000000000000000000000000000000000000000000000000000000084
:16097300000000000000000000000000000000000000000000006e
:200989000000000000c300000000000000000000000000000000000000000000000000008b
:2009a90000000000000000000000000000000000000000000000000000000000000000002e
:1709c900000000000000000000000000000000000000000000000017
:2009e000000000000c3020000000000000000000000000000000000000000000000000009b
:200a00000000000000000000000000000000000000000000000000000000000000000000d6
:160a200000000000000000000000000000000000000000000000c0
:200a36000000000000c30000000000000000000000000000000000000000000000000000dd
:200a5600000000000000000000000000000000000000000000000000000000000000000080
:170a7600000000000000000000000000000000000000020000000067
:200a8d00000000000c302000000000000000000000000000000000000000000000000000ed
:200aad000000000000000000000000000000000000063c10000000000000000000000000d7
:160acd000000000000000000000000000000000000000000000013
:200ae3000000000000c3000000000000000000000000000000000000000000000000000030
:200b030000000000000000000000000000000000000003c00000000000000000000000000f
:170b23000000000000000000000000000000000000000000000000bb
:200b3a00000000000c3020000000000000000000000000000000000000000000000000003f
:200b5a0000004000000000000000000000001000000000000000000000000000000000002b
:160b7a000000000000000000000000000000000000000000000065
:200b90000000000000c3000000000000000000000000000000000000000000000000000082
:200bb00000000000f000000000000000000002000000000000000000000000000000000033
:170bd00000000000000000000000000000000000000000000000000e
:200be700000000000c30200000000000000000000000000000000000000000e000000000b2
:200c0700000380000000000000000000000380000a000000000000000000000000000000bd
:160c270000000000000000000000000000000000000000000000b7
:200c3d000000000000c30000000000000000000000000000000000000000000800000000cc
:200c5d00000020000000000000000000000020000000000000000000000000000000000037
:170c7d00000000000000000000000000000000000000000000000060
:200c9400000000000c3020000000000000000000000000000000000000000000000001cf14
:200cb400060800000000000000000000000000000000000000000000000000000000000012
:160cd400000000000000000000000000000000000000000000000a
:200cea000000000000c3000000000000000000000000000000000000000000000000001017
:200d0a00f000000000000000000000000000000000000000000000000000000000000000d9
:170d2a000000000000000000000000000000000000000000000000b2
:200d4100000000000c30200000000000000000000000000000000000000000000000000036
:200d61000000000000102950000000000000000000000000000000000000000000000000e9
:160d8100000000000000000000000000000000000000000000005c
:200d97000000000000c3000000000000000000000000000000000000000000000000000079
:200db700000000000000029400000000000000000000000000000000000000000000000086
:170dd700000000000000000000000000000000000000000000000005
:200dee00000000000c30200000000000000000000000000000000000000000000000000089
:200e0e000000000000000000000000000000000000063c180000000000000000100000005a
:160e2e000000000000000000002800000000000000000000000086
:200e44000000000000c30000000000000000000000000000000000000000000000000000cb
:200e640000000000000000000000000000000000000043c00000000000000000000000006b
:170e8400000000000000000000010000000000000000000000000056
:200e9b00000000000c302000000000000000000000000000000000000000000000060000d5
:200ebb00000000000000000000000000000000000000000000000000000000000000000017
:160edb000000000000000000000000000000000000000000000001
:200ef1000000000000c300000000000000000000000000000000000000000000000000001e
:200f11000000000000000000000000000000000000000000000000000000000000000000c0
:170f31000000000000000000000000000000000000000000000000a9
:200f4800000000000c302000000000000000000000000000000000000000000000068000a7
:200f6800000000000000000000000000000000000000000001000000000000000000000068
:160f88000000000000000000000000000000000000000000000053
:200f9e000000000000c3000000000000000000000000000000000000000000000000000070
:200fbe00000000000000000000000000000000000000000000000000000000000000000013
:170fde000000000000000000000000000000000000000000000000fc
:200ff500000000000c3020000000000000000000000000000000000000000000000000ef91
:201015000400000000000000000000000000000000000000000000000000000000000000b7
:1610350000000000000000000000000000000000000000000000a5
:20104b000000000000c30000000000000000000000000000000000000000000000000010b2
:20106b00f00000000000000000000000000000000000000000000000000000000000000075
:17108b0000000000000000000000000000000000000000000000004e
:2010a200000000000c302000000000000000000000000000000000000000000000000000d2
:2010c20000000000000000000000000000000000000000000000000000000000000000000e
:1610e20000000000000000000000000000000000000000000000f8
:2010f8000000000000c3000000000000000000000000000000000000000000000000000015
:201118000000000000000000000000000000000000000000000000000000000000000000b7
:171138000000000000000000000000000000000000000000000000a0
:20114f00000000000c30200000000000000000000000000000000000000000000000000024
:20116f0000000000000000000000000000000000000000000e000000000000000000000052
:16118f00000000000000000000000000000000000000000000004a
:2011a5000000000000c3000000000000000000000000000000000000000000000000000067
:2011c50000000000000000000000000000000000000000000080000000000000000000008a
:1711e5000000000000000000000000000000000000000000000000f3
:2011fc00000000000c30200000000000000000000000000000000000000000000000000077
:20121c0000000000000000000000000000000000000000000000000000a5400000000000cd
:16123c00000000000000000000000000000000000000000000009c
:201252000000000000c30000000000000000000000000000000000000000000000000000b9
:201272000000000000000000000000000000000000000000000000000c05a00000000000ab
:17129200000000000000000000000000000000000000000000000045
:2012a900000000000c302000000000000000000000000000000004000000000000000000c5
:2012c900000000000000000000000000000000000000000000000000000000000000000005
:1612e90000000000000000000000000000000000000000000000ef
:2012ff000000000000c300000000000000000000000000000000000000000000000000000c
:20131f000000000000000000000000000000000000000000000000000000000000000000ae
:17133f00000000000000000000000000000000000000000000000097
:20135600000000000c3020000000000000000000000000000000000000000000000000001b
:20137600000000000000000000000000000000000000000000000000000000000000000057
:161396000000000000000000000000000000000000000000000041
:2013ac000000000000c300000000000000000000000000000000000000000000000000005e
:2013cc000000000000000000000000000000000000000000000000400000000000000000c1
:1713ec000000000000000000000000000000000000a000000000004a
:20140300000000000c3020000000000000000000000000000000000000000000000000006d
:201423000000000000000000000000000000000000000000000000000000000000000000a9
:161443000000000000000000000000000000000000000000000093
:201459000000000000c30000000000000000000000000000000000000000000000000000b0
:20147900000000000000000000000000000000000000000000000000000000000000000053
:1714990000000000000000000000000000000000000000000000003c
:2014b000000000000c302000000000000000000000000000000000000000000000000000c0
:2014d0000000000000000000000000000000000000000000000000000000000000000000fc
:1614f00000000000000000000000000000000000000000000000e6
:201506000000000000c3000000000000000000000000000000000000000000000000000002
:201526000000000000000000000000000000000000000000000000000000000000000000a5
:1715460000000000000000000000000000000000000000000000008e
:20155d00000000000c30200000000000000000000000000000000000000000000000000012
:20157d0000000000000000000000000000000000000000000000000000000000000000004e
:16159d000000000000000000000000000000000000000000000038
:2015b3000000000000c3000000000000000000000000000000000000000000000000000055
:2015d3000000000000000000000000000000000000000000000000000000000000000000f8
:1715f3000000000000000000000000000000000000000000000000e1
:20160a00000000000c30200000000000000000000000000000000000000000000000000064
:20162a000000000000000000000000000000000000000000000000000000000000000000a0
:16164a00000000000000000000000000000000000000000000008a
:201660000000000000c30000000000000000000000000000000000000000000000000000a7
:2016800000000000000000000000000000000000000000000000000000000000000000004a
:1716a000000000000000000000000000000000000000000000000033
:2016b700000000000c302000000000000000000000000000000000000000000000000000b7
:2016d70000000000000000000000000000000000000000000e0000000000000000000000e5
:1616f70000000000000000000000000000000000000000000000dd
:20170d000000000000c30000000000000000000000000000000000000000000000000000f9
:20172d0000000000000000000000000000000000000000000080000000000000000000001c
:17174d00000000000000000000000000000000000000000000000085
:20176400000000000c30200000000000000000000000000000000000000000000000000009
:20178400000000000000000000000000000000000000000000000000000000000000000045
:1617a400000000000000000000000000000000000000000000002f
:2017ba000000000000c300000000000000000000000000000000000000000000000000004c
:2017da0000000000000000000000000000000000000000000000000280000000000000006d
:1717fa000000000000000000000000000000000000000000000000d8
:20181100000000000c3020000000000000000000000000000000000000000000000000005b
:201831000000000000000000000000000000000000000000000000001cf04000000000004b
:161851000000000000000000000000000000000000000000000081
:201867000000000000c300000000000000000000000000000000000000000000000000009e
:20188700000000000000000000000000000000000000000000000000010f00000000000031
:1718a70000000000000000000000000000000000000000000000002a
:2018be00000000000c302000000000000000000000000000000000000000000000000000ae
:2018de000000000000000000000000000000000000000000000000000000000000000000ea
:1618fe0000000000000000000000000000000000000000000000d4
:201914000000000000c30000000000000000000000000000000000000000000000000000f0
:20193400000000000000000000000000000000000000000000000000000000000000000093
:1719540000000000000000000000000000000000000000000000007c
:20196b00000000000c30200000000000000000000000000000000000000000000000000000
:20198b00000000000000000000000000000000000000000000000004000000000000000038
:1619ab000000000000000000000000000000000000000000000026
:2019c1000000000000c3000000000000000000000000000000000000000000000000000043
:2019e1000000000000000000000000000000000000000000000000020000000000000000e4
:171a01000000000000000000000000000000000000000000000000ce
:201a1800000000000c30200000000000000000000000000000000000000000000000000052
:201a38000000000000000000000000000000000000000000000000000af040000000000054
:161a58000000000000000000000000000000000000000000000078
:201a6e000000000000c3000000000000000000000000000000000000000000000000000095
:201a8e00000000000000000000000000000000000000000000000000010f00000000000028
:171aae00000000000000000000000000000000000000000000000021
:201ac500000000000c302000000000000000000000000000000000000000000100000000a4
:201ae5000000040000000000000000000000040000000000001000000000000000000000c9
:161b050000000000000000000000000000000000000000000000ca
:201b1b000000000000c30000000000000000000000000000000000000000000000000000e7
:201b3b0000000000000000000000000000000000000000000000000000000000000000008a
:171b5b00000000000000000000000000000000000100000000000072
:201b7200000000000000000000000000000000000000000000000000000000000000000053
:201b920000000000000000000000000000000000000000000000002808f040800000000053
:161bb200000000000000000000000000000000000000000000001d
:201bc8000000000000000000000000000000000000000000000000000000000000000000fd
:201be800000000000000000000000000000000000000000000000000010f000000000000cd
:171c08000000000000000000000000000000000000000000000000c5
:201c1f000000000000000000000000000000000000000000000000000000000000000000a5
:201c3f0000000000000000000000000000000000000000000e000000000000000000000077
:161c5f00000000000000000000000000000000000000000000006f
:201c750000000000000000000000000000000000000000000000000000000000000000004f
:201c95000000000000000000000000000000000000000000008000000000000000000000af
:171cb500000000000000000000000000000000000000000000000018
:201ccc000000000000000000000000000000000000000000000000000000000000000000f8
:201cec000000000000000000000000000000000000000000000000000000000000000000d8
:161d0c0000000000000000000000000000000000000000000000c1
:201d22000000000000000000000000000000000000000000000000000000000000000000a1
:201d4200000000000000000000000000000000000000000000000000000000000000000081
:171d620000000000000000000000000000000000000000000000006a
:201d790000000000000000000000000000000000000000000000000000000000000000004a
:201d990000000000000000000000000000000000000000000000000000000000000000002a
:161db9000000000000000000000000000000000000000000000014
:201dcf000000000000000000000000000000000000000000000000000000000000000000f4
:201def00000000000000000000000000000000000000000000000000000000000000400094
:171e0f000000000000000000000000000000000000000000000000bc
:201e260000000000000000000000000000000000000000000000000000000000000000009c
:201e460000000000000000000000000000000000000000000000000000000000000000007c
:161e66000000000000000000000000000000000000000000000066
:201e7c00000000000000000000000000000000000000000000000000000000000000000046
:201e9c00000000000000000000000000000000000000000000000000000000000000000026
:171ebc0000000000000000000000000000000000000000000000000f
:201ed3000000000000000000000000000000000000000000000000000000000000000000ef
:201ef3000000000000000000000000000000000000000000000000000000000000000000cf
:161f130000000000000000000000000000000000000000000000b8
:201f2900000000000000000000000000000000000000000000000000000000000000000098
:201f4900000000000000000000000000000000000000000000000000000000000000000078
:171f6900000000000000000000000000000000000000000000000061
:201f8000000000000000000000000000000000000000000000000000000000000000000041
:201fa000000000000000000000000000000000000000000000000000000000000000000021
:161fc000000000000000000000000000000000000000000000000b
:201fd6000000000000000000000000000000000000000000000000000000000000000000eb
:201ff6000000000000000000000000000000000000000000000000000000000000000000cb
:172016000000000000000000000000000000000000000000000000b3
:20202d00000000000000000000000000000000000000000000000000000000000000000093
:20204d0000000400000000000000000000000400000000000010000000000000400000001b
:16206d00000000000000000000000000000000000000000000005d
:2020830000000000000000000000000000000000000000000000000000000000000000003d
:2020a30000000000000000000000000000000000000000000000000000000000000000001d
:1720c300000000000000000000000000000000000000000000000006
:2020da000000000000000000000000000000000000000000000000000000000000000000e6
:2020fa000000000000000000000000000000000000000000000000000000000000000000c6
:16211a0000000000000000000000000000000000000000000000af
:2021300000000000000000000000000000000000000000000000000000000000000000008f
:2021500000000000000000000000000000000000000000000000000000000000000000006f
:17217000000000000000000000000000000000000000000000000058
:20218700000000000000000000000000000000000000000000000000000000000000000038
:2021a700000000000000000000000000000000000000000000000000000000000000000018
:1621c7000000000000000000000000000000000000000000000002
:2021dd000000000000000000000000000000000000000000000000000000000000000000e2
:2021fd000000000000000000000000000000000000000000000000000000000000000000c2
:17221d000000000000000000000000000000000000000000000000aa
:2022340000000000000000000000000000000000000000000000000000000000000000008a
:2022540000000000000000000000000000000000000000000000000000000000000000006a
:162274000000000000000000000000000000000000010000000053
:20228a00000000000000000000000000000000000000000000000000000000000000000034
:2022aa00000000000000000000000000000000000000000000000000000000000000000014
:1722ca000000000000000000000000000000000000000000000000fd
:2022e1000000000000000000000000000000000000000000000000000000000000000000dd
:202bca000000000000000000000000000000000000000000000000000cf05000000000009f
:162bea0000000000000000000000000000000000000000000000d5
:202c00000000000000000000000000000000000000000000000000000000000000000000b4
:202c2000000000000000000000000000000000000000000000000000010f019400000000ef
:172c400000000000000000000000000000000000000000000000007d
:202c570000000000000000000000000000000000000000000000000000000000000000005d
:202c770000000000000000000001400000000000000000000e0000000000000000000000ee
:162c97000000000000000000000000000000000000000000000027
:202cad00000000000000000000000000000000000000000000000000000000000000000007
:202ccd0000000000000000000000080000000000000000000080000000000000000000005f
:172ced000000000000000000000000000000000000000000000000d0
:202d04000000000000000000000000000000000000000000000000000000000000000000af
:202d240000000000000000000000000000000000000000000000000000000000000000008f
:162d44000000000000000000000000000000000000000000000079
:202d5a00000000000000000000000000000000000000000000000000000000000000000059
:202d7a00000000000000000000000000000000000000000000000000000000000000000039
:172d9a00000000000000000000000000000000000000000000000022
:202db1000000000000000000000000000000000000000000000000000000001000000000f2
:202dd1000000000000000000000000000000000000000000000000000000000000000000e2
:162df10000000000000000000000000000000000000000000000cc
:202e07000000000000000000000000000000000000000000000000000000000100000000aa
:202e270000000000000000000000000000000000000000000000000000000000000000008b
:172e4700000000000000000000000000000000000000000000000074
:202e5e00000000000000000000000000000000000000000000000000000000000000000054
:202e7e00000000000000000000000000000000000000000000000030000000000000000004
:162e9e00000000000000000000000000000000000000000000001e
:202eb4000000000000000000000000000000000000000000000000000000000000000000fe
:202ed4000000000000000000000000000000000000000000000000000000000000000000de
:172ef4000000000000000000000000000000000000000000000000c7
:202f0b000000000000000000000000000000000000000000000000000000000000000000a6
:202f2b00000000000000000000000000000000000000000000000000000000000000000086
:162f4b000000000000000000000000000000000000000000000070
:202f6100000000000000000000000000000000000000000000000000000000000000000050
:202f8100000000000000000000000000000000000000000000000000000000000000000030
:172fa100000000000000000000000000000000000000000000000019
:202fb8000000000000000000000000000000000000000000000000000000000000000000f9
:202fd8000000000000000000000000000000000000000000000000000000000000000000d9
:162ff80000000000000000000000000000000000000000000000c3
:20300e000000000000000000000000000000000000000000000000000000000000000000a2
:20302e00000000000000000000000000000000000000000000000000000000000000000082
:17304e0000000000000000000000000000000000000000000000006b
:2030650000000000000000000000000000000000000000000000000000000000000000004b
:2030850000000000000000000000000000000000000000000000000000000000000000002b
:1630a5000000000000000000000000000000000000000000000015
:2030bb000000000000000000000000000000000000000000000000000000000000000000f5
:2030db000000000000000000000000000000000000000000000000000000000000000000d5
:1730fb000000000000000000000000000000000000000000000000be
:20311200000000000c30200000000000000000000000000000000000000000000000000041
:2031320000000008180000000000000000000000000000000000000000000000000000005d
:163152000000000000000000000000000000000000000000000067
:203168000000000000c3000000000000000000000000000000000000000000000000000084
:2031880000000000f000000000000000000000000000000000000000000000000000000037
:1731a800000000000000000000000000000000000000000000000010
:2031bf00000000000c30200000000000000000000000000000000000000000000000000094
:2031df0000038000000000000000000000000000000000000000000000000000000000004d
:1631ff0000000000000000000000000000000000000000000000ba
:203215000000000000c30000000000000000000000000000000000000000000000000000d6
:20323500000020000000000000000000000000000000000000000000000000000000000059
:17325500000000000000000000000000000000000000000000000062
:20326c00000000000c302000000000000000000000000000000000000000000000000000e6
:20328c00000000000000000000000000000000000000000000000000000000000000000022
:1632ac00000000000000000000000000000000000000000000000c
:2032c2000000000000c3000000000000000000000000000000000000000000000000000029
:2032e2000000000000b000000000000000000000000000000000000000000000000000001c
:173302000000000000000000000000000000000000000000000000b4
:20331900000000000c30200000000000000000000000000000000000000000000000000038
:2033390000000000001331d0100000000000000000000000000080000000000000000000d0
:16335900000000000000000000000000000000000000000000005e
:20336f000000000000c300000000000000000000000000000000000000000000000000007b
:20338f0000000000000d6704000000000000000000000000000000000000000000000000a6
:1733af00000000000000000000000000000000000000000000000007
:2033c600000000000c3020000000000000000000000000000000000000000000000000008b
:2033e6000000000000000000000000000000000000000000000000000000000000000000c7
:1634060000000000000000000000000000000000000000000000b0
:20341c000000000000c30000000000000000000000000000000000000000000000000000cd
:20343c000000000000d00000000000000000000000000000000000000000000000000000a0
:17345c00000000000000000000000000000000000000000000000059
:20347300000000000c302000000000000000000000000000000000000000000000000000dd
:20349300000000000000000000000000000000000000000000000000000000000000000019
:1634b3000000000000000000000000000000000000000000000003
:2034c9000000000000c3000000000000000000000000000000000000000000000000000020
:2034e9000000000000000000000000000000000000000000000000000000000000000000c3
:173509000000000000000000000000000000000000000000000000ab
:20352000000000000c3020000000000000000000000000000000000000000000000000002f
:2035400000000000000000000000000000000000000000000000000000000000000000006b
:163560000000000000000000000000000000000000000000000055
:203576000000000000c3000000000000000000000000000000000000000000000000000072
:20359600000000000000000000000000000000000000000000000000000000000000000015
:1735b6000000000000000000000000000000000000000000000000fe
:2035cd00000000000c30200000000000000000000000000000000000000000000000000082
:2035ed00000300038000000000000000000000000000000000000000000000000000000038
:16360d0000000000000000000000000000000000000000000000a7
:203623000000000000c30000000000000000000000000000000000000000000000000000c4
:2036430000003000080000000000000000000000000000000000000000000000000000002f
:17366300000000000000000000000000000000000000000000000050
:20367a0000000000000000000000000000000000000000000400000000000000000000002c
:20369a000000000000000000000000000000000000063c1830002030c8f02000000000005e
:1636ba0000000000000000000000000000000000000000000000fa
:2036d0000000000000000000000000000000000000000000000000000000000000000000da
:2036f00000000000000000000000000000000000000043c0010002c0050f50100000000080
:173710000000000000000000000000000000000000000000000000a2
:20372700000000000000000000000000000000000000000000000000000000000000000082
:20374700000000000000000000000000000380000e0000000000000000e702380000007b35
:16376700c182000000000000000000000000000000000000000009
:20377d0000000000000000000000000000000000000000000000000000000000000000002c
:20379d0000000000000000000000000000002000000000000000e0000c0db09600000004a9
:1737bd003c0250000000000000000000000000000000000000000067
:2037d4000000000000000000000000000000000000000000040000000000000000000000d1
:2037f4000000010000b7014000000000000300000000000000000000000000300000000089
:16381400000000000000000000000000000000000000000000009e
:20382a0000000000000000000000000000000000000000000000000000000000000000007e
:20384a0000000000000f4000000000000000100000000000000000000000000300000000fc
:17386a00000000000000000000000000000000000000000000000047
:20388100000000000000000000000000000000000000000000000000000000000000000027
:2038a100000000000000000000000000000000070000000000000000000000000000000000
:1638c10000000000000000000000000000000000000000000000f1
:2038d7000000000000000000000000000000000000000000000000000000000000000000d1
:2038f7000000000000000000000000000000000008000000000000000000000000000000a9
:17391700000000000000000000000000000000000000000000000099
:20392e00000000000000000000000000000000000000000000000000000000000000000079
:20394e000000000700b7140000000000000000000000000000001e00000000000000000069
:16396e000000000000000000000000000000000000000000000043
:20398400000000000000000000000000000000000000000000000000000000000000000023
:2039a40000000000000f400000000000000000000090000000000020000000000000000004
:1739c4000000000000000000000000000000000000000000000000ec
:2039db000000000000000000000000000000000000000000000000000000000000000000cc
:2039fb00000000000c000000000000000000000000000000000000000000000000000000a0
:163a1b000000000000000000000000000000000000000000000095
:203a3100000000000000000000000000000000000000000000000000000000000000000075
:203a5100000000000100000000000000000000000000000000000000000000000000000054
:173a710000000000000000000000000000000000000000000000003e
:203a880000000000000000000000000000000000000000000000000000000000000000001e
:203aa8000000000000000000000c0000000000000007bc1000000000000000000001c0005e
:163ac80000000000000000000000000000000000000000000000e8
:203ade000000000000000000000000000000000000000000000000000000000000000000c8
:203afe0000000000000000000000000000000000000043c005000000000000000000100090
:173b1e00000000000000000000000000000000000000000000000090
:203b3500000000000000000000000000000000000000000000000000000000000000000070
:203b5500000000000c00000000000000000100000000000000000000000000320071e000c0
:163b7500000000000000000000000000000000000000000000003a
:203b8b0000000000000000000000000000000000000000000000000000000000000000001a
:203bab000000000000000000000000000000300000800000000000000000000300009000b7
:173bcb000000000200000000000000000000000000000000000000e1
:203be2000000000000000000000000000000000000000000000000000000000000100000b3
:203c02000000000800bfb1d800000000000000000003bc18200000000000000000000db19d
:163c220029000000000000000000000002bc100100000000000094
:203c380000000000000000000000000000000000000000000000000000000000000000006c
:203c58000000000010bde3040000000000000000000003c021000002c000000000000052a0
:173c7800802000000000000000000000c043c00400000000000000ce
:203c8f00000000000000000000000000000000000000000000000000000000000000000015
:203caf000003800001f6795000000000000380000000000000000029cc50003800000000b2
:163ccf0000000000000000000380000003bc10000000000000008d
:203ce5000000000000000000000000000000000000000000000000000000000000000000bf
:203d05000000200050ef3614400000000000200000000000000003442e000002000000001e
:173d2500000000000000000000300000c003c00000000000000000d4
:203d3c00000000000000000000000000000000000000000000000000000000000000000067
:203d5c00000000050a3fb1d800000000000300000007bc1c000c00040000000000598000a5
:163d7c0000000000000000000300080006bc100000000000000054
:203d9200000000000000000000000000000000000000000000000000000000000000000011
:203db200000000000905f7040000000000001000000003c00100000280000000000d000085
:173dd2000000000100000000001000f09003c0000000000000000086
:203de9000000000000000000000000000000000000000000000000000000000000000000ba
:203e0900000000018af27958000000000000000000073c1c00001669c850000000d005abd5
:163e29009d000000000000000000000080295000000000000000ed
:203e3f00000000000000000000000000000000000000000000000000000000000000000063
:203e5f0000000000010ff6140000000000000000000043c00100c0002f000000000580367b
:173e7f00bdc0400280000000000000b0dd0168000080000000000077
:203e960000000000000000000000000000000000000000000000000000000000000000000c
:203eb6000000000001bfb1d80000000000000000010000000000202bf8e5020430700000d4
:163ed60000000000000000000000000102bc100000000000000007
:203eec000000000000000000000000000000000000000000000000000000000000000000b6
:203f0c0000000000f083f304800000000000000000f0000000000144070fa00000000000c0
:173f2c00000000000000000000000000d003c00000000000000000eb
:203f430000000000000000000000000000000000000000000000000000000000000000005e
:203f63000000000008daf950000000000000000001002954000400057c0a00000000000006
:163f830000000000000000000000000e023c1000000000000000cc
:203f9900000000000000000000000000000000000000000000000000000000000000000008
:203fb90000000000900f7614800000000000000000ff0168050000024100a00000000000ef
:173fd9000000000000000000000000010043c00000000000000000cd
:203ff0000000000000000000000000000000000000000000000000000000000000000000b1
:2040100000000001980000000000000000000008010000000001406aca0002000000000077
:16403000000000000000000000000780073c1000000000000000a0
:2040460000000000000000000000000000000000000000000000000000000000000000005a
:204066000000000000000000000000000000003070e000000000080037001010000000005b
:174086000000000000000000000000080043c0000000000000000018
:20409d00000000000000000000000000000000000000000000000000000000000000000003
:2040bd00000300071c9ff95000000000000300090180295400000004000000300000000097
:1640dd00000000000000000003000000063c104000000000000038
:2040f3000000000000000000000000000000000000000000000000000000000000000000ad
:204113000000300001cff6148000000000003000f0ef016821000002000000020000000065
:174133000000004000000000002000000043c0001000000000000002
:20414a00000000000000000000000000000000000000000000000000000000000000000055
:20416a000000000000f63e8200000000000000001800000000002e68000000000000a3e24c
:16418a00800000000700cf0400028d9a500020000000000000002c
:2041a0000000000000000000000000000000000000000000000000000000000000000000ff
:2041c000000000000003c3c00400000000000000000000000000026000000000000d000cda
:1741e00028000000004000f0010000500020000000000000000000ff
:2041f700000000000000000000000000000e0000000ef06000000000000000080000000034
:20421700000000000873800000000000000380000000000000001c00000000000000e063aa
:16423700cc88e0000000cf04000005815225a00e0020000000009f
:20424d000000000000000000000000000000800000000f00000000000000000000000000c2
:20426d0000000000000d40140000000000002000000000000000000000000000000110009f
:17428d003cc01800000010f000000000a02258048001c000000000a7
:2042a400000000000000000000000000000c000000000000000000000000000000000000ee
:2042c400000000000002804000000000000003200000000000000063d98000000000000039
:1642e4000000c0000001ef040000050a5265a0040000380000006e
:2042fa00000000000000000000000000000040000000000000000000000000000000000064
:20431a000000000000bf7808000000000000000400000000000000041ef00000000000002e
:17433a0000000c00000000f000400050a0ae5800ca0004000000006c
:2043510000000000000000000000000000000000000cf04000000000000000100000000000
:2043710000000000007380000000000000000000007b285000000000408102300000013919
:16439100540000000000ef040000451a5225a00000000018f04011
:2043a7000000000000000000000000000000000000000f00040000000000000000000000e3
:2043c70000000000000d414000000000000000000009b7440000000000081001000000f03b
:1743e70015400000000000f000000050a0a65800000000000f00007d
:2043fe0000000000000000000000000000000000000000000000000000000000000000009f
:20441e00000000000002840010000000000000001a000000000020704c100000080001a138
:16443e007c800001e0400000000000005a25a0000000000000002c
:2044540000000000000000000000000000000000c380000000000000000000000000000005
:2044740000000000000f788000000000000000005000000000000246378000000000000cc6
:1744940017c000000234000000000000003e5800000000000000006e
:2044ab000000000000000000000000000000000000000000000000000000000000000000f1
:2044cb00000000000000000000000000000000000000000000000000000000028000a7f8b0
:1644eb006008000002200a54000000415a65a00000000000000033
:2045010000000000000000003000000000000000000000000000000000000000000000006a
:204521000000000030000000000000000000000000000000000000000000000000001074c6
:174541000b0000001c02c05a00000000d022580000000000000000d6
:2045580000000000000000000000000000000004000000000000000000000000000000003f
:20457800000300070c0000000000000000001000000000000000006440a500000070000044
:1645980000000001c7008f040000001a5a65a00000000000000039
:2045ae000000000000000000000000000000000020000000000000000000000000000000cd
:2045ce000000100001d00000000000000000028000000000000000066c00000000070e00e3
:1745ee0000000000004010f00000000000a658000000000000000078
:20460500000000000000000000000000000c00040000000000000000000000000000000085
:20462500000000000073828000000000000300001a00000000000660ce8002000039e00014
:164645000000c0c20001cf04000000003a3c200c00000000000067
:20465b000000000000000000000000000000c000200000000000000000000000000000005f
:20467b0000000000000d4000000000000000200000000000000000242d00008000001000d1
:17469b00000008003c0000f00000000000803c008000000000000098
:2046b200000000000000000008007ea850000000600000000000000000000000000000000a
:2046d200000000000b0000000000000000000100007fa8000000a06b6d1810400000006352
:1646f200c1020000000c000800005d007a65a000406000c000801f
:204708000000000000000000001001ff44000000000000000000000000000000000000003d
:204728000000000001800000000000000000000000004280000015420691c000000000047c
:174748003c00000000000f00000002b000ba581008094000b000003a
:20475f00000000000000038000000000000e00000000000000000000000000e000000000c9
:20477f0000038000000000000000000000000001000000000e002001ccf142780011e07b84
:16479f00c100e000000c896c000001000203c00e080000c896e048
:2047b50000000000000000200000000000008000000000000000000000000008000020001c
:2047d5000000200000000000000000000000000000000000008001c3810f10020009800431
:1747f5003c00080000002c961100380000003c0080080002c960046b
:20480c00000000000000000000187eb95000000000000000000000000000000000000000ed
:20482c000000000000fa0192000000000000100000000000000c3c01caa550300000003364
:16484c00c100c000000c896c00000000863d402c000068c896e0ff
:204862000000000000000000000001f700000000000000000000000000000000000000003e
:2048820000000000000d640c00000000000000000000000000000060260fa0010010000053
:1748a2003c00000000002d96004000000503e80000000002d9608015
:2048b90000000000000000000000b2e85000000003dce540000000000000000000000000f1
:2048d900000000000a00000000000000000000000087280000000665caf5404000000063f9
:1648f900c1000000000e896c0828550013154000204000e896e03a
:20490f0000000000000000000000bdff44000000001f9c00000000000000000000000000cd
:20492f0000000000010000000000000000000000000f414000000003960f0000000000002f
:17494f003c00000000000d9600011a08e101540000e80000d96000f8
:20496600000000000000000000010000000000000000000000000000000000000000000030
:20498600000000000000000000000000000300200000000000001c06eaa54000009000630a
:1649a600c1000001428e996c0300080000000000060664e996c0aa
:2049bc0000000000000000000000800000000000000000000000000000000000000000005b
:2049dc000000000000000000000000000000100500000000000000034e0f500000078c0063
:1749fc003c000000026c0c96005000900000000000002640c96200e7
:204a1300000000000000000000000000000000000000000000000000000000c000603f9094
:204a3300540000000000000000000000000000000187a808000020205aa5400000300033f5
:164a5300c1000001428e996c0000000000000000006664e996c0ad
:204a69008000000000000000000000000000000002c000000000000000000004000003fce8
:204a89000100000000000000000000000000000000af014000000040140f50000000000069
:174aa9003c000000366c2c960040000000000000000a6642c9620039
:204ac0000000000000000000001a0000000000003800000000000000000000000000000084
:204ae0000000000000000000000000000000000000063cc080400667eaa540000000007345
:164b0000c1000001c60e996c0000000176bd4000000000e996c051
:204b160000000000000000000000000000000000000000000000000000000000000000007f
:204b360000000000000000000000000000000000000003cc200a00023e0fa0000000000077
:174b56003c00000000402d960040000090c3d40000000002d96080e7
:204b6d0000000000000003000018faf9504c0000000000000000000000000000000340003b
:204b8d000003000800000000000000000000000d800000000c81007c1ae34030000080007a
:164bad000000c000001c996c880047010000000c0000004996c195
:204bc300000000000000002000008dff000080024000000000000000000000000000340030
:204be300000020003000000000000000000000005080000000800802159d30020000000024
:174c03000000080000000d96000402088000000080000000d96000a8
:204c1a00000000000c30200000003f82000000006948f0c0000000000000000000000000fc
:204c3a00000000000000000000000000000000000a563d40000200041ef0604000d81504d8
:164c5a0002000000001c896c00000001332a8000000001c896e014
:204c70000000000000c3000000000338000000000001b0f000000100000000000000000084
:204c90000000040000b000000000000000000000000003d480000003410f000400270a036e
:174cb0008000000000000e9604400000f082a84000000000e96040a2
:204cc700000000000c30200000007f16800e000001c8f0c038000000000000e0014000007c
:204ce70000000000001628020000000000000001000000000e0140040ef0400080ddb522a7
:164d07005a00e00000008f040380000007bc100e00000008f0402d
:204d1d000000000000c3000000000f3578008000000000f00200000000000008000020005d
:204d3d000000000000bdc0000100000000000000000000000080a003010f000010050a0284
:174d5d0025824800000000f0006000000043c020800000000f00103e
:204d7400000000000c3020000909d70f008000206d48f0c0000000000000000000000000c6
:204d940000000000007bc340000000000000000000163d400400207c0af040000550a522f8
:164db4005a00c002000000000100001c0000000c000000000000a4
:204dca000000000000c3000000198f4070000000420200f00000000000000000000000007a
:204dea000000001800a3f0300100000000000000500083d400c000c7000f000000050a0a77
:174e0a00658000002c0000000010000100000000000000000000006f
:204e2100000000000c302000000052978080014605c8f0c0000000113281c0000140400063
:204e410000000000003bb0808000000000000000000000000021000008f040020050052690
:164e61005a0000000000000000001380000000000140000000000d
:204e77000000000000c300000000008178000008020200f00000000f042800000000200008
:204e9700000000000000030800000000000000000000000000040802410f020000050a0a77
:174eb7006580008600000000000002080000000000a00000000000cf
:204ece00000000000c302000000a00000000000001e8f0c0000000000000000000000000c5
:204eee000000000001000000000000000003000000000000000000001ef04000000005a6a7
:164f0e005a0000200015ef040000019f000000000000000000006b
:204f24000000000000c300000050000000000000000000f00000000c00000000000000005e
:204f440000000000b080000000000000000010800000000000100000000f0000000000026c
:174f6400258000000022d00f01000001e000000000000000000000ae
:204f7b00000000000c30200005990000000000000168f0c000000010000000c000002f9074
:204f9b0060000000000000000000000000002800000000000000000018f04002000005a679
:164fbb005a00000000000000000008003728080000000000000017
:204fd1000000000000c300000050a00000000001400000f00000000800000004000c035869
:204ff1000a0000007000000000000000000003000000000000000000010f00000000000211
:17501100258000000000000000000070008280000000000000000071
:20502800000000000c30200005007a86804000066168f0c00000000fea81200000003dec05
:205048003420000181000000000000000000000000000000000d00381af04000300005a608
:165068005a00010140000000000000000000000010260000000060
:20507e000000000000c300000000a5ec60000008000200f000000000bc3c000000240150f7
:20509e004300400000d0000000000000000000000000000000000804010f00000000000a79
:1750be0065800000360000000000000000000000000260000000005e
:2050d500000000000c3020040d1b3f02800c102061e8f0c0304000000000000100000000cc
:2050f50000000400003628000000000000000400000000000cb0000000a5400040700123c0
:16511500c200c100000000000304001e5aaa800c1000000000003c
:20512b000000000000c300004050fb4000004110400200f002040008000000001000200015
:20514b000000004000d0c280000000000000004000000000008101c3b405a0000400800090
:17516b0003c0081000240000002040010042a82081800000000000c2
:205182000000000000000000080076e85800000001c8f0c000000000000000000040000096
:2051a200000000050b000000000000000000000000533c30000000000cf060000001e3a23c
:1651c2005a010000005400080000059b104020000000000ef040d2
:2051d80000000000000000000010016744000000000000f0400000000000000000020000c9
:2051f8000000000010800000000000000000000000007c3c00000000010f00040000000b30
:17521800258100013c380c0000000000a0300000000000010f010473
:20522f00000000000000038000000000000e000001c8f0c000000085aa8000e000000000c6
:20524f000003800000000000000000000003800000723c300e00200018f040000001a02024
:16526f003c0000000044896803800d9b1225b00e00200018f04030
:2052850000000000000000200000e00000008000000000f0000000000c280008000000005d
:2052a500000020000000000000000000000020000000003c008000c0000f0200000100001b
:1752c50003c000003c282f9601200050a0a258808000c0000f01000b
:2052dc00000000000000000008000000000000006548f0c0000000bd6a000800000000001e
:2052fc000000000000179012400000000000000819523c300c0000001ef0600014000832f2
:16531c008004000200169968030000001225b0240000600cf04034
:2053320000000000000000000010e00000000000020200f00001000c58000600000000000c
:20535200000000000009e06800000000000000001080803c00400000010f0000002000d45a
:17537200140000001c3c0c960000000000a65804c00044000f010000
:2053890000000000000000000d180000000000066548f0c0010050a000000000004040000b
:2053a9000000000000000000000000000000000181523c30000000000cf060300001c063f4
:1653c900cc0c0003c04e9968000000001a25b0000080000ef04037
:2053df0000000000000000000078a00000000000020200f000280d900000000000022800b3
:2053ff00000000000000000000000000000000000080803c00000000000f00010000100032
:17541f003cc010001e382b960000000000265880001400000f010031
:205436000000000000000000000057028000000001e8f0c00001000063d4000000000000ac
:20545600000000000000000000000000000000000a7a3c3000000e740cf040000080e00028
:1654760000000002001c8968000000001a65b020001e780cf060d0
:20548c0000000000000000000000a04028000060000000f000000000d43e80000000000016
:2054ac00000000000000000000000000000000000000003c000001e6400f02000003000069
:1754cc00000000003c000896000000d000225804000000010f000091
:2054e300000000000000000005187310008000200168f0c0000000800000000000000000d0
:2055030000000000000000000000000000000008005a3c30000020001ef0600000018000ab
:1655230000000a0200568968002150001a65b0600000000000001f
:20553900000000000000000000000dc294000001400000f0000000100000000000000000ae
:2055590000000000000000000000000000000000f000003c000002c0010f00000000000034
:17557900000000003c3c0b96000102f000a258000000000000000015
:205590000000000000000000000e3e98008000260168f0c03000000be03c000014000000ed
:2055b0000000005380178c1020000000000000018a5a3c300000002000a54000400181a27b
:1655d000a800050a001e9968000400001a65b020000c040af06032
:2055e600000000000000000000910f0200000000400200f081000000fc0140000080000093
:2056060000000000080760c800000000000000000000803c000020003c05a2000000100c72
:175626002a8000215c3c08960000000000a65800000023000f00003c
:20563d0000000000000003040000de8610cc102001685540004001a000000001014037ef8f
:20565d00a4030400010000000000000000030408187a3c300c5000741cf040004000e77bb6
:16567d00d400010200068f08030400003265b02c1000381ef04093
:20569300000000000000002040000d40420040004002055080040000000000001000034852
:2056b300e50820400080000000000000000010401000803c00830007400f00800400100c75
:1756d3003d4000101c00200f0020400000265804810000010f0180f4
:2056ea000000000000000003800100000001000000000000000000000000000002000dc844
:20570a003400000000f77800000000000000008000723c300000206e5e0a0000051807b3b1
:16572a00c1800000000c9968000000005225b020000000000000d4
:2057400000000000000000000000800000001000000000000000000000000000000400f8bd
:20576000d3000000000bb30005000000000000000000003c100001428700000000008e7877
:1757800003c000001c002d9604000000002a58100001c00000000019
:205797000000000000000380000000000000002000000000380000002bc100e0000040000b
:2057b70000038007003f5680000000000003800000723c3000003624593e00388000053be9
:1657d700c102e800000080f003801000023c1000000000000000c0
:2057ed0000000000000000200050000000000001c000000002000000003c0208001c2000e7
:20580d000000200000bd609400000000000020009000003c00000142a683c002100000d4ac
:17582d0003c008000000000f002002000003c0800000000000000025
:2058440000000000000000000000b6b950000000040c0a00300050a000000000000000004b
:205864000000000001fb0310c00000000000000019523c30000036236a3c0a300038113bc1
:16588400c10000000075c0f003000d800000000000000000000098
:20589a00000000000000000000000d2700000000029d005003000d9000000000000000002b
:2058ba00000000000085802020000000000000000080803c00000047fc01c00000008d902c
:1758da0003c800000022e00f0100005000000000000000000000008a
:2058f1000000000000000000010a000000000000007c000a003000002bc1000200000000e8
:2059110000000007003f51c0200000000000000199523c30000060687a1f02000000000044
:1659310000000000401cef5000085000000000004000000000002d
:20594700000000000000000000790000000000000035002000000000043c020040400000b0
:2059670000000000000d616c00000000000000000080803c000008400301f00003000000cb
:1759870000000000000010f5000110000000000000000000000000f3
:20599e000000000000000000078000000000001e680000000000d0a02bc100000007000079
:2059be0000000007880000000000000000000000007a3c3000002000fe08000000700000be
:1659de0000000000060000000000000000000000000000000000ad
:2059f400000000000000000000000000000000002000000000000500003c0000002c4000c6
:205a1400000000000000000000000000000000000000003c000002c004a000000000800050
:175a340000000000000000000000000000000000000000000000005b
:205a4b00000000000000000000001e800000000005eea00000000000029500000003000070
:205a6b000000000181f63c102000000000000000005a3c3000000600ca5f01000000000041
:165a8b00000000026077e0f6000000000000000000000400000052
:205aa100000000000000000000000f028000000002ae000000000000b01680000000380026
:205ac1000000000030df6fc820000000000000000000003c00000020350ff00000000000cf
:175ae100000000001c34c0000800180000000000006003c00000005b
:205af8000000000000000000000100000000001603ccf000000000e033c1040000003cdcc8
:205b180075000007818360000000000000000009805a3c300c40000018f5010000d0c00054
:165b380000000001e38000000000000000000000000000000000f3
:205b4e0000000000000000000000800000000000025e0f5004200010003c0200002c02d97f
:205b6e00c100000000db710000000000000000001000803c204a00000d0fa010001980006f
:175b8e000000000000600000000000000000000000000000000000a0
:205ba5000000000000000300000000000000001c6000e7033100700033c1004000000000a2
:205bc50000000000010000000000000000010008005a155000002064000000300000000043
:165be50000000000e005c55003084000000000000040005ca00128
:205bfb0000000000000000202800000000000000243c0db203000000003c000400000000e0
:205c1b00000000000080000000000000000010001000815420000246400000020000080042
:175c3b00000000000203c0550021020000000000004000010a0000ca
:205c52000000000000000000000000000000000000e1008000009985631d000001460000ec
:205c7200000000080a7a0410000000000000000000033c180000366dc000800280399000ed
:165c920000000000001c10080000038010002000000001c00080d4
:205ca800000000000000000000000000000000000002e0000000010bf2308000000200004a
:205cc8000000000010a1f8900000000000000000000043c0000001428080000000008e00af
:175ce800000000000c002b0000000070000000080000c00200002014
:205cff00000000000000000000000000000e000001c8f080b81050093b0d00e000169fec54
:205d1f007403800500fa3d4040000000000380000003bc1000003605c896a0380050056d2c
:165d3f009580e000000e896e08000380523c2000010000e8f080c2
:205d550000000000000000000000e00000008000000200f0022000801e388008a03c006c14
:205d7500c1002000d00169e80000000000002000000043c00000e142808960020000807268
:175d95002980080000000f96000030000083c004040000000f001007
:205dac00000000000000000000000000000000006548f0c0000000a00000000020000000ba
:205dcc00000000101800000000000000000100000e80295000000001c896a0001018000060
:165dec000000c004001e996e0000001c1a3c2000000001e8f080cd
:205e020000000000000000000000000000000000020200f010000d1000000000000000005f
:205e220000000000d00000000000000000003000000b0168000000000299600000000f00e2
:175e42000000000080302c96004000000003c004000000020f0010af
:205e5900000000000000000000000000000000060548f0c00008001d3b0d000000103fec7e
:205e7900740000050a17a58000000000000000000000295000001401c896a0020071cfb1cb
:165e99001d000001c2cc996e00090000323c2020000074c8f080dd
:205eaf0080000000000000000000000000000000020200f0100000081e78800000000269c6
:205ecf00c100000009004258000000000000000000070168000000200299600010000012a2
:175eef0074401000002c0f96000100100003c000000006c00f00005e
:205f06000000000000000000070000000000000001e8f0c04000000000000000006000003b
:205f26000000000780000000000000000000000108033c1000000001e9968000000000007c
:165f4600000000020016896e000000005a3c2800003e0168f08160
:205f5c0000000000000000000008000000000000000000f00000030000000000000000002a
:205f7c0000000000000000000000000000000000000003c0000000000089620000830800cc
:175f9c00000000001c002c96200030100003c0000001e0020f0000fb
:205fb3000000000000000000000e0000000000007168f0c10000000b7000000000000000bb
:205fd30000000000005ea80000000000000000000880295000000001e996900280018da1e6
:165ff300d10400020004996d10204000723c200000600448f0805d
:20600900000000000000000000f0000000000000040000f00000000c740280000000000091
:2060290000000000000082802000000000000000108b01680000600000896000100f001eab
:17604900388800003c000b96000002000003c0010003c3800f001078
:206060000000000000000000000033a8000000003168f0c101000085e295080200000000f4
:2060800000000007809b000080000000000000001a07bc1000001429e9969000009001296b
:1660a000540000140054896d08000100723c200000000409f080e4
:2060b600000000000000000000f0000280000000040200f000000000f82980400000000081
:2060d60000000000000100100000000000000000110003c000000366c2996000000f00b4de
:1760f60015404000803c2896000000009083c040000003c0df0200cd
:20610d00000000000000000000009f200080002461e8f0c13000780b70000040014300006e
:20612d000000000199729010800000000003000000073c1000a0140168f0903000380f7547
:16614d001d00c0000056896c00280000127c202001400568f08000
:20616300000000000000000000000b8000000000600200f0030009007414000400020000a5
:2061830000000000008941400000000000002000100003c000040362c000f0020000801351
:1761a30074480800003c0b96200100f0003bc000000003c2cf0200a2
:2061ba000000000000000000000000000000000001c8f0c000000003b02800000000000071
:2061da0000000000001816a000000000000000000003bc1000000001699680000081800087
:1661fa00000000000014896c0800010012155030014001c8556017
:2062100000000000000000000000000000000000000000f0400001099400000000000000a0
:20623000000000005001a0000000000000000000000043c04400000382d961400003000014
:176250000000000000000d9614000008000154100008000205504074
:20626700000000000000000000000000000e000001c8f0c0000000096e84040000000ec0c3
:20628700500380080a5a3c20000000000003800000033c100e000000080f203800001738be
:1662a700c100e00000008f06038000400000000e000000000000da
:2062bd0000000000000000000000000000008000000000f000000009d7a04200000023d09c
:2062dd000000200010a0003c0000000000002000000003c0008000000000f00200000eda58
:1762fd007cc04800000000f00020180000000000800000000000005e
:20631400000000000000000000000000000000006548f0c004000003b14000000000000014
:2063340000000000003a3c2000000000000300000800295000000000000000000001c0006e
:166354000000c002000000000100001e0000000c00000000000046
:20636a0000000000000000000000000000000000020200f000000d0094000000000000007e
:20638a00000000000000803c0000000000003000008d0168000000000000000000000d0004
:1763aa00000000002c0000000030000100000000400000000000003f
:2063c100000000000000000000000000000000060548f0c0800000a02404000000000ec0a3
:2063e10000000009801a154000000000000000010006bc1000016064000000000018006b89
:16640100c181000000000000000000000000000000000000000043
:2064170000000000000000000000000000000000020200f00000001bb7008000000003d04c
:2064370005080000d0a001540000000000000000000003c00004084200000000000300005f
:176457003c0010000100000000002800000000000040000000000079
:20646e000000000000000000000000000000000001e8f0c0000000e86a80000002000000a1
:20648e0000000001805e8050e0000000000000091a033c10000100017e0f40000100a0007d
:1664ae000000000400400000000000000000000000000400000090
:2064c40000000000000000000000000000000000000000f000000000d4140010000c38008c
:2064e4000000000000db800c0000000000000000d10043c000000000250000080020100000
:17650400000000a0803c0000000000000000000000000380000000a1
:20651b00000000000000000000000000000000000168f0c00000380163d408c0020000000d
:20653b0000000000181b491000000000000000000000295000010001fcaa00000081856f1e
:16655b000102000000000000000000000000000001000000000026
:2065710000000000000000000000000000000000000000f000000080542d4024002c000089
:20659100000000000003e8402000000000000000000d016800000342820aa000000f00bbee
:1765b10070400000000000000000000000000000100800000000000b
:2065c800000000000000000000000000000000260168f0c000000000000000000000000074
:2065e8000000000001000000004000000000000008033c100000000201e700000018e5b65e
:1666080094000040000000000000000000000000000004000000a4
:20661e0000000000000000000000000000000000400200f0000000000000000000003400f6
:20663e0000000000008000000002000000000000009003c0000000000cfdb000000000d6d8
:17665e0069c02000000000000000000000000000000003c000000019
:206675000000000000000000000000000000002061e8f0c1000000000000000000006d8fef
:20669500a0100000001b491020000000000300000000000000a000665b1240300000017248
:1666b5008100c0c000000000030050000000000c0000000000006f
:2066cb0000000000000000000000000000000000400200f00000050000000000000033d075
:2066eb00f0000000040fe84020000000000020000000000000000006bfaa000a00000000ab
:17670b00280848000000000000202a0000000000800800000000002d
:20672200000000000c302000000000000000001401c8f0c000000003816a0000000600007a
:20674200000000000000000000000000000000000000000000000000c000800000000df2f8
:1667620080000002607ec03400000000500020000000000000005d
:206778000000000000c300000000000000000000028000f040000000bb400000003400005d
:2067980000000000000000000000000000000000000000000000000000000020000000b40d
:1767b8003e801000042358f301000030000000080000000000000051
:2067cf00000000000c30200000000000000e000001c8f0c038000007a3c200e00000000043
:2067ef00000000000000000000000000000380000000000000000029d80f80000000000077
:16680f000000e056020dc474000350003a3c200e002000000000df
:206825000000000000c300000000000000008001c28000f00200000b0803c00800000000fd
:206845000000000000000000000000000000200000000000000001400000f00000010000e1
:17686500000008000442c8d1014002000003c0048002c000000000e9
:20687c00000000000c3020000000000000000004600896c000000005a3c2000000069c953d
:20689c00240000000000000000000000000300000000000000000005590f80000000a00028
:1668bc0000000a000606c034000008005a3c20000000036e30401d
:2068d2000000000000c3000000000000000000014000d6900000000b0803c000000002fd67
:2068f20000000000000000000000000000003000000000000000000203d0f0000000000091
:17691200000000400021f9f3010000b00083c00000000005df318098
:20692900000000000c30200000000000000000140148f0c000000013a1540000000025c0f8
:20694900000000000000000000000000000000000000000000a0000008f0003000800000e6
:1669690000000014671ea30400000001323c28000200000000003f
:20697f000000000000c300000000000000000001438200f00000000800154000000001ce53
:20699f00040000000000000000000000000000000000000000040000000f0001000f0000b1
:1769bf000000000080235df388041800c003c000080240000000005d
:2069d600000000000c302000000000000000000005e85540000018100000000000001de09e
:2069f600042000000000000000000000000000000007bc1000801c000000000000000000ee
:166a1600000000000656d0341000080c723c2040000004000000d4
:206a2c000000000000c300000000000000000000020005500000000a0000000000012f50a6
:206a4c0052010000000000000000000000000000000003c0000400200000000000000000f0
:176a6c0000000000246af8f3000000d00083c0000000038000000004
:206a8300000000000c302000000000000000000002d90800000081a000000000020600008b
:206aa300000000000000000000000000000000000000000000400004000000000001e000ae
:166ac30000000000405fa30400280000027c2000020000000000af
:206ad9000000000000c3000000000000000000000017e000000005000000000000242c008e
:206af9000000000000000000000000000000000000000000000a0002800000000380190055
:176b1900000000000421edf300000030003bc00000a0000000000095
:206b3000000000000c3020000000000000000026024e8000000001bd3901000002005dc9d3
:206b5000600000000000000000000000000000001e0000000000060000000000000000039e
:166b7000fc6000c0438ed034100000017a3c2040000004000000f3
:206b86000000000000c30000000000000000000040149000000000089fd40000002c203051
:206ba600960000000000000000000000000000000100000000000000000000000000000038
:176bc6003fc440000c43ddf300000000b083c0000000020000000061
:206bdd00000000000c3020000000000000000020026a8000000001876091000002000ec0e7
:206bfd001420000000000000000000000003000000000000000000000000000000000563d9
:166c1d00d402c0e36380000000000801123c202c40000000000022
:206c33000000000000c3000000000000000000004034a000000000003ec4000000042e70c6
:206c530003000000000000000000000000002000900000000000e000000000000000000886
:176c73003d4218001c400000000000d0b037c0008a00000000000016
:206c8a00000000000c30200000000000000000147000000000000007e00800000162dc8f4d
:206caa000480000000000000000000000000000000000000000000000ef040000001800087
:166cca0000000000000000000000000052155000000000000000fd
:206ce0000000000000c3000000000000000000000000000000000000d381c00000002a7b18
:206d0000f10100000000000000000000000000000000000000000000010f00040009000064
:176d200000000000002800000000000000815415000000000000004a
:206d3700000000000c30200000000000000e00347179da4838009009f30908e000000000dd
:206d570000000000000000000000000000000007800000000e0020001af0403800181d7d33
:166d77007800e009c0348f50038840000000000e010e00000000ea
:206d8d000000000000c300000000000000008000438cba500200010a3830c0080014000079
:206dad000000000000000000000000000000000008000000008002c0010f000600008817c7
:176dcd00c7400800160050a00021020000000000800c0000000000eb
:206de400000000000c302000000000000000000e285ea0000000588fe97d2700020635ea64
:206e04000000000000000000000000000000000000000000040000201cf04001007000206d
:166e2400fc0a4001c38fcd142b000001000000000000036e3040d1
:206e3a000000000000c30000000000000000000000020a0000000000583fc20000042c7070
:206e5a00000000000000000000000000000000000000000000c00000000f0010080080b4fd
:176e7a000fc00c00560010d100300000c00000000000000fff3900b8
:206e9100000000000c3020000000000000000006287a40020000d80562580000006016800e
:206eb10084a000000000000000000000000000000000000000000e2018f04000000001f135
:166ed10078000001c00d8a00002380000000000000000400000034
:206ee7000000000000c300000000000000000000028700000000050a00258000000000503b
:206f07000a0000000000000000000000000000000000000000000040000f0100000000bf51
:176f27008b8000004202e0f50000100000000000100003000000000c
:206f3e00000000000c302000000000000000000600d800023000000feb8d08000000000038
:206f5e0000000000000000000000000000000008000000000000000000000000000091b2c8
:166f7e00800000c00720ad102000000000000000000000000000b9
:206f94000000000000c300000000000000000000036c0800010000005830c2000000000058
:206fb4000000000000000000000000000000000050000000000000000000000000000c144d
:176fd4003d400000007d40e20000000000000000000000000000008a
