:02000000ff00ff
:080002004c6174746963650030
:17000a00694345637562653220323031372e30382e32373934300069
:15002100506172743a2069434534305550354b2d53473438002c
:1b003600446174653a2041707220323220323031392031383a32353a3134007b
:0200510000ffae
:040053007eaa997e6a
:02005700510056
:0200590001059f
:03005b00920020f0
:03005e006202b388
:03006100720150d9
:0300640082000017
:02006700110086
:02006900010193
:20006b00000000000000000000000010000000000000400000000000010000000000000420
:20008b000000000000001000000000000040200000000000000000000040000000000001a4
:1600ab0000000000000004000000000000100000000000004000eb
:2000c1000000000000000000000000020000000000000800000000000020000000000000f5
:2000e100800000000000000000000000000000000000020000000000000800000000000075
:1701010020000000000000800000000000020000000000000800003d
:200118000000000000000000000000000000000000000000000000000000000000000000c7
:20013800000000000000000000000000000010000000000000000000000000000000000097
:160158000000000000000000000000000000000000000000000091
:20016e00000000000000000000000000000000000000000000000000000000000000000071
:20018e00000000000000000000000000000000000000010000000000000000000000000050
:1701ae0000000000000000000000000000000000000000000000003a
:2001c50000000000000000000000000000000000000000000000000000000000000000001a
:2001e5000000000000000000000008000000200000000000000000000000000000000000d2
:1602050000000000000000000000000000000000000000000000e3
:20021b000000000000000000000000000000000000000000000000000000000000000000c3
:20023b00000000000000000000000050000000000000000000000000000000000000000053
:17025b0000000000000000000000000000000000000000000000008c
:2002720000000000000000000000000000000000000000000000000000000000000000006c
:2002920000000000000000000000000000000000000000000000000000000000000000004c
:1602b20000000000000000000000000000000000000f0000000027
:2002c800000000000000000000000000000000000000000000000000000000000000000016
:2002e8000000000000000000000000000000000000000000000000000000000000000000f6
:170308000000000000000000000000000000000000000000000000de
:20031f000000000000000000000000000000000000000000000000000000000000000000be
:20033f00000000000000100000000000004000000080000000000001024000000000040186
:16035f000000000000000000000000000000000000000000000088
:20037500000000000000000000000000000000000000000000000000000000000000000068
:20039500000000000000000000000000000000000000000000000000000000000000000048
:1703b500000000000000000000000000000000000000000000000031
:2003cc00000000000000000000000000000000000000000000000000000000000000000011
:2003ec000000000340004000000000000080000000000000000000000000000000000000ee
:16040c00000000000000000000000000000000000000000080005a
:200422000000000000000000000000000000000000000000000000000000000000000000ba
:20044200000002002000040000080000000c00000000000000000000000000000000000060
:1704620000000000000000000000000000000000000000000400007f
:20047900000000000000000000000000000000000000000000000000000000000000000063
:20049900000000000000000000000000000000000000000000000000000000000000000043
:1604b900000000000000000000000000000000000000000000002d
:2004cf0000000000000000000000000000000000000000000000000000000000000000000d
:2004ef000000010000000000000400000000000000000000000400010000000010000000d3
:17050f000000000000000000000000000000000000000000000000d5
:200526000000000000000000000000000000000000000000000000000000000000000000b5
:2005460000000000004000000000000100000000000000000000000100000000000004004f
:16056600000000000000000000000000000000000000000000007f
:20057c0000000000000000000000000000000000000000000000000000000000000000005f
:20059c00000002000000000000080000000000000000000000000000000000000000000035
:1705bc00000000000000000000000000000000000000000000000028
:2005d300000000000c302000000000000000000000000000000000000000000000000000ac
:2005f3000000000000000000000000000000000000000000000000000000000000000000e8
:1606130000000000000000000000000000000000000000000000d1
:200629000000000000c30000000000000000000000000000000000000000000000000000ee
:20064900000000000000000000000000000000000000000000000000000000000000000091
:1706690000000000000000000000000000000000000000000000007a
:20068000000000000c302000000000000000000000000000000000000000000000000000fe
:2006a000000000000000000000000000000000000000000000000000000000380000000002
:1606c0000000000000000000000000000000000000000000000024
:2006d6000000000000c3000000000000000000000000000000000000000000000000000041
:2006f6000000000000000000000000000000000000000000000000000000000200000000e2
:170716000000000000000000000000000000000000000000000000cc
:20072d00000000000c30200000000000000000000000000000000000000000000000000050
:20074d0000000000000000000000000000000000000000000000000000000000000000008c
:16076d000000000000000000000000000000000000000000000076
:200783000000000000c3000000000000000000000000000000000000000000000000000093
:2007a300000000000000000000000000000000000000000000000000000000000000000036
:1707c30000000000000000000000000000000000000000000000001f
:2007da00000000000c302000000000000000000000000000000000000000000000000000a3
:2007fa000000000000000000000000000000000000000000000000000000000000000000df
:16081a0000000000000000000000000000000000000000000000c8
:200830000000000000c30000000000000000000000000000000000000000000000000000e5
:20085000000000000000000000000000000000000000000000000000000000000005000083
:17087000000000000000000000000000000000000000000000000071
:20088700000000000c302000000000000000000000000000000000000000000000000000f5
:2008a700000000000000000000000000000000000000000000000000000000000000000031
:1608c700000000000000000000000000000000000000000000001b
:2008dd000000000000c3000000000000000000000000000000000000000000000000000038
:2008fd000000000000000000000000000000000000000000000000000000000000000000db
:17091d000000000000000000000000000000000000000000000000c3
:20093400000000000c30200000000000000000000000000000000000000000000000000047
:20095400000000000000000000000000000000000000000000000000000000000000000083
:16097400000000000000000000000000000000000000000000006d
:20098a000000000000c300000000000000000000000000000000000000000000000000008a
:2009aa0000000000000000000000000000000000000000000000000000000000000000002d
:1709ca00000000000000000000000000000000000000000000000016
:2009e100000000000c3020000000000000000000000000000000000000000000000000009a
:200a0100000000000000000000000000000000000000000000000000000000000000006b6a
:160a2100c1000000000000000000000000000000000000000000fe
:200a37000000000000c30000000000000000000000000000000000000000000000000000dc
:200a570000000000000000000000000000000000000000000000000000000000000000007f
:170a77003c001000000000000000000000000000000000000000001c
:200a8e00000000000c302000000000000000000000000000000000000000000000000000ec
:200aae00000000000000000000000000000000000000000000000000000000000000000028
:160ace000000000000000000000000000000000000000000000012
:200ae4000000000000c300000000000000000000000000000000000000000000000000002f
:200b04000000000000000000000000000000000000000000000000000000000000000000d1
:170b24000000000000000000000000000000000000000000000000ba
:200b3b00000000000c3020000000000000000000000000000000000000000000000000003e
:200b5b0000000000000000000000000000000000000000000000000000000000000000007a
:160b7b000000000000000000000000000000000000000000000064
:200b91000000000000c3000000000000000000000000000000000000000000000000000081
:200bb100000000000000000000000000000000000000000000000000000000000000000024
:170bd10000000000000000000000000000000000000000000000000d
:200be800000000000c30200000000000000000000000000000000000000000000000000091
:200c08000000000000000000000000000000000000000000000000000000000000000000cc
:160c280000000000000000000000000000000000000000000000b6
:200c3e000000000000c30000000000000000000000000000000000000000000000000000d3
:200c5e00000000000000000000000000000000000000000000000000000000000000000076
:170c7e0000000000000000000000000000000000000000000000005f
:200c9500000000000c302000000000000000000000000000000000000000000000000000e3
:200cb50000000000000000000000000000000000000000000000000000000000000000001f
:160cd5000000000000000000000000000000000000000000000009
:200ceb000000000000c3000000000000000000000000000000000000000000000000000026
:200d0b000000000000000000000000000000000000000000000000000000000000000000c8
:170d2b000000000000000000000000000000000000000000000000b1
:200d4200000000000c30200000000000000000000000000000000000000000000000000035
:200d6200000000000000000000000000000000000000000000000000000000000000000071
:160d8200000000000000000000000000000000000000000000005b
:200d98000000000000c3000000000000000000000000000000000000000000000000000078
:200db80000000000000000000000000000000000000000000000000000000000000000001b
:170dd800000000000000000000000000000000000000000000000004
:200def00000000000c30200000000000000000000000000000000000000000000000000088
:200e0f000000000000000000000000000000000000000000000000000000000000000000c3
:160e2f0000000000000000000000000000000000000000000000ad
:200e45000000000000c30000000000000000000000000000000000000000000000000000ca
:200e650000000000000000000000000000000000000000000000000000000000000000006d
:170e8500000000000000000000000000000000000000000000000056
:200e9c00000000000c302000000000000000000000000000000000000000000000000000da
:200ebc00000000000000000000000000000000000000000000000000000000000000000016
:160edc000000000000000000000000000000000000000000000000
:200ef2000000000000c300000000000000000000000000000000000000000000000000001d
:200f12000000000000000000000000000000000000000000000000000000000000000000bf
:170f32000000000000000000000000000000000000000000000000a8
:200f4900000000000c3020000000000000000000000000000000000000000000000000002c
:200f6900000000000000000000000000000000000000000000000000000000000000000068
:160f89000000000000000000000000000000000000000000000052
:200f9f000000000000c300000000000000000000000000000000000000000000000000006f
:200fbf00000000000000000000000000000000000000000000000000000000000000000012
:170fdf000000000000000000000000000000000000000000000000fb
:200ff600000000000c3020000000000000000000000000000000000000000000000000007f
:201016000000000000000000000000000000000000000000000000000000000000000000ba
:1610360000000000000000000000000000000000000000000000a4
:20104c000000000000c30000000000000000000000000000000000000000000000000000c1
:20106c00000000000000000000000000000000000000000000000000000000000000000064
:17108c0000000000000000000000000000000000000000000000004d
:2010a300000000000c302000000000000000000000000000000000000000000000000000d1
:2010c3000000400000000000000000000000000000000000000000000000000000000000cd
:1610e3000000000000000000000000000000000080000000000077
:2010f9000000000000c3000000000000000000000000000000000000000000000000000014
:201119000000000000000000000000000000000000000000000000000000000000000000b6
:1711390000000000000000000000000000000000040000000000009b
:20115000000000000c30200000000000000000000000000000000000000000000000000023
:2011700000000000000000000000000000000000000000000000000000000000000000005f
:161190000000000040000000000000000000000000000000000009
:2011a6000000000000c3000000000000000000000000000000000000000000000000000066
:2011c600000000000000000000000000000000000000000000000000000000000000000009
:1711e6000000000000000000000000000000000000000000000000f2
:2011fd00000000000c30200000000000000000000000000000000000000000000000000076
:20121d000000000000000000000000000000000000000000000000000000000000000000b1
:16123d00000000000000000000000000000000004000000000005b
:201253000000000000c30000000000000000000000000000000000000000000000000000b8
:2012730000000000000000000000000000000000000000000000000000000000000000005b
:17129300000000000000000000000000000000000000000000000044
:2012aa00000000000c302000000000000000000000000000000000000000000000000000c8
:2012ca00000000000000000000000000000000000000000000000000000000000000000004
:1612ea0000000000000000000000000000000000000000000000ee
:201300000000000000c300000000000000000000000000000000000000000000000000000a
:201320000000000000000000000000000000000000000000000000000000000000000000ad
:17134000000000000000000000000000000000000000000000000096
:20135700000000000c3020000000000000000000000000000000000000000000000000001a
:20137700000000000000000000000000000000000000000000000000000000000000000056
:161397000000c000001d8f52000000000000000000000000000082
:2013ad000000000000c300000000000000000000000000000000000000000000000000005d
:2013cd00000000000000000000000000000000000000000000000000000000000000000000
:1713ed0000000400000020f5000000000000000000000000000000d0
:20140400000000000c3020000000000000000000000000000000000000000000000000006c
:201424000000000000000000000000000000000000000000000000000000000000000000a8
:161444000000000000000000000000000000000000000000000092
:20145a000000000000c30000000000000000000000000000000000000000000000000000af
:20147a00000000000000000000000000000000000000000000000000000000000000000052
:17149a0000000000000000000000000000000000000000000000003b
:2014b100000000000c302000000000000000000000000000000000000000000000000000bf
:2014d1000000000000000000000000000000000000000000000000000000000000000000fb
:1614f10000000000000000000000000000000000000000000000e5
:201507000000000000c3000000000000000000000000000000000000000000000000000001
:201527000000000000000000000000000000000000000000000000000000000000000000a4
:1715470000000000002000000000000000000000000000000000006d
:20155e00000000000c30200000000000000000000000000000000000000000000000000011
:20157e0000000000000000000000000000000000000000000000000000000000000000004d
:16159e000000000000000000000000000000000000000000000037
:2015b4000000000000c3000000000000000000000000000000000000000000000000000054
:2015d4000000000000000000000000000000000000000000000000000000000000000000f7
:1715f4000000000000000000000000000000000000000000000000e0
:20160b00000000000c30200000000000000000000000000000000000000000000000000063
:20162b0000000000000000000000000000000000000000000080000000000000000000001f
:16164b000000000200000000000000000000000002000000000085
:201661000000000000c30000000000000000000000000000000000000000000000000000a6
:20168100000000000000000000000000000000000000000000000000000000000000000049
:1716a100000000002c00000000000000000000000000000000000006
:2016b800000000000c302000000000000000000000000000000000000000000000000000b6
:2016d80000000000000000000000000000000000000000000e0000000000000000000000e4
:1616f8000000e000000000000000000000000000000000000000fc
:20170e000000000000c30000000000000000000000000000000000000000000000000000f8
:20172e0000000000000000000000000000000000000000000080000000000000000000001b
:17174e0000000800000000000000000000000000000000000000007c
:20176500000000000c30200000000000000000000000000000000000000000000000000008
:20178500000000000000000000000000000000000000000000000000000000000000000044
:1617a500000000000001ef04000000000000000002000000000038
:2017bb000000000000c300000000000000000000000000000000000000000000000000004b
:2017db000000000000000000000000000000000000000000000000000000000000000000ee
:1717fb0000000000000010f0000000000000000000000000000000d7
:20181200000000000c3020000000000000000000000000000000000000000000000000005a
:20183200000000000000000000000000000000000000000000000e00000000000000000088
:161852000000000000000000000000000000000000000000000080
:201868000000000000c300000000000000000000000000000000000000000000000000009d
:20188800000000000000000000000000000000000000000000000000000000000000000040
:1718a800000000000000000000000000000000000000000000000029
:2018bf00000000000c302000000000000000000000000000000000000000000000000000ad
:2018df000000000000000000000000000000000000000000000000001cf04040000000005d
:1618ff0000000000000000000001000000000000000000000000d2
:201915000000000000c30000000000000000000000000000000000000000000000000000ef
:20193500000000000000000000000000000000000000000000000000000f00000000000083
:17195500000000000000000000002800000000000000000000000053
:20196c00000000000c302000000000000000000000000000000000000000000000000000ff
:20198c000000000000000000000000000000000000000000000006041cf0400000000000e5
:1619ac00000000000600000000000000000000000000000000001f
:2019c2000000000000c3000000000000000000000000000000000000000000000000000042
:2019e200000000000000000000000000000000000000000000000002010f000000000000d3
:171a02000000000000000000000000000000000000000000000000cd
:201a1900000000000c30200000000000000000000000000000000000000000000000000051
:201a390000000000000000000000000000000000000000000000000200a5400000000000a6
:161a5900000000000001cf040000000000000000000000000000a3
:201a6f000000000000c3000000000000000000000000000000000000000000000000000094
:201a8f000000000000000000000000000000000000000000000000001405a000000000007e
:171aaf0000000000000010f000000000000000000000000000000020
:201ac600000000000c302000000000000000000000000000000000000000000000000000a4
:201ae600000000000000000000000000000000000000000000100000000000004000000090
:161b06000000010000440a54000000000000000000000000000026
:201b1c000000000000c30000000000000000000000000000000000000000000000000000e6
:201b3c00000000000000000000000000000000000000000000000000000000000000000089
:171b5c0000000010002000a50000000000000000000000000000009d
:201b7300000000000c302000000000000000000000000000000000000000000000000000f6
:201b9300000000000000000000000000000000000000000000000000000000000000056fbe
:161bb300c300000000000000000000000000000000000000000059
:201bc9000000000000c30040000000000000000000000000000000000000000000000000f9
:201be9000000000000000000000000000000000000000000000000000000000000000003d9
:171c090003c000000000000000000000000000000000000000000001
:201c2000000000000c30200000000000000000000000000000000000000000000000000048
:201c4000000000000000000000000000000000000000000000000002ee0a00380000072328
:161c6000c300000000000000038000000000000000000000000028
:201c76000000000000c300000000000000000000000000000000000000000000000000008b
:201c96000000000000000000000000000000000000000000000000003d00000200000000ef
:171cb60003c000000400000000200000000000000000000000000030
:201ccd00000000000c3020000000000000000000000000000000000000000000000000009b
:201ced000000000000000000000000000000000000000000000000035a1a02000081952325
:161d0d00c3000000000000000000000000000000000000000000fd
:201d23000000000000c30000000000000000000000000000000000000000000000000000dd
:201d43000000000000000000000000000000000000000000000003403d05a0040001080846
:171d630003c0000000000000000000000000000000000000000000a6
:201d7a00000000000c302400000000000000000000000000000000000000000000000000e9
:201d9a000000000000000000000000000000000000000000000000000000000000181523d9
:161dba00c300c00000000000000000000000000000000000000090
:201dd0000000000000c3000000000000000000000000000000000000000000000000000030
:201df000000000000000000000000000000000000000000000000002c000000000070808fa
:171e100003c0040000000000000000000000000000000000000000f4
:201e2700000000000c3024000000000000000000000000000000000000000000000000003b
:201e470000000000000000000000000000000000000000000000000000000000000007a3d1
:161e6700c3000000000000000000000100000000000000000000a1
:201e7d000000000000c3000000000000000000000000000000000000000000000000000082
:201e9d00000000000000000000000000000000000000000000000000000000000000000025
:171ebd0003c00000003000000000000090000000000000000000008b
:201ed400000000000c3020040000000000000000000000000040000000000000000000004e
:201ef40000000000000000000000000000000000000000000000000000000000000005a326
:161f1400c3000000000d8f5000000000033c107000000000000049
:201f2a000000000000c3000040000000000000000000000000040000000000000000000090
:201f4a0000000000000000000000000000000000000000000000014000000000000d000029
:171f6a0003c00000000020f5000000000043c0000000000000000085
:201f8100000000000c302000000000000000100000000000000000000000000000000000d4
:201fa10000000000000000000000000000000000000000000000002800000000001805a338
:161fc100c300000000000000000000000000000000000000000047
:201fd7000000000000c3000000000000000000000000000000000000000000000000000027
:201ff7000000000000000000000000000000000000000000000000000000000000000008c2
:1720170003c0000000000000000000000000000000000000000000ef
:20202e00000000000c302004000000000000100000000000004000000000000100000000e1
:20204e0000000000000000000000000000000400000000000010006c0000003040d987a37f
:16206e00c300010000000000000400000000000010000000000084
:202084000000000000c3000000000000000001000000000000000000000000001000000068
:2020a400000000000000000000000000000000400000000000010002800000030401000849
:1720c40003c0001000000000000040000000000001000000000000f1
:2020db0001000021cc30200000017000200000000000000000000000000000000000000016
:2020fb00000000000000000000000000000000000000000000000003ec5a00000000072352
:16211b00c30000000680000000000000d856a000000000faa000fd
:2021310000100003d0c300000000d0340000000000000000000000000000000000000000e4
:202151000000000000000000000000000000000000000000000000001ddad00000000000a7
:1721710003c10000000000000000000005a80000000000000a0010cc
:2021880000020040cc30238020007265b0200000000000000000000000000000000000008f
:2021a80000000000000000000000000000038000000000000e0006640000003800000723ba
:1621c800c300e00000400000038000080265a00e00000158f5022e
:2021de0000003c3800c300200500003a5800000000000000000000000000000000000000f3
:2021fe000000000000000000000000000000200000000000008000264000000200000000b9
:17221e0003c0080000280000002000008029a400800042d70b501045
:2022350000000001ec30210000007225b020000000000000000000000000000000000000e4
:202255000000000000000000000000000000000000000000000024007a080000000195230a
:16227500c3000000003685a00000000a0265a00000202c000000d8
:20228b000000000000c30020000000be58000000000000000000000000000000000000003a
:2022ab000000000000000000000000000000000000000000000003400ce0000000000808d4
:1722cb0003c00000000150af000000010039a4000001468000000094
:2022e200010000418c30200008001225b4000c0000000000010000000000000000000000be
:20230200000000000000000000000000000000000007bc18000020066cb0020000199523cb
:16232200c300000366f785a0200009985215400c00206800000061
:202338000000003410c3000000b000b258000000000000000028000000000000000000009c
:2023580000000400000000000000000000000000000043c001000243a70f000000008808d2
:1723780003c000021423700110000010b081540040014000000000bb
:20238f00000003c1ac30200007015a65b200000000000000000000000000000000000000f5
:2023af0000000000000000000000000000000000000000000000206cfab10200000007a32b
:1623cf00c30000a0c00000000000098afb50100000002adc47009a
:2023e50000000c3810c300000000d032580000000000000000000000000000000000000067
:20240500000000000000000000000000000000000000000000000142810b100800000000d0
:1724250003c000000000000000000050092e800000000426e5b00017
:20243c00000007818c3020000b997a65b040000000000000000000000000000000000000a9
:20245c0000000000000000000000000000000000000000000000066efe180000000007a32c
:16247c00c30000000000000003000180de4090000006017805626f
:202492000000000000c3000000b1d03258000000000000000000000000000000000000005c
:2024b200000000000000000000000000000000000000000000000002aea2c00000000000f8
:1724d20003c00000000000000010000003f8140000000036002010ab
:2024e90000000000cc302000098f7a65b00000000000000000000000000000000000000090
:202509000000000000000000000000000000000000000000000016007a080000009805a3da
:16252900c3040001c00daa0503000000db380060001e00000000c4
:20253f000000000010c30000009890be58010000000000000000000000000000000000006a
:20255f000000000000000000000000000000000000000000000000000ce000000001000867
:17257f0003c00000000010a080100000076f000000000000000000cc
:2025960000000200cc302100099d3a65b0000c000000000001000000000000000000000004
:2025b600000000000000000000000000000000001a000000000036000af04010009805a12d
:1625d6005504c000063dee5408000d8032c00000000000000000ca
:2025ec0000003c4010c30020003890b658040000000000000028000000000000000000005e
:20260c00000000000000000000100000000000000000000000000140000f00030001000842
:17262c001540480000035cd9200000500b64200000000000000000c3
:202643000000000fec30200000007225b000000000000000000000000000000000000000e5
:20266300000000000000000000000000000000000053bc3000008000000000000000000098
:1626830000000000000000000000000000000000000068000000d9
:2026990000100002d0c30000000000325850000000000000000000000000000000000000a2
:2026b900000000000000000000000000000000000000743c000000000000000000000b0046
:1726d9000000000000000000000000000000000000000000000000ea
:2026f0000000001eec30239000007225b02000000000000000000000000000000000000076
:202710000000201000000000000000000003800000723c3000000000000000000001a5a0d2
:1627300028000000000000000380000a1e3d480ea0202400000049
:202746000000000010c30020800000325800000000000000000080000000000000000000f6
:20276600000001020000000000000000000020000000003c00000000000000000000100cd8
:17278600028000000000000000200010a083d4018401c380000000ca
:20279d000000000fac30210000007225b020000000000000000000000000000000000000a9
:2027bd000000000000000000000000000000000819523c300000000000000000000000001d
:1627dd0000000000000000000000000a00000000000000000000dc
:2027f3000040000010c30020000000b6580000000000000000000000000000000000000085
:20281300000000000000000000000000000000001080803c00000000000000000000000059
:1728330000000000000000000000000000000000000000000000008e
:20284a000100001fcc30200000007225b000000000000000000000000000000400000000e7
:20286a000000800000000000000000000000000181523c3000000000000000000001e000ad
:16288a00000000000000000003001d00d64158000154067ef040a0
:2028a0000000003410c3000000000036580100000000000000000000000000002000000062
:2028c000000004000000000000000000000000000080803c000000000000000000000000b8
:1728e00000000000000000000010029009a80420000803a5ff10802b
:2028f7000000000eec30200009997265b2000000000000000000000000000000000000004c
:2029170000000000000000000000000000000000017a3c380000000000000000000009beea
:16293700000000000000000000000000000000000000000000008a
:20294d000000002400c30000009990b2580000000000000000000000000000000000000050
:20296d000000000000000000000000000000000000e0003c0000000000000000000000ff2f
:17298d00000000000000000000000000000000000000000000000033
:2029a4000001e01eec30204009997265b0000000000000000000000000000000000000006f
:2029c40000000000000000000000000000000008005a3c380000000000000000000000001d
:1629e4000000000000000000000000015f258000000001790e0050
:2029fa000000002400c3000000999032580100000000000000000000000000000000000022
:202a1a0000000000000000000000000000000000f000003c0000000000000000000100006f
:172a3a000000000000000000000000008042580000200024b0f00087
:202a51000000420fec3020000b807265b000000000000000000000000000000000000000c6
:202a710000000080000000000000000000000001815a3c300000000000000000000000007d
:162a910000000000029eea0000100000de10108c400007d80c429e
:202aa7000000264000c3000000b8e0b658010000000000000000000000000000000000003f
:202ac7000000000000000000000000000000000000e0803c200000000000000000000a0029
:172ae70000000000003ff00001000000014204004a0002a70082806c
:202afe000001e01fec30212000007265b400000000000000000000000000000000000000d0
:202b1e0000000000000000000000000000030008187a3c3000410000000000000001c0008c
:162b3e000000000000000000000000000000000000006000000021
:202b54000000242400c30020000000365800000000000000000000000000000000000000a8
:202b7400000000000000000000000000000010001000803c200a000000000000000000003b
:172b94000000010000280000000000000000000000000400000000fd
:202bab00000000000c30200000003a259010000000000000000000000000000000000000af
:202bcb000000000819000000000000000000000000723c3000200000000000000000a164c6
:162beb000d800002002ea800000000000000000000a000fe64402d
:202c01008010000000c30000000000b2581000000000000000000000000000000000000046
:202c21000000000070e0000000000000000000000000003c50000000000000000000105f48
:172c4100c0a00002343f4f00000000000000000000104005e581009d
:202c5800000000000c30238000000000000e005c0000000000000000000000000000000013
:202c780000000000011e0680000000000003800000723c3000800004000000380101a000d8
:162c980000000015e01da80003a000007ea8080e000c0758fa1018
:202cae000000000000c300200000000000008008000000000000000000000000000000009b
:202cce0000000000f0e56c6000000000000020000000003c400400434000000200250000fb
:172cee00000000008000fa000021001000428000820042360f000059
:202d0500000000000c30210050000000000c000000000000000000000000000000000000f5
:202d250000000000003f0200000000000000000019523c30000006000000000000500f22ef
:162d450085000002005faa0000002d1903a80800009e2800000029
:202d5b000000000000c300202800000000000000000000000000000000000000000000004d
:202d7b0000000000f0f1a40000000000000000000080803c40000060000000000000001fb8
:172d9b0038800000342810a000002d70e74140000014000000000044
:202db200000000000c302000000000000001000000000000000000000000000000000000a4
:202dd200000000081cf72940800000000000100199523c300c000000f8f5000080000000fc
:162df2000000101403c5e0a0032808185601908cac0600000000ef
:202e08000000000000c30000000000000000100000000000000000000000000000000000d7
:202e2800000000307005c16000000000000000000080803c40400000000f52101000000087
:172e480000000100807c300a001000f00080180044000280000000de
:202e5f00000000000c302000080003bc100000000018f040000000000000000000000000d8
:202e7f000000000180531e80c001000000000000007a3c38000034020ca0000000800fa7fa
:162e9f00950000006014a400200300007b9008000e060400000022
:202eb5000000000000c3000018900003c004000000000f00000000000000000000000000bc
:202ed50000000008100383d400000000000000000000003c000001402405000000050017a9
:172ef500300000000203d000000000000dfb00000000228000000017
:202f0c00000000000c302020001c000000000000000000000000000000000000000000000d
:202f2c00000000039c0000000000000000000008005a3c380006200418f3020280800000d7
:162f4c0000000017c0000000000000007b97d840a01c05fb7478c6
:202f62000000000000c3000000000000000000000000000000000000000000000c00000080
:202f82000000000009f000000000000000000200f000003c000002c3c00f32001001000031
:172fa20000000000a6000000000000000dc3fc400400030eca001077
:202fb900000000000c3020000000000000000000000000000000000000000000000000009c
:202fd900000000000ed270400000000000000009805a3c3800000003eb240000005010007f
:162ff9000000000067fca0000000051adf9410000c0602ec45597f
:20300f000000000000c3000018700000000000000000000000000000000000000000000056
:20302f000000000001096f0c00000000000000001000803c000000002c910000000008006b
:17304f00000000000037f82000000009916c840000002024d4a000d9
:20306600000000000c30210000000000000c000000000000040004000000000000000000d9
:20308600000000000000000000a0000000030008005a155001400000ca1002300081a3ba95
:1630a6008000000006aee5a02040058fd694166000806f5c00003c
:2030bc004000000000c3002000000000000080000000000000400000000000000000000011
:2030dc000000000000000000000400000000100010008154801800400001000200150000eb
:1730fc00280040001400400400040071876b440100900285005000ea
:20311300000000000c30200388003711d000000000000000000000000000000001c040009c
:20313300000000000000000000000000000000000000000000000005d8f520000099c336f8
:16315300858000020055ea44084008007f2a802000003c00000007
:203169000000000000c3000028100563440400000000000000000000000000000002380061
:20318900000000000000000000000000000002000000000000000003a60f00000001101645
:1731a90034400000042869da800400d000c2a800000002c0000000ac
:2031c000000000000c302380080000000000000000000000380000000000000000000000d0
:2031e00000000000000000000000000000038000000000000e0a44000000003a0080033af9
:163200008500e0000681ca06178007000000000e000600c8000082
:203216000000000000c300200090000000000000000000000200000000000000000400001f
:203236000000000000a000000000000000002000d00000000080000000000002100100ba9b
:17325600388008000020d0501020000880000000800020250500805f
:20326d00000000000c302008230000000000002000000000300000003bc10000000000006e
:20328d0000000000000000000000000000000000180000000020000019f10080003805b270
:1632ad00950000000040000000000398000000000000700000002b
:2032c3000000000000c300011800000000000002c000000003000000043c04000000000006
:2032e30000000000000000000000000000000000000000000000000024cf2010000080b474
:173303003d400000003c000000000098b000000000000400000000ae
:20331a00000000000c30200000000000000000000000000000005800000000c0000005809a
:20333a005000200001f646880000000000000010019aa85000404600000000010000a570ff
:16335a0060020000004000000003880092a3dc00000060000000bf
:203370000000000000c3000000000000000000414000000000000080000000040000006015
:203390000008010000ed78900000000000000002008f7f44000a2940000000002009009798
:1733b0000b00000e002800000000001001683c000000000000000010
:2033c700020000000c302020138000000000000000000000000000000000000000000000d5
:2033e70000000000000000000000000000000000000000000c008068000000010059987b65
:16340700c50800004016aa000000000056d4180000200000000080
:20341d000000000000c30000021800000000000000000000000000000000000000000000b2
:20343d0000000000000000000000000000000000000000000040140000000000020f0810f2
:17345d003c800000000030a00000000005b908040003c0000000003f
:20347400000000000c302000201c00000000000000000000000000000000000000000000a0
:203494000000080000000000000000000000005000ff795000002005dbe74004008017eb4b
:1634b400d580c00400018f303380079cf63c02000000000000009f
:2034ca00000e000000c300000501000000000000000000000000000000000000000000000b
:2034ea000000000000000000000000000000000200af6f00000001422eef701000050db4fc
:17350a003c000400802410f30010000903c3d4000000000000000010
:20352100000000000c3020280000000000000000036a0f00800001a0000000000000000069
:203541000000000700000000000000000000000000dfa850000000276ca54000005807b203
:16356100950000000006aa00000000080039c08000000008400046
:203577000000000000c300000800000000000000003c0f0000000009000000000000000015
:203597000000000000000000000000000000000000ebef8800000006ad0f50000000003c64
:1735b7003e800000000030a0010000010f036c20000002e5c80080a0
:2035ce00000000000c30210000019b3c0000000038000000000000006bc100000000000044
:2035ee0000000000000000000000000000030001810000000c094000e8a00030001993fa85
:16360e009500c00200018f3030400380000000000000015b505997
:203624000000000000c300200000bf01680400000000000000000000003c024000000000f9
:203644000000000090000000000000000000200000f000000080c1c0030a0006000f08b4e7
:173664003d400800140010f300040008f00000000000003f8d10904b
:20367b00100000000c3020000000073c100000000000000000000000000000000000000070
:20369b00000010000000000000000000000000000100000000000002f8f000810000003b58
:1636bb00c100000267d68c74000000080000000000000418f040a5
:2036d1008100000000c3000200000003c004000000000000000000000000000000000000cc
:2036f10000000200000000000000000000000000f0e00000000000001fef40002800000071
:173711003c020000043fd8c10000000000000000000003010f000074
:20372800000400000c3023a000000000000e001c0000000038000000000000e0000000003c
:2037480000000000000000000000000000000010080000000e002020f8fa00380000003b96
:16376800c104e002004f8c34000001000000000e0040380af040d4
:20377e000000800000c300200000000000008000200000000200000000000008000000001e
:20379e000000000000000000000000000000000200b0000000800040020fa00200000000e6
:1737be003c0608000c2248e20000000000000000800000010f0000c2
:2037d500000000000c30212850000000000c00000600a5481000000000000040000280002e
:2037f500000000000000000000000000000000000000000000000002fc0002b12800003ba0
:16381500c102000160368c74000000087e3c001c0000201af040fb
:20382b000000000000c30020180000000000c00002cc05a0820000000000000c00000000c1
:20384b000000000000000000000000000000000000000000000000001500800320000004a1
:17386b003c02000002015dc1000000010703d420400000000f000099
:20388200000000000c302000000000000000000000000000000000000000000000000000ca
:2038a200000000000000000000000000000000000192420000002600000000000000000209
:1638c20095050003e01f8c340000000ad70280000000281ef040bb
:2038d8000000000000c300000000000000000000000000000000000000000000000000000d
:2038f80000000000000000000000100000000000f0ed68000000004000000000000000b06b
:17391800168600010e026de2000280018dc000000001c0000f0000fc
:20392f00000000000c30201840000000000000000418f06000000000000000000000000058
:20394f00000000000000000000000000000000000080204080001c02eda140000001a07bf0
:16396f00c1820008065e9a140303801e969400000000041ef040c5
:203985000000000000c32001280000000000000003000f00080000000000000000000000fc
:2039a50000000085000000000000000000000000000901080000000004dd10000800000072
:1739c5003c000000002258a7001000000bc00000040003400f00005d
:2039dc000a0000000c302000050003bc100080000200a560000000007bc187000000000047
:2039fc0000000000000000000000000000002800007fa80040000664fba140000058080274
:163a1c0095820002660f9c340020000a000000002400001af0409e
:203a32000040000000c3000000080043c0010002c01c05a080000000003c00000000240002
:203a52000000000800000000000000000000010000004280000000220ead1000000000306c
:173a720016800000143e6ce200000001d00000000c00c0010f00005a
:203a8900000000000c302018100a000000000000780af050000000000000000000000000cd
:203aa9000000000000000000000000000003000000063cc08c0026020ea0410002d8f07b10
:163ac900c1820001c6969c7400000580373d402000000200a540f7
:203adf000000000000c30001000100000000000000010f0080000000000000000000000072
:203aff0000000000000000000000000000001000000043cc204000c03c05008800051a047c
:173b1f003c020004000159c10000000800c3d4000000000c05a000e2
:203b3600000000000c3025000000000000000100000cf0401000780000000000080001cf71
:203b560004000000000000000000000000000007080000000c0006717da140308091b07bef
:163b7600c102c002e386f8340040081a7eaa800c003c0008f04194
:203b8c000000000000c30020000000000000006a40010f0282000080000000000000001068
:203bac00f008000000000000000000000000000001000000008000240dde201b10058a0493
:173bcc003c002c0004424de3000400d000c2a800800260010f0800cc
:203be30001000020cc3020280000000000000000000000000000000000000000000000005d
:203c0300000000000000000000000000000000018a57280000000001e00080010200000033
:163c2300000000000000cf060800001c023c100000142940008047
:203c39000010000150c3200000000000000000000000000000000000000000000000000027
:203c5900000000000000000000000000000000000000c280000000000000002008400b0096
:173c790000000000003810f0004000010043c0410001428080000034
:203c900000000001cc302380500107bc100e0000000af04000000000000000e00000000028
:203cb00000000000000000000000000000038008017e200080000001c000803800000000d1
:163cd0000000e0000700cf040780038006bc1000201401489680b5
:203ce6000000000010c300200000a003c001800000000f000400000000000008001c0000b0
:203d060000000000100000000000000000002000709f4000200000000200000220100000ca
:173d26000000080a004010f0002000000003c0000461428089601031
:203d3d0000020780cc30210005800070d01c00160000000000000000000000c40000000005
:203d5d00000000000000000000000000000000001997304080000000000080100000000016
:163d7d000000440000000a540100080e033c100002376d4896a004
:203d930000001c4000c300a00000003b0c000000000000000000000000000000800000008a
:203db3000000000000000000000000000000000000fb83000000000000e000010000000091
:173dd300000004000403c05a007281310003c000000142829960000f
:203dea0001004000ec3020000800063c18004000000000000000000000000000000000009a
:203e0a0000038000007e3e80000000000000000000f2861080000000e00080000b00000066
:163e2a0000000001c001ef0400081100802950000036054896a002
:203e40000000020010c3000000500043c001000000000000000280000000000000000000b7
:203e600000001000000083e80000000000000000900540420000200002000000000000008e
:173e800000000000000010f000410000010168000081428299600042
:203e97000001e380ac302000200007bc1010000000000000000000000000000000000000a8
:203eb700000000000000000000000000000003800e33a80000001400e0008000000000000b
:163ed700000000000240af040400010002bc10000000016996808d
:203eed000000004000c3000004000043c001000000000000000000000000000000000000aa
:203f0d000000000000000000000000000000000000008280000001e00000000000000000b1
:173f2d0000000000003800f0000000000003c0000000000089601099
:203f440000000700ac30200000000000000000000000000001000000000000000000018fc9
:203f6400041000000000000000000000000000019cd7200080001400c000800000000000c1
:163f8400000000200001cf040000000803bc10004000016996809c
:203f9a000000003c10c30000000000000000080000000000000000000000000000400000b0
:203fba00f0000002000000000000000000000000f1af8000000460238000000020000000ae
:173fda0000000000003c10f0010000010043c0000000000089601096
:203ff10000000381cc302000000006bc10000000000000000000000000000000000000003e
:20401100000000000000000000000000000000070096a85080000421c00080000000000015
:164031000000000003018f060000010800295000000001699680de
:204047000000000010c3000000000003c001000000000000000000000000000001000000c1
:2040670000000000000000000000000000000000f0f1034480001664000000000000000017
:1740870000000000004010f000000001070168000010000299601056
:20409e0000000701ec302100018102bc140c40000000000000000000000000c0000000005d
:2040be00000000000800000000000000000300070000000000000000000080340010007b91
:1640de00c104c0000781af040300800080295000820061e8f08055
:2040f4000000004010c300a000089003c00080000000000000000000000000080000000016
:204114000000000000000000000000000000200008f00000000001c000c0000200000000f0
:174134003c204900004000f080a028000b016a000000040200f010db
:20414b000000001ecc302010200000000000000000000000000001a9a4c0000000000000dc
:20416b000000000000063c1440000000000000210c00000000000003e8a500080010173e74
:16418b0000000001e00000000000000007bc1000000000e996806b
:2041a1000010002360c30082850000000000000000000000000000009ed6800000000000ad
:2041c10000000000000003c0400000000000000000000000000000000c050040001d0c1a47
:1741e1000000000000240000000038000043c04400000002c960d029
:2041f8000000400fec3027800000000000000c00034ef000000079b9ba8c49000000000087
:2042180000038007000000000000000000000000005302800e0000015c00600000008bf2df
:164238000008e0000000000003800000073c1000001e00080f007d
:20424e000000020000c300200000000000000000002c05a000000d8af4314000000000009e
:20426e0000002100000000000000e0000000000000a040280080000034005110000700f813
:17428e000000080000000000002000009003c0000000038000f0101b
:2042a50000000787cc302500000000000000003400000000000000e0000000000000000036
:2042c500000140200a00000000000000000000070a00000000000404000000080080156355
:1642e500d440c000068000000300000007bc1000000001d8a0001a
:2042fb000000004010c300200000000000000001c00000000020001000000000000000007f
:20431b00000034010000000000000000000000000000000000000023c000000000050d0c4c
:17433b003d40040000000000001000000003c000000000020a000407
:2043520001000004ec302403801c000000004000000cf50000000180000000000140000064
:20437200000000000000000000000000000000000077140000000004000000000000033168
:16439200400000016000000000000000033c100000000000000025
:2043a8000000000030c300000000000000000a00003d0fa0000000000000000000003c00d0
:2043c800000000000000000000000000000000000089a2bc000000030000000000200018b3
:1743e8003c02000000000000000000100003c00000000000000000ad
:2043ff000001c38ecc3020400000000000000080001c6910000000000000000400000000d7
:20441f00000000000000000000000000000000000e77a800000000600000000000900fb0a1
:16443f006008000000000000000000018029500000800000000085
:204455000000024010c300800000000000000010039da96000000040000000008000000039
:204475000000000000000000000000000000000000d04280020000040000000000018f30cf
:17449500160400000020000000000070fb01680000040000000000fe
:2044ac000000479eec3020102000000000000020700000000100000000000000000000000e
:2044cc000000000000000000000000000000000f0077c2000000000000000000001007234e
:1644ec00d40800000000000000200001063c1040000060000000cb
:204502000000266020c30080850000000000000244000000002800000000000000000000bd
:2045220000000000000000000000000000000000f00b70008000024000000000000b8c5461
:174542003f4c00060000000000000090d043c00000a040000000008e
:204559000001e79dec3020002000000000000006015cf000000018c00000000e000021a562
:20457900500000000000000000000000000000271e5fc400000000016c0a00300018107328
:16459900cc8e0000000000000000000006bc1000000004000000dc
:2045af000000026420c30080000000000000004022150a500000008000000000e0000150a1
:2045cf00aa000004000000000000800000000001100da400040000000300a001000d0e0019
:1745ef003cc200200000000000003c000003c0000000038000000015
:204606000001e201cc302103800006bc1000001403fcf0000000001d3bc000000000000023
:20462600000300000000000000014000000000001c0000000ca020000000000000800000c8
:164646000000440400148fa403000001000000000000607ef500f8
:20465c000000266410c300a000000043c0820000237c00f00000000a1803c0000000000048
:20467c000000200000000000000008000000000011800000008002c000000000010f0e0005
:17469c0000000d26000070f009200090b0000000000004030f5000a5
:2046b300000000000c302400000000000000009c00000000000059d000000000220014e0ac
:2046d300f00000000000000000000000000001000a78402000401602ed08000000000b3c60
:1646f30020000002667fc4240000038a10002000408e3dc8fa40f8
:204709000010000000c300800000000000000010000000000000001a00000000003c007067
:20472900f000000000000000000000000000020000002c00000000027dc00080000300335d
:17474900800200000422d8d120000058a02000000210277d0f0010fb
:20476000000000000c302380000000000000a016001f6900000000007ad000000006adef30
:2047800000038050000000000000000000038007803225b00e002001eb08003800000000db
:1647a0000000e000002fa4240000038e5225a00e00000000000076
:2047b6000000000000c3002000000000000000000004896000000f00565e0000000002d07e
:2047d600a5002000000000000000000000002000b800b658a08001c035a00006000000005c
:1747f600000008000001e8e220400059a03658018000000000000071
:20480d00000000000c30236010000000000000807258f000000080196a584800020015893f
:20482d00602000000e00000000400000000300a0001225b80400206c5a0800300200a57bc7
:16484d0001810000003ec424000005001a25a00c4e00004c5520ae
:204863000000000000c300000000000000000014041c00f000001f0f1025800000043bd05c
:204883009620000001f0000000080000000000280000b25800400242b4e00083005d00d26a
:1748a300308000014002d9d120000000002658004800002505500001
:2048ba00000000000c3020000000000000000000200a55000000f80000000000000000000b
:2048da0000000050000000000000000000000300081a25b000002602de0800018050082e5f
:1648fa00b5000001c32fa4240000079c5a25a00000000000000076
:204910000000000000c300000000000000000000002d0aa000000580000000000000000068
:204930000000000200000000000000000000000000003a58800001602cc00080380000f757
:17495000978800400241f9e22000009900a65800000000000000001c
:20496700000000000c3020000000000000004e0022ee84020000380f2bc00004020014efb5
:204987000200004000000000000000000000000f9f3265b200001c76dd080000387807f3b6
:1649a700e9000008078000000003800e1a65a000401c36dc55010e
:2049bd000000000000c30000000000000000020400370cc0000000805c168000201c0070f0
:2049dd005a00000000000000000000000000000078e036580000e1c76d800008000000d00d
:1749fd003c080001404000000000003000a25800020003ec0550006e
:204a1400000000000c302000000003bc100000007000000000000000000000000007800060
:204a3400000000000100000000000000000000050a7265b800002e280000000102700000fa
:164a540000000008078000000000001c5a65a000001c0400000022
:204a6a000000000000c3000000000003c080000000000000000000000000000000004000e6
:204a8a000000008090800000000400000000000050f0a258000002e78000000008df880066
:174aaa0000000001002c0000000000000036580000024340000000b5
:204ac100000000000c302000010000000000000004000000000018192bc0000000078000d1
:204ae10000000100007af9d400000000000010039e3a25b400001e03ea8140000000c07f9e
:164b01002d44040000000000000080005a65a0000ea0700000002c
:204b17000000000000c300000000000000000000030000000000008ef803c00000007c00f3
:204b370000000000000df7440100000000000000b100ba58200000001ed5200c000f08d329
:174b570071c000a00000000000002800002658000217c000000000f7
:204b6e00000000000c302340000000000000000c00000000000000e7209408000003800056
:204b8e0000030000000000000000000000030088003a65b004001470ccfa40140238002e20
:164bae00b500d0026000000000000000323c200c00000000000070
:204bc4000000000000c3002400000000000000002000000000030000340340000000400010
:204be400000010000090000000000000000020007000325820c00026d60f0083005988f7b1
:174c040097806c00260000000000000000003c004000000000000074
:204c1b00000000000c30200040000000000040800000a54000000000000000040000000034
:204c3b0000001020001bfc080000800000000300003265b80000003808f06000000007bee3
:164c5b00000220a860000000000008007a25a000402000c0008032
:204c71000000000000c300000200000000000a14001c05a00000000000000000000000007f
:204c9100000000000007643c00000400000000000000b25810006000010f0000038000f655
:174cb1000000000d02000000000000700032581008014340900000b7
:204cc800000000000c30200000000000000e00000000000000000000000000000000000062
:204ce80000038009809fbc000000000000038000003225b80ea00000000000383081e0003c
:164d08000000000000000000001008010203c00e000000c896d07b
:204d1e000000000000c300000004000000008000000000000000000000000000000000002e
:204d3e000000200010930168000008000000200000003e58008400030000000200071800c3
:174d5e0000000002800000000000b870c0003c0080000002c96004e9
:204d7500000000000c30204850000000000c000000000000000000153bd4000040000000ba
:204d9500000300001886ad000002000000031107883a25b80c003e617ea500000001efb87e
:164db50020200a000000000000000001daa000060e0000c896e0d1
:204dcb000000000000c300010000000000000000000000000000000f0c3d4200000000006a
:204deb000000000000052de004000000000000800900ae58010003e0340f00100000003f8d
:174e0b00000000000000000000000000f160004000000002d96004c0
:204e2200000000000c30200000000000000000000000000000000000000000000002000012
:204e42000000000f0006bc100000000000000000003265b800001e02ce0f000505001730d2
:164e620020200004000ce55100000f0000000000000000e896c067
:204e78000000000000c3000000000000000000000000000000000000000000000000000057
:204e980000000000f00003c000000000000000000080b258000003c02f0f00002800083f4d
:174eb8008000000080005055000000f00000000000000000d9600411
:204ecf00000000000c3020381000000000000280000000000000000000000000000000009d
:204eef00000000001d80295000000000000003038e7225b040a0002b7e96020100f000336d
:164f0f00d40004a0000000000000000000000000108664e996e0bb
:204f25000000000000c30002a80000000000001400000000000000000000000000000000eb
:204f450000000080b18701688000140000000000f9a03e58800400035c09600028078eb0af
:174f65003e80202c04000000000004700000000000102640c9600410
:204f7c00000000000c302004000000000000000000000000000000000000000000000000b5
:204f9c000000000100d683c000000000000000050b3a65b00040007cf8a500302880037ccc
:164fbc0000020000000fe0a0000000005e280040c22664e996c0fd
:204fd2000000000000c30000400000000000000000000000000000000000000000000000bc
:204ff20000000000000583c0000000000000000090e0ba58040200022f0f0001102f003e11
:17501200c040000e003c300a080000000042800000026642c9610461
:20502900000000000c30200c50000000000010840000000000000010000000050000000006
:20504900000004018003b840800000000000040f9e5a25b0105c0079480f00000080f06358
:16506900c1040007e31cef020028000000000000000000e996c00e
:20507f004000000000c300010000000000000010000000000000000b0000000000240000ce
:20509f0000000000009743488000000000000000f990ba58800a0004150f0000000f1f04d0
:1750bf003c022020be35d05a000100000000000000000002d9620001
:2050d600000000000c30200400000000000c100000000000000000000000000100039faaf1
:2050f600a003040780333c008000000000030408005225b00c102601789602304580fd679b
:16511600c006010003800000000408000000000c1000004996c072
:20512c000000000000c300004000000000008140000000000000000000000000100041f05e
:20514c00aa006068080b803c800000000000204070003258008101c02d06900204271fdef9
:17516c007d00001000400000000040d00000000081000000d960187d
:20518300000000000c30202000400000000001400000000000008009fbc0400000000dff7f
:2051a30000004080001aa9480022000000000000087225b010000060000000003000000010
:1651c300000000000007af000000001c033c1a10008001c896c0fc
:2051d9000000000000c300002804d0000000000000000000000007005b43c000000000dab8
:2051f9000f2004000007c3c00000000000000020b100be581000a000000000000000000042
:17521900000000000003ed0f01000004e003c00000140000e9634037
:20523000000000000c302380000000000000800000000000380001a0000000e0000020fb2b
:20525000400380001a07ed000000000000038000003a65b20e0020040fb4000002000df89d
:165270000000e002078000000380000002bc100e00000008f04028
:205286004000000000c3002000000000000004c0000000000200000000000008000000db3c
:2052a60078002000010f69e0000000000000200000d0aa58008000c21da78000004d00d75b
:1752c600810448003c000000002000000003c00080e800000f00006e
:2052dd00100000000c302140001a0000000104000000000030000000000000c001e001ee25
:2052fd0010231000009aa5888000000000030000007a65b20c0000025c9602000000000071
:16531d000000ca0000178a500100010002bc10248000000000004b
:205333000000000000c300202801000000001001400000000000000000000000000200d02b
:20535300d220000000f5c25800000000000000000000265800080000160960000000000034
:17537300000000000103d0f0105000100003c0000400000000000028
:20538a00000000000c302000058002bc100000000000000000005000000000000060400064
:2053aa00000013098f000000000000000000030b005a25b200a0263bf80f0000011808329e
:1653ca00d00002020001cf040000038006bc1000000000000000d0
:2053e0000000000000c3000000000043c023000040000000000000800000000000002000e4
:205400000000028011800000000000000000000070003a58000000402c0f0000000089f380
:175420005e00004a140000f0000000000003c0000000000000000006
:20543700000000000c3020002000000000000000015a0f000002781000000000026017c0ac
:20545700f00010000003bc1000060000000000079e3a65b0000000000ef040010001a37811
:165477003c0000400000000000001580023c1000100000000000b0
:20548d000000000000c300002d00000000000001c00c0f020000000a00000000001c03e028
:2054ad00f0000000000043c0000000000000000009903e5820000000000f0000080b003c3f
:1754cd003c0000000034000000000008c043c0000004000000000089
:2054e400000000000c302004000000000000100000000000004018000295001000401eae2d
:205504001020000000bea9420000000000000007811225b000401e3a7ca500001a008000ec
:165524000000000000200a560028000003bc1000000000000000fa
:20553a000000000000c3000040000000000001000000000000040000301680010000000082
:20555a00e120000000edc3c0000000000000000000e03258020300271f0f000000401000ac
:17557a00000000002402405a000001000043c0000000000000000056
:20559100000000000c30203040000000000004800000000000400403b3c00101020781cf95
:2055b1000400048181db83c0000000000000040d0f3225b0001000796e0f000040f0000055
:1655d10000000100070000000004200803bc10000026000000009b
:2055e7000000000000c300029a00000000000000000000000000004010168000001400004b
:20560700f000000090cf43c00000000000000000f1e0ba58020040443c0f00000007000076
:175627000000000000000000000004018043c0000002600000000082
:20563e00000000000c3021040000169550101000020cb40030400000000000c103e07eafcd
:20565e00010304001e3ea58080000000000304081e3225b00c1024037c960204400089bb10
:16567e00c000c10000018f0403045000033c104c100000000000ff
:205694000000000000c3002000000081540000000014a78082040f0000000008100639ce49
:2056b4000f0020400107c2588000000000002070f100a658028101e01f06900004000eb06b
:1756d40016800810000000f0202040000043c200810000000000001b
:2056eb0000000020ec30200007c13059a00000000000000000000000000000200206000a20
:20570b0054000008180029500000000000000007807225b000001422e9f000020270a9efa8
:16572b00c0800000000000000000050a1800200040166c4100805e
:2057410000100001c0c300000038a03998020000000000000010000000000000000402c033
:205761005a000000108f0168000000000000000008f0be58120000003f80f004105010fa89
:17578100c3c000000000000000000050b02000000a000280a0000042
:20579800000000000c30200008003a65a60e00000000000000005007f3c000e0000036e03a
:2057b800f003800000d203c0000000000003c00d0a7225b00001247bdca5003c0280a00029
:1657d8000000e0000001af04001005805225a80e00366c4896c025
:2057ee000000000000c300000050003e580080c00000000000000000dc168048000002f006
:20580e00f0002000000743c0000000000000248079f02258200002c4260f0002405100002b
:17582e000000080a000000f000008050a02258029001428289600037
:20584500000000000c3020000d9a3a65a22440000000000000000010000000c0000005cef8
:20586500122300050012b8488000000000030020403a25b000a00029d8f5203000000de210
:16588500948040a04740ef040000059b5225a0040000004896c046
:20589b000000000000c300000050003e58008200000000000000000f000000000000002093
:2058bb00e100400008f0c3840000000000000001d000a65820040000000f5010000009f40e
:1758db003c040c00007400f000040000a0be58000000000299600051
:2058f20001000001ec30200000001225a6000000000000000001580000000000600624cfc9
:20591200000000000093bc000000000000002800001a25b000a0000000000004008180006a
:16593200000000c9e001ef04000005015225a000a00e006896c039
:205948000000000000c300000030002a58000000000000000000208000000000002403d033
:205968005a000000000341680000001000000100d000ba58200412400000000000050000ab
:1759880000000000000000f000000200a0a65800000000009960106f
:20599f0000000000ec30201383007225a400048000000000000000000000000008606dc9b9
:2059bf006020000180b2a5808000800000000000005265b80c000004fa0f00000000002b3d
:1659df00c1000000000000000000001e3265a0004140006996c05c
:2059f5000000000000c30002800000aa5802000000000000000000000000000000003ec04b
:205a150096010000000f4258040410000000000090002258004000036c0f0000000000044d
:175a35003c000000000000000000180000a25800000b4000896000d8
:205a4c00000000000c302000011e1265a4000000000000000000000fe83c000000c3e4c00a
:205a6c00f0000007809383c800000000000000038e3265b020001c2800000002b80013fbc1
:165a8c00c08000000000af06100000005a65a0000000006996c0e1
:205aa2000000000000c30000009900aa58200000000000000000000f103c0800000463d0cc
:205ac200f0008000080343c0800000000000000009e0225802000260000000000000089e59
:175ae20003c00000002400f000000000003e58000000000289601045
:205af900000000000c30204000003a25a44040000000000000000000000000000007a1ae18
:205b19001020100008000000000000000000220f8e3a65b0000080780000000002000d7897
:165b39003c000a000000af040000000c5a65a0000000006996c033
:205b4f000000040000c300040000d0ae58000060000000000001004000000000000040c0f4
:205b6f00d2010000040000000010140000000100f0a03658201064c0000000000000001890
:175b8f003c0001400c0010f00000000100a6580010000002996080ec
:205ba600000040000c30200001991a25a4040800301ef040800071a0000000c0000000effc
:205bc6000403000808000000000800000003000700fa6590008004795ea520300080e07b7c
:165be6008488c080e001cf0400000001123c200c000000c996c00f
:205bfc000000000000c30000000990225820800000010f0080000000000000080000381033
:205c1c00f0002000f000000000000000000020000005243c81000024060f00120003009480
:175c3c003480080a000010f080000000f0803c0080000000996200e4
:205c530000000015ac302000001a3265a0220e0000000000000000007bc12400000000003f
:205c73000000000000b73c00000000000000000198977c00000014601ef040000001e802c5
:165c93009500000000000000000000013225a0000000014896d0bf
:205ca90000100000c0c300000030c03a581400000000000000000000003c00000000000076
:205cc90000000000000f416804001400000000000001743c00000000000f000000201030cb
:175ce900168000a00000000000000000a0a6581000000000a9604077
:205d00000003e7d5ac30202007803a65a80e000000000000381a0000000000e0000000009a
:205d2000000380080080295000008000000393881e57bc000e0080000000003f8000e3a838
:165d40003c00000000400000000000000203c00e08000008f040be
:205d560000003c7c00c300010000003e58048000000000000228100000000008a1000000b4
:205d7600000020b0100b016800000400000020801009829400801400000000027000005090
:175d96003c0001a0003800000000001000003c00800000000f000006
:205dad000003e794cc3020004d811a65a02400000000000010000000000000c0000000005b
:205dcd0000030000400000000006000000030000088738409c0020785ea5003004f0e13bec
:165ded008428000000000ff3000000005f2a8004003600000000af
:205e030000003e7c20c300000050a03e5820800000000000020000000000000000000000ba
:205e23000000020000000000000000000000000001014348000a00502f0f01000001000c2a
:175e4300384040001c0000ff00c4000000c2a8000001400000000006
:205e5a000101c7d7cc30200018007225a400009e0000000001180000000000000000000062
:205e7a0000001005801bbc0000400000000003201802bc10100680060eb40002000003ab45
:165e9a00c0000000069f8a508300001c8079c0000000000000005b
:205eb00000001e3820c300000250002a582000042000000000204000000000000100000020
:205ed00000000200000741682008000000000004000043c0000014021ca780001000005018
:175ef000294000000001705000100000eb2f6c0000000000000000db
:205f07000000e00fac3020104b1e3225a4004000000000000000000000000000900000004b
:205f2700000000019a033c10000000000000000000fe03c040000001fcc3020000000000ad
:165f4700000000000000000000000018000000000e00000000001e
:205f5d000000040010c3000281f100aa58040a0000000000000000000000000000000000c9
:205f7d0000000000010043c000000000000000000007c3c0000a20026e03c0801000000089
:175f9d000000000000000000000000000000000000000000000000ed
:205fb4000016400f8c30200000003225a4004000000000000280000000000000000001efdf
:205fd400040000000800000000000000000013a00ef6a580810006034ca50000b00000009a
:165ff400000000000016ea5200000018000000000000000000002d
:20600a0000008e2430c300000090002e580408000000000000080000000000000000001097
:20602a00f0000000000000000000000000000085019b41a400100000370f00801001000079
:17604a00000000000001e0f02000000100000000000000000000004d
:20606100040000078c30200007001225a4000000000000000000000000000000480000000e
:20608100000010001a000000000000000000000180063c10000004015e0f00000000100080
:1660a10000000000c0000000000000000000000000000000000029
:2060b7000000000020c30000000800a258040000000000000000000000000000014000009f
:2060d70000000200710000000010800000000000000043c0000010001c0f000000000d005b
:1760f700000001002400000000000000000000001014000000000049
:20610e0000140006ac30200001991265a4040000001af040101a8000000000c000020000ec
:20612e00000300001c0683c000000000000312238187ed002c0020054c96023601500fab46
:16614e00c000008006800000000200005e3d404c0000000000004c
:206164000000800010c30000000990aa5820800000000f0016091f00000000080000000038
:20618400000020000100003c800000000000228400893de0008003c3870960121100809465
:1761a4001680000100400000000000000083d4008000000000000036
:2061bb00000000000c30200107805265a60000000000000000000000000000000000000083
:2061db00000001101812fc0000000000000000001800000000000000000000000000002b2a
:1661fb00c1800000000000000000000000000000008000000000cd
:206211000010000000c300000100003a5810000000000000000000000000000000000000f7
:20623100000000020007ac3c2000000000000000000000000000000000000000020000003a
:176251003c08000000000000000000000000000000100000000000e2
:20626800000000000c30200000007a25a4400800000000000018000000000008000000000f
:206288000003800800fb03c000080000000380031e0000000e4c000000000038000000333c
:1662a800c10000820000000000002000000000000020000000005d
:2062be000000000000c3000000000022580000000000000000000040000000004000000003
:2062de0000002080700503c0000000000000200001000000008000000000000228000004f9
:1762fe003c0000003c00000000000104000000000002c0000000004a
:20631500000000000c30200000013265a20001400000000000380000000000000000000059
:20633500000301884012b8409000000000000008409bcc100d000001ee0f00100001a8025d
:16635500950000000040000000000000000000000000000000005d
:20636b000000000000c3000000f0b03a58000000000000000000000000000000000000001d
:20638b0000000000f00083840200000000000018f00d7ac4011000002c00f00353071030dc
:1763ab0016800000003c000000040000000000000000000000000005
:2063c200000000000c30200000017a25a2000040000000000000000000000000a00000003d
:2063e2000000000398876d0000000000000000080edf80d0002080000e0f000002000802fe
:1664020095000008000000000000000000000000001e00000000c9
:20641800000c000000c300000000b02e580000080000000000000000000000000000000057
:206438000000000058dd7de000001000000000001009a54c000414020100f000000000f09d
:17645800168000000000000000000000000000000000000000000097
:20646f00000000000c30200007007a65a400000000000000000000000000000000004000e7
:20648f000000000800fe83c0000000000000000000d6cc1000002004000000000000003b93
:1664af00c100000000000000000000000000000000000000000016
:2064c5000000000000c300000008003a582000000000000000000000000000000000380002
:2064e50000000000d00bc3c00000000000000000000d3ac4000001c20000000000000c005f
:176505003c0000000000000000000000000000000000000000000043
:20651c00000000000c30200000007a65a00000000000000000000000000000000200000082
:20653c000000000801de25808000000000000000000000000000840200a5408004800002c2
:16655c009500100800000000000000000000000100040000000077
:206572000000000000c300000000002e58200000000000000000000000000000001c000084
:206592000000000010f701a4021000000000000000000000000004203405a000082d0df0fc
:1765b2001680010040000000000000000000000010000000000000eb
:2065c900020000000c3020000000da3c04000c8000000000000000000000000a00000000a4
:2065e900000002818006bc10000000000000000001000000000020681cf041000000007b6c
:16660900c1000000601cbf0000000000000000000000000000007f
:20661f000000000000c30000000007803c20000000000000000000000000000000140000a1
:20663f0000000000000043c000000000000000000080000000100140000f00002b0b0d0015
:17665f003c0000000221f80f010000000000000000000000000000bd
:20667600000000000c302000098000000000000000000000000000000000000000000dc052
:20669600f003100381be29400000000000030287000000000c0000000cf04070000000737f
:1666b600c10000c0000000000000000000000000000003780500cd
:2066cc000000000000c300000078000000000000000000000000000000000000000001e092
:2066ec00f0006200f08703c020008000000020000800000000800240000f0002000b0c044c
:17670c003c0000000000000000000000000000000000000c0f5010bf
