:02000000ff00ff
:080002004c6174746963650030
:17000a00694345637562653220323031372e30382e32373934300069
:15002100506172743a2069434534305550354b2d53473438002c
:1b003600446174653a2041707220313420323031392031343a31383a3433007a
:0200510000ffae
:040053007eaa997e6a
:02005700510056
:0200590001059f
:03005b00920020f0
:03005e006202b388
:03006100720150d9
:0300640082000017
:02006700110086
:02006900010193
:20006b00000000000000000000000010000000000000400000000000010000000000000420
:20008b000000000000001000000000000040200000000000000000000040000000000001a4
:1600ab0000000000000004000000000000100000000000004000eb
:2000c1000000000000000000000000020000000000000800000000000020000000000000f5
:2000e100800000000000000000000000000000000000020000000000000800000000000075
:1701010020000000000000800000000000020000000000000800003d
:200118000000000000000000000000000000000000000000000000000000000000000000c7
:20013800000000000000000000000000000010000000000000000000000000000000000097
:160158000000000000000000000000000000000000000000000091
:20016e00000000000000000000000000000000000000000000000000000000000000000071
:20018e00000000000000000000000000000000000000010000000000000000000000000050
:1701ae0000000000000000000000000000000000000000000000003a
:2001c50000000000000000000000000000000000000000000000000000000000000000001a
:2001e50000000000c000000000000800000020000000000000000000000000000000000012
:1602050000000000000000000000000000000000000000000000e3
:20021b000000000000000000000000000000000000000000000000000000000000000000c3
:20023b00000000000200000000000050000000000000000000000000000000000000000051
:17025b0000000000000000000000000000000000000000000000008c
:2002720000000000000000000000000000000000000000000000000000000000000000006c
:2002920000000000000000000000000000000000000000000000000000000000000000004c
:1602b2000000000000000000000000000000000000000000000036
:2002c800000000000000000000000000000000000000000000000000000000000000000016
:2002e8000000000000000000000000000000000000000000000000000000000000000000f6
:170308000000000000000000000000000000000000000000000000de
:20031f000000000000000000000000000000000000000000000000000000000000000000be
:20033f00000000000000100000000000004000000080000000000001024000000000040186
:16035f000000000000000000000000000000000000000000000088
:20037500000000000000000000000000000000000000000000000000000000000000000068
:20039500000000000000000000000000000000000000000000000000000000000000000048
:1703b500000000000000000000000000000000000000000000000031
:2003cc00000000000000000000000000000000000000000000000000000000000000000011
:2003ec00000000000000c000000000000080000000000000000000000000000000000000b1
:16040c0000000000000000000000000000000000000000000000da
:200422000000000000000000000000000000000000000000000000000000000000000000ba
:20044200000002000000080000080000000c0000000000000000000000000000000000007c
:1704620000000000000000000000000000000000000000000400007f
:20047900000000000000000000000000000000000000000000000000000000000000000063
:20049900000000000000000000000000000000000000000000400000000000000000000003
:1604b900000000000000000000000000000000000000000000002d
:2004cf0000000000000000000000000000000000000000000000000000000000000000000d
:2004ef000000010000000000000400000000000000000000000400000000000010000000d4
:17050f000000000000000000000000000000000000000000000000d5
:200526000000000000000000000000000000000000000000000000000000000000000000b5
:200546000000000000400000000000010000000000000000000000010000000000000c0047
:16056600000000000000000000000000000000000000000000007f
:20057c0000000000000000000000000000000000000000000000000000000000000000005f
:20059c00000002000000000000080000000000000000000000000000000000000000000035
:1705bc000000000000000000000000000000000000007000000000b8
:2005d300000000000c302000000000000000000000000000000000000000000000000000ac
:2005f3000000000000000000000000000000000000000000000000000000000000000000e8
:1606130000000000000000000000000000000000000000000000d1
:200629000000000000c30000000000000000000000000000000000000000000000000000ee
:20064900000000000000000000000000000000000000000000000000000000000000000091
:1706690000000000000000000000000000000000000000000000007a
:20068000000000000c302000000000000000000000000000000000000000000000000000fe
:2006a00000000000000000000000000000000000000000000000000000000000000000003a
:1606c0000000000000000000000000000000000000000000000024
:2006d6000000000000c3000000000000000000000000000000000000000000000000000041
:2006f6000000000000000000000000000000000000000000000000000000000000000000e4
:170716000000040000000000000000000000000000000000000000c8
:20072d00000000000c30200000000000000000000000000000000000000000000000000050
:20074d0000000000000000000000000000000000000000000000000000000000000000008c
:16076d000000000000000000000000000000000000000000000076
:200783000000000000c3000000000000000000000000000000000000000000000000000093
:2007a300000000000000000000000000000000000000000000000000000000000000000036
:1707c30000000000000000000000000000000000000000000000001f
:2007da00000000000c302000000000000000000000000000000000000000000000000000a3
:2007fa000000000000000000000000000000000000000000000000000000000000000000df
:16081a0000000000000000000000000000000000000000000000c8
:200830000000000000c30000000000000000000000000000000000000000000000000000e5
:20085000000000000000000000000000000000000000000000000000000000000000000088
:17087000000000000000000000000000000000000000000000000071
:20088700000000000c302000000000000000000000000000000000000000000000000000f5
:2008a700000000000000000000000000000000000000000000000000000000000000000031
:1608c700000000000000000000000000000000000000000000001b
:2008dd000000000000c3000000000000000000000000000000000000000000000000000038
:2008fd000000000000000000000000000000000000000000000000000000000000000000db
:17091d000000000000000000000000000000000000000000000000c3
:20093400000000000c30200000000000000000000000000000000000000000000000000047
:20095400000000000000000000000000000000000000000000000000000000000000000083
:16097400000000000000000000000000000000000000000000006d
:20098a000000000000c300000000000000000000000000000000000000000000000000008a
:2009aa0000000000000000000000000000000000000000000000000000000000000000002d
:1709ca00000000000000000000000000000000000000000000000016
:2009e100000000000c3020000000000000000000000000000000000000000000000000009a
:200a0100000040000000000000000000000000000000000000000000000000000000000095
:160a210000000000000000000000000000000000000000000000bf
:200a37000000000000c30000000000000000000000000000000000000000000000000000dc
:200a570000000000000000000000000000000000000000000000000000000000000000007f
:170a7700000000000000000000000000000000000000000000000068
:200a8e00000000000c302000000000000000000000000000000000000000000000000000ec
:200aae00000000000000000000000000000000000000000000000000000000000000000028
:160ace000000000000000000000000000000000000000000000012
:200ae4000000000000c300000000000000000000000000000000000000000000000000002f
:200b04000000000000000000000000000000000000000000000000000000000000000000d1
:170b24000000000000000000000000000000000000000000000000ba
:200b3b00000000000c3020000000000000000000000000000000000000000000000000003e
:200b5b00000000000000000000000000000000000000000000000064000000000001800095
:160b7b000000000000000000000000000000000000000000000064
:200b91000000000000c3000000000000000000000000000000000000000000000000000081
:200bb100000000000000000000000000000000000000000000000002000000000000000022
:170bd10000000000000000000000000000000000000000000000000d
:200be800000000000c30200000000000000000000000000000000000000000000000000091
:200c080000000000000000000000000000000000000000000e000000000000380000000086
:160c280000000000000000000000000000000000000400000000b2
:200c3e000000000000c30000000000000000000000000000000000000000000000000000d3
:200c5e000000000000000000000000000000000000000000008000000000000200000000f4
:170c7e0000000000000000000000000000000000000000000000005f
:200c9500000000000c302000000000000000000000000000000000000000000000000000e3
:200cb50000000000000000000000000000000000000000000000000008f0400000000023c4
:160cd500c1000000000000000000000000000000000000f8f50853
:200ceb000000000000c3000000000000000000000000000000000000000000000000000026
:200d0b00000000000000000000000000000000000000000000000000010f000000000004b4
:170d2b003c000000000000000000000000000000000000000f500016
:200d4200000000000c30200000000000000000000000000000000000000000000000000035
:200d62000000000000000000000000000000000000000000000000000cf040000070006b5a
:160d8200c10000000000000000000000000000000000000000009a
:200d98000000000000c3000000000000000000000000000000000000000000000000000078
:200db800000000000000000000000000000000000000000000000000010f0000000000000b
:170dd8003c00000000000000000000000000000000000000000000c8
:200def00000000000c30200000000000000000000000000000000000000000000000000088
:200e0f000000000000000000000000000000000000000000000000040000000000000000bf
:160e2f000000000000000000000000000000000c000000000000a1
:200e45000000000000c30000000000000000000000000000000000000000000000000000ca
:200e65000000000000000000000000000000000000000000000000028000000000100000db
:170e8500000000000000000000000000000000004a0000000000000c
:200e9c00000000000c302000000000000000000000000000000000000000000000000000da
:200ebc0000000000000000000000000000000000000000000000000008f048800000000056
:160edc0000000000000000000000000000000000001e00000000e2
:200ef2000000000000c300000000000000000000000000000000000000000000000000001d
:200f1200000000000000000000000000000000000000000000000000010f020000000000ad
:170f3200000000000000000000000000000000000000200000000088
:200f4900000000000c3020000000000000000000000000000000000000000000000000002c
:200f6900000000000000000000000000000000000000000000000000000000000000000068
:160f89000000000000000000000000000000000000000000000052
:200f9f000000000000c300000000000000000000000000000000000000000000000000006f
:200fbf00000000000000000000000000000000000000000000000000000000000000000012
:170fdf000000000000000000000000000000000000000000000000fb
:200ff600000000000c3020000000000000000000000000000000000000000000000000007f
:201016000000000000000000000000000000000000000000000000000000000000000000ba
:1610360000000000000000000000000000000000000000000000a4
:20104c000000000000c30000000000000000000000000000000000000000000000000000c1
:20106c00000000000000000000000000000000000000000000000000000000000000000064
:17108c00000000000000000000040000000000000000000000000049
:2010a300000000000c302000000000000000000000000000000000000000000000000000d1
:2010c30000000000000000000000000000000000000000000000000000000000000000000d
:1610e30000000000000000000000000000000000000000000000f7
:2010f9000000000000c3000000000000000000000000000000000000000000000000000014
:201119000000000000000000000000000000000000000000000000000000000000000000b6
:1711390000000000000000000000000000000000000000000000009f
:20115000000000000c302380000000000000000000000000000000000000000000000000a0
:2011700000000000000000000000000000000000000000000000000000000000000000005f
:161190000000000000000000000000000000000000000000000049
:2011a6000000000000c3002000000000000000000000000000000000000000000000000046
:2011c600000000000000000000000000000000000000000000000000000000000000000009
:1711e6000000000000000000000000000000000000000000000000f2
:2011fd00000000000c30210000000000000000000000000000000000000000000000000075
:20121d000000000000000000000000000000000000000000000000000000000000000000b1
:16123d00000000000000000000000000000000000000000000009b
:201253000000000000c3002000000000000000000000000000000000000000000000000098
:2012730000000000000000000000000000000000000000000000000000000000000000005b
:17129300000000000000000000000000000000000000000000000044
:2012aa00000000000c302000000007bc1020000000000000000000000000000000000000d5
:2012ca00000000000000000000000000000000000000000000000000000000000000000004
:1612ea0000000000000000000000000000000000000000000000ee
:201300000000000000c3000000000003c00000000000000000000000000000000000000047
:201320000000000000000000000000000000000000000000000000000000000000000000ad
:17134000000000000000000000000000000000000000000000000096
:20135700000000000c3020000000000000000000000000000000000000000000000000001a
:20137700000000000000000000000000000000000000000000000000000000000000000056
:161397000000000000000000000000000000000000000000000040
:2013ad000000000000c300000000000000000000000000000000000000000000000000005d
:2013cd00000000000000000000000000000000000000000000000000000000000000000000
:1713ed000000000000000000000000000000000000000000000000e9
:20140400000000000c3020000000000000000000000000000000000000000000000000006c
:201424000000000000000000000000000000000000000000000000000000000000000000a8
:161444000000000000000000000000000000000000000000000092
:20145a000000000000c30000000000000000000000000000000000000000000000000000af
:20147a00000000000000000000000000000000000000000000000000000000000000000052
:17149a0000000000000000000000000000000000000000000000003b
:2014b100000000000c302000000000000000000000000000000000000000000000000000bf
:2014d1000000000000000000000000000000000000000000000000000000000000000000fb
:1614f10000000000000000000000000000000000000000000000e5
:201507000000000000c3000000000000000000000000000000000000000000000000000001
:201527000000000000000000000000000000000000000000000000000000000000000000a4
:1715470000000000000000000000000000000000000000000000008d
:20155e00000000000c3021000380000000000000000000000000000000000000000000008d
:20157e0000000000000000000000000000000000000000000000000000000000000000004d
:16159e000000000000000000000000000000000000000000000037
:2015b4000000000000c300200008000000000000000000000000000000000000000000002c
:2015d4000000000000000000000000000000000000000000000000000000000000000000f7
:1715f4000000000000000000000000000000000000000000000000e0
:20160b00000000000c3020000000073c1020000000000000000000000000000000000000f0
:20162b0000000000000000000000000000000000000000000080000000000000000000001f
:16164b000000000000000000000000000000000000000000000089
:201661000000000000c3000000000003c000000000000000000000000000000000000000e3
:20168100000000000000000000000000000000000000000000000000000000000000000049
:1716a100000000000000000000000000000000000000000000000032
:2016b800000000000c30238000000000000000000000000000000000000000000000000033
:2016d80000000000000000000000000000000000000000000e0000000000000000000000e4
:1616f80000000000000000000000000000000000000000000000dc
:20170e000000000000c30020000000000000000000000000000000000000000000000000d8
:20172e0000000000000000000000000000000000000000000080000000000000000000001b
:17174e00000000000000000000000000000000000000000000000084
:20176500000000000c3021000000033c1000000000000000000000000000000000000000b8
:20178500000000000000000000000000000000000000000000000000000000000000000044
:1617a500000000000000000000000000000000000000000000002e
:2017bb000000000000c3002000000003c00100000000000000000000000000000000000067
:2017db000000000000000000000000000000000000000000000000000000000000000000ee
:1717fb000000000000000000000000000000000000000000000000d7
:20181200000000000c3020000000073c1020000000000000000000000000000000000000e7
:20183200000000000000000000000000000000000000000000000000000000000000000096
:161852000000000000000000000000000000000000000000000080
:201868000000000000c3000000000043c0000000000000000000000000000000000000009a
:20188800000000000000000000000000000000000000000000000000000000000000000040
:1718a800000000000000000000000000000000000000000000000029
:2018bf00000000000c3020000380000000000000000000000000000000000000000000002a
:2018df0000000000000000000000000000000000000000000000000000a541000000000003
:1618ff0000000000000000000000000000000000000000000000d3
:201915000000000000c30000000800000000000000000000000000000000000000000000e7
:201935000000000000000000000000000000000000000000000000003c05a00000000000b1
:1719550000000000000000000000000000000000000000000000007b
:20196c00000000000c302004038007bc104000000000000000000000000000000000000065
:20198c0000000000000000000000000000000000000000000000000000000000000000003b
:1619ac000000000000000000000000000000000000000000000025
:2019c2000000000000c300004008e043c00000000000000000000000000000000000000017
:2019e2000000000000000000000000000000000000000000000000000000000000000000e5
:171a02000000000000000000000000000000000000000000000000cd
:201a1900000000000c30200000000000000000000000000000000000000000000000000051
:201a3900000000000000000000000000000000000000000000000068000000000000000025
:161a59000000000000000000000000000000000000000000000077
:201a6f000000000000c3000000000000000000000000000000000000000000000000000094
:201a8f00000000000000000000000000000000000000000000000004000000000000000033
:171aaf00000000000000000000000000000000000000000000000020
:201ac600000000000c302104000a0000000000000000000000000000000000000000000095
:201ae600000000000000000000000000000000000000000000100000000000004000000090
:161b060000000000000000000000000000000000000000000000c9
:201b1c000000000000c30020000100000000000000000000000000000000000000000000c5
:201b3c00000000000000000000000000000000000000000000000000000000000000000089
:171b5c00000000000000000000000000000000000100000000000071
:201b7300000000000c3020000000033c102000000018f04080000081601500000000400089
:201b9300000000000000000000000000000000000000000000000000000000000000000032
:161bb300000000000000000000000000000000000000000000001c
:201bc9000000000000c3000000000043c000000000010f00000000000c01420000003c009b
:201be9000000000000000000000000000000000000000000000000000000000000000000dc
:171c09000000000000000000000000000000000000000000000000c4
:201c2000000000000c302380080007bc100e00007000000038000088394100e00002000050
:201c4000000003000000000000000000000000000000000000000000000000000000000081
:161c6000000000000000000000000000000000000000000000006e
:201c76000000000000c3002000500043c0048000040000000200000f9028020800000000bd
:201c960000000000000000000000000000000000000000000000000000000000000000002e
:171cb600000000000000000000000000000000000000000000000017
:201ccd00000000000c3021000000033c1004000000000000300000000000004000001d803a
:201ced00540000000000000000000000000000000000000000000000000000000000000083
:161d0d0000000000000000000000000000000000000000000000c0
:201d23000000000000c3002000000003c0048000000000000300000000000004000000303f
:201d4300050800000000000000000000000000000000000000000000000000000000000073
:171d6300000000000000000000000000000000000000000000000069
:201d7a00000000000c302000058006bc102000000000000000000000000000000000000076
:201d9a00000000000000000000000000000000000000000000000000000000000000000029
:161dba000000000000000000000000000000000000000000000013
:201dd0000000000000c3000000000003c0000000000000000000000000000000000000006d
:201df0000000000000000000000000000000000000000000000000000000000000000000d3
:171e10000000000000000000000000000000000000000000000000bb
:201e2700000000000c302000070e073c1000000000000000000000000000000000000000d7
:201e470000000000000000000000000000000000000000000000000000000000000000007b
:161e67000000000000000000000000000000000000000000000065
:201e7d000000000000c3000000000003c0800000000000000000000000000000000000003f
:201e9d00000000000000000000000000000000000000000000000000000000000000000025
:171ebd0000000000000000000000000000000000000000000000000e
:201ed400000000000c3020040380063c1000100000000000000000000000000100000000a8
:201ef40000000000000000000000000000001380000000000000000000000000000000003b
:161f140000000000000000000000000000000000000000000000b7
:201f2a000000000000c3000040080003c040018000000000000400000000000010000000f4
:201f4a000000000200000000000000000000008000000000000000000000000000000000f5
:171f6a00000000000000000000000000000000000000000000000060
:201f8100000000000c302000000000000000000000000000300071d7601500c000004000f7
:201fa100000000000000000000000000000000000000000000000000000000000000000020
:161fc100000000000000000000000000000000000000000000000a
:201fd7000000000000c300800000000000000000000000000000008d0c0142000000340097
:201ff7000000000000000000000000000000000000000000000000000000000000000000ca
:172017000000000000000000000000000000000000000000000000b2
:20202e00000000000c302104000a0000000410000000000000400008614100010000000028
:20204e0000000400000000000000000000000400000000000010000000000000400000001a
:16206e00000001000000000000000000000000000000000000005b
:202084000000000000c3002000010000000080000000000000040000942802001000000006
:2020a400000000400000000000000000000000400000000000000000000000000400000098
:1720c4000000001000000000000000000000000000000000000000f5
:2020db00010007a18c302000001a02bc1840014000000000000000100000000000000000df
:2020fb000000000000000000000000000000000000000000000000000000000000000000c5
:16211b0000000000000000000000000000000000000000000000ae
:202131000010003d50c3100000000043c0000008000000000000000e000000000000000005
:2021510000000000000000000000000000000000000000000000000000000000000000006e
:17217100000000000000000000000000000000000000000000000057
:202188000001e6c18c302380100007bc104000000000000038000080000000000000000055
:2021a800000000000000000000000000000000000000000000000000000000000000000017
:1621c8000000000000000000000000000000000000000000000001
:2021de000000027810c3002002000043c080000000000000020000000000000000400000ad
:2021fe000000000000000000000000000000000000000000000000000000000000000000c1
:17221e000000000000000000000000000000000000000000000000a9
:20223500000007c18c3021000001023c180000000000000010000003e01540000000000045
:202255000000000000000000000000000000000000000000000000000000000280000000e7
:162275000000000000000000000000000000000000000000000053
:20228b000000007c00c300200000a043c000000000000000010000000401400000000000eb
:2022ab00000000000000000000000000000000000000000000000000000000001000000003
:1722cb000000000000000000000000000000000000000000000000fc
:2022e2000100e781ac302040058006bc1000000000000000010000000000000000000000df
:202302000000000000000000000000000000000000000000000000000000000000000000bb
:1623220000000000000000000000000000000000000000000000a5
:202338000000024010c3000000000003c04004000000000000400000000000000000000029
:20235800000000000000000000000000000000000000000000000000000000000000000065
:1723780000000000000000000000000000000000000000000000004e
:20238f00000000008c3020000700033c10600000000000000000000000000000000000009c
:2023af0000000000000000000000000000000000000000000000000000000000000000000e
:1623cf0000000000000000000000000000000000000000000000f8
:2023e5000000000010c300800000b003c00000000000000000000000000000000000000012
:202405000000000000000000000000000000000000000000000000000000000000000000b7
:172425000000000000000000000000000000000000000000000000a0
:20243c0000000000ac302000000003bc100000000000000000127800000000000800000023
:20245c00000000000000000000000000000000000000000000000000000000000000000060
:16247c00000000000000000000000000000000000000000000004a
:202492000000000010c3000000000043c00000000000000000205080000000000140000023
:2024b20000000000000000000000000000000000000000000000000000000000000000000a
:1724d2000000000000000000000000000000000000000000000000f3
:2024e90000000000ac302000000a07bc124000000000000030000000000000000000000088
:202509000000100000000000000000000000000000000000000000000000000000000000a2
:16252900000000000000000000000000000000000000000000009c
:20253f000000000010c3008000010003c00000000000000000000000000000000000000065
:20255f0000000000000000000000000000000000000000000000000000000000000000005c
:17257f00000000000000000000000000000000000000000000000045
:20259600000000008c302100000a033c10400000000000000008000000000000080000009f
:2025b600000000000000000000000000000003800000000000000000000000000000000082
:1625d60000000000000000000000000000000000000000000000ef
:2025ec000000000010c3002000d10043c00000000000000000000000000000004340000085
:20260c000000000000000000000000000000000000000000000000000000000000000000ae
:17262c00000000000000000000000000000000000000000000000097
:202643000200001ccc3024000018ba7c0000000000000000000000000000000000000000eb
:20266300000000000000000000000000000000000000000000000000000000000000000057
:162683000000000000000000000000000000000000000000000041
:2026990000501c0140c30000000003743c01000000000000000000000000000000000000fd
:2026b900000000000000000000000000000000000000000000000000000000000000000001
:1726d9000000000000000000000000000000000000000000000000ea
:2026f0000000e01ecc30278025000000000e40800000000000000000000000000000000036
:2027100000000000000000000000000000000000000000000e00000000000000000000009b
:162730000000000000000000000000000000000000000000000093
:202746000000020010c300200500a00000008a1040000000000000000000000000000000ff
:202766000000000000000000000000000000000000000000008000000000000000000000d3
:1727860000000000000000000000000000000000000000000000003c
:20279d000003e00eac30210000000000000c00000000000000000000000000020000000020
:2027bd000000000000000000000000000000000000000000000000000000000000000000fc
:1627dd0000000000000000000000000000000000000000000000e6
:2027f30000003c0020c30020000000000000c0000000000000100000000000004000000077
:202813000000000000000000000000000000000000000000000000000000000000000000a5
:1728330000000000000000000000000000000000000000000000008e
:20284a000102074ecc302000050a03bc102c2e0000f8054001020000000000000000000082
:20286a00000000000000000000000000000010000000000000000e00000000000000000030
:16288a000000000000000000000000000000000000000000000038
:2028a00000002c7820c300000000b003c0000400000200500468400000000000000000001c
:2028c000000000000000000000000000000002800000000000000000000000000000000076
:1728e0000000000000000000000000000000000000000000000000e1
:2028f7000001e017ac3020000700b6d98400000000000000000000000000000000000000b3
:202917000000000000000000000000000000000000000000000000000000000000000000a0
:16293700000000000000000000000000000000000000000000008a
:20294d0000003c3c10c3000000000d69980000000000000000000000000000000000000011
:20296d0000000000000000000000000000000000000000000000000000000000000000004a
:17298d00000000000000000000000000000000000000000000000033
:2029a40000000205cc30202b858000000000000000000000010000000000000000000000bf
:2029c4000000000000000000000000000000000000000000000000001af0400000000000a9
:1629e40000000000000000000000000000000000000000000000dd
:2029fa0000003c2000c300800078e000000000000380000000200000000000000000000023
:202a1a00000000000000000000000000000000000000000000000000000f0000000000008d
:172a3a00000000000000000000000000000000000000000000000085
:202a510004000046ec302000018e832802000000780000000000000000000000000000002b
:202a7100000000000000000000000000000000000000000000000000000000000000000045
:162a9100000000000000000000000000000000000000000000002f
:202aa7000000043c10c30080000805014000000004000000000280000000000006000000a2
:202ac7000000000000000000000000000000000000000000000000000000000000000000ef
:172ae7000000000000000000000000000000000000000000000000d8
:202afe0000004797ec3021400000f6154200400000000000000000000000000000000000d0
:202b1e00000000000000000000000000000000000000000001000000000000000000000096
:162b3e000000000000000000000000000000000000000000000081
:202b54000000000030c30020280001f15400120000000000000000000000000000000000ce
:202b7400000000000000000000000000000000000000000000000000000000000000000041
:172b940000000000000000000000000000000000000000000000002a
:202bab00021000000c302400100000000000002001def34000000000000000000000000056
:202bcb000000000000000000000000000000000000000000000000000000000000000000ea
:162beb0000000000000000000000000000000000000000000000d4
:202c01000056800000c300000000000000000000403d8530040000000000000000000000e4
:202c210000000000000000000000000000000000000000000004000000000000000000008f
:172c410000000000000000000000000000000000000000000000007c
:202c5800000000000c30238000000000000e0000000000000000000000000000000000006f
:202c780000000000000000000000000000000000080000000e001400000000000000000012
:162c980000000000000000000000000000000000400000000000e6
:202cae000000000000c30020000000000000800000000000000000000000000000000000a3
:202cce00000000000000000000000000000000000000000000800000000000000000000066
:172cee00000000000000000000000000000000000a000000000000c5
:202d0500001000000c302128100073bc0010000000000000000000000000000000000000ca
:202d250000000000000000000000000000000000000000000000000018f040000000000046
:162d45000000000000000000000000000000000000000000000078
:202d5b000000800000c3002000000fb03c00000000000000000000000000000000000000fa
:202d7b00000000000000000000000000000000000000000000000000000f00000000000029
:172d9b00000000000000000000000000000000000000000000000021
:202db200000000000c3020000800000000000000000000000000000000000000000000009d
:202dd2000000000000000000000000000000000040000000000000000000000000000000a1
:162df20000000000000000000000000000000000000000000000cb
:202e08000000000000c3000028f0e0000000000000000000004000000000000000000000af
:202e280000000000000000000000000000000000000000000000000000000000000000008a
:172e4800000000000000000000000000000000000000000000000073
:202e5f00000000000c30200058007e9540100000000000000000000000000000000000003c
:202e7f00000000000000000000000000000000000000000000000000000000000000000033
:162e9f00000000000000000000000000000000000000000000001d
:202eb5000000000000c300000030e0c1540000000000000000000000000000000000000015
:202ed50000000000000000000000000000000000009000000000000000000000000000004d
:172ef5000000000000000000000000000000000000000000000000c6
:202f0c00000000000c302000000033a9488000200000000000000000000000000000000085
:202f2c00000000000000000000000000000000000000000000000000000000000000000085
:162f4c00000000000000000000000000000000000000000000006f
:202f62000000000000c30000000007c3c0000000c0000000000080000000000000000000c2
:202f820000000000000000000000000000000000000000000000000000000000000000002f
:172fa200000000000000000000000000000000000000000000000018
:202fb900000000000c302000000c06bc12100000200000000000000000000000000000008c
:202fd9000000000000000000000000000003000000763d40400000000000000000000000a2
:162ff90000000000000000000000000000000000000000000000c2
:20300f000080000000c300000090e003c0000002c400000000000000000000000000000065
:20302f0000000000000000000000000000001000008bc3c02400000000000000000000003f
:17304f0000000000000000000000000000000000000000000000006a
:20306600000000000c30210000018060420c000000000000000000000000000000000000be
:2030860000000000000000000000000000000000000000000000000000000000000000002a
:1630a6000000000000000000000000000000000000000000000014
:2030bc000000000000c3002000008d3d08005000038000000000000000000000000000006c
:2030dc000000000000000000000000000000000000000000000000000000000000000000d4
:1730fc000000000000000000000000000000000000000000000000bd
:20311300000000000c302000001800000000001e36180540000000e000000000020007fa94
:20313300440000000000000000000000000000000000000000000000000000000000000038
:163153000000000000000000000000000000000000000000000066
:203169000000000000c30000000000000000000023c400a01000001000000000000400696f
:20318900da880028000000000000000000000000000000000000000280000000000000001a
:1731a90000000000000000000000000000000000000000000000000f
:2031c000000000000c302380201c0000000e20240000000038000000000000e00003c000a7
:2031e00000038288000000000000000000000000000000000e0000000000000400000000b0
:1632000000000000000000000000000000000000000000000000b8
:203216000000000000c300200301000000008401c38000000200000000000008000074006b
:2032360000002000f0000000000000000000000000000000008000000000000000000000e8
:17325600000000000000000000000000000000000000000000000061
:20326d00000000000c302100200016280004000000580541100000e023c100000000000010
:20328d000000000000b3001820000000000000000000000000000000000000000000000036
:1632ad00000000000000000000000000000000000000000000000b
:2032c3000000000000c30020040000c2800140000002005003000000043c004000000000ac
:2032e300000000000001801420000000000000000000000000000000000000000000000016
:173303000000000000000000000000000000000000000000000000b3
:20331a00000000000c302000578006bc1820000022185060000000000000000a0000000072
:20333a000000038000000000000e00000000100000000000000000000000000002000000d0
:16335a00000000000000000000000000000000000000000000005d
:20337000000c000000c3000000080003c0000003c4050a000000000000000000400000008d
:2033900000000002000000000000000000000080000000000000000000000000005000004b
:1733b000000000000000000000000000000000000000000000000006
:2033c700000000000c30204000000000000c00000178054040000000000000000000000040
:2033e700000000038800000000000000000000000000000000000000000000000200000039
:1634070000000000000000000000000000000000000000000000af
:20341d000000400000c300000000000000000000000000500000000000000000000000003c
:20343d00000000000900000000000000000000000000000000004000000000000000000026
:17345d00000000000000000000000000000000000000000000000058
:20347400000000000c3020000000000000000000021a5040400000000000000000000000f0
:203494000000029000000000000000000000000000000000000c010008f040000000000041
:1634b4000000000000000000000000000000000000000000000002
:2034ca000000000000c30000000000000000004000050a00000000000000000000000000d0
:2034ea00000000000000000000000000000000000000000000000000010f000400000000ae
:17350a000000000000000000000000000000000000000000000000aa
:20352100000000000c30200000000000000000000058056000000000000000000000000071
:2035410000000000000000000000000000000000000000000000000000000000000000006a
:163561000000000000000000000000000000000000000000000054
:203577000000000000c3000000000000000000000000005000000000000000000000000021
:20359700000000000000000000000000000000000000000000000000000000000000000014
:1735b7000000000000000000000000000000000000000000000000fd
:2035ce00000000000c30210000000000000001000000000030000000000000c0020000008d
:2035ee000003000000000000000000000000000000000000000000000000000002000000b8
:16360e0000000000000000000000000000000000000000000000a6
:203624000000000000c300200000000000000008000000000200000000000008009c0000f5
:20364400000020000000000000000000000000000000000000000000000000000010000036
:1736640000000000000000000000000000000000000000000000004f
:20367b00000000000c302008a00006bc18100020036cf000800010092dd100040400000023
:20369b000000400000000000000000000000000000000000000020000000000000000000af
:1636bb0000000002000fea540000000000000000000000000000aa
:2036d1000000000000c3000100000003c0000003402480f0000000809214000080000000d5
:2036f1000000000000000000000000000000000000000000000001c00000000000000000f8
:1737110000000000040060f510000000000000000000000000000038
:20372800000000000c302380000003bc100e0000040cf0403800b001bd4101e8000000cfe6
:203748000603800000063c10000000000003c0000000000000000000000000380200000089
:163768000000e0000000000000000000000000000000000000006b
:20377e000000000000c3002000000043c060804003410f000610210c13388008400000007c
:20379e00f0102000b00003c000000000000020000000000000000000000000020050000006
:1737be000000080000000000000000000000000000000000000000ec
:2037d500000000000c3021000000073c1a04000070000000010080013dd1004200e04000b4
:2037f500000300000000000000000000000300000007bc10200000000000000000000000bb
:16381500000000000000000000000000000000000000000000009d
:20382b000000000000c3002001000043c00080400000000000280100f61400080002340065
:20384b0000003000000000000000000000001000000043c00000000000000000000000001a
:17386b00000000000000000000000000000000000000000000000046
:20388200000000000c302040080103bc1a0100600419e10088051809ba94000000005dca26
:2038a2005008100000000000000000000000000000000000000000004ca0000000000000b2
:1638c20000000000000000000000000000000000000000000000f0
:2038d8000000000000c300000050a003c0041001c3cdad20000000003c14000002003b401b
:2038f800f00000800000000000000000000000000000000000000000010a00100000000025
:17391800000000000000000000000000000000000000000000000098
:20392f00004000000c302000001c033c18000006057cf00200800011b840080002000faf9f
:20394f00022000000000000000000000000000000000000000000000000000000000000036
:16396f000000000000000000000000000000000000000000000042
:203985000000000000c3000000010043c001000003b600f20010000eb0000000003c015054
:2039a5000f00000000000000000000000000000000a00000000000038000000000000000d0
:1739c5000000000000000000000000000000000000000000000000eb
:2039dc00000000000c303000080e07bc1840a046001ef06000001007e9d108000a6001efa7
:2039fc00041000000000000000000000000000000000000001000000000000040000000092
:163a1c00000000000700000000000000000000000000000000008d
:203a32000000000000c3000000b00003c000040800010f000003000010280000037c001058
:203a5200f00000000000000000000000000000000000000000000000000000000000000064
:173a72000000000000400000000000000000000000000000000000fd
:203a8900002000000c302028538e06bc10200100017ca500000018f00000000000600faa62
:203aa900510000080803bc100000000000000000000000000000000000000000000017bafc
:163ac9008104000000000000000000000000000000000000000062
:203adf000000000000c3000201080043c001000000360f01800001180000000000000150c5
:203aff00f0000000300003c0000000000000000000000000000000000000000000000c0cac
:173b1f00280210000000000000000000000000000000000000000055
:203b3600000000000c3031000380073c102400003800000030007800000000400007800061
:203b5600000302800000000000000000000300000000000000040000000000300000000093
:163b76000000c00000000000000000000000000000000000000079
:203b8c000000000000c3002000080003c02180c00400000002120080000000084200000028
:203bac000000200000000000000000000000200000800000000000000000000200000d002a
:173bcc00000008001c000000000000000000000000000000000000be
:203be30001000001ec30200000005b65800000207800008000000000303c000800000000b8
:203c030000000000001e0288000000000000000001be7c880000002c00000000000000000a
:163c2300000000a0003415a80800000000000000000000000000f2
:203c39000010000150c300402000b9b6584000024000c000200000000003c000008000007b
:203c59000000000000008028800000000000000000872fc020000002800000000000090002
:173c79000000000000006800000000000000000000000000000000cc
:203c9000000000418c302380000006bc1000000038099688780000002bc100e00200018f6d
:203cb000040000079e0000000000000000038001000000000040800618f520380000a000fc
:163cd0000000008000168f080000000000000000000000000000b1
:203ce60000202c3800c3006000000043c04010400400f69002008000003c0008002c000008
:203d0600f000000000a00000000000000000200000000000000a10426c0fa0020000100064
:173d2600000000003400200f00000000000000000000000000000023
:203d3d000001e780ac302100070000000000015e04099680100031e0703c0040020341ef36
:203d5d000400000500000000000000000000000000bfb9500000000208f500000000bd6a4f
:163d7d0000000000001c8f08080000000000000000000000000075
:203d93000000006410c3006000000000000000000240d6908b0000900003c00c00bc3c10df
:203db300f0000000000000000000000000000000000b270000000000050fa01000001f3fac
:173dd300c0000000002c200f000000000000000000000000000000be
:203dea0001100000ac302020001b07784000000601e8f08801820000303c0000000000005c
:203e0a000000000000000000008040000000002019dfc0800c000000000000003881b56a9c
:163e2a008408000142968550000000000000000000000000000048
:203e40000000000010c300400000c36f48010000200200f0800040000403c000000000003b
:203e6000000000000000000000040800000000040083ac00004000000000000000010f3c77
:173e8000280000000240005500003800000000000000000000000034
:203e970000000000ec303000418c373c00c00020006996a002001810783c0000000000af73
:203eb700040000000a000000002000000003000000073cc2c0021c0000000000007003e084
:163ed700410800000000000000000000000000000000000000008c
:203eed000000000000c3000000d105803c000003c002a9600802800a0003c000000000102b
:203f0d00f0000000010000000000000000001000000043cc00000000000000000000009ce8
:173f2d000c2000000000000000000000000000000000000000000051
:203f4400001400018c3030280180033c18000080014896a000005980383c0000000041cf00
:203f640004000000000603c00040000000004383880000000000007068fa00000081803ad5
:163f840080000000000000000000000000000000000000000000a7
:203f9a000000800010c3000000009003c00000a00280b960802080000003c00000003410ff
:203fba00f00000000000403c400000000000000008f0000000000000030fa000200b00d492
:173fda001400000000000000000000000000000000000000000000bc
:203ff10004020001ec30200000003729404021607848968000005800703c0000000000af83
:2040110004002000000303c0000100000000000000dfa85000010000000000000000edeaf5
:1640310000080000004000000001800000000000000000000000b0
:2040470000401c0000c3000000000583c000040140028962800000000403c0000000000079
:20406700f00000000000403c4000080000000000000ba78800000c0000000000000000340b
:174087000000000000340000000000000000000000000000000000ee
:20409e0000020301ec30210000000000000000002dc8968030008008029500c000000000a5
:2040be0000000000000283c0000000000003000580df795000001e6bfe00003000000d2287
:1640de00850800000000000000000000000000000000000000003f
:2040f40000000c3010c3002000000000000000000282e96282000509f01680080040380018
:20411400000000000000003c4000000000002000f007ef00800000037ec20002000000bc88
:174134003442000000000000000000000000000000000000000000fe
:20414b000000000ecc302008400033fc00000000394896a000000180303c00000000418f3f
:20416b00040020000006bc100000000000000000185e3d40000100624ea7400004000de4be
:16418b00080000000000000000000000000000000014024e25404d
:2041a1000010803dd0c30000000003303c0100000402e9604000000f0003c00008003c1079
:2041c100f0000000000043c04000000000000000008043d48000000037e03084002000dbce
:1741e10041c000000000000000000000000000000000200dda50006f
:2041f8000000001eac3027800001073c10000016014996a03810000023c100e001e78000a8
:204218000003800001063c140000000000039020091a39500e0e0024000000000010a87adb
:164238008000e0c3c2000000038000007e01540e00000000000027
:20424e000000003c30c300200000d043c00400802002896002000f00043c00080000400006
:20426e000000200000f043c0000000000000228500e9f3000080000340000000000000b027
:17428e0014000800040000000020001403bc04008000000000000082
:2042a5000010079ecc30a100000073294000001c656896a030000000203c004001e00000ff
:2042c500000340000003bc100000000000000000003702800000000258f50040008013ba32
:1642e500800000014296d054000000015aa580000020034a020057
:2042fb0000003c4000c3002002700303c04000002640a960030000000403c004000200008d
:20431b0000003000000003c040000000000000000000c02800000000370f010000050f000c
:17433b00280000000002ce0200000000a0425800000042d6f000002f
:204352000100000dcc3024000000000000002226016896a002a8001063c10000000000afa9
:20437200040000000007bc10000000000000138800b3800080a020386ca540000001f33a8f
:1643920000080000000000000300580000000000201400dc7f7aa9
:2043a80000003c0020c3000000000000000004026000996000000009003c00000000000032
:2043c800f000000000e043c040000000000002001007400400040044260f500000051bd0a8
:1743e800000400003400000000100250000000000000200207f0907b
:2043ff000003e7d4ec30200001807ac00000000005c8f0a000001800683c00000000018f40
:20441f00040000000000000000000000000000098833a80000020001dba14030008000009e
:16443f0000000001e076d02400000180000000000000000000009b
:2044550000001c3c00c30080307007a7fc010000028000f0000000000403c0000000000028
:20447500f000000000000000000000000000000071004280400000c00cbd1001000b0a0015
:174495000000000000284e0500000000000000000000024000000053
:2044ac000001e005ec302002a00100000000002000c8f0a001008000000000000000000032
:2044cc0000000000000000000000000000000280087a38d080000000000000000031a00073
:1644ec0000000000001eb4041000000000000000000000000000d4
:2045020000003e0020c300800190900000000805c00200f000018500000000000000000092
:20452200000000380000000000000000000000000100438c00000000000000000010ca0097
:17454200000000000000daa0000000000000000000014000000000a7
:204559000211c017ec302000090007a80040003e01e8f0a0000081c0383c000000000000b8
:20457900000000880e0000000000000000030020080000000c021c061aa0000000b0056062
:164599002800c00000078f50000000000000000000003c00000002
:2045af0000001c0010c3008000d0074140000001600000f0000005000003c000020000000a
:2045cf0000000000b1000000000000000000100501800000004002e3b40500800003000420
:1745ef0002804400000010f500400000900000000000020000000018
:204606000003c786cc30210180010000000040a000e8aa2030000000703c00c00000000077
:2046260000034000080000000000000000030381800000000c008061ece342008051eb7bed
:16464600e00800c1c01eb4040000101e0000000060000000000091
:20465c0000003c7c20c308208000b0000000001140000aa0020000000003c0080000000083
:20467c00000024300100000000000000000020009000000000801000020e30001000105ccd
:17469c003e8000000000caa0000002010000000006000000000000d6
:2046b300000000000c302003801c02bc182040800601810000000007840200000000000021
:2046d30000000000000000000000000000000000000000000000000078a00000005000005f
:1646f30000000014000000000000000000000000000000e100803c
:204709000010000000c3008000010043c0000014022cf4201000070e03c0000000000000fb
:20472900000000003000000000000000000000000000000000000000020a01000000000033
:174749000000000080000000000000000000000000014002e00000b6
:20476000000000000c3023800001000000000100025efe22380079f7a25b000010000eca4b
:20478000000000000800000000000000000000510a000000000415297cf500380010a0001b
:1647a0000000e00002aeef5200002000f382800e00000048f08057
:2047b6000000000000c300203800f00000000008000e0ff00200000b03a58400808000008a
:2047d600a00100000000000000000000000000020100000000000020030f50160000100077
:1747f600000008003c624c7a004004000b4000048000000000f0003d
:20480d00000000000c302100238100000000000000cc8020300000e1a25b00000000000010
:20482d0000000000000000000000000000002000008728040000800000000000000181e0b6
:16484d003c000000602dc500000000000000000000006548f0c06a
:204863000000000000c300200008f00000000000000ed000000003000be5804000000000c9
:2048830000000000000000000000000000000000000501400000100000000000000000d8e7
:1748a300014000000203e0f001000000000000000000020200f000f3
:2048ba00000000000c302000000000000001214000dc0a0000008001a65b800000400daa41
:2048da0000080058009029400000000000000005000000000000007800000000021985fa4e
:1648fa00f1080009403f80e0001000000000000002060548f0c0b2
:204910000000000000c300000000000000000448000200a000000f000aa580000000002078
:20493000a0000002700903fc00000000000000000000000000000000000000000040901469
:174950003f0000014000fd0f00028000000000000000020200f0004e
:2049670000c000000c302000000000000000001429fc400300001003265b040000004000c0
:2049870000004000001ebd404000000000030000001e3d40000400000000003000000000a3
:1649a7000000000062a6c0000000000000000000000001e8f0e079
:2049bd000000000000c300000000000000000001429f000000000080036580400004380051
:2049dd0000000000000083d40000000000001000000083d48100400000000001000000003a
:1749fd00000000002e2d6f0400000000000000000000000000f000e5
:204a1400000000000c3020005000063c14400016640e0a0000007815225b800a0200000018
:204a3400000000000000000000000000000000050000000000000004000000000058a00061
:164a54000000c001c02cc4043008000c0000000000006968f0c012
:204a6a000000000000c3000282000043c000004142bd00500000000e0aa58040001c0000b9
:204a8a000000000000000000000000000000000000000000000000034000000003000000c6
:174aaa00000004008e01e0a008010000000000000000000000f000e9
:204ac100000800000c3020000000023c14204c166efe0203000080e1a25b000000000000ce
:204ae1000003000000000000000000000000000000000000000000000000000000000000b2
:164b010000000a03c7beed041000030c0000000000000168f0c0e3
:204b17000001000000c3000000000043c020000002bc000000000f000265820006000000db
:204b37000000100a0000000000002000000000000000000000000000000000000000000024
:174b57000000000024006af000000008000000000000000200f000cf
:204b6e00000000000c302120400002bc1040003c68dc080030007081265b0000140000001e
:204b8e00000020400000000000014000000000000000000000000000000000030200adefc5
:164bae000404000003c00000000000000000000000b661e8f0c077
:204bc4000000000000c3002128000003c0800001420dd000020009800325804000000000ef
:204be400000001020000000000000800000000000000000000000000000000000000003b6b
:174c0400700000003c78000000000000000000000000400200f00043
:204c1b00000000000c30200001893eb89800001e3d40008000000003a65b0000000000af37
:204c3b000400000000063c1400000000000008000083a800000000040000000080198000af
:164c5b00000000000035d0d200000800bb280000000001c8f0c008
:204c71000000000000c3000000f5e7339c200003c780b000000003000a258500008038101c
:204c9100f0104000000043c004000000000000000007414000000003c000000012800000df
:174cb1000000000024017d0c00400014018000000000000000f04039
:204cc800000000000c3023800801f63890002016044996a03a100015a65b00e00000000a23
:204ce800540388481e02bc140000000000000001008039c08e04a06a5ea1603880180564e7
:164d08000500e08240000000039388000388508e000001c8f0c0ee
:204d1e000000000000c300201810e3636c820443e382896012000b0d0be584084a0000c0f1
:204d3e005a102000f00003c000000000000000000001036c208005c01fee20021000881f5d
:174d5e0040c0080006380000002080100b0048008000000000f00085
:204d7500000000000c30202b8d003b38920000bc696896a030b88007a25b004001e600cfe0
:204d95000403000f8102bc1000000000000000000000000000002003d8f540000018af653d
:164db5001c010000000dc00000000000fb80000000006548f0c026
:204dcb000000000000c30000007807379c010051e7c0a96000000f0e0325840c40007c1010
:204deb00f010110070e043c0400000000000000000000000000021400f0f0000000000bbca
:174e0b0016c000000039e00500000000038280200000020200f00083
:204e2200000000000c3020405801f2789a000120386896a001050081a25b000240e001af2a
:204e4200040000000080295000000000000000000000000000400000000000010080173447
:164e620005a000d5407f80e00003080113c8580000060548f0c05f
:204e78004000000000c300040070f36f6c000009c402996000200f000be584004002000028
:204e9800f0100008000f0168400000000000000000000000000a0000000000002801089768
:174eb80096c000009429ec0f00000050fb2d08000000020200f00061
:204ecf00000000000c3020000f013af89200000001e896a002009005225b8100004780ef29
:204eef00060000000103bc18000000000003000000063c0400000004000000000038e368f5
:164f0f00c1060000e79ec18430000799b3581000000001e8f0c077
:204f25000000000000c30000001887239c2000000002896000100f000a258000000440002e
:204f4500f000000200d003c00000000000001000000003c0000000124000000000008bbb5c
:174f6500ac4200000240602000400001ff6300000000000000f000f2
:204f7c00000000000c302004011900000000000101689680000001c7a65b0400d40000afcb
:204f9c000600000000063c1000000000000000000000000000200061f8a0413002819fe011
:164fbc001800000be64faa000010031f000000000e000168f0c084
:204fd2000000000000c3000040908000000000000002b9601000000002a5800000800000da
:204ff200f0000280000003c0400000000000000000000000000023c0000a021100030ade3f
:17501200028000017c23400000008039900000000000000000f000ec
:20502900000000000c30200007801768d4200000004996800044000523c200000000000a7a
:20504900560000000002bc1000000000000000000100000000002007eaf5408100180763d9
:165069000d080001e0378084200001803ed4800000260168f0c08e
:20507f000000000000c30000000001b40c000000000089601000200f003c001000a400c0b5
:20509f005a000100700003c0400000000000000000a00000000009c20e0f000008008858b3
:1750bf0010c0400002026005090000300b37cc010000400200f000e7
:2050d600000000000c3023040700faf8982021003de8f0803140701023c204c30000008fc4
:2050f600040304000807bc1000000000000004859a7fa8000c508e26dca540017081800225
:165116009542010063bfdc340014001e00000000102061e8f0c01e
:20512c000000000000c300100000033604000448078200f0120d8f0f033c0008100000106a
:20514c00f0802040009043c2000000000000004000008280008b12462e0f50000c070030e9
:17516c001682001024645ae30800c001c00000000000400200f00004
:20518300000000000000000005001668100080006549968040000007a3c200000200000087
:2051a300000000000006028000000000000040000000000000000024000000000070000090
:1651c300000000000600000000000000533c3000000001c8f0c098
:2051d900000000000000000000080739800100000380c96050000008003c01004024000048
:2051f90000000000000d0014040000000000041000000000000001c6000000000000000096
:17521900000000000000000000000000007c3c000000000000f04096
:2052300000000000000003800901bb3c400e020000080f0038000007a3c2000002060000c7
:2052500000000005000000000000000000038000000000000e0084784e5048b80078172d52
:165270001544e0020000000003a80800723c300e408001c8f0c015
:20528600400000000000002000b8c732c0008000000000f012010000003c0040003c4000bc
:2052a6000000000008000000000000000000200000f0000000840007f69e2112000089d61f
:1752c600a1401840040000000020003000003c008214000000f00082
:2052dd000020000000000100080e773f9884200021e80f0030000003a3c2020000038ea5a0
:2052fd00500000000800000000000000000300500000000000002e6578f500000001dde325
:16531d00c0010000401daf5000100819523c300000006548f0c011
:2053330000080000000000300010e303d0004403c42d00f008008000083c000000144040d4
:20535300aa00000000000000000000000000100000000000000003f3470a500000001a7857
:175373003d4000000028cdb52102801080803c000000020200f00019
:20538a000000000000000000500a063840000000000af0480000000123c200000002800081
:2053aa0000000000000000000080400000004000000000000040003c6a746a80008000001f
:1653ca0000000400001eaa1420038181523c300080200148f0c869
:2053e00000000000000000000001ed6b4801000000010f0080001000083c00000000000027
:20540000000000000000000000000800000004000000000000020007770a0090000f0e0049
:17542000000000001402407a0000180080803c000000400200f0001f
:20543700000000000000000403805bbc00800000040000000000780323c200010000218f22
:2054570052000003800000000000400000000000010000000c03403ad8fa2100000017721a
:16547700800000000014fc740003800a7a3c3000000001685540aa
:20548d00000000000000000000588bc03c0400000200000000000000003c00400200035049
:2054ad00fa00000008000000000000000000000000c00000004000042e0f000000000f008d
:1754cd00280400003c3d78c21000000100003c0000600000055000e7
:2054e4000000000000000000070003784040000000000000000800e021550400144021aa25
:20550400a01000080000000000000000000000000000000000000001faaa0000003991b1af
:165524006800004006400000000010005a3c3000000000000000ad
:20553a00000000000000000040580f6f480100a3c000000000000000302a800010820250d1
:20555a0055000000b000000000000000000000100000000000000003c30aa200000f8afe13
:17557a00068020802c2000000000000000003c000004000000000068
:2055910002000000000000100981d2fc0000b0000000000000400000000000080000000098
:2055b10000002000401b440000000000000000000000000000000600000000000019a579de
:1655d1004146000003defc740013018a5a3c300000260000000062
:2055e700000000000000000280b0896c3c0100000000000000000000000000004000000000
:2056070000000000000d30000000800000000000000000000000000000000000010908dfd5
:17562700f880000024217dc20000000100803c000000400000000073
:20563e00000000000000016c0f0eff20000c10000000000030403800000000010000158a3f
:20565e00a010040000000000000200000003140000063c100010007148014080453013f506
:16567e000986c100401cbc36010718187a3c30001000000000004a
:205694000000000000000010407907b0000081a3c0000000020409800000000014000020cf
:2056b400aa0000400000000000000000000022c4000043c00101c00435aa7014040008d7f7
:1756d40068000410023bede20010401000803c000300000000000018
:2056eb0000000000000000000d0093705000408002cea501000070afa9d10000000014104c
:20570b00080000080053f9d420000000000000000103bc1001002001eec740000000000047
:16572b00000000000047a08000000000723c3000000070000000b3
:2057410000000000000000002070072600200a100035e7f004000509fab444400000202cb5
:205761000000010010b1ab88000000000000000000b003c021100042278c100000000a0080
:17578100000000000020ce000000000000003c1000000000000000d7
:2057980000000000000003800000db29400e002601cd00003800800db9d100e0400004991c
:2057b8006c0b80000000000000000000000380080003bc100e0000054fe5400000000000f9
:1657d8000000e0206047c0a003800000723c300e002020f8a0006d
:2057ee0000000000000000200090e581540080a1e02fe08002000109f23880080040002e75
:20580e0096002000000000000000000000002000700003c0218001423cf850000000000009
:17582e00000008000226e0000020000000003c008007c2c20a0000e2
:2058450000000000000001000d0e172858840e0e786ef8424000901fa9d100400000168988
:205865006c0000000100000000000000000100000103bc1200000661efc740000071d578c8
:16588500000000c2003ea1a020000019523c3000000000000000d5
:20589b000000000000000030001101000800c00024010f80100001887f3440000000280972
:2058bb009601000000f00000000000000000100000f043c0240000002fcc101000001b5c8d
:1758db00014000000403405a0000000080803c000000000000000098
:2058f2000000000000000000080a73bc0000800e23cc0a0000023809211d000004078c991d
:205912006c0003831c00000000000000000000000e03bc1200a006015de54000000008292e
:1659320000000002062fe1a020000199523c30000140600000008e
:20594800000000000000000000b005403c040000041f00000000008ff774400000a4400abf
:205968009601000071a000000000000000000000010043c0220400003ff85000000000f2d4
:17598800e00000002442f0050000000080803c000000000000000091
:20599f000000000000000000098037e8180000062fcce50202800187a51d000002005c898d
:2059bf006c1000000000000000000000000000000002bc18000080040000000800000000ea
:1659df000000000206acf3e0000000007a3c3000000003df000162
:2059f5000000000000000001805005798000000002b705a080100300fe388000000c382cac
:205a150096004000000000000000000000000000000043c0600014028000000000000000a2
:175a3500000000001400fe3c0002000400003c000000001d904000dd
:205a4c000000000000000010070073a94000000e035a8502000010082280000000000c8986
:205a6c006d00281180da431000000000000010000007bc10000220057fe5400000000828e9
:165a8c00800000e2067e8240000300005a3c300000000000000093
:205aa200000000000000000200780543c000000020040da00020038874140010a03c002f43
:205ac200960041000093ec220000000000000080000003c02400a2c2bcf85000000000f28b
:175ae200c4000000142bfe200800000000003c0000000280000000c6
:205af90000000000000000000d8cfbbc00800e1c68fef1020038188bea80000800001c8948
:205b19006c18000000dfa950200000000000000d9b07bc1060001e69efc74000000005781b
:165b390000000003605df1a1001009805a3c300c000002580f0030
:205b4f00000000000000000000d803003c00000022010f1290000000943c0020403c3c0d96
:205b6f0096000000900b4280010000000000000050a043c0200000023f9c10000000005cc6
:175b8f00280000001c2a5f180900801000803c0040034037005000bb
:205ba60000000000000001200f0007784004a0200200e702340591ebf3d400c00000168966
:205bc6006c1b30000100000000000000000100058106bc10240a1600000000000000112b2e
:165be600d440c40366e0081483000b805a155000000e047ebd430f
:205bfc0000000000000000113818f73b4800400143cc0db202400d08382800480c3c002e2a
:205c1c009600202800800000000000000000100000a043c0244000024000000000000c0c99
:175c3c003d400820042ace4280300018008154000000235e07c00089
:205c530000000000000000100001331580000e0070600080000051d76420800000001c9919
:205c73006e0000080000000000000000000000000003bc1000000004000000000001800047
:165c93000000000000218f820800001e9ebd1000000062615a809b
:205ca90000000000000000008000df3fcc0100000002a0000000001dd64000000000000c8f
:205cc90096040002b0b000000000000000000000000043c004000003c000000000000000f5
:175ce9000000000000014cf400400001012fc020000000249000104e
:205d000000000000000000000000d255400e001e70c896c0b800b8e8020408e00000008f8d
:205d20000407804501000000000000000003801000073c100e000000000000380200000064
:165d400000000000430ce00003800d9adb78020e001468099680f6
:205d56000000000000000000000005ed540180000002f9600600019f50108048000000003d
:205d7600f0002000008000000000000000002000000003c0048000000000000200410000d3
:175d9600000000000001f0a0002000300bbf0024800162c0d690001e
:205dad000000000000000000001e7b55400c0e1c38c8f0a0008001e0000000480000000039
:205dcd0000000007805f280000000000000300000006bc10040000000000000000000000cf
:165ded0000000001e00ce5000400080892a8080000200068f08080
:205e0300000000000000000000100fbaa840000020020f0000038000000000000001000009
:205e23000000000000f323800000000000003000000043c0044000038000000002000000cd
:175e4300000000000202e000000000d1038000240002c00200f00038
:205e5a00000000000000002000003ba94800003c71e996c0000018fde020000000000000db
:205e7a00000000080077a800000000000000000000000000000000000000003003700773c4
:165e9a001d200000e28ce0000000081800000000000000e855000a
:205eb00000000000000000010010ef03c00000014400f96004010f08d20000000000000083
:205ed000000000001000c28000000000000000000080000000000000000000010000803a25
:175ef000704000003c7df005080000900000000000600002055000ee
:205f07000000000000000000059ab2bc0080008064e996c000000089359500000000000077
:205f27000000000f9e9b200080000000000000801e033c10200000000000000000580ff30b
:165f47009500c0020280000000000801000000000006007ca00040
:205f5d00000000000000000000090f803c0000100642a96004000b001f5a800000000000e7
:205f7d0000000000f00b40000000000000000000008043c00000000000000000000100370e
:175f9d00e14204001428000000000010a0000000000000030a0010bd
:205fb40000000000000000000d80000000002000616996c1000000016dd1000014000000ac
:205fd4000000000180522000400000000000010700073c1020000000000000000000a0005f
:165ff4000000080006a1b8000000001a9fa80000008064000000eb
:20600a00000000000000000400dc0000000000000402896004000008ba388000003c0000ed
:20602a000000000000ff70000000000000000200b88043c0000000000000000000010000a9
:17604a00000000400002da40008028f0094168000000020000000097
:206061000000000000000000030d3f95401000007c4896c0800000036dd10000020000000e
:20608100000000200fdaa858800000000000000008073c10200000000af041000001e000df
:1660a1000000000002978500100000000000000000007149406061
:2060b70000000000000000000000b96d540000000342b960040009003ef44000001c000056
:2060d7000000000500e943442000000000000000008003c000000000010f00000180000040
:1760f700000000001401700000000090000000000000003d8a008036
:20610e00200000000000000005890000000c000605c996c070050000000000c00000000058
:20612e00000300200e00000000000000000310a000033c104c0000000000001300800363d9
:16614e00d4000000002db0a00000078b7b5010200000006e0540aa
:2061640000000000000000000008b000000080602242a962020020000000000800000000ea
:2061840000002000010000000000000000002000000043c20280400000000003038100006c
:1761a4003d4040000002ca4a00000109a76a80000000000da02000a9
:2061bb001000000000000000000000000000002e044996c0000058000000000008000780fc
:2061db005500000040000000000000000000000000073c102000000018f040000000000054
:1661fb000000001000000000000008003e11924000000000000055
:2062110001000000000000000000000000000003e3c0e960500000000000000001400010dc
:206231000500000000000000000000000000000000e043c004000000010f00100000000041
:176251000000000080000000000000100be1080000000000000000b2
:20626800000000000000038000000000000e000e00c896c07800800dbf4c00e001c20000a6
:20628800000000010000000000000000000380000003bc100e00007000a5400000000f2809
:1662a80028200000000000000380059a0000000e0006040000005e
:2062be00000000000000002000100000000080000000e96002000500d77cc0180000000095
:2062de0000000000000000000000000000002000000043c00080a0000c05a010400000b8a4
:1762fe000000000000000000002000000000000080000340000000a6
:20631500000000000000030020000000000c002e71e896c0000000117ad508c00000000034
:2063350000000000007f280000000000000100000803bc100c00807000a5408000700000f8
:16635500000000000000000000000018f6101240000000000000c2
:20636b0000000000000000100400000000000000c402b9601000000ab02e820400000000a1
:20638b00000000000000c2800000000000001000000043c000c010002c05a000000080007c
:1763ab0000000000000000000000000005ac94000001c000000000d5
:2063c20000000000000003000780000000000004016896c0000058100000000008000000fe
:2063e200000000000000000000000000000000000080295000000e001af04000000000004a
:1664020000000000029cc0008000050056c1124000000400000034
:20641800000000000000000000080000000000000000a9601000000a000000000000000039
:2064380000000000000000000000000000000000b003016800002020000f001000000000c9
:17645800000000000003e0500000000007b41c0000080340000000d8
:20646f001000000000000003800100000000002e20c996c0000000192c20040a0000000099
:20648f000003000000fe3c0000000000000000001e033c10000004200cf040008000000063
:1664af0000000002000000000000000000000000000001f8960046
:2064c50001000000000000000000d000000000036400c9601000000817c000000000240043
:2064e5000000100000073fe00000000000000000000043c000000002010f00040000000048
:17650500000000001400000000000000e00000000000000209600020
:20651c00000000000000000000005e0154000000384996c1400000a00000000008000000ec
:20653c00000000000e00000000000000000010811e02bc10000000000af040800000e0001a
:16655c00000000000016ca0000000018000000000000046e40423d
:206572000000000000000000000000001400000040028960000003100000000000000000b7
:2065920000000000010000000000000000000000000043c000000000010f000000000000d5
:1765b20000000000000020a0000000010000000000000216042000d5
:2065c9000000000000000000000000000000000000e896c0800000e0000000c0080000004c
:2065e900000000001a00000000000000000000000d06bc10000000200ef0410000008000ba
:166609000000000006c000000000080100000000001c035a0240f1
:20661f0000000000000000000000000000000000c0028960040000000000000001000000ab
:20663f000000000001000000000000000000000001e003c000000240000f00000000100035
:17665f00000000000028000000000010800000000000002de050000f
:20667600000000000000000000000000000c001c054896c130800180000000000000000007
:20669600000008010000000000000000000300000807bc104c000c001ef041021200000042
:1666b60000000000001cca000300000000000000000004000000e1
:2066cc000000000000000000000000000000800022c0d960011005100000000000000000ed
:2066ec0000000100d0f000000000000000002000010043c202800000000f0880000000008e
:17670c00000000000003e00000200000000000000000020000000071
