:02000000ff00ff
:080002004c6174746963650030
:17000a00694345637562653220323031372e30382e32373934300069
:15002100506172743a2069434534305550354b2d53473438002c
:1a003600446174653a204d6172203820323031392031393a35393a3337009e
:0200500000ffaf
:040052007eaa997e6b
:02005600510057
:020058000105a0
:03005a00920020f1
:03005d006202b389
:03006000720150da
:0300630082000018
:02006600110087
:02006800010194
:20006a00000000000000000000000010000000000000400000000000010000000000000421
:20008a000000000000001000000000000040000000001000000000000040000000000001b5
:1600aa0000000000000004000000000000100000000000004000ec
:2000c0000000000000000000000000020000000000000800000000000020000000000000f6
:2000e00080000000000002000000000000080000000002000000000000080000000000006c
:1701000020000000000000800000000000020000000000000800003e
:200117000000000000000000000000000000000000000000000000000000000000000000c8
:200137000000000000000000000000000000000000000000000000000000000000000000a8
:160157000000000000000000000000000000000000000000000092
:20016d00000000000000000000000000000000000000000000000000000000000000000072
:20018d00000000000000000000000000000000000000000000000000000000000000000052
:1701ad0000000000000000000000000000000000000000000000003b
:2001c40000000000000000000000000000000000000000000000000000000000000000001b
:2001e4000000000000000000000000000000000000000000000000000000000000000000fb
:1602040000000000000000000000000000000000000000000000e4
:20021a000000000000000000000000000000000000000000000000000000000000000000c4
:20023a000000000000000000000000000000000000000000000000000000000000000000a4
:17025a0000000000000000000000000000000000000000000000008d
:2002710000000000000000000000000000000000000000000000000000000000000000006d
:2002910000000000000000000000000000000000000000000000000000000000000000004d
:1602b10000000000000000000000000000000000000d000000002a
:2002c700000000000000000000000000000000000000000000000000000000000000000017
:2002e7000000000000000000000000000000000000000000000000000000000000000000f7
:1703070000000000000000000000000000000000000080000000005f
:20031e000000000000000000000000000000000000000000000000000000000000000000bf
:20033e0000000000000000000000000000000000000000000000000000000000000000009f
:16035e000000000000000000000000000000000000000000000089
:20037400000000000000000000000000000000000000000000000000000000000000000069
:20039400000000000000000000000000000000000000000000000000000000000000000049
:1703b400000000000000000000000000000000000000000000000032
:2003cb00000000000000000000000000000000000000000000000000000000000000000012
:2003eb000000000000000000000000000000000000000000000000000000000000000000f2
:16040b00000000000000000000000000000000000000000080005b
:200421000000000000000000000000000000000000000000000000000000000000000000bb
:2004410000000000000000000000000000000000000000000000000000000000000000009b
:17046100000000000000000000000000000000000000000004000080
:20047800000000000000000000000000000000000000000000000000000000000000000064
:20049800000000000000000000000000000000000000000000000000000000000000000044
:1604b800000000000000000000000000000000000000000000002e
:2004ce0000000000000000000000000000000000000000000000000000000000000000000e
:2004ee000000000000000000000000000000000000000000000000000000000000000000ee
:17050e000000000000000000000000000000000000000000000000d6
:200525000000000000000000000000000000000000000000000000000000000000000000b6
:20054500000000000000000000000000000000000000000000000000000000000000000096
:160565000000000000000000000000000000000000000000000080
:20057b00000000000000000000000000000000000000000000000000000000000000000060
:20059b00000000000000000000000000000000000000000000000000000000000000000040
:1705bb00000000000000000000000000000000000000000000000029
:2005d200000000000c302000000000000000000000000000000000000000000000000000ad
:2005f2000000000000000000000000000000000000000000000000000000000000000000e9
:1606120000000000000000000000000000000001000000000000d1
:200628000000000000c30000000000000000000000000000000000000000000000000000ef
:20064800000000000000000000000000000000000000000000000000000000000000000092
:1706680000000000000000000000000000000000000000000000007b
:20067f00000000000c302000000000000000000000000000000000000000000000000000ff
:20069f0000000000000000000000000000000000000000000000000000000000000000003b
:1606bf000000000000000000000000000000000000000000000025
:2006d5000000000000c3000000000000000000000000000000000000000000000000000042
:2006f5000000000000000000000000000000000000000000000000000000000000000000e5
:170715000000000000000000000000000000000000000000000000cd
:20072c00000000000c30200000000000000000000000000000000000000000000000000051
:20074c0000000000000000000000000000000000000000000000000000000000000000008d
:16076c000000000000000000000000000000000000000000000077
:200782000000000000c3000000000000000000000000000000000000000000000000000094
:2007a200000000000000000000000000000000000000000000000000000000000000000037
:1707c200000000000000000000000000000000000000000000000020
:2007d900000000000c302000000000000000000000000000000000000000000000000000a4
:2007f9000000000000000000000000000000000000000000000000000000000000000000e0
:1608190000000000000000000000000000000000000000000000c9
:20082f000000000000c30000000000000000000000000000000000000000000000000000e6
:20084f00000000000000000000000000000000000000000000000000000000000000000089
:17086f00000000000000000000000000000000000000000000000072
:20088600000000000c302000000000000000000000000000000000000000000000000000f6
:2008a600000000000000000000000000000000000000000000000000000000000000000032
:1608c600000000000000000000000000000000000000000000001c
:2008dc000000000000c3000000000000000000000000000000000000000000000000000039
:2008fc000000000000000000000000000000000000000000000000000000000000000000dc
:17091c000000000000000000000000000000000000000000000000c4
:20093300000000000c30200000000000000000000000000000000000000000000000000048
:20095300000000000000000000000000000000000000000000000000000000000000000084
:16097300000000000000000000000000000000000000000000006e
:200989000000000000c300000000000000000000000000000000000000000000000000008b
:2009a90000000000000000000000000000000000000000000000000000000000000000002e
:1709c900000000000000000000000000000000000000000000000017
:2009e000000000000c3020000000000000000000000000000000000000000000000000009b
:200a00000000000000000000000000000000000000000000000000000000000000000000d6
:160a200000000000000000000000000000000000000000000000c0
:200a36000000000000c30000000000000000000000000000000000000000000000000000dd
:200a5600000000000000000000000000000000000000000000000000000000000000000080
:170a7600000000000000000000000000000000000000000000000069
:200a8d00000000000c302000000000000000000000000000000000000000000000000000ed
:200aad00000000000000000000000000000000000000000000000000000000000000000029
:160acd000000000000000000000000000000000000000000000013
:200ae3000000000000c3000000000000000000000000000000000000000000000000000030
:200b03000000000000000000000000000000000000000000000000000000000000000000d2
:170b23000000000000000000000000000000000000000000000000bb
:200b3a00000000000c3020000000000000000000000000000000000000000000000000003f
:200b5a0000000000000000000000000000000000000000000000000000000000000000007b
:160b7a000000000000000000000000000000000000000000000065
:200b90000000000000c3000000000000000000000000000000000000000000000000000082
:200bb000000000000000000000000000000000000000000000000000000000000000000025
:170bd00000000000000000000000000000000000000000000000000e
:200be700000000000c30200000000000000000000000000000000000000000000000000092
:200c07000000000000000000000000000000000000000000000000000000000000000000cd
:160c270000000000000000000000000000000000000000000000b7
:200c3d000000000000c30000000000000000000000000000000000000000000000000000d4
:200c5d00000000000000000000000000000000000000000000000000000000000000000077
:170c7d00000000000000000000000000000000000000000000000060
:200c9400000000000c302000000000000000000000000000000000000000000000000000e4
:200cb400000000000000000000000000000000000000000000000000000000000000000020
:160cd400000000000000000000000000000000000000000000000a
:200cea000000000000c3000000000000000000000000000000000000000000000000000027
:200d0a000000000000000000000000000000000000000000000000000000000000000000c9
:170d2a000000000000000000000000000000000000000000000000b2
:200d4100000000000c30200000000000000000000000000000000000000000000000000036
:200d6100000000000000000000000000000000000000000000000000000000000000000072
:160d8100000000000000000000000000000000000000000000005c
:200d97000000000000c3000000000000000000000000000000000000000000000000000079
:200db70000000000000000000000000000000000000000000000000000000000000000001c
:170dd700000000000000000000000000000000000000000000000005
:200dee00000000000c30200000000000000000000000000000000000000000000000000089
:200e0e000000000000000000000000000000000000000000000000000000000000000000c4
:160e2e0000000000000000000000000000000000000000000000ae
:200e44000000000000c30000000000000000000000000000000000000000000000000000cb
:200e640000000000000000000000000000000000000000000000000000000000000000006e
:170e8400000000000000000000000000000000000000000000000057
:200e9b00000000000c302000000000000000000000000000000000000000000000000000db
:200ebb00000000000000000000000000000000000000000000000000000000000000000017
:160edb000000000000000000000000000000000000000000000001
:200ef1000000000000c300000000000000000000000000000000000000000000000000001e
:200f11000000000000000000000000000000000000000000000000000000000000000000c0
:170f31000000000000000000000000000000000000000000000000a9
:200f4800000000000c3020000000000000000000000000000000000000000000000000002d
:200f6800000000000000000000000000000000000000000000000000000000000000000069
:160f88000000000000000000000000000000000000000000000053
:200f9e000000000000c3000000000000000000000000000000000000000000000000000070
:200fbe00000000000000000000000000000000000000000000000000000000000000000013
:170fde000000000000000000000000000000000000000000000000fc
:200ff500000000000c30200000000000000000000000000000000000000000000000000080
:201015000000000000000000000000000000000000000000000000000000000000000000bb
:1610350000000000000000000000000000000000000000000000a5
:20104b000000000000c30000000000000000000000000000000000000000000000000000c2
:20106b00000000000000000000000000000000000000000000000000000000000000000065
:17108b0000000000000000000000000000000000000000000000004e
:2010a200000000000c302000000000000000000000000000000000000000000000000000d2
:2010c20000000000000000000000000000000000000000000000000000000000000000000e
:1610e20000000000000000000000000000000000000000000000f8
:2010f8000000000000c3000000000000000000000000000000000000000000000000000015
:201118000000000000000000000000000000000000000000000000000000000000000000b7
:171138000000000000000000000000000000000000000000000000a0
:20114f00000000000c30200000000000000000000000000000000000000000000000000024
:20116f00000000000000000000000000000000000000000000000000000000000000000060
:16118f00000000000000000000000000000000000000000000004a
:2011a5000000000000c3000000000000000000000000000000000000000000000000000067
:2011c50000000000000000000000000000000000000000000000000000000000000000000a
:1711e5000000000000000000000000000000000000000000000000f3
:2011fc00000000000c30200000000000000000000000000000000000000000000000000077
:20121c000000000000000000000000000000000000000000000000000000000000000000b2
:16123c00000000000000000000000000000000000000000000009c
:201252000000000000c30000000000000000000000000000000000000000000000000000b9
:2012720000000000000000000000000000000000000000000000000000000000000000005c
:17129200000000000000000000000000000000000000000000000045
:2012a900000000000c302000000000000000000000000000000000000000000000000000c9
:2012c900000000000000000000000000000000000000000000000000000000000000000005
:1612e90000000000000000000000000000000000000000000000ef
:2012ff000000000000c300000000000000000000000000000000000000000000000000000c
:20131f000000000000000000000000000000000000000000000000000000000000000000ae
:17133f00000000000000000000000000000000000000000000000097
:20135600000000000c3020000000000000000000000000000000000000000000000000001b
:20137600000000000000000000000000000000000000000000000000000000000000000057
:161396000000000000000000000000000000000000000000000041
:2013ac000000000000c300000000000000000000000000000000000000000000000000005e
:2013cc00000000000000000000000000000000000000000000000000000000000000000001
:1713ec000000000000000000000000000000000000000000000000ea
:20140300000000000c3020000000000000000000000000000000000000000000000000006d
:201423000000000000000000000000000000000000000000000000000000000000000000a9
:161443000000000000000000000000000000000000000000000093
:201459000000000000c30000000000000000000000000000000000000000000000000000b0
:20147900000000000000000000000000000000000000000000000000000000000000000053
:1714990000000000000000000000000000000000000000000000003c
:2014b000000000000c302000000000000000000000000000000000000000000000000000c0
:2014d0000000000000000000000000000000000000000000000000000000000000000000fc
:1614f00000000000000000000000000000000000000000000000e6
:201506000000000000c3000000000000000000000000000000000000000000000000000002
:201526000000000000000000000000000000000000000000000000000000000000000000a5
:1715460000000000000000000000000000000000000000000000008e
:20155d00000000000c30200000000000000000000000000000000000000000000000000012
:20157d0000000000000000000000000000000000000000000000000000000000000000004e
:16159d000000000000000000000000000000000000000000000038
:2015b3000000000000c3000000000000000000000000000000000000000000000000000055
:2015d3000000000000000000000000000000000000000000000000000000000000000000f8
:1715f3000000000000000000000000000000000000000000000000e1
:20160a00000000000c30200000000000000000000000000000000000000000000000000064
:20162a000000000000000000000000000000000000000000000000000000000000000000a0
:16164a00000000000000000000000000000000000000000000008a
:201660000000000000c30000000000000000000000000000000000000000000000000000a7
:2016800000000000000000000000000000000000000000000000000000000000000000004a
:1716a000000000000000000000000000000000000000000000000033
:2016b700000000000c302000000000000000000000000000000000000000000000000000b7
:2016d7000000000000000000000000000000000000000000000000000000000000000000f3
:1616f70000000000000000000000000000000000000000000000dd
:20170d000000000000c30000000000000000000000000000000000000000000000000000f9
:20172d0000000000000000000000000000000000000000000000000000000000000000009c
:17174d00000000000000000000000000000000000000000000000085
:20176400000000000c30200000000000000000000000000000000000000000000000000009
:20178400000000000000000000000000000000000000000000000000000000000000000045
:1617a400000000000000000000000000000000000000000000002f
:2017ba000000000000c300000000000000000000000000000000000000000000000000004c
:2017da000000000000000000000000000000000000000000000000000000000000000000ef
:1717fa000000000000000000000000000000000000000000000000d8
:20181100000000000c3020000000000000000000000000000000000000000000000000005b
:20183100000000000000000000000000000000000000000000000000000000000000000097
:161851000000000000000000000000000000000000000000000081
:201867000000000000c300000000000000000000000000000000000000000000000000009e
:20188700000000000000000000000000000000000000000000000000000000000000000041
:1718a70000000000000000000000000000000000000000000000002a
:2018be00000000000c302000000000000000000000000000000000000000000000000000ae
:2018de000000000000000000000000000000000000000000000000000000000000000000ea
:1618fe0000000000000000000000000000000000000000000000d4
:201914000000000000c30000000000000000000000000000000000000000000000000000f0
:20193400000000000000000000000000000000000000000000000000000000000000000093
:1719540000000000000000000000000000000000000000000000007c
:20196b00000000000c30200000000000000000000000000000000000000000000000000000
:20198b0000000000000000000000000000000000000000000000000000000000000000003c
:1619ab000000000000000000000000000000000000000000000026
:2019c1000000000000c3000000000000000000000000000000000000000000000000000043
:2019e1000000000000000000000000000000000000000000000000000000000000000000e6
:171a01000000000000000000000000000000000000000000000000ce
:201a1800000000000c30200000000000000000000000000000000000000000000000000052
:201a380000000000000000000000000000000000000000000000000000000000000000008e
:161a58000000000000000000000000000000000000000000000078
:201a6e000000000000c3000000000000000000000000000000000000000000000000000095
:201a8e00000000000000000000000000000000000000000000000000000000000000000038
:171aae00000000000000000000000000000000000000000000000021
:201ac500000000000c302000000000000000000000000000000000000000000000000000a5
:201ae5000000000000000000000000000000000000000000000000000000000000000000e1
:161b050000000000000000000000000000000000000000000000ca
:201b1b000000000000c30000000000000000000000000000000000000000000000000000e7
:201b3b0000000000000000000000000000000000000000000000000000000000000000008a
:171b5b00000000000000000000000000000000000000000000000073
:201b7200000000000000000000000000000000000000000000000000000000000000000053
:201b9200000000000000000000000000000000000000000000000000000000000000000033
:20311200000000000c30200000000000000000000000000000000000000000000000000041
:2031320000000000000000000000000000000000000000000000000000000000000000007d
:163152000000000000000000000000000000000000000000000067
:203168000000000000c3000000000000000000000000000000000000000000000000000084
:20318800000000000000000000000000000000000000000000000000000000000000000027
:1731a800000000000000000000000000000000000000000000000010
:2031bf00000000000c30200000000000000000000000000000000000000000000000000094
:2031df000000000000000000000000000000000000000000000000000000000000000000d0
:1631ff0000000000000000000000000000000000000000000000ba
:203215000000000000c30000000000000000000000000000000000000000000000000000d6
:20323500000000000000000000000000000000000000000000000000000000000000000079
:17325500000000000000000000000000000000000000000000000062
:20326c00000000000c302000000000000000000000000000000000000000000000000000e6
:20328c00000000000000000000000000000000000000000000000000000000000000000022
:1632ac00000000000000000000000000000000000000000000000c
:2032c2000000000000c3000000000000000000000000000000000000000000000000000029
:2032e2000000000000000000000000000000000000000000000000000000000000000000cc
:173302000000000000000000000000000000000000000000000000b4
:20331900000000000c30200000000000000000000000000000000000000000000000000038
:20333900000000000000000000000000000000000000000000000000000000000000000074
:16335900000000000000000000000000000000000000000000005e
:20336f000000000000c300000000000000000000000000000000000000000000000000007b
:20338f0000000000000000000000000000000000000000000000000000000000000000001e
:1733af00000000000000000000000000000000000000000000000007
:2033c600000000000c3020000000000000000000000000000000000000000000000000008b
:2033e6000000000000000000000000000000000000000000000000000000000000000000c7
:1634060000000000000000000000000000000000000000000000b0
:20341c000000000000c30000000000000000000000000000000000000000000000000000cd
:20343c00000000000000000000000000000000000000000000000000000000000000000070
:17345c00000000000000000000000000000000000000000000000059
:20347300000000000c302000000000000000000000000000000000000000000000000000dd
:20349300000000000000000000000000000000000000000000000000000000000000000019
:1634b3000000000000000000000000000000000000000000000003
:2034c9000000000000c3000000000000000000000000000000000000000000000000000020
:2034e9000000000000000000000000000000000000000000000000000000000000000000c3
:173509000000000000000000000000000000000000000000000000ab
:20352000000000000c3020000000000000000000000000000000000000000000000000002f
:2035400000000000000000000000000000000000000000000000000000000000000000006b
:163560000000000000000000000000000000000000000000000055
:203576000000000000c3000000000000000000000000000000000000000000000000000072
:20359600000000000000000000000000000000000000000000000000000000000000000015
:1735b6000000000000000000000000000000000000000000000000fe
:2035cd00000000000c30200000000000000000000000000000000000000000000000000082
:2035ed000000000000000000000000000000000000000000000000000000000000000000be
:16360d0000000000000000000000000000000000000000000000a7
:203623000000000000c30000000000000000000000000000000000000000000000000000c4
:20364300000000000000000000000000000000000000000000000000000000000000000067
:17366300000000000000000000000000000000000000000000000050
:20367a00000000000000000000000000000000000000000000000000000000000000000030
:20369a00000000000000000000000000000000000000000000000000000000000000000010
:1646f20000000000000000000000000000000001000000000000b1
:20470800000000000000000000000000000000000000000000000000000000000000000091
:20472800000000000000000000000000000000000000000000000000000000000000000071
:1747480000000000000000000000000000000000000000000000005a
:20475f0000000000000000000000000000000000000000000000000000000000000000003a
:204c1a00000000000c3020000000000000000000000000000000000000000000000000001e
:204c3a0000000000000000000000000000000000000000000000000000000000000000005a
:164c5a000000000000000000000000000000000000000000000044
:204c70000000000000c3000000000000000000000000000000000000000000000000000061
:204c9000000000000000000000000000000000000000000000000000000000000000000004
:174cb0000000000000000000000000000000000000000000000000ed
:204cc700000000000c30200000000000000000000000000000000000000000000000000071
:204ce7000000000000000000000000000000000000000000000000000000000000000000ad
:164d07000000000000000000000000000000000000000000000096
:204d1d000000000000c30000000000000000000000000000000000000000000000000000b3
:204d3d00000000000000000000000000000000000000000000000000000000000000000056
:174d5d0000000000000000000000000000000000000000000000003f
:204d7400000000000c302000000000000000000000000000000000000000000000000000c3
:204d94000000000000000000000000000000000000000000000000000000000000000000ff
:164db40000000000000000000000000000000000000000000000e9
:204dca000000000000c3000000000000000000000000000000000000000000000000000006
:204dea000000000000000000000000000000000000000000000000000000000000000000a9
:174e0a00000000000000000000000000000000000000000000000091
:204e2100000000000c30200000000000000000000000000000000000000000000000000015
:204e4100000000000000000000000000000000000000000000000000000000000000000051
:164e6100000000000000000000000000000000000000000000003b
:204e77000000000000c3000000000000000000000000000000000000000000000000000058
:204e97000000000000000000000000000000000000000000000000000000000000000000fb
:174eb7000000000000000000000000000000000000000000000000e4
:204ece00000000000c30200000000000000000000000000000000000000000000000000068
:204eee000000000000000000000000000000000000000000000000000000000000000000a4
:164f0e00000000000000000000000000000000000000000000008d
:204f24000000000000c30000000000000000000000000000000000000000000000000000aa
:204f440000000000000000000000000000000000000000000000000000000000000000004d
:174f6400000000000000000000000000000000000000000000000036
:204f7b00000000000c302000000000000000000000000000000000000000000000000000ba
:204f9b000000000000000000000000000000000000000000000000000000000000000000f6
:164fbb0000000000000000000000000000000000000000000000e0
:204fd1000000000000c30000000000000000000000000000000000000000000000000000fd
:204ff1000000000000000000000000000000000000000000000000000000000000000000a0
:17501100000000000000000000000000000000000000000000000088
:20502800000000000c3020000000000000000000000000000000000000000000000000000c
:20504800000000000000000000000000000000000000000000000000000000000000000048
:165068000000000000000000000000000000000000000000000032
:20507e000000000000c300000000000000000000000000000000000000000000000000004f
:20509e000000000000000000000000000000000000000000000000000000000000000000f2
:1750be000000000000000000000000000000000000000000000000db
:2050d500000000000c3020000000000000000000000000000000000000000000000000005f
:2050f50000000000000000000000000000000000000000000000000000000000000000009b
:165115000000000000000000000000000000000000000000000084
:20512b000000000000c30000000000000000000000000000000000000000000000000000a1
:20514b00000000000000000000000000000000000000000000000000000000000000000044
:17516b0000000000000000000000000000000000000000000000002d
:2051820000000000000000000000000000000000000000000000000000000000000000000d
:2051a2000000000000000000000000000000000000000000000000000000000000000000ed
:20672200000000000c302000000000000000000000000000000000000000000000000000fb
:20674200000000000000000000000000000000000000000000000000000000000000000037
:166762000000000000000000000000000000000000000000000021
:206778000000000000c300000000000000000000000000000000000000000000000000003e
:206798000000000000000000000000000000000000000000000000000000000000000000e1
:1767b8000000000000000000000000000000000000000000000000ca
:2067cf00000000000c3020000000000000000000000000000000000000000000000000004e
:2067ef0000000000000000000000000000000000000000000000000000000000000000008a
:16680f000000000000000000000000000000000000000000000073
:206825000000000000c3000000000000000000000000000000000000000000000000000090
:20684500000000000000000000000000000000000000000000000000000000000000000033
:1768650000000000000000000000000000000000000000000000001c
:20687c00000000000c302000000000000000000000000000000000000000000000000000a0
:20689c000000000000000000000000000000000000000000000000000000000000000000dc
:1668bc0000000000000000000000000000000000000000000000c6
:2068d2000000000000c30000000000000000000000000000000000000000000000000000e3
:2068f200000000000000000000000000000000000000000000000000000000000000000086
:1769120000000000000000000000000000000000000000000000006e
:20692900000000000c302000000000000000000000000000000000000000000000000000f2
:2069490000000000000000000000000000000000000000000000000000000000000000002e
:166969000000000000000000000000000000000000000000000018
:20697f000000000000c3000000000000000000000000000000000000000000000000000035
:20699f000000000000000000000000000000000000000000000000000000000000000000d8
:1769bf000000000000000000000000000000000000000000000000c1
:2069d600000000000c30200000000000000000000000000000000000000000000000000045
:2069f600000000000000000000000000000000000000000000000000000000000000000081
:166a1600000000000000000000000000000000000000000000006a
:206a2c000000000000c3000000000000000000000000000000000000000000000000000087
:206a4c0000000000000000000000000000000000000000000000000000000000000000002a
:176a6c00000000000000000000000000000000000000000000000013
:206a8300000000000c30200000000000000000000000000000000000000000000000000097
:206aa3000000000000000000000000000000000000000000000000000000000000000000d3
:166ac30000000000000000000000000000000000000000000000bd
:206ad9000000000000c30000000000000000000000000000000000000000000000000000da
:206af90000000000000000000000000000000000000000000000000000000000000000007d
:176b1900000000000000000000000000000000000000000000000065
:206b3000000000000c302000000000000000000000000000000000000000000000000000e9
:206b5000000000000000000000000000000000000000000000000000000000000000000025
:166b7000000000000000000000000000000000000000000000000f
:206b86000000000000c300000000000000000000000000000000000000000000000000002c
:206ba6000000000000000000000000000000000000000000000000000000000000000000cf
:176bc6000000000000000000000000000000000000000000000000b8
:206bdd00000000000c3020000000000000000000000000000000000000000000000000003c
:206bfd00000000000000000000000000000000000000000000000000000000000000000078
:166c1d000000000000000000000000000000000000000000000061
:206c33000000000000c300000000000000000000000000000000000000000000000000007e
:206c5300000000000000000000000000000000000000000000000000000000000000000021
:176c730000000000000000000000000000000000000000000000000a
:206c8a00000000000c3020000000000000000000000000000000000000000000000000008e
:206caa000000000000000000000000000000000000000000000000000000000000000000ca
:166cca0000000000000000000000000000000000000000000000b4
:206ce0000000000000c30000000000000000000000000000000000000000000000000000d1
:206d0000000000000000000000000000000000000000000000000000000000000000000073
:176d200000000000000000000000000000000000000000000000005c
:206d3700000000000c302000000000000000000000000000000000000000000000000000e0
:206d570000000000000000000000000000000000000000000000000000000000000000001c
:166d77000000000000000000000000000000000000000000000006
:206d8d000000000000c3000000000000000000000000000000000000000000000000000023
:206dad000000000000000000000000000000000000000000000000000000000000000000c6
:176dcd000000000000000000000000000000000000000000000000af
:206de400000000000c30200000000000000000000000000000000000000000000000000033
:206e040000000000000000000000000000000000000000000000000000000000000000006e
:166e24000000000000000000000000000000000000000000000058
:206e3a000000000000c3000000000000000000000000000000000000000000000000000075
:206e5a00000000000000000000000000000000000000000000000000000000000000000018
:176e7a00000000000000000000000000000000000000000000000001
:206e9100000000000c30200000000000000000000000000000000000000000000000000085
:206eb1000000000000000000000000000000000000000000000000000000000000000000c1
:166ed10000000000000000000000000000000000000000000000ab
:206ee7000000000000c30000000000000000000000000000000000000000000000000000c8
:206f070000000000000000000000000000000000000000000000000000000000000000006a
:176f2700000000000000000000000000000000000000000000000053
:206f3e00000000000c302000000000000000000000000000000000000000000000000000d7
:206f5e00000000000000000000000000000000000000000000000000000000000000000013
:166f7e0000000000000000000000000000000000000000000000fd
:206f94000000000000c300000000000000000000000000000000000000000000000000001a
:206fb4000000000000000000000000000000000000000000000000000000000000000000bd
:176fd4000000000000000000000000000000000000000000000000a6
:206feb00000000000c3020000000000000000000000000000000000000000000000000002a
:20700b00000000000000000000000000000000000000000000000000000000000000000065
:16702b00000000000000000000000000000000000000000000004f
:207041000000000000c300000000000000000000000000000000000000000000000000006c
:2070610000000000000000000000000000000000000000000000000000000000000000000f
:177081000000000000000000000000000000000000000000000000f8
:20709800000000000c3020000000000000000000000000000000000000000000000000007c
:2070b8000000000000000000000000000000000000000000000000000000000000000000b8
:1670d80000000000000000000000000000000000000000000000a2
:2070ee000000000000c30000000000000000000000000000000000000000000000000000bf
:20710e00000000000000000000000000000000000000000000000000000000000000000061
:17712e0000000000000000000000000000000000000000000000004a
:20714500000000000c302000000000000000000000000000000000000000000000000000ce
:2071650000000000000000000000000000000000000000000000000000000000000000000a
:1671850000000000000000000000000000000000000000000000f4
:20719b000000000000c3000000000000000000000000000000000000000000000000000011
:2071bb000000000000000000000000000000000000000000000000000000000000000000b4
:1771db0000000000000000000000000000000000000000000000019c
:0271f20000009b
:0371f4007200b076
:0271f700110184
:0271f900010192
:2071fb0000000000000000000000001000000000000040000000000001000000000000041f
:20721b00000000000000100000000000004000000000100000800000000000020000000071
:16723b0000000000000004000000000000100000000000004000e9
:207251000000000000000000000000020000000000000800000000000020000000000000f3
:20727100800000000000020000000000000800000000020000000000000000000000000071
:1772910020000000000000800000000000020000000000000800003c
:2072a8000000000000000000000000000000000000000000000000000000000000000000c6
:2072c80000000000000000000000000000000000000000000040000000000001003c000029
:1672e8000000000000000000000000000000000040000000000050
:2072fe00000000000000000000000000000000000000000000000000000000000000000070
:20731e00000000000000000000000000000000000000000000000000000400000002000049
:17733e001000000000000000000000000000000000000000640000c4
:20735500000000000000000000000000000000000000000000000000000000000000000018
:20737500000000000000000000000000000000000000000000800500010000020000000c64
:1673950000000000000000000000000000000000000000000000e2
:2073ab000000000000000000000000000000000000000000000000000000000000000000c2
:2073cb0000000000000000000000000000000000000000000000000800300000000000006a
:1773eb0040000000000000000000000000000000000000000000004b
:2074020000000000000000000000000000000000000000000000000000000000000000006a
:2074220000000000000000000000000000000000000000000000000000000000000000004a
:167442000000000000000000000000000000000000000100000033
:20745800000000000000000000000000000000000000000000000000000000000000000014
:207478000000000000000000000000000000000000000000000000000000000000000000f4
:177498000000000000000000000000000000000000000000000000dd
:2074af000000000000000000000000000000000000000000000000000000000000000000bd
:2074cf000000000000000000000000000000000000000000000003020040000000000c014b
:1674ef000000000000000000000000000000000000000200000085
:20750500000000000000000000000000000000000000000000000000000000000000000066
:2075250000000000000000000000000000000000000000000000000800000000000000003e
:1775450000000000000000000000000000000000000000000000002f
:20755c0000000000000000000000000000000000000000000000000000000000000000000f
:20757c000000000000000000000000000000000000000000000000000300000000000000ec
:16759c000000000000000000000000000000000000008000400019
:2075b2000000000000000000000000000000000000000000000000000000000000000000b9
:2075d200000000000000000000000000000000000000000000080000002000000000000071
:1775f200000000000000000000000000000000000000580004000026
:20760900000000000000000000000000000000000000000000000000000000000000000061
:20762900000000000000000000000000000000000000000000000000000000000000000041
:16764900000000000000000000000000000000000000000000002b
:20765f0000000000000000000000000000000000000000000000000000000000000000000b
:20767f000000000000000000000000000000000000000000000400000000000010000500d2
:17769f000000000000000000000000000000000000000000000000d4
:2076b6000000000000000000000000000000000000000000000000000000000000000000b4
:2076d60000000000000000000000000000000000000000000000000100000000000004008f
:1676f600000000000000000000000000000000000000000000007e
:20770c0000000000000000000000000000000000000000000000000000000000000000005d
:20772c00000000000000000000000000000000000000000000080000000000000000000035
:17774c00000000000000000000000000000000000000000000000026
:20776300000000000c300000000000000000000000000000000000000000000000000000ca
:207783000000000000000000000000000000000000000000000000000000000100000000e5
:1677a30000000000000000000000000000000000002401f0340186
:2077b9000000000000c30200000000000000000000000000000000000000000000000000eb
:2077d900000000000000000000000000000000000000000000000000000000002800000068
:1777f900000000000000000000000000000000000002061e83d420dc
:20781000000000000c3000000000000000000000000000000000000000000000000000001c
:20783000000000000000000000000000000000000000000000000000000000000000000038
:1678500000000000000000000000000000000000003c0140ff00a6
:207866000000000000c302000000000000000000000000000000000000000000000000003d
:207886000000000000000000000000000000000000000000000000000000000000000000e2
:1778a600000000000000000000000000000000000002001defa0001d
:2078bd00000000000c3000000000000000000000000000000000000000000000000000006f
:2078dd0000000000000000000000000000000000000000000000000000000000000000008b
:1678fd000000000000000000000000000000000000002400000051
:207913000000000000c302000000000000000000000000000000000000000000000000008f
:20793300000000000000000000000000000000000000000000000000000000000000000034
:177953000000000000000000000000000000000000000040000000dd
:20796a00000000000c300000000000000000000000000000000000000000000000000000c1
:20798a000000000000000000000000000000000000000000000000000000000000000000dd
:1679aa000000000000000000000000000000000000000178c0206e
:2079c0000000000000c30200000000000000000000000000000000000000000000000000e2
:2079e000000000000000000000000000000000000000000000000000000000000000000087
:177a000000000000000000000000000000000000000000159c1400aa
:207a1700000000000c30000000000000000000000000000000000000000000000000000013
:207a370000000000000000000000000000000000000000000100000000000000000000002e
:167a570000000000000000000000000000000000000001f04010d8
:207a6d000000000000c3020000000000000000000000000000000000000000000000000034
:207a8d000000000000000000000000000000000000000000001000000000000000000000c9
:177aad000000000000000000000000000000000000000015ca44207f
:207ac400000000000c30000000000000000000000000000000000000000000000000000066
:207ae400000000000000000000000000000000000000000000000000000000000000000082
:167b04000000000000000000000000000000000000002978c0000a
:207b1a000000000000c3020000000000000000000000000000000000000000000000000086
:207b3a0000000000000000000000000000000000000000000000000000000000002000000b
:177b5a0000000000000000000000000000000000000146159c10000c
:207b7100000000000c300000000000000000000000000000000000000000000000000000b8
:207b91000000000000000000000000000000000000000000000000000000000000000000d4
:167bb10000000000000000000000000000000008001400000000a2
:207bc7000000000000c30200000000000000000000000000000000000000000000000000d9
:207be70000000000000000000000000000000000000000000000000000000000000000007e
:177c070000000000000000000000000000000000e000028000000004
:207c1e00000000000c3000000000000000000000000000000000000000000000000000000a
:207c3e00000000000000000000000000000000000000000000000000000000000000000026
:167c5e000000000000000000000000000000000000042258810011
:207c74000000000000c302000000000000000000000000000000000000000000000000002b
:207c94000000000000000000000000000000000000000000000000000000000000000000d0
:177cb40000000000000000000000000000000000000202dc80550004
:207ccb00000000000c3000000000000000000000000000000000000000000000000000005d
:207ceb00000000000000000000000000000000000000000000000000000000000000000079
:167d0b000000000000000000030000087428080000000040000073
:207d21000000000000c302000000000000000000000000000000000000000000000000007d
:207d4100000000000000000000000000000000000000000000000000000000000000000022
:177d6100000000000000000000100018116bd50000000025801020bd
:207d7800000000000c300000000000000000000000000000000000000000000000000000af
:207d98000000000000000000000000000000000000000000000000000000000000000000cb
:167db8000000000000000000000009081815400000000270500075
:207dce000000000000c30200000000000000000000000000000000000000000000000000d0
:207dee00000000000000000000000000000000000000000000000000000000000000000075
:177e0e000000000000000000000000981fba9500000000168aa00017
:207e2500000000000c30000000000000000000000000000000000000000000000000000001
:207e450000000000000000000000000000000000000000000000000000000000000000001d
:167e6500000000000000000000000000703d400000000350500077
:207e7b000000000000c3020000000000000000000000000000000000000000000000000022
:207e9b000000000000000000000000000000000000000000000000000000000000000000c7
:177ebb0000000000000000000000000007ba810000000001aa0400bf
:207ed200000000000c30000000000000000000000000000000000000000000000000000054
:207ef200000000000000000000000000000000000000000000000000000000000000000070
:167f1200000000000000000000000000182a80000000415a0000fc
:207f28000000000000c3020000000000000000000000000000000000000000000000000074
:207f4800000000000000000000000000000000000000000000000000000000000000000019
:177f68000000000000000000000000000f3a9500000003a4c01000ad
:207f7f00000000000c300000000000000000000000000000000000000000000000000000a6
:207f9f000000000000000000000000000000000000000000000000000000000000000000c2
:167fbf0000000000000000000000008077f8800000142a400500ba
:207fd5000000000000c30200000000000000000000000000000000000000000000000000c7
:207ff50000000000000000000000000000000000000000000000000000000000000000006c
:17801500000000000000000000000071802f4500000262c580f00056
:20802c00000000000c300000000000000000000000000000000000000000000000000000f8
:20804c00000000000000000000000000000000000000000000000000000000000010000004
:16806c000000000000000000000001007815400000022a480000bc
:208082000000000000c3020000000000000000000000000000000000000000000000000019
:2080a2000000000000000000000000000000000000000000000000000000000000080000b6
:1780c2000000000000000000000000818f3a950000004017811000e0
:2080d900000000000c3000000000000000000000000000000000000000000000000000004b
:2080f900000000000000000000000000000000000000000000000000000000200000000047
:16811900000000000000000002000100782800080014024b9900ab
:20812f000000000000c302000000000000000000000000000000000000000000000000006b
:20814f0000000000000000000000000000000000000000000000000000000003800000008d
:17816f0000000000000000000038008005bbd500e003628016600071
:20818600000000000c3000000000000000000000000000000000000000000000000000009d
:2081a6000000000000000000000000000000000000000000000000000000000000000001b8
:1681c600541000000000000000000300d0154000001428300a00a1
:2081dc000000000000c30200000000000000000000000000000000000000000000000000be
:2081fc00000000000000000000000000000000000000000000000000000000000000005211
:17821c00155000000000000000000000053a9500000366c6a0a200a1
:20823300000000000c300000000000000000000000000000000000000000000000000000ef
:2082530000000000000000000000000000000000000000000000000000000010001000806b
:168273003c000000020103a100000000000000000000017e1d0076
:208289000000000000c3020000000000000000000000000000000000000000000000000010
:2082a900000000000000000000000000000000000000000000000000000000030009987a97
:1782c9003c3000000004f83a0230000000000000000000168ad60054
:2082e000000000000c30000000000000000000000000000000000000000000000000000042
:208300000000000000000000000000000000000000000000000000000000000000000080dd
:168320003c00000002360ff00000010800000000001c2360a70085
:208336004000000000c3020000000000000000000000000000000000000000000000000022
:20835600000000000000000000000000000000000000000000000000000000000001805a2c
:178376003c30000000054cfb130000981000000000020076aa4420f7
:20838d00000000000c30000000000000000000000000000000000000000000000000000094
:2083ad000000000000000000000000000000000000000000000000000000000000f00000c0
:1683cd003c00000044340f500000000000000000000000100a006d
:2083e3000000000000c30200000000000000000000000000000000000000000000000000b5
:20840300000000000000000000000000000000000000000000000000000000000000007adf
:178423003c30000026724cff00000000000000000000001680a000bd
:20843a00000000000c300000000000000000000000000000000000000000000000000000e6
:20845a00000000000000000000000000000000000000000000000000000000000000000002
:16847a003c00000340350f720000000000000000000000003c106b
:208490000000000000c3020000000000000000000000000000000000000000000000000007
:2084b000000000000000000000000000000000000000000000000000000000000000007a32
:1784d0003c3000000600eeff02000000000000000000000003c02051
:2084e700000000000c30000000000000000000000000000000000000000000000000000039
:2085070000000000000000000000000000000000000000000000000000000000000880804c
:168527003c0000014284bff00000800000000000000020300a00b2
:20853d000000000000c3020000000000000000000000000000000000000000000000000059
:20855d000000000000000000000000000000000000000000000000000000000000070152a4
:17857d003c3000003607587f00003000000000000001465680a0007a
:20859400000000000c3000000000000000000000000000000000000000000000000000008b
:2085b400000000000000000000000000000000000000000000000000000000000010808097
:1685d4003c00000002820f500000000008154000000c034038107e
:2085ea000000000000c30200000000000000000000000000000000000000000000000000ac
:20860a000000000000000000000000000000000000000000000000000000000000081952dd
:17862a003c300000166c7af5000000000721550100000026e74420ed
:20864100000000000c300000000000000000000000000000000000000000000000000000dd
:208661000000000000000000000000000000000000000000000000000000002000080000d1
:168681003c000001c3d49fd0020000000003c0080000016f9d00c6
:208697000000000000c30200000000000000000000000000000000000000000000000000fe
:2086b7000000000000000000000000000000000000000000000000000000000380070072a7
:1786d7003c300000366b6bff003800000723c321e001e017a3c00094
:2086ee00000000000c30000000000000000000000000000000000000000000000000000030
:20870e00000000000000000000000000000000000000000000000000000000000000002823
:16872e003c00000140070000000000000003c100000020000000cd
:208744000000000000c3020000000000000000000000000000000000000000000000000050
:2087640000000000000000000000000000000000000000000000000000000000000000569f
:178784007c3000002002fe0a000000000723c32000000040000000bb
:20879b00000000000c30000000000000000000000000000000000000000000000000000082
:2087bb0000000000000000000000000000000000000000000000000000000000000000009e
:1687db000000000000000000000001000803c200000000000000ba
:2087f1000000000000c30200000000000000000000000000000000000000000000000000a3
:20881100000000000000000000000000000000000000000000000000000000000400000043
:1788310000000000000000000030408187a3c3000100000000000051
:20884800000000000c300000000000000000000000000000000000000000000000000000d4
:208868000000000000000000000000000000000000000000000000000000000000000000f0
:168888000000000002800000000401000803c2000000035d8100a5
:20889e000000000000c30200000000000000000000000000000000000000000000000000f5
:2088be0000000000000000000000000000000000000000000000000000000000000000009a
:1788de0000000040000000000000009805a3c3000000000cb48400fc
:2088f500000000000c30000000000000000000000000000000000000000000000000000027
:20891500000000000000000000000000000000000000000000000000000000000000000042
:168935000000000000000000000000000003c000000022500700f0
:20894b000000000000c3020000000000000000000000000000000000000000000000000047
:20896b000000000000000000000000000000000000000000000000000000000000000000ec
:17898b0000000000000000000000000005a3c30000000056a046200e
:2089a200000000000c30000000000000000000000000000000000000000000000000000079
:2089c200000000000000000000000000000000000000000000000000000000000000000095
:1689e2000000000004000000000000000003c200000002d90200d9
:2089f8000000000000c302000000000000000000000000000000000000000000000000009a
:208a180000000000000000000000000000000000000000000000000000000000000000003e
:178a380000000000006000000000000007a3c3000001e02ca00000ad
:208a4f00000000000c300000000000000000000000000000000000000000000000000000cb
:208a6f000000000000000000000000000000000000000000000000000000000000000000e7
:168a8f000000000000000000000000080803c000000002600a0092
:208aa5000000000000c30200000000000000000000000000000000000000000000000000ec
:208ac500000000000000000000000000000000000000000000000000000000000000000091
:178ae5000000000000000000000000181523c3010000601585040068
:208afc00000000000c3000000000000000000000000000000000000000000000000000001e
:208b1c00000000000000000000000000000000000000000000000000000000000000000039
:168b3c000000000000000000000000080803c20000006f4081001e
:208b52000000000000c302000000000000000000000000000000000000000000000000003e
:208b72000000000000000000000000000000000000000000000000000000000000000000e3
:178b92000000000000000000000000019523c3000000028004242086
:208ba900000000000c30000000000000000000000000000000000000000000000000000070
:208bc90000000000000000000000000000000000000000000000000000000000000000008c
:168be9000000000800000000020000000003c0080004037c850099
:208bff000000000000c3020000000000000000000000000000000000000000000000000091
:208c1f00000000000000000000000000000000000000000000000000000000000000000035
:178c3f000000000040000000003800000723c304e0020005cb5000b3
:208c5600000000000c300000000000000000000000000000000000000000000000000000c2
:208c76000000000000000000000000000000000000000000000000000000000000000000de
:168c96000000000000030550000000000003c1000000200000008c
:208cac000000000000c30200000000000000000000000000000000000000000000000000e3
:208ccc00000000000000000000000000000000000000000000000000000000000000000088
:178cec00000000000000ce55004000000723c30400000640000000d7
:208d0300000000000000000000000000000000000000000000000000000000000000000050
:208d2300000000000000000000000000000000000000000000000000000000000000000030
:168d43000000000140000000000001090803c00080006c00000018
:208d59000000000000000000000000000000000000000000000000000000000000000000fa
:208d7900000000000000000000000000000000400000000000010000000000000403800012
:178d990000000010006800000030408197a3c3000101c28000000019
:208db0000000000000000000000000000000000000000000000000000000000000000000a3
:208dd000000000000000000000000000000000000000000000000000000000000001000082
:168df000000000000406f040000401000803c000003601fd000827
:208e060000000000000000000000000000000000000000000000000000000000000000004c
:208e26000000000000000000000000000000004000000000000100000000000004001800cf
:178e4600000000100638dd000000009805a3c30001014004a80000f9
:208e5d000000000000000000000000000000000000000000000000000000000000000000f5
:208e7d00000000000000000000000000000000000000000000000000000000000090000243
:168e9d008002000000000000000000090003c02000000000000051
:208eb30000000000000000000000000000000000000000000000000000000000000000009f
:208ed300000000000000000000000000000000000000000000000000000000000008003f38
:178ef300a8100000140000000000000015a3c3000000000000000021
:208f0a00000000000000000000000000000000000000000000000000000000000000000047
:208f2a00000000000000000000000000000000000000000000000000000000000000000027
:168f4a000000000240000000000000000003c00000002c200a08ae
:208f60000000000000000000000000000000000000000000000000000000000000000000f1
:208f80000000000000000000000000000000000000000000000000000000000000000000d1
:178fa000000000003e2800000000000007a3c3000000001ea0a00089
:208fb70000000000000000000000000000000000000000000000000000000000000000009a
:208fd7000000000000000000000000000000000000000000000000000000000000000082f8
:168ff7008000000000000000000000080803c00000000000000011
:20900d00000000000000000000000000000000000000000000000000000000000000000043
:20902d000000000000000000000000000000000000000000000000000000000000000077ac
:17904d00a810000004000000000000181523c300000000000000003d
:209064000000000000000000000000000000000000000000000000000000000000000000ec
:209084000000000000000000000000000000000000000000002000000000000000000000ac
:1690a4000000000000000000000000080803c000001428000000a7
:2090ba00000000000000000000000000000000000000000000000000000000000000000096
:2090da0000000000000000000000000000000000000000000004000000000003000000006f
:1790fa0000000c0000000000000000019523c3000002004000000095
:2091110000000000000000000000000000000000000000000000000000000000000000003e
:209131000000000000000000000000000000000000000000000000000000002000000000fe
:1691510000008000000e00a0020000000003c00000000000000015
:209167000000000000000000000000000000000000000000000000000000000000000000e8
:20918700000000000000000000000000000000000000000000000000000000038000000045
:1791a70000000e000001daa5403800000723c30000000000000000be
:2091be00000000000000000000000000000000000000000000000000000000000000000091
:2091de00000000000000000000000000000000000000000000000000000000000000000071
:1691fe0000000000401ccee0000000000743c000000003ce040072
:2092140000000000000000000000000000000000000000000000000000000000000000003a
:2092340000000000000000000000000000000000000000000000000000000000000000001a
:17925400000000000000fe7700400000077fc300000166a4f0000406
:20926b000000000000000000000000000000000000000000000000000000000000000000e3
:20928b0000000000000000000000000000000000005e148800000403cca108000000e70165
:1692ab0040000801402fcff00000099b9fb74000000040000000bc
:2092c10000000000000000000000000000000000000000000000000000000000000000008d
:2092e1000000000000000000000000000000000000036bcd00000200158f34000000010651
:17930100a8100000140379330000009083a5dc0000000780000000bf
:20931800000000000000000000000000000000000000000000000000000000000000000035
:209338000000000000000000000000000000000080b7a84000200020000000000070d082f4
:169358008000040000000550000009103800400000340000000061
:20936e000000000000000000000000000000000000000000000000000000000000000000df
:20938e000000000000000000000000000000000038056bcd04040060000000000300003ba4
:1793ae00a81000000000ca55000000f1e7e8000800006000000000a9
:2093c500000000000000000000000000000000000000000000000000000000000000000088
:2093e500000000000000000000000000000000000000000000003c03cca1000000010000bb
:16940500000000026666bee000000719d401400020000000000090
:20941b00000000000000000000000000000000000000000000000000000000000000000031
:20943b0000000000000000000000000000000000000000000000000014ef340000001c00be
:17945b00000000000420fc7700000001983828000400000000000066
:209472000000000000000000000000000000000000000000000000000000000000000000da
:20949200000000000000000000000000000000000cb3a848000000016c520000007080005c
:1694b200000000000280000000000b99d7774000000230000000be
:2094c800000000000000000000000000000000000000000000000000000000000000000084
:2094e80000000000000000000000000000000000001563cd000201e01cbf34000008000025
:17950800000000001e04000000000098fb69dc0000014040000000d1
:20951f0000000000000000000000000000000000000000000000000000000000000000002c
:20953f0000000000000000000000000000000000195e040040000003c04000000030070017
:16955f00000000140280000000000d1b7b7b800000020020af00f1
:209575000000000000000000000000000000000000000000000000000000000000000000d6
:2095950000000000000000000000000000000000019328c1000000600ea42420000d801046
:1795b50029500004006c000000000000a7f5dc000000e00daaf400b3
:2095cc0000000000000000000000000000000000000000000000000000000000000000007f
:2095ec000000000000000000000000000000000f19b788004000060020550000800000823b
:16960c0080000000c280000000000000003c04000000034eee0007
:20962200000000000000000000000000000000000000000000000000000000000000000028
:2096420000000000000000000000000000000000819528c1000003c0048550031000007bdf
:17966200a8100000206c0000000000000023c0a0c000060ce7700001
:209679000000000000000000000000000000000000000000000000000000000000000000d1
:20969900000000000000000000000000000200008000000008001400000f002000000000e4
:1696b900000000000395c8908000000003400008000000600a0076
:2096cf0000000000000000000000000000000000000000000000000000000000000000007b
:2096ef00000000000000000000000000000038001800000000e00000168f080380000000fb
:17970f000000000000000c4600000001a7000200e000001faa54004a
:20972600000000000000000000000000000000000000000000000000000000000000000023
:20974600000000000000000000000000000000008000000000000000000f040000500374a9
:16976600e0000000001ebdd00000001b0b800100000000000000bb
:20977c000000000000000000000000000000000000000000000000000000000000000000cd
:20979c000000000000000000000000000000000078000000000000061e8f08000000005b1f
:1797bc008f100000002b7e7700000000a18402000001c000000000ef
:2097d300000000000000000000000000000000000000000000000000000000000000000076
:2097f30000000000000000000000000000000007000000000000246c200f0000001000037d
:16981300fca00003e3de9bc00000008e03c00000002c20000000e7
:2098290000000000000000000000000000000000000000000000000000000000000000001f
:209849000000000000000000000000000000000000000000000002029e8f080000000000c6
:179869003fc000003e3dff3c400000501784020000020040000000c4
:209880000000000000000000000000000000000000000000000000000000000000000000c8
:2098a00000000000000000000000000000000050000000000000006c29960000000000002d
:1698c00000000000c00405a000000d0a03400000003e73dc010041
:2098d600000000000000000000000000000000000000000000000000000000000000000072
:2098f6000000000000000000000000000000010200800000000000029e996800000000002e
:1799160000000000200178fa40000000030402000002475ce00000d9
:20992d0000000000000000000000000000000000000000000000000000000000000000001a
:20994d000000000000000000000000000000000010bb8800000034000e96000000080000c7
:16996d000000000003c000000000000e0bc0000000242c000000f8
:209983000000000000000000000000000000000000000000000000000000000000000000c4
:2099a3000000000000000000000000000000000001cf64c1800000000e996800000180009f
:1799c30000000000000000000000000015040200041000000000005e
:2099da0000000000000000000000000000000000000000000000000000000000000000006d
:2099fa00000000000000000000000000000020100000000000000024299600000000052411
:169a1a008002000247ec00500000000003400000002c2c00000094
:209a3000000000000000000000000000000000000000000000000000000000000000000016
:209a500000000000000000000000000000000000000000000000000046996800000000fab5
:179a7000cc180000207978a540000070050402000002000000000088
:209a87000000000000000000000000000000000000000000000000000000000000000000bf
:209aa700000000000000000000000000000000000000000000000000200f00000000000070
:169ac70000000002401d8c300000001003c000000000000000009b
:209add00000000000000000000000000000000000000000000000000000000000000000069
:209afd000000000000000000000000000000000000000000000000001c8f08000055000041
:179b1d000000000020027cc740000000a18402000000000000000065
:209b3400000000000000000000000000000000000000000000000000000000000000000011
:209b5400000000000000000000000000000000000000000000400000200f0000045000002e
:169b74000000000000020a00000005100340000000000000000077
:209b8a000000000000000000000000000000000000000000000000000000000000000000bb
:209baa000000000000000000000000000000000000000000000000001c8f080000280000c0
:179bca0000000c000001f8a040000000a704020000000000000000f2
:209be100000000000000000000000000000000000000000000000000000000000000000064
:209c0100000000000000000000000000000200090000000000000074200f002002009000e3
:169c210000008001e0040f5000000d000bc0000000000010c700ba
:209c370000000000000000000000000000000000000000000000000000000000000000000d
:209c57000000000000000000000000000000380080000000000001e2cc8f0803800001006b
:179c770000000e00242a0cfa40000000058402000000000ecc702837
:209c8e000000000000000000000000000000000000000000000000000000000000000000b6
:209cae00000000000000000000000000000000000000000000010000000f04000000052459
:169cce0080000001c0020a000000000008000080000002de0000cb
:209ce400400000000000000000000000000000000000000000000000000000000000000020
:209d0400000000000000000000000000000000000000000000000800068f0800030000ff98
:179d24004c1000001400d8a040000000070002000000003fe80000d0
:209d3b00000000000000000000000000000000000000000000000000000000000000000008
:209d5b00000000000000000000000000000010000097794820000028000f00000000900099
:169d7b00000000c0003dc25000000380000000000000240000001c
:209d91000000000000000000000000000000000000000000000000000000000000000000b2
:209db10000000000000000000000000000000200000d638900000000448f080000000100bb
:179dd100000000000000ef5a0000009800000000000000400000005a
:209de80000000000000000000000000000000000000000000000000000000000000000005b
:209e08000000000000000000000000000000000000000000000000400a96000000000b420d
:169e28008000000027ee90011000030c3267000000000000000046
:209e3e00000000000000000000000000000000000000000000000000000000000000000004
:209e5e000000000000000000000000000000000000000000000001638c996800000000b241
:179e7e00841090001c395d200000000005fd9920000000000000001c
:209e95000000000000000000000000000000000000000000000000000000000000000000ad
:209eb500000000000000000000000000000000000000000000000200000f00000098a342ff
:169ed50000000003e000000000000009000000000000000000008b
:209eeb00000000000000000000000000000000000000000000000000000000000000000057
:209f0b000000000000000000000000000000000001a00000000001400c8f0800000901bee9
:179f2b000008c0000e00000000000000100000000000000000000039
:209f42000000000000000000000000000000000000000000000000000000000000000000ff
:209f6200000000000000000000000000000000800004280000001628000f00000008094095
:169f82002880000003c00000000005009e27801000000000000004
:209f98000000000000000000000000000000000000000000000000000000000000000000a9
:209fb8000000000000000000000000000000000051a12a80000000604e8f080000010007a0
:179fd8008144000000000000000000000166b800000000000000008e
:209fef00000000000000000000000000000000000000000000000000000000000000000052
:20a00f00000000000000000000000000000000000000000000000200299600000000a000d0
:16a02f0000000000000000a000000d00000000000000000000006e
:20a045000000000000000000000000000000000000000000000000000000000000000000fb
:20a065000000000000000000000000000000000000000000000001c29c8968000001810009
:17a085000000000000006e0a00000080000000000420028000000026
:20a09c000000000000000000000000000000000000000000000000000000000000000000a4
:20a0bc0000000000000000000000000000000000099a8400404800002b9600000050a534eb
:16a0dc0090000000038000000000000000000000000028700f00b4
:20a0f20000000000000000000000000000000000000000000000000000000000000000004e
:20a11200000000000000000000000000000000007819b0c1000000001e996800000d81d3ab
:17a1320048180000000400000000000000000000000002b5e0b0303b
:20a149000000000000000000000000000000000000000000000000000000000000000000f6
:20a16900000000000000000000000000000200200900000000000000099600200000e3a168
:16a1890040040002427dc0401200091800000000005400300a10ea
:20a19f000000000000000000000000000000000000000000000000000000000000000000a0
:20a1bf000000000000000000000000000000380101c00000000000001c8968038001813a3a
:17a1df00c41000000004ef02003800819000000000100015a0a000f2
:20a1f600000000000000000000000000000000000000000000000000000000000000000049
:20a2160000000000000000000000000000000000009e9482000094000d6600000000a57454
:16a23600800000000000000000000019bbbb800000000000000083
:20a24c000000000000000000000000000000000000000000000000000000000000000000f2
:20a26c00000000000000000000000000000000005009f3cd0000c2028c066800000000b645
:17a28c00cc18000000000000000000019f3ddc00000000000000001e
:20a2a300000000000c3000000000000000000000000000000000000000000000000000005f
:20a2c30000000000000000000000000000000000000802880000003c5050001405000000f4
:16a2e300000008000000000000000f0000000000000401f00f0941
:20a2f9000000000000c3020000000000000000000000000000000000000000000000000080
:20a31900000000000000000000000000000000000003e0280000000040ca000340000000cc
:17a33900000000400000000000000080000000000002002da0a58059
:20a35000000000000c300000000000000000000000000000000000000000000000000000b1
:20a3700000000000000000000000000000000005000000000000002af9da08000000800043
:16a3900000000003c0000a0000000000083d400000002000000045
:20a3a6000000000000c30200000000000000000000000000000000000000000000000000d2
:20a3c6000000000000000000000000000000000090000000000000077fdd5514000001001a
:17a3e600000000002000cea040000000017bd4000000004000000002
:20a3fd00000000000c30000000000000000000000000000000000000000000000000000004
:20a41d00000000000000000000000000000000000a134c0000000063e0ff000000f0000084
:16a43d0000000001c01c0500000000000000000000000000000027
:20a453000000000000c3020000000000000000000000000000000000000000000000000024
:20a4730000000000000000000000000000000000009f6c5500000063cfab50200008000014
:17a493000000000c20001ca04000000000000000000000000000008a
:20a4aa00000000000c30000000000000000000000000000000000000000000000000000056
:20a4ca000000000000000000000000000000000000000000000000201a0c004000000000ec
:16a4ea00000008002000000000000000000000000000235b47006f
:20a500000000000000c3020000000000000000000000000000000000000000000000000076
:20a520000000000000000000000000000000000000000000000000004180c00400000a008c
:17a54000000000400e00000000000000000000000000007ee0461002
:20a55700000000000c300000000000000000000000000000000000000000000000000000a8
:20a57700000000000000000000000000000000090000000000001400003c0100000000006a
:16a597000000000000000000000020000000000000000030550801
:20a5ad000000000000c30200000000000000000000000000000000000000000000000000c9
:20a5cd000000000000000000000000000000000098000000000001600003c0200000000092
:17a5ed000000000000000000000000000000000000000615a5550042
:20a60400000000000c300000000000000000000000000000000000000000000000000000fa
:20a62400000000000000000000000000000000008000000000000003c0d8000000090de9fc
:16a644004a4100000000000000000000000000000000035b5008bf
:20a65a000000000000c302000000000000000000000000000000000000000000000000001b
:20a67a0000000000000000000000000000003000180000000000014001ce402000058e3342
:17a69a00b4580c00000000000000000000000000c000063eed14008c
