:02000000ff00ff
:080002004c6174746963650030
:17000a00694345637562653220323031372e30382e32373934300069
:15002100506172743a2069434534305550354b2d53473438002c
:1b003600446174653a204d617920313820323031392031323a31323a33370077
:0200510000ffae
:040053007eaa997e6a
:02005700510056
:0200590001059f
:03005b00920020f0
:03005e006202b388
:03006100720150d9
:0300640082000017
:02006700110086
:02006900010193
:20006b00000000000000000000000010000000000000400000000000010000000000000420
:20008b000000000000001000000000000040200000000000000000000040000000000001a4
:1600ab0000000000000004000000000000100000000000004000eb
:2000c1000000000000000000000000020000000000000800000000000020000000000000f5
:2000e100800000000000000000000000000000000000020000000000000800000000000075
:1701010020000000000000800000000000020000000000000800003d
:200118000000000000000000000000000000000000000000000000000000000000000000c7
:20013800000000000000000000000000000010000000000000000000000000000000000097
:160158000000000000000000000000000000000000000000000091
:20016e00000000000000000000000000000000000000000000000000000000000000000071
:20018e00000000000000000000000000000000000000010000000000000000000000000050
:1701ae0000000000000000000000000000000000000000000000003a
:2001c50000000000000000000000000000000000000000000000000000000000000000001a
:2001e5000000000000000000000000000000200000000000000000000000000000000000da
:1602050000000000000000000000000000000000000000000000e3
:20021b000000000000000000000000000000000000000000000000000000000000000000c3
:20023b000000000000000000000000000000000000000000000000000000000000000000a3
:17025b0000000000000000000000000000000000000000000000008c
:2002720000000000000000000000000000000000000000000000000000000000000000006c
:2002920000000000000000000000000000000000000000000000000000000000000000004c
:1602b20000000000000000000000000000000000000b000000002b
:2002c800000000000000000000000000000000000000000000000000000000000000000016
:2002e8000000000000000000000000000000000000000000000000000000000000000000f6
:170308000000000000000000000000000000000000000000000000de
:20031f000000000000000000000000000000000000000000000000000000000000000000be
:20033f00000000000000100000000780004000000080000000000001004000000000040101
:16035f000000000000000000000000000000000000000000000088
:20037500000000000000000000000000000000000000000000000000000000000000000068
:20039500000000000000000000000000000000000000000000000000000000000000000048
:1703b500000000000000000000000000000000000000000000000031
:2003cc00000000000000000000000000000000000000000000000000000000000000000011
:2003ec0000000003400040000000000000400000000000000000000000000000000000002e
:16040c00000000000000000000000000000000000000000080005a
:200422000000000000000000000000000000000000000000000000000000000000000000ba
:20044200000002000000040000080000000c00000000000000000000000000000000000080
:1704620000000000000000000000000000000000000000000400007f
:20047900000000000000000000000000000000000000000000000000000000000000000063
:20049900000000000000000000000000000000000000000000000000000000000000000043
:1604b900000000000000000000000000000000000000000000002d
:2004cf0000000000000000000000000000000000000000000000000000000000000000000d
:2004ef000000010000000000000400000000000000000000000400000000000010000000d4
:17050f000000000000000100000000000000000000000000000000d4
:200526000000000000000000000000000000000000000000000000000000000000000000b5
:2005460000000000004000000000000100000000000000000000000100000000000004004f
:16056600000000000000000000000000000000000000000100007e
:20057c0000000000000000000000000000000000000000000000000000000000000000005f
:20059c00000002000000000000080000000000000000000000000000002000000000000015
:1705bc00000000000000000000000000000000000000000000000028
:2005d300000000000c302000000000000000000000000000000000000000000000000000ac
:2005f3000000000000000000000000000000000000000000000000000000000000000000e8
:1606130000000000000000000000000000000000000000000000d1
:200629000000000000c30000000000000000000000000000000000000000000000000000ee
:20064900000000000000000000000000000000000000000000000000000000000000000091
:1706690000000000000000000000000000000000000000000000007a
:20068000000000000c302000000000000000000000000000000000000000000000000000fe
:2006a000000000000000000000000000000000000000000002000000000000080000000030
:1606c0000000000000000000000000000000000000000000000024
:2006d6000000000000c3000000000000000000000000000000000000000000000000000041
:2006f6000000000000000000000000000000000000000000000000000000000000050000df
:170716000000000000000000000000000000000000000000000000cc
:20072d00000000000c30200000000000000000000000000000000000000000000000000050
:20074d000000000000000000000000000000000000000000000000001af040000000000042
:16076d000000000000000000000000000000000000000000000076
:200783000000000000c3000000000000000000000000000000000000000000000000000093
:2007a300000000000000000000000000000000000000000000000000000f00000000000027
:1707c30000000000000000000000000000000000000000000000001f
:2007da00000000000c302000000000000000000000000000000000000000000000000000a3
:2007fa000000000000000000000000000000000000000000000000000000000000000000df
:16081a0000000000000000000000000000000000000000000000c8
:200830000000000000c30000000000000000000000000000000000000000000000000000e5
:20085000000000000000000000000000000000000000000000000140000000000000000047
:17087000000000000000000000000000000000000000000000000071
:20088700000000000c302000000000000000000000000000000000000000000000000000f5
:2008a700000000000000000000000000000000000000000000000000000000000000000031
:1608c700000000000000000000000000000000000000000000001b
:2008dd000000000000c3000000000000000000000000000000000000000000000000000038
:2008fd000000000000000000000000000000000000000000000000000000000000000000db
:17091d000000000000000000000000000000000000000000000000c3
:20093400000000000c30200000000000000000000000000000000000000000000000000047
:20095400000000000000000000000000000000000000000000000000000000000000000083
:16097400000000000000000000000000000000000000000000006d
:20098a000000000000c300000000000000000000000000000000000000000000000000008a
:2009aa0000000000000000000000000000000000000000000000000000000000000000002d
:1709ca00000000000000000000000000000000000000000000000016
:2009e100000000000c3020000000000000000000000000000000000000000000000000009a
:200a01000000000000000000000000000000000000000000000000000000000000000000d5
:160a210000000000000000000000000000000000000000000000bf
:200a37000000000000c30000000000000000000000000000000000000000000000000000dc
:200a570000000000000000000000000000000000000000000000000000000000000000007f
:170a7700000000000000000000000000000000000000000000000068
:200a8e00000000000c302000000000000000000000000000000000000000000000000000ec
:200aae000000000000000000000000000000000000000000000000000000000000000063c5
:160ace00c100000000000000000000000000000000000000000051
:200ae4000000000000c300000000000000000000000000000000000000000000000000002f
:200b04000000000000000000000000000000000000000000000000000000000000000000d1
:170b24003c004000000000000000000000000000000000000000003e
:200b3b00000000000c3020000000000000000000000000000000000000000000000000003e
:200b5b0000000000000000000000000000000000000000000000000000000000000000007a
:160b7b000000000000000000000000000000000000000000000064
:200b91000000000000c3000000000000000000000000000000000000000000000000000081
:200bb1000000000000000000000000000000000000000000000000028000000000000000a2
:170bd10000000000000000000000000000000000000000000000000d
:200be800000000000c30200000000000000000000000000000000000000000000000000091
:200c08000000000000000000000000000000000000000000020000000000000000000000ca
:160c280000000000000000000000000000000000000000000000b6
:200c3e000000000000c30000000000000000000000000000000000000000000000000000d3
:200c5e00000000000000000000000000000000000000000000000000000000000000000076
:170c7e0000000000000000000000000000000000000000000000005f
:200c9500000000000c302000000000000000000000000000000000000000000000000000e3
:200cb5000000000000000000000000000000000000000000000000001cf0400000000000d3
:160cd5000000000000000000000000000000000000000000000009
:200ceb000000000000c3000000000000000000000000000000000000000000000000000026
:200d0b00000000000000000000000000000000000000000000000000010f000400000000b4
:170d2b000000000000000000000000000000000000000000000000b1
:200d4200000000000c30200000000000000000000000000000000000000000000000000035
:200d620000000000000000000000000000000000000000000000060000000000000000006b
:160d8200000000000000000000000000000000000000000000005b
:200d98000000000000c3000000000000000000000000000000000000000000000000000078
:200db80000000000000000000000000000000000000000000000000000000000000000001b
:170dd800000000000000000000000000000000000000000000000004
:200def00000000000c30200000000000000000000000000000000000000000000000000088
:200e0f000000000000000000000000000000000000000000000000000000000000000000c3
:160e2f0000000000000000000000000000000000000000000000ad
:200e45000000000000c30000000000000000000000000000000000000000000000000000ca
:200e650000000000000000000000000000000000000000000000000000000000000000006d
:170e8500000000000000000000000000000000000000000000000056
:200e9c00000000000c302000000000000000000000000000000000000000000000000000da
:200ebc0000000000000000000000000000000000000000000000006008f04000000000007e
:160edc000000000000000000000000000000000000000000000000
:200ef2000000000000c300000000000000000000000000000000000000000000000000001d
:200f1200000000000000000000000000000000000000000000000000010f000000000000af
:170f32000000000000000000000000000000000000000000000000a8
:200f4900000000000c3020000000000000000000000000000000000000000000000000002c
:200f6900000000000000000000000000000000000000000000000000000000000000000068
:160f89000000000000000000000000000000000000000000000052
:200f9f000000000000c300000000000000000000000000000000000000000000000000006f
:200fbf00000000000000000000000000000000000000000000000000000000000000000012
:170fdf000000000000000000000000000000000000000000000000fb
:200ff600000000000c3020000000000000000000000000000000000000000000000000007f
:201016000000000000000000000000000000000000000000000000001af040000000000070
:1610360000000000000000000000000000000000000000000000a4
:20104c000000000000c30000000000000000000000000000000000000000000000000000c1
:20106c00000000000000000000000000000000000000000000000000000f00000000000055
:17108c0000000000000000000000000000000000000000000000004d
:2010a300000000000c302000000000000000000000000000000000000000000000000000d1
:2010c30000000000000000000000000000000000000000000000000000000000000000000d
:1610e30000000000000000000000000000000000000000000000f7
:2010f9000000000000c3000000000000000000000000000000000000000000000000000014
:20111900000000000000000000000000000000000000000000006000000000000000000056
:171139000000000000000000000000000000000000a00000000000ff
:20115000000000000c30200000000000000000000000000000000000000000000000000023
:20117000000000000000000000000000000000000000000000000000000000080000100047
:161190000000000000000000000000000000000000000000000049
:2011a6000000000000c3000000000000000000000000000000000000000000000000000066
:2011c6000000000000000000000000000000000000000000000000000000000000000c00fd
:1711e6000000000000000000000000000000000000000000000000f2
:2011fd00000000000c30200000000000000000000000000000000000000000000000000076
:20121d000000000000000000000000000000000000000000000000000000000000000000b1
:16123d00000000000000000000000000000000000000000000009b
:201253000000000000c30000000000000000000000000000000000000000000000000000b8
:2012730000000000000000000000000000000000000000000000000000000000000000005b
:17129300000000000000000000000000000000000000000000000044
:2012aa00000000000c302000000000000000000000000000000000000000000000000000c8
:2012ca00000000000000000000000000000000000000000000000000000000000000000004
:1612ea0000000000000000000000000000000000000000000000ee
:201300000000000000c300000000000000000000000000000000000000000000000000000a
:201320000000000000000000000000000000000000000000000000000000000000000000ad
:17134000000000000000000000000000000000000000000000000096
:20135700000000000c3020000000000000000000000000000000000000000000000000001a
:20137700000000000000000000000000000000000000000000000000000000000000000056
:161397000000000000000000000000000000000000000000000040
:2013ad000000000000c300000000000000000000000000000000000000000000000000005d
:2013cd00000000000000000000000000000000000000000000000000000000000000000000
:1713ed000000000600000000000000000000000000000000000000e3
:20140400000000000c3020000000000000000000000000000000000000000000000000006c
:20142400000000000000000000000000000000000000000000000000000000000000006345
:16144400c1040000000000000000000000000000000000000000cd
:20145a000000000000c30000000000000000000000000000000000000000000000000000af
:20147a0000000000000000000000000000000000000000000000000000000000000000044e
:17149a003c00000000000000000000000000000000000000000000ff
:2014b100000000000c302000000000000000000000000000000000000000000000000000bf
:2014d1000000000000000000000000000000000000000000000000000000000000000000fb
:1614f10000000000000000000000000000000000000000000000e5
:201507000000000000c3000000000000000000000000000000000000000000000000000001
:201527000000000000000000000000000000000000000000000000000000000000000000a4
:1715470000000000000000000000000000000000000000000000008d
:20155e00000000000c30200000000000000000000000000000000000000000000000000011
:20157e0000000000000000000000000000000000000000000000000000000000000000004d
:16159e000000000000000000000000000000000000000000000037
:2015b4000000000000c3000000000000000000000000000000000000000000000000000054
:2015d4000000000000000000000000000000000000000000000000000000000000000000f7
:1715f4000000000000000000000000000000000000000000000000e0
:20160b00000000000c30200000000000000000000000000000000000000000000000000063
:20162b0000000000000000000000000000000000000000000000000000000000000000009f
:16164b000000000000000000000000000000000000000000000089
:201661000000000000c30000000000000000000000000000000000000000000000000000a6
:20168100000000000000000000000800000000000000000000000000000000000000000041
:1716a100000000000000000000000000000000000000000000000032
:2016b800000000000c302080000007bc100000000000000000000000000000000000000063
:2016d8000000000000000000000000000000000000000000000000000000000000000000f2
:1616f80000000008000000000000000000000000000000000000d4
:20170e000000000000c3000000000003c00100000000000000000000000000000000000034
:20172e0000000000000000000000000000000000000000000000000000000000000000009b
:17174e00000000014000000000000000000000000000000000000043
:20176500000000000c30230000000000000000000000000000000000000000000000000005
:20178500000000000000000000000000000000000000000000000000000000000000000044
:1617a500000000000000000000000000000000000000000000002e
:2017bb000000000000c300200000000000000000000000000000000000000000000000002b
:2017db000000000000000000000000000000000000000000000000000000000000000000ee
:1717fb000000000000000000000000000000000000000000000000d7
:20181200000000000c3020000000000000000000000000000000000000000000000000005a
:20183200000000000000000000000000000000000000000000000000000000000000000096
:161852000000000000000000000000000000000000000000000080
:201868000000000000c300000000000000000000000000000000000000000000000000009d
:20188800000000000000000000000000000000000000000000000000000000000000000040
:1718a800000000000000000000000000000000000000000000000029
:2018bf00000000000c302000000000000000000000000000000000000000000000000000ad
:2018df000000000000000000000000000000000000000000000000000000000000000000e9
:1618ff0000000000000000000000000000000000000000000000d3
:201915000000000000c30000400000000000000000000000000000000000000000000000af
:2019350000000000000000000000000000000000000000000001000000000000040000008d
:1719550000000000000000000000000000000000000000000000007b
:20196c00000000000c302000000000000000000000000000000000000000000000000000ff
:20198c0000000000000000000000000000000000000000000000000000000000000000003b
:1619ac000000000000000000000000000000000000000000000025
:2019c2000000000000c3000040000000000000000000000000000000000000000000000002
:2019e2000000000000000000000000000000000000000000000000000000000000000000e5
:171a02000000000000000000000000000000000000000000000000cd
:201a1900000000000c30200000000000000000000000000000000000000000000000000051
:201a390000000000000000000000000000000000000000000000000000000000000000008d
:161a59000000000000000000000000000000000000000000000077
:201a6f000000000000c3000000000000000000000000000000000000000000000000000094
:201a8f00000000000000000000000000000000000000000000000000000000000000000037
:171aaf00000000000000000000000000000000000000000000000020
:201ac600000000000c30210407000000000000000000000000000000000000000000000098
:201ae6000000000000000000000000000000000000000000000000000000000000000000e0
:161b060000000000000000000000000000000000000000000000c9
:201b1c000000000000c30020000000000000000000000000000000000000000000000000c6
:201b3c00000000000000000000000000000000000000000000000000000000000000000089
:171b5c00000000000000000000000000000000000000000000000072
:201b7300000000000c3020000000063c102000000000000000000000000000000000000084
:201b93000000000000000000000000000000000000000000004000014cf0c0000080000075
:161bb300000000006005d5a0000000000000000000000000000042
:201bc9000000000000c3000000000003c00100000000000000000000000000000000000075
:201be90000000000000000000000000000000000000000000000000001f0f00000030000f8
:171c0900000000000000de1a000000000000000000000000000000cc
:201c2000000000000c3020800580073c18000000000000000800000063c1020000000000ba
:201c4000000000000000000000000000000000000000000002000001c8f0c00800000102fe
:161c600095022000003ee0c420000000000000000c0000000000a9
:201c76000000000000c3000000000043c0400000000000000000000e043c000008000000f2
:201c96000000000000000000000000000000000000000000000001c00000f000000d0b0065
:171cb600294010000002e008010000000000000000000000000000b3
:201ccd00000000000c3023000000802950000000000000003000000000000000000000006f
:201ced0000000000000000000000000000000000000000000000206548f0c00000000ff15a
:161d0d006800000000000000000000000000000000000000000058
:201d23000000000000c3002000000f01680100000000000002000000000000000000000042
:201d43000000000000000000000000000000000000000000000000420200f00000000ef846
:171d63002bc00000000000000000000000000000000000000000007e
:201d7a00000000000c30200000000029502001000000000000000000000000000000000053
:201d9a0000000000000000000000000000000000000000000000060548f0c000000009e13c
:161dba0028080000003ec180000000000000000001000000000063
:201dd0000000000000c30000000003016800000000000000000000000000000000000000c4
:201df0000000040000000000000000000000000000000000000000020200f000000000f8e3
:171e1000108000000000c8a4000000000000000000000000000000bf
:201e2700000000000c322000070e033c1200100000000000000000000000000100000000c6
:201e4700000000000000000000000000000000000000000000000069e8f0c000000000007a
:161e670000000001c004cc20200000000000000000000000000094
:201e7d000000000000c3000040000043c0000100000000000004000000000000100000002a
:201e9d000000004000000000000000000000004000000000000100000000f00004000000b0
:171ebd00000000103e0000c2000040000000000000000000000000be
:201ed400000000000c302000000e07bc1200000000000000000000000000000000000000af
:201ef40000000000000000000000000000000000000000000000000168f0c0000050000065
:161f140000000000e3800000000000000000000000000000000054
:201f2a000000000000c300004000b003c00001000000000000040000000000000800000014
:201f4a000000000000000000000000000000000000000000000000000000f0000000800007
:171f6a00000000000000000000000000000000000000000000000060
:201f8100000000000c3020000380073c1020000000000000000000000000000000000000ee
:201fa10000000000000000000000000000000000000000000100066968f0c0000000002b6d
:161fc100c1040000e0000000000000000000000000000000000065
:201fd7000000000000c3000000080043c0800000000000000000000000000000000000009c
:201ff7000000000000000000000000000000000000000000000000000200f00000000004d4
:172017003c0000000000000000000000000000000000000000000076
:20202e00000000000c302104070a03bc1040000000000000104000000000000000000000c1
:20204e00000000000000000000000000000000000000000004002061e8f0c0000000a000b5
:16206e0000000000e28000000000000000000000000000000000fa
:202084000000000000c3002000010003c0000100000000000206000000000001100000007b
:2020a4000000004000000000000000000000004000000000004100400200f00004001b000a
:1720c4000000001002000000000040000000000001000000000000b2
:2020db0001000000cc3220000000073c100000000000000000000000000000000000000073
:2020fb00000000000000000000000000000000000000000000000001c8f0c0000059a00053
:16211b0000000001428d90600000000100000000000000000000ed
:202131000010000140c3000000000003c02000000000000000000000000000000000000097
:202151000000000000000000000000000000000000000000000000000000f040000000003e
:172171000000000000014b0a00000000800000000000000000000081
:2021880000000001ec3020800000073c14020f00780000000000000000000000000000009a
:2021a800000000000000000000000000000000110000000002000001c8f0c0080081b7f05b
:1621c80060002000406fec34208009800000000000000000000089
:2021de000000000000c3000000000043c000000844000000000000000000000000000000cf
:2021fe000000000000000000000000000000000200000000000003c00000f00000050ade1f
:17221e004b0000000022e043010000500000000000000000000000c8
:2022350000004000ec3027000580073c140c00000218504000000000000000000000000074
:202255000000000000000000000000000000000000763d400006806548f0c0000080100003
:162275000000000060000000000000005f8110000000075aa00002
:20228b000000020010c3002000000043c000400000050a01000000000000000000000000eb
:2022ab0000000000000000000000000000000000000083d4400000020200f00000050a0079
:1722cb0000000000000000000000000009bc2c24000002970000103e
:2022e20001020041ec30200000008029502c000001d8054000000000000000000000000019
:2023020000000000000000000000000000000000000000000000066548f0c000005807f009
:1623220020000000060eb742040000010000000000160400000059
:2023380000001c3810c3004000000f01680100000002005100000000000000000000000052
:202358000000003800000000000000000000040000000000000000020200f00000000052e3
:172378000000000000006c7a01000000800000000000028000000065
:20238f000001c001ac3030000700033c1020000000000000000000000000000000000000ea
:2023af00000000000000000000000000000300000000000000000001e8f0c00000180d321b
:1623cf00bc08c0006005ea000000018100000000000000000000a3
:2023e5000000160010c3000000000003c000000002800000000000000000000000000000aa
:202405000000000000000000000000000000100000000000000000000000f000000000189f
:172425001fc00400020030a000000008a00000000000000000000043
:20243c0000000001cc303000050a07bc100000000000000000000000000000000000000071
:20245c0000000000000000000000000000000000000000000000000168f0c000008019eac4
:16247c0094880001c626e5a0000000009a50904000010000000001
:202492000000002810c300000009b043c0050000000000000000000000000000000000006e
:2024b20000000000000000000000c0000000000000000000000000000000f00000090998b0
:1724d200100c0000022c60a0000000000760840500000000000000b9
:2024e90000000001ac302000000000000000000020000000000500000000000000000000b1
:2025090000000000000000000000000000000000010000000020260168f0c0010000177ac0
:1625290081040000603cebc420000798368c1040000000000000fb
:20253f000000002800c3000000000000000000000000000000002000000000000000000071
:20255f000000000000000000000000000000000000d00000000000400200f00000000c0c42
:17257f0028200000362ed0fc000000910b7cc42100000000000000d0
:2025960000014200cc302100001902bc1200000000000000000000000000000000000000dc
:2025b6000000030000000000000000000000000000000000040020016855403021199000e6
:1625d60000000001c07784040300080033a8000000000000000049
:2025ec000000000000c3002000019003c00010000000000000000000000000000000000088
:20260c0000000000000000000000000000000000000000000050004002055002002098000d
:17262c000000000002287c8100200090078000200000000000000019
:20264300000003b58c3024000001879410000000020a5060000000000000000000000000f7
:20266300000000000053a150000000000000000000f856a000000605780600000000a5e215
:1626830080000000001ec704000008001840200000000000000058
:2026990000100074e0c300000000f1028000000000040a0000000000000000000000000079
:2026b90000000000000f69180000000000000000000dac00000000021490a0000000100062
:1726d9002800000600034ef00000005000a800000000000000000083
:2026f0000001c01dec302480000000000002000000000000000010e000000030000000000a
:2027100000008000000000000000000000008001001a3c200200047a5ac3428800500b6010
:1627300000082000060000000080001a123c20000000000000005d
:202746000000000020c3000000100000000000004000000000000000000000000000000040
:2027660000000000000000000000000000000000d000003c000000442f083010000180d833
:1727860001000000002400000000100000003c0000000000000000cb
:20279d000400078dcc30250000008714100c00000000000000000009e3d4000000000000ec
:2027bd000000000d000000000000000000000000183a3c200001062979054000008187fb50
:1627dd001d08000202f5a05000000019523c300000000000000001
:2027f30000002c3810c3001000000102800040024000000000000000f83c04000000000042
:20281300000000001800000000000000000000000000803c0000080424d01000000110f8b8
:1728330030c02000046570000100000080803c000000000000000068
:20284a000160c016cc30270030000000000c01400000000000000000000000000000000097
:20286a00000000001800000000000000000000018a5a15400c00006a00a54030008013b727
:16288a00d0000000606fc80000130581523c30000000000000007a
:2028a0000000023810c3000005000000000000000000000000000000000000000000000006
:2028c0000000000000000000000000000000000001b00154004003401c05a0010005085f41
:1728e0003d4010800226ee000000000080803c000000000000000082
:2028f7000063e6d68c302000001c0000000000000400000030000000000000000140000035
:20291700000000000000000000000000000300000187a5800c001600d92441000018100068
:1629370000000001603cb020000000007a3c300000000000000037
:20294d0000003c7c30c300800001000000000000028000000110000000000000000030007b
:20296d0000000000000000000000000000001000008d41a400400002ad8100100000080040
:17298d00000000000001e9000000000000003c00000000000000000d
:2029a4000000078cac302003a3807e015001000001d8054104000000000000000006000065
:2029c4000000000000000000000000000000100818fad0184000147e7c0a00000070100009
:1629e4000000000266fcada4200000007a3c300000000000000022
:2029fa000000046010c300000500008014000000000200500000000000000000000000009b
:202a1a00000000000000000000000000000002801001ee80000000221505a00000000e00b1
:172a3a00000000001428d0a50000000000003c000000000000000098
:202a51000000070cac302000000083141000000070000000000000000000000000400000ff
:202a7100000000000e000000000000000000000000de415000001400fcbd42000000e930a0
:162a910001040001e04f8960000000005a3c30000000000000004b
:202aa7000000400020c300000800014280000000000000000000000000000000000200001f
:202ac700000000000190000000000000000000000003bc08000000201d07c0000000101a69
:172ae700e8402000162810960000000000803c0000000000000000f0
:202afe000001e00e8c302003081c00000000400000000000000001a0000000c000000cfa1f
:202b1e0074030000005ab01040000000000000001bfb5010000000035a47000000001b632e
:162b3e00e8000007603cae34202109987a3c30000000000000004c
:202b54000000020030c3000000b0000000000200000000000000000000000008000000edc5
:202b740001202000000fab1400000000000000000081ee80000000402f8a708000050ef84f
:172b94003c0040000401d0c30000001000803c00000000000000004a
:202bab00100000000c3024000000000000000000000000000000000000000000000000009a
:202bcb0000000000000000000000000000000005003e2800000016285d5a000001180d85df
:162beb006a00000002bde0a000000000723c30000000000000004d
:202c01000010000000c30000100000000000000000000000000000000000000000000000d0
:202c210000000000000000000000000000000000500fc000000003c035e40010002000da8e
:172c4100c00040000000e0000000000000003c100000000000000050
:202c5800000000000c302080100800000000000000d8f5004000000000000000000000005b
:202c780000008000015e281020008000000080090a3ea950828004394ec2020800008026bc
:162c98005a0020000015aa0000801000723c30000000000000007f
:202cae000000000000c30000000000000000000040360f00100000000000000000000000ae
:202cce000000000000e04280c000140000000000100b829c04040000030c201000200a03c3
:172cee001a400000000030a00000000000003c000000000000000069
:202d0500000000000c30232800000000000000000000000000000000000000000000000027
:202d250000000000000000000000000000000000083b3d40000026607d5a000000500026fb
:162d45005a000000060e840020000019523c30000000000000008f
:202d5b000000000000c30010000000000000000003c00000000000000000000000000000c2
:202d7b0000000000000000000000000000000000000761e80000016037e2500000000a0311
:172d9b001a4000000041f0000000000080803c00000000000000005a
:202db200000000000c30200000000000000c20000000000000000000000000000000000079
:202dd20000000007000000000000000000000857189bf800000000604e1862000001b1a155
:162df200540000014297e00020000181523c30000000000000005d
:202e08000000000000c3000000000000000044000000000000038000000000000000000020
:202e28000000000008000000000000000000000208093700400000001401001000000a08c1
:172e4800154000001402d0800000000080803c00000000000000007c
:202e5f00001000000c30200000007e01500000000000000000000000000000000000000018
:202e7f00000000000000000000000000000300001a9601500c00002008f0400000000000cb
:162e9f00000000000697e7f6300000007a3c30000000000000008d
:202eb5000004800000c30000000090c014010000020000000000000000000000000000004f
:202ed50000000000000000000000000000001000000b2c0400400004010f0300000000003b
:172ef500000000000000107f1900000000003c0000000000000000e2
:202f0c00000000000c30200000000000000000000000000000000000000000000000000049
:202f2c00000000000000000000000000000010019d862800000000657c96000000980574a1
:162f4c009100000006a1c100100000005a3c3000000000000000a0
:202f62000000000000c300000000f000000000000000000000080000000000000000000094
:202f820000000000000000000000000000000280008901400000000603096000000908164a
:172fa200440000000401cf200000000000003c0000000000000000a4
:202fb900000400000c30230000000000000000000000000000000000000000000000000095
:202fd90000000000000000000000000000000001883e000080000c386c40423000000baf75
:162ff9008004000140000000000009805a3c30000080000000002e
:20300f000000000000c30000000000000000000000000000000200000000000000000000dc
:20302f00000000000000000000000000000000300107802000000020150420010000003619
:17304f0070000000002000000000001000803c00000400000000000a
:20306600000000000c30200010018714100000000000000000000000000000000000000032
:203086000003000000000000000000000000000000d68090800006036a52400000000000bc
:1630a6000000000002800000000008187a3c30000000000000008c
:2030bc000000000000c300000000c9428001000000000000000000000000000000000000a5
:2030dc00000020000000000000000000000000000001c0140000002006d0000000000000e9
:1730fc0000000000042800000000001000803c0000000000000000c5
:2031130000e000000c30200000000000000000000018f04080800000000000000060400078
:203133000000000d0af6684000000000000000018b1acc18200026056ec74001000000007c
:1631530000000000664d8c7400000380723c300000000578f501df
:203169000000000000c300000000c0000000000000010f0000000000000000000002200091
:203189000000000071f1fa80000000000000000000fdb6c4440000420d8c1000285000002c
:1731a9000000000014387cc10000000000003c10000003c00f500018
:2031c000000000000c3020800000160150020000700000000800000033c10020000000001e
:2031e0000000001d0a06280000400000000081899e3a805822001400d8c340080000a000c7
:1632000000002002075fac7400800000723c30000004024000006c
:203216000000000000c3000000100080140100000400000000028000003c00100e00000050
:203236000000008719f541400008e000000000009081f96c01000162fe8e20000080100064
:17325600000000002c62d8c200000050a0003c0000080036a8110016
:20326d00022800000c302301001e00000004200000000000300000003bc10000000004cf76
:20328d002400000000972000800000000000000818daa008000000636ec740010038000013
:1632ad0000000000002d8c7400000518723c3000002000000000c3
:2032c3000001000000c3003002f00000000000000000000002000000003c0010000001d9dd
:2032e300f0010000f00d4000000000000000000010052400000800000d9c10002000800003
:17330300000000000003fdc100000000a0803c000002c000000000d4
:20331a00000000000c3023005000360150000100000000000000000073c1000a000000001e
:20333a00000000200f9200008000000000000021981e3c0000015e0159e540000000000041
:16335a0000000001e705ac740000051c523c32000060040000000b
:203370000000000000c3000002000080140400e80000000000000000003c00100a000000a2
:2033900000000001008d40080000000000000005d00943e8000009603efa400000000a0053
:1733b000000000000042f9c20100280000803c00000b4300000000d6
:2033c700000000000c3020002001829410400000000000000000f8007bc104000006800045
:2033e700000000001e160280000000000000002580978d1ca00020056ec740000000836a04
:1634070081040002076d8c74000380007a15500c00000000000046
:20341d000000000000c300000d00e102800000000000000000000780003c00100000000089
:20343d000000000000008028000000000000000100038040050002c37dec10040000100ca0
:17345d00280810000460fec100400010000154004000000000000010
:20347400000000000c3020005000000000018100000000000000801000000000000000007a
:20349400000028000e0000000000000000030389013ad1dc00002065f9e560000001800027
:1634b40000000000661dbc74000000005b140000000000000000e0
:2034ca000000000000c300000200000000000008000000000003870f00000000000000007c
:2034ea0000000100010000000000000000001000588fe108c00002c23c8a400010800000c6
:17350a00000000080c3efcc200000000018000000800000000000011
:20352100000000000c302000001e000000000000000000000000800033c10200004000005a
:2035410000000000019b0000000000000000000801173d40000004376fc74000020000007e
:163561000000000043ad9c7400000981d3a0000000000000000057
:203577000000400000c3000002000000000000000000000000000f00003c000000000000e4
:2035970000000000008f4014000000000000000050a083d40010002265dc10000010000057
:1735b70000000000024079c10000001085a800040000000000000040
:2035ce00000000000c30208000005601501c0000000000001018000073c102c00000000020
:2035ee00000000279e000000010600000000002800568c1ac40006247f8340300005cfafea
:16360e00d50040016717d834000008001e4200000140000000005d
:203624000000000000c3000000000080140080000000000002001f00043c00080000000046
:20364400000000010100000000100000000000051003c1c820c000077dde30020000109b94
:1736640074405c020002fdd3000020100fb80000000c000000000068
:20367b00000000000c3020000000033c1000000004d8054040000000000000000000000023
:20369b00000000081c00000000000000000000080b7ac9000000202f48244000000010008a
:1636bb00000000000000af0408000000533c30000000000000007f
:2036d1000000000000c3000008000003c04000000341005000000000000000000000000077
:2036f1000000000071a000000000000000000000d0dfe814400002c76582600000000f009e
:1737110000000000000000f00000000000383c00000000000000003d
:20372800000000000c3020800000073c100200002000000000000000000000200000000010
:2037480000008180003e0c000008000000008325011bcc142280000440a5000000100000cf
:16376800000020000000af0408800800523c300001000000000029
:20377e000000000000c3000000000003c0040000000000000013a0000000000000000000ee
:20379e0000000000500fac8000000000000000001099aec4440400035400000010000000b6
:1737be0000000000000000f00000003000003c000000000000000098
:2037d500000000000c3023000000073c1804000000000000000000e000000040000000cf27
:2037f50005000040015682188000000000008005195a005440002001cc404200000005e31b
:16381500c00140014680af0700000999523c3000000000000000bf
:20382b000000000000c3002000000043c00040000000000000000010000000000000000047
:20384b00f000400050810002000000000000000051cbed6c040000402702500000000070b8
:17386b003d401c00142810f00140281080803c0000000000000000bc
:20388200000000000c302040000007bc18000100000000000000800baa94001000000000d5
:2038a2000000000b8017295800000000000350019800000001000000480640020500080356
:1638c2009c0800014281af0700000181523c300000000000000092
:2038d8000000000000c3000000000003c00000080000000000020d005414020102000000c6
:2038f80000000000100943d4000000000000140001a000000010000015d0300010a700509f
:1739180036c00100142800f00000000080803c001000000000000029
:20392f00000000000c302008050a03bc1800001c01d80560000000000000000001c0000013
:20394f000000000000bb800000000000000000001d9680dc400a0064ca0000b800001000ce
:16396f00000004000001af07100005007a3c30400000000000004c
:203985000000000000c3004000090043c000000000030050000000000000000000000000c0
:2039a50000000000000b40140000000000000000008de14c050000022e00a00128500e008d
:1739c500000000a0000000f00000000800003c000000000000000017
:2039dc000a0000000c303000081c073c1800000000000000000000000000000000000000d6
:2039fc00000000019c96b0d0800000000000008b80de0110000000000c2000000000000052
:163a1c000000000000000000000000005a3c3020000000000000ae
:203a32000040000000c3000000b5b043c000000000000000000029000000000000000000e0
:203a52000000000591c7838c0000c00000000000f00f341c8000000015d100000000000073
:173a720000000008000000000000000000003c0000000000000000f9
:203a8900000000000c302000000e033c180c00000000000000000000000000000000000050
:203aa900000000270000000000000000000000019c1adfc000000004ca050000003000007d
:163ac900000000000001af05900005005a3c3000000000000000d7
:203adf000000000000c300000000b043c0000000024000000000000000000000000000000f
:203aff000000002408f000000000000000000000000533fc800000022e00000000000000a7
:173b1f0000000000000010f00000000800803c0100000000000000ca
:203b3600000000000c303100038003bc100100000000000000000000000000c000000000ef
:203b56000003000800bbc000000000000000400001963e804c0000000000000000000322c3
:163b76008000c000e001af05010008187a3c30400000000000001d
:203b8c000000000000c3002000080043c020100000000000000000000000000840000000b3
:203bac0000002000700334400000a0000000041800f383c000800000000000000200000c72
:173bcc0028000c00020010f02010001000803c0000000000000000b0
:203be30001000021ac302000500003bc1800000001de552000000000000000000000000029
:203c03000000000000bae450000000000000000000000000000100076af0600000000000f1
:163c230000000021c285f1a000000000723c30000080200af050ca
:203c390000100000c0c3100010000003c0000000000305500000000000000000000000009d
:203c590000000000000fba8400000000000000000000000000000942f600f00000000000cd
:173c7900000000001429df180140000000003c10000402010f020457
:203c900000000000ec3020800d80073c18000000000000000800000002950022100000009f
:203cb0000000800000000000000000000000000000000000020020026100000800000000e7
:163cd0000000000002bee5a000810000723c300200000008f04000
:203ce6000000000010c3000000500003c00000000000000000100000f01680100000000032
:203d06000000000000000000000000000000000000800000000003c00ca42010000000007a
:173d2600000000060023e05f0000000000003c00000240010f000090
:203d3d0008000000cc302340000003bc1800000000000000100000000000004001c0000017
:203d5d0000000008000000000000000000000008005a828804022028000000100000a000d4
:163d7d00000000404000000000000019523c300c0800000ef04087
:203d93000000000010c3002400000043c00000000000000000000000000000000000000016
:203db30000000000100000000000000000000000b0000028044003428000000300000000fc
:173dd30000000000400000000000000080803c00c00003c10f0000ca
:203dea0001020001cc302020100003bc18000440000000000000000000000000000000004e
:203e0a000000000000000000000000000000000001000000000020704aa0084000000000d5
:163e2a00000000000380000000000199523c30010000001ef04058
:203e400000003c0010c3000002000043c0000000000000000000000000000000408100008d
:203e600000000000000000000000f4000000000050d00000000001c6f50000000000000072
:173e800000000000240000000000020080803c00140000010f0000a5
:203e97000a0003c0ec302000000007bc180000000000000000000000000000000000000027
:203eb7000000000000000000000000000000000000000000000000000a08000100000000d8
:163ed70000000000000fa000080000007a3c300000000008f04000
:203eed000000003800c3000000000043c000000000000000000000000000000000000000b7
:203f0d0000000000000000000000000000000000000000000000000005b040800800000017
:173f2d0000000000000160050000000000003c00000000010f0000cb
:203f440000000001ec302000400007bc1800040000000000000000000000000200004000bf
:203f6400000000011800000000000000000300000000000000000e004a00000000000000c9
:163f84000000c009c2049800000008005a3c300000000018f040ea
:203f9a000000042010c3000002d00003c000000800000000000080000000000006003c00b1
:203fba0000000000000000000000000000001000000000000000600035005080000008006a
:173fda000000040000025900000000b000003c00000000000f000076
:203ff10000000781ec302000200a063c100080000000000000000000000000000000200ac6
:2040110054000000000000000000000000000000007ea800000080000a0200040000000085
:16403100000000414005c800300009805a3c300000007c1ef040e2
:204047000000040000c300001dd1b003c0800000028000000000000800000000000002c065
:204067005a004000000000000000000000000000000042800400100005b010800000000084
:1740870000000001400000800000001000803c00000003010f000082
:20409e0000000380cc3021000501063c100005c00400000030010000000000c0000020a58b
:2040be00540b000308ffe9d0000000000000000000063cc08c0000004a00003000780073cd
:1640de00c100002016d78f51031008005a15500c0004701ef04175
:2040f40000003c4010c3012000089003c0800008030000000220000000000008008027c0c5
:20411400aa006000010374080000000000000000700043cc80800000350a0083000080043c
:174134003c0a1000002830f50010001000815400800026400f0800df
:20414b000000000cac302000000000000000000000000000010001e07bc1400001661e90d9
:20416b008000000000fe3d4000200000000000081c16a910000000000000000800000b63b0
:16418b00d401000000200a560000050adac200000000014100805c
:2041a1000010000140c3000020000000000000000000000000000000043c000000340358fb
:2041c10000000000000d43c061000000000000001001bb6a400008000000000000000034bb
:1741e1003c0000000003c05a00000050abb800000203c00080000076
:2041f8000000001eec3024000000000000034c8002eaa7400800000033c10020020005a0e4
:20421800202000800800000000000000000080010073605802008000000000000000800010
:1642380000002a000001cf06000000003286808000000148968059
:20424e004000000010c300002800000000000a104014ca5000018000003c0000a0140050cc
:20426e000011000200000000000000000000000000096d1c00001400000000000000000077
:17428e0000000000000010f00000001001c168000010c280f9620032
:2042a5000010401fcc302000200800000000000438daa010103000003bc10040000680007e
:2042c5000000000000000000000000000000038000163d480c0c00000000000000000000a3
:1642e5000000c0c00000cf0600800798da16800040142948968004
:2042fb0000003c0010c30000050000000000000020000a0000000000003c00000000000029
:20431b0000000000500000000000000000000000000783c000d00000000000000000000018
:17433b0000000400000000f0000001780566b40000014282c96000f1
:204352000100000dcc30200000000000000c4c80000000000000000073c1000001e601af7e
:20437200040002801e000000000000000000400000000000000e0000000000000118000020
:164392000000000003a00a5603000500104600000014054996803c
:2043a80000002c0020c300003000000000004a104000000000000000003c000000000000e0
:2043c800f000000000000000000000000000000010b00000000000000000000000018000a4
:1743e800000000000002c05a00140050e9280000000142c2f96000cf
:2043ff000001e397ec30200020000000000000063dfaa0000000000023c10034000001cf02
:20441f000400000000003fc4000100000003100001000000000000000000000000780000e9
:16443f0000000001e001ef060000051d00000000002001689680cf
:2044550000063c7c10c300001d0000000000000002820a0004000b00043c0001800000102b
:20447500f0000000000003fc200000000000128000d0000000000000000000000040000076
:1744950000000000022000f000000009800000000003c000896000c9
:2044ac000000025dec30200000080000000000200018f302000100007bc18108140700003f
:2044cc000000000000000000000000000000000818873d40000000000000000080800000ac
:1644ec00000000000741af0500000001000000000000016996803d
:204502000000247c10c30000380100000000000040000f301000230d043c0000c00000002e
:2045220000000000000000000000000000000000700103e881000000000000001003000089
:1745420000000000003c10f000000000b000000000000000b960005d
:204559000015c21ccc302000001e00000000000000000000000080080295010000070000ee
:20457900000300000057a800000000000000102180000000000000380ef050300000086a47
:1645990080000000078000000000000000000000000005e9968001
:2045af0000002e4010c3008000000000000000000000000000001700b0168000000040008e
:2045cf00000010000000028080000000000002840000000000000003810f008100000050d0
:1745ef0014000000004000000000300000000000000003c099600075
:204606000001c3cecc3020002000f2bc001c414000ca0f00300200e0000000c0020000efdf
:2046260004000000000000000000000000034050003b69d40c014000000000000000000018
:164646000000c0000200ef0500000100563c062000203de8f0803a
:20465c0000003e3420c3008004000bc168808a0003ef0f000200400b0000000806040010b7
:20467c00f0000008f000000000008000000025000009769480800800000000000000000076
:17469c00000008403c0010f0880000000b33c4001023c3c200f00051
:2046b30000e000000c30200001193a528000000000000000000000036fc002000003808f3f
:2046d3000400000001000000000000000000000000d3e910200000000000000000000000d6
:1646f30000000002e0259082000005980000000000006949968033
:204709000010000000c30080000889610c000000000000000000000af2c3c00000000010b0
:20472900f000000000a000000000000000000000000b279600000000000000000000000018
:17474900000000006e01cb00000000000000000000000002f9604084
:20476000000000000c3020800818df258882000000000000080000092bc00022100000ef12
:20478000040000059b0000000000000000008000017f2800020000200000000800700000b3
:1647a00000002200e0058e5420800500db8c1000814000080f0026
:2047b6000000000000c3000000110941a40000600000000000000000fc16800000800000af
:2047d600f001001800a0000000000000000000000080c280000000000000000000008a00ce
:1747f600000000401c00c0c00000000801b7cc010400020000f0004d
:20480d00000000000c30210000001782800c002000000000100001e06b840840000001cff1
:20482d000500000580000000000000000000000800f7b0d08c000402180550000000076fed
:16484d0095010000000000000000038000000000400474daf500b5
:204863000000000000c300000000004028008002c000000000000010f0348800000000000c
:20488300f0000000000000000000000000000000100dc31c204000003d00a0100000003aa2
:1748a30070000000000000000000000800000000000006010f500020
:2048ba00000000000c302040030a5b3c0000000000000000000050ebb03c0000000001ef87
:2048da00040000480000000000008000000000180e00000000000000000000000090a06a32
:1648fa0080000a04038000000000001e3aa8500000400158f508b1
:204910004000000000c3000018090f803c0000000000000000028d803c3c00000000001001
:20493000f00100025000000000001000000000003000000000004000000000000001103063
:174950001400010a000000000000000009a34420000803830f500034
:20496700000000000c302010080003ed00004000000000000000181076d00000000001cf4e
:204987000410000000000000000000000000000000000000000e00040000000000101fba01
:1649a70000080000600000000000000800000000009e00000000ec
:2049bd000000400000c3000000d0036de0000200000000000000000bb35e000000002c105d
:2049dd00f0004000000000000000000000000000000000000000000240000000000108f847
:1749fd000000000000000000000001000000000000000000000000a2
:204a1400000000000c3020004181fbbc00000c00000ef04004007817ea580a00014280cff2
:204a3400041020501cd3b4c0400000000000000018000000000000000000000000918de322
:164a54008008000400000000000050000000000c810000000000e3
:204a6a000000000000c30000020087803c00000000000f0000000088f02580000a0240109c
:204a8a00f0000000010b3bcc000000000000000000e000000000000000000000010b801c81
:174aaa00300000000000000000000000f00000004408000000000089
:204ac100000000000c302000030107ed0000001c000af040000001900295000000e281efb1
:204ae10004000009801e0280000000000000000801dfe9d00c00000018055100000013f862
:164b0100610804e000000000004001800000000006800008a00062
:204b17008000000000c300000000f73de000000020000f0010000008b01680000002400058
:204b3700f0000000f80080280000000000000000d08d6694010000001500a0000009083c74
:174b5700042000a00000000000000000000000000010001505000455
:204b6e00000000000c302300081903bc10044000000000003000d00fea9402c0140380efbf
:204b8e000400000000960080c00000000003000018bef0d0000000200000003080009b74b5
:164bae000000c000c0000000030000000000000000003800000036
:204bc4000000000000c3002000f0a003c0018a00000000000203818f703c00080034001003
:204be400f00000000005c000000000000000200070ebfb2c00000000000000021000083b05
:174c0400c200080000000000002000000000000000000000000000af
:204c1b00000000000c30200000191a5280000000605ff0000000f803819a00040007f78ec3
:204c3b00040000018117200000000000000000000000000000000000000000001000086024
:164c5b00150100000000ef04000001087000200000006c00000035
:204c71000000000000c30000000089610c0000000017b0f100000300039988000000347ed9
:204c91004000000000dd7c000000000000000000000000000000000000000000000009b4ad
:174cb10002804000000000f00800200900800008000002000000007f
:204cc800000000000c302080098b1ba8c0820060006ef00000010007a25a02200262a18ee0
:204ce800400083000006bc10000000000000000000563d4022000000000000080000887121
:164d08004102200000000000000003003a3c200200000400000093
:204d1e000000000000c30000001085c314400000402c05a000000000022580000206284bd3
:204d3e00d8000000000043c00000040000000000100003d4000000000000000000000a90f5
:174d5e002800100000000000000000000023c00100000280000000a0
:204d7500000000000c30210000003e8280040406005ee1220000f803a65a00c0000725aa81
:204d9500160100001807bc1000000000000000050000000000000060000000101080076090
:164db5001505400007800000000000001a3c2400000063dcf3401b
:204dcb000000000000c30000007000402800000000030e1004000b800aa5804c0024287e38
:204deb0001000001000003c000000000000000000000000000000000000000010043000c93
:174e0b0001400c0000400000000001000003c00000000024903880d3
:204e2200080000000c30202800195fbc0000a00e63fa0f000000b9e3225a02001400348fa5
:204e4200500000079d073c10000000000003000000000000000004036aa5510201008869ab
:164e62004181000000000000006800007a3c2000020000ebf3401a
:204e78000040000000c3000100009fc03c000000040e0f000000039003658000a2002bf022
:204e98005a00000001f003c0000000000000100000000000000000203d0a008000000b9456
:174eb80028000000000000000005000000a3c00000000027c3001059
:204ecf00000000000c302004000083ed000050003000a540004081a7a25a000b02c0158dbb
:204eef00103004018013820000000000000000000000000000000000000000000000000049
:164f0f000000000000000000000000007a3c2000000000000000b6
:204f25000000000000c3000040000f6de0000100041c05a0000405100aa58000161400c015
:204f4500f0000040080d7c0000000000000000400000000000010000000000000400000046
:174f65000000001000000000000040009003c0000100000000000091
:204f7c00000000000c302000051d87658000014c006e0f00028059a5a25a0000020706e8ee
:204f9c001420001019971000800000000000000000000000000b4000000000000000000026
:164fbc00000000000000000000200000723c2000001c00000000d5
:204fd2000000000000c300004001b975a4000108002c0f00001000000aa580004a1c00e020
:204ff20050008000108dc0000000400000000000000000000001000000000000040709001d
:175012000000000000000000000100900003c00000e00380000000d0
:20502900000000000c302000000ebe294000000c00000000000038a7225a00001862b59ca4
:20504900b40040001f3b0280000000000000000000000000010000000000003000000560e1
:16506900150000000000000000000700123c200000200000000087
:20507f000000000000c3000000009bc03c000000000000000003000a0a25880001c00069c9
:20509f00ef00000001808028000000000000000000000000000000000000000000000e04c7
:1750bf0001406000040000000000000890b7c0000002c00000000064
:2050d600000000000c302304000c07bc100c10006ffaf02000001817265a00c000003d9a9d
:2050f600440300080006bc10000c000000000000000000000c0000000000000000000860f9
:165116002800c000000000000000171a7a3c200c00000000000088
:20512c000000000000c3002040010043c0008100068e05a00006008a0aa58404100032cbae
:20514c0040002040700003c00000000000000040000000000081e00280000000040000d475
:17516c000140081000000000000042f90003c00181e0000000000073
:20518300002000000c3020001000033c14000160046c0f0000100007a25a00000a0666eed6
:2051a300740000d00000000000000000000000000100000000000000000000000000800027
:1651c300000000080000000000000000723c2000001e00000000e2
:2051d9000000000000c3000018000003c0000002427e0f000000000f02e58510004477f809
:2051f9008b000207000000000000e0000000000000e0000000000000000000000009100029
:175219000000000000000000000000008003c0100004000000000027
:20523000000000000c302080000003bc14020000385acc0200000007a65a802812061def7a
:205250003400800900dbf88000000000000080000e02bc18000000000000000800000000c2
:16527000000020000000000000800000723c2002002002ca476025
:205286000000000000c3000000000043c000000000030cc00400500002e58000000443fc75
:2052a600a3000000f80d630c0000000000000000000043c0000000000000000000000000ce
:1752c6000000000400340000000000000003c0000021401cbe20007b
:2052dd00020000000c30230000008029580c000000faaa0000000087265a0000a062d4fac8
:2052fd00740100001806bc4880000000000100000c00000000020000000000001800000053
:16531d000000c0080000000001010000723c200040360400000068
:205333000040000000c30010000007016800800000040aa00400000803e58010001e26ffe2
:205353009b003000000303c805000000000010000100000000000000000000000007000084
:1753730000000c0101000000001000000083c0000a0143c0000000b4
:20538a00000000000c302000001a80295000002e67fb330040001007225a000000601def92
:2053aa00340000051c033cc08000000000000000000000000000000000000000000000000f
:1653ca00000002000000000000000000723c280080200000000055
:2053e0000000000000c3000000000b0168800000c22ebcc00001000803e58000000003dd39
:20540000a300000011e003cc000000000000000000000000000000000000000040000000e9
:175420000000000a00000000000400000083c00000004000000000e4
:20543700000000000c302028070007bc1040300e0000000000407883a65a040100665cfe79
:205457007400000001000000000000000000800780033c104000000000000000000000002a
:1654770000000000000000000000001e7a3c2000003e01da3040a2
:20548d000000000000c320004000f003c000050000000000000400000aa580201000215848
:2054ad004700004070d000000000000000000040080003c0040900000000000004500000ac
:1754cd000000001000000000000044010003c0000102e01ecf3200ae
:2054e400000000000c312000038e06bc14000046700ef040000001a1225a0400000617edc4
:20550400540000031cdfabd8000000000000800000000000001001000000000840001000c9
:165524000000010000018f04801020007a3c2000102662dc214081
:20553a000000000000c3000040080043c000016000000f00800180000b258200042403d91c
:20555a00e50000003901c29400000000000000c00000000000000000000000000080080074
:17557a0000000018800010f00000850000b7c0000002400cc7b200bf
:20559100000800000c312010000e073c1400809c70fa0a000000d81523c20000004794aa39
:2055b10000001007185f0280000000000000000000063c10000000000000000000000d2249
:1655d100850000000780000000100f9a023c1040008e035e304012
:2055e7000006000000c3000280000003c0000000200000a00000050b0803c0100024201097
:20560700a0008000090334200000000000000000000043c02008000000000000080000b61a
:175627003442000000400000000000718003c00002f0239dcf301041
:20563e00000000000c302104471c07bc1404100063fa03020000d9c0225a00c0000204bea2
:20565e002401000008f70f00a0000000000180001e07bc1040000000000000300000000077
:16567e000000400000000000030308080000000c003e04d9474012
:205694000000000000c3002042d10043c0008100042e095000068510035a4014100041fd57
:2056b40081001000000b01f00000000000002040000043c00001a00000000002040000003f
:1756d4000000085000000000002040f0000000008103e204de20802f
:2056eb0000000020cc302003000100000000014060c9f00000000003a3c22000400657eaf6
:20570b0050000008481b7d4000000000000000000000000000008000d8f510800000000029
:16572b000000040200000000002000001afcd00000200178034080
:205741000010000340c300400004a000000000a0043df0f00400000a0003c5000000356022
:20576100f01040001099bed400000000000000000000000000000400020f50000000000048
:17578100000000804c00000000060000a738c2040000438e8f330007
:2057980000000681ec322082858003bc10220020026ef00000000087a3c20000036027803e
:2057b800f08080098ef6a918800000000000818000073c14000104000000000009100f7f0f
:1657d8000c04200200058fa00080050000000003011c3e4e504094
:2057ee000000004010c3000000000003c0000000402c05a0000300100803c010017638d047
:20580e00f0000008100303f40000000000000010000043c00000040000000000402000d22f
:17582e0032c80006042000fa0000000000000000000003c60faa00c3
:20584500020000018c3023000000073c102421007008e102010000e1a3c2840021c724e9ae
:2058650060200007803eb8940000000000030000000000000000000000000000000000008f
:16588500000004020000000000008800000000000080600000009f
:20589b000040003c10c3003000000003c0000448043d0d20040000180803c0000000017099
:2058bb00960100000801379c0000000000003000000000000000000000000000000000002a
:1758db00000000000c00000000000010000000000014000000000086
:2058f2001101c200ec3020020001073c10000146036a0f0000001005a3c2a0000a60748fe6
:20591200000001c90b93f89800080000000000001e000000000000000000000000000fbc8c
:1659320008000023c000000000000800000000000006376b305044
:205948000100060010c301000000a003c0010008001d0f00000180800003c000006c33f079
:205968005a00000578f36f6c000000000000000001000000000000000000000000000ad39c
:17598800c00000001c0000000000001000000000000003a78f3000b3
:20599f000001e001ac302000000006bc140020060000a5500008700323c2820000000180b6
:2059bf00f0080007093b78940000000000008000000000000c080068000000380000000045
:1659df00000000000021bf140000000076cc10000160000000000b
:2059f5000000020000c3000000000043c0000400001c05a0000000800003c00000000000c2
:205a15000f0000000181639c0400000000000000000000000040000000000001000000009c
:175a350000000000000148f2000000000fbbcc0400cac28000000079
:205a4c0000020001ac3020000500023c10200640380af040028010002154820004406eeaeb
:205a6c00500038038192f89040000000000000000007bc10000000000000000100000000e0
:165a8c000000c0146007be540000019e97c0d000000004db3041a1
:205aa20000001c0000c3000000d80043c000000800010f0008000080302a8000001e216011
:205ac200f00102880083236c000000000000000000f003c08008600000000000000000009c
:175ae2000000040000014cc0000000010bb3cc040000021e8f30002e
:205af90000100700ac302000670e063c1000a00460000000001a11b7bbc00400006041e6c7
:205b1900900000019e3a789040000000000000000e000000000680000000000000580000cf
:165b390000000000000000000001011c00000000000607d903410e
:205b4f000000800010c3000002000003c08200000000000000000088df83c000a002265bcf
:205b6f00960000000001779c0000000000000030010000000000100000000000000000002b
:175b8f00000000000000000000020108e0000000000242a6df30001b
:205ba60000000381cc30310000000000000c80206800a541000000e72294040002006ee93a
:205bc600603300030e86bd4040000000000300030006bc100000000000000000b058000078
:165be6000000c02000079f40132801000000000c0000000000009b
:205bfc000000004000c300202800000000008402c02405a01000000fdc3c000000243d4057
:205c1c0069003030010343e80000001000002000000043c000000000000000003000080005
:175c3c000000080000015cf001210000000000008008000000000052
:205c53000000002fcc302403000100000000000000cff000000038f7800200000060059f6a
:205c73000200100001fb820000000000000000000056295800082000000000000000000082
:165c9300000000200001cf040000000018002001002003cc30604f
:205ca90000100003d0c300000000f0000000000002bde0f00020000d030000000400235f00
:205cc9000f00028000d3f000000000000000000000c903e800000340000000000000000070
:175ce90000000000000000f0200400000080000800e2c01c8f300487
:205d00000000031ccc3024c00800063c1202802004f8f0000b000005a25b8002000384ef95
:205d20000000800500da70502040800000008007803faa80020000004e5060800010000064
:165d400000002000000000000000000c727c2002014002ce304090
:205d56000000007410c3000400f00003c0020401c37405a00028000002658000400003609a
:205d7600a500041208e77f0000088400000000180800c2a801000000340000001000000089
:175d9600000000000100000000000000f0bfc08000000036af3010e1
:205dad000800001eac3027000000000000040000300ee122100001c3265b80000006418ebe
:205dcd0010230000005fe9540041400000004008000383c800000004000000010001e000ea
:165ded00000044c000000000002000007a3c20100c20000000006a
:205e03000000240000c300200000000000000000067d0d20000001100ba580000c003350f8
:205e2300d220300000c3a9000000000000000400f000403c00000003c00000002800100066
:175e43000000082040000000000000100003c0000002c0000000004b
:205e5a000100021dcc3024005000023c1000408002ea0f00000038e5225b800007c70da0fa
:205e7a00f000082180df781800000000000040000a0383c80000000000000000001805fa51
:165e9a008040020400000000000001001a7c2400008004000000ed
:205eb0000000004030c3000012000043c0020a10000f0f00000000800a2580000c0402d03f
:205ed000f0000000d0f72f0000000000000000000000403c0004400000000000000080008c
:175ef00028000044000000000000180000bfc0000014030000000081
:205f0700002003dcec30202800000000000040060200a540000000e5225b0000016714c04c
:205f2700f0000008017696800000000000001000000783c0000a00000000003000000063de
:165f4700cc4800200000000000000000723c20000004000000003e
:205f5d000000007c10c300000000000000000a00000405a00000090003a588000006026081
:205f7d00f000028070e703d401000000000002800000003c040000000000000100000000a0
:175f9d003cc0000000000000000000000083c00200e022c0000000ea
:205fb40000004307ac302043100000000000017e0000000004000005a25b800000006fa917
:205fd40060200059008331c08000000000000050000000000000000000000000000003a9e4
:165ff40054400a09c0000000000000007a3c200140140400000001
:20600a000000266430c30004000000000000000843800000000001000ba58800000035e0dc
:20602a0096000008f801432c000400000000000000c00000000000000000000040000f0c31
:17604a001548004002000000000020000083c0041a00e2000000003d
:206061000000424d8c3020000000000000000000620b692001003017225b00000160000098
:20608100000000079d77a95080000000000000000a00000000001600000000080000000043
:1660a10000000a54000000000041800c7a7c2000066602ebf3401c
:2060b7000080267830c3008000000000000000004205c9600000038b0a658a00000200003f
:2060d70000000030f1f98200800000000000000000a00000000000200000000000000000cd
:1760f70000000040800000000000000180abc0040009400cd0380085
:20610e000001c21fcc30210050000000000e0c1c0068c3023005b013a65b040002062faae1
:20612e005003000b8f9fb2c00000000000030000080683c04e0000000000000000100000a1
:16614e000000c0000000000000000008023c204c001c00000000ad
:206164000000264000c300a00200000000008000001f03c002002d0b03e58200003c0160ad
:20618400f001300130f3ee9c84000000000020005000403c008000000000000000008000bc
:1761a400000008000000000000002070902bc0008000200000000031
:2061bb00000000000c302400000000000000001e38ddf00000303803a65b800000000ddf69
:2061db000000028000f60000004000000000000000000000000080001af0408000000000a2
:1661fb000000000000000000000020005a3c2800000000000000b0
:206211000010000000c300000000000000000000241ed0f0000000800ba5810000003b4a62
:206231000f00000050fbb08000020000000000000400000000001402000f00000380000015
:176251000000000000000000000005f00083c01000000000000000ee
:20626800000000000c302080000000000002806e007af00008003803265b402202004e8fdb
:206288000000000f00968002802000000000000000000000020000000ef040080000007b6c
:1662a800c18000000000000000800000123c20000000017ca00094
:2062be000000000000c300000000000000000400600405a00000008e03258010000c23d0ab
:2062de005a00000218cb0200000c0000000004000000000000000000010f000000400004fb
:1762fe003c00414000000000000000000003c020000840370f50000b
:20631500000000000c302391238000000004000000dce10310000007a25b8040000601ce68
:206335001020000000b3c20000a740000000000000000000040020200af04011020000002b
:1663550000000000000000000300001c3a3c20000000000000007d
:20636b000000000000c3001084080000000000a010020e10000000080b65800000000340a8
:20638b00d208000204b93000000408000000000000000000004002c0000f00020bc000003f
:1763ab000000000000000000003000010083c000000003c0000000a4
:2063c200000000000c302000000000000000000c33da0f0000001803a25b800000607ec001
:2063e200f0000001813e5fc0004000000000000000000000000004001af04000030000003b
:1664020000000408000000000000001f523c200c000079d8f50059
:206418000000000000c30000000000000000000000070f000000008002e58000000033e091
:20643800f000000000b77ffc000a00000000000000000000000002c0000f00000010000037
:17645800000000010000000000000001c083c004400000020f520081
:20646f00000000000c302000800100000000000e6200a54000008011265b01000260000a5c
:20648f005400010f800337c0820000000000000000000000000000000ef04000000000004f
:1664af00000000080000000000002008723c2000000000000000d9
:2064c5000000000000c300000000e00000000000201405a00000050a02658800002c0240cf
:2064e5005a000000f00303bc00000000000000000000000000000000000f0000000000007c
:176505000000000000000000000005010003c00400000000000000b2
:20651c00000000000c302000000000000000000e047a0f00400059a7a65bc40002e0678a90
:20653c00500000181df01680100000000000004000000000000000000af04000800000002a
:16655c000000080000000000000000085a3c20000000040000005f
:206572000000000000c30000000000000000000002040f00000001000a25804006063b609a
:20659200f0000000f1fd0000000000000000001a000000000010c000010f00000000000011
:1765b20000000000000000000000000100b7c00002000280000000d6
:2065c900000000000c3020008000000000000006784ce1020100f817225b0400000040f662
:2065e900900000df013fa00080214000000000000000000000000038000000010000000029
:1666090000000000028000000010001e023c14000a006800000007
:20661f000000000000c30000000000000000000000020e100028090903a58a0000003e5c72
:20663f009600000a78898000000028000000000000000000000000c400000000000000002e
:17665f000000000000400000000080f00003c00000000400000000ad
:20667600000000000c302100000002bc101c01000000000030303985a25b00c00807ef895a
:206696006020100801160040a000000000000000000000000c010000000000300000800098
:1666b600000000000000e0f10300000000000000010000000000f9
:2066cc000000000000c3002000000003c0008008000000000200009803e58208010077609c
:2066ec006900000070fd00000000000000000000000000000080080000000002100000001e
:17670c00000000000000100f00200000000000000000000000000037
