:02000000ff00ff
:080002004c6174746963650030
:17000a00694345637562653220323031372e30382e32373934300069
:15002100506172743a2069434534305550354b2d53473438002c
:1a003600446174653a20417072203620323031392031313a35323a343700ab
:0200500000ffaf
:040052007eaa997e6b
:02005600510057
:020058000105a0
:03005a00920020f1
:03005d006202b389
:03006000720150da
:0300630082000018
:02006600110087
:02006800010194
:20006a00000000000000000000000010000000000000400000000000010000000000000421
:20008a000000000000001000000000000040000000001000000000000040000000000001b5
:1600aa0000000000000004000000000000100000000000004000ec
:2000c0000000000000000000000000020000000000000800000000000020000000000000f6
:2000e00080000000000000000000000000080000000002000000000000080000000000006e
:17010000200000000000008000000000000200000000f0000800004e
:200117000000000000000000000000000000000000000000000000000000000000000000c8
:200137000000000000000000000000000000000000000000000000000000000000000000a8
:160157000000000000000000000000000000000000000000000092
:20016d00000000000000000000000000000000000000000000000000000000000000000072
:20018d00000000000000000000000000000000000000000000000000000000000000000052
:1701ad0000000000000000000000000000000000000000000000003b
:2001c40000000000000000000000000000000000000000000000000000000000000000001b
:2001e4000000000000000000000000000000000000000000000000000000000000000000fb
:1602040000000000000000000000000000000000000000000000e4
:20021a000000000000000000000000000000000000000000000000000000000000000000c4
:20023a000000000000000000000000000000000000000000000000000000000000000000a4
:17025a0000000000000000000000000000000000000000000000008d
:2002710000000000000000000000000000000000000000000000000000000000000000006d
:2002910000000000000000000000000000000000000000000000000000000000000000004d
:1602b1000000000000000000000000000000000000000000000037
:2002c700000000000000000000000000000000000000000000000000000000000000000017
:2002e7000000000000000000000000000000000000000000000000000000000000000000f7
:170307000000000000000000000000000000000000000000000000df
:20031e000000000000000000000000000000000000000000000000000000000000000000bf
:20033e000000000000001000000003800000000000000000000000010040000000000401c6
:16035e000000000000000000000000000000000000000000000089
:20037400000000000000000000000000000000000000000000000000004000000000000029
:20039400000000000000000000000008000000000000000000000000000000000000000041
:1703b400000000000000000000000000000000000000000000000032
:2003cb00000000000000000000000000000000000000000000000000000000000000000012
:2003eb00000000000000c000000000000040000000000000000000000000000000000000f2
:16040b000000000000000000000000000000000000000000c0001b
:200421000000000000000000000000000000000000000000000000000000000000000000bb
:20044100000002000000000000000000000c0000000000000000000000000000000000008d
:1704610000000000000000000000000000000000000000000c000078
:20047800000000000000000000000000000000000000000000000000000000000000000064
:20049800000000020000000000000000000000000000000000000000000000000000000042
:1604b800000000000000000000000000000000000000000000002e
:2004ce0000000000000000000000000000000000000000000000000000000000000000000e
:2004ee000000010014000000000000000000000000000000000400000000000010000000c5
:17050e000000000000000000000000000000000000000000000000d6
:200525000000000000000000000000000000000000000000000000000000000000000000b6
:20054500000000000040000000000000000000000000000000000001000000000000040051
:160565000000000000000000000000000000000000000000000080
:20057b00000000000000000000000000000000000000000000000000000000000000000060
:20059b0000000200000000000000000000000000000000000000000000000000000000003e
:1705bb00000000000000000000000000000000000000000000000029
:2005d200000000000c302000000000000000000000000000000000000000000000000000ad
:2005f2000000000000000000000000000000000000000000000000001af04000000000009f
:1606120000000000000000000000000000000000000000000000d2
:200628000000000000c30000000000000000000000000000000000000000000000000000ef
:20064800000000000000000000000000000000000000000000000000000f00000000000083
:1706680000000000000000000000000000000000000000000000007b
:20067f00000000000c302000000000000000000000000000000000000000000000000000ff
:20069f0000000000000000000000000000038008000000000e0000001cf0403800000063bb
:1606bf00c100000000000000000000000000000000000000000064
:2006d5000000000000c3000000000000000000000000000000000000000000000000000042
:2006f500000000000000000000000000000020007000000000800000010f000200050000be
:170715003c0000000000000000000000000000000000000000000091
:20072c00000000000c30200000000000000000000000000000000000000000000000000051
:20074c0000000000000000000000000000000000000000000000200000000000000000333a
:16076c00c1000000000000000000000000000000000000000000b6
:200782000000000000c3000000000000000000000000000000000000000000000000000094
:2007a2000000000000000000000000000000000000000000000000400000000000000000f7
:1707c2003c04000000000000000000000000000000000000000000e0
:2007d900000000000c302000000000000000000000000000000000000000000000000000a4
:2007f9000000000000000000000000000000000000000000000000000000000000000000e0
:1608190000000000000000000000000000000000000000000000c9
:20082f000000000000c30000000000000000000000000000000000000000000000000000e6
:20084f00000000000000000000000000000000000000000000000140000000000000000048
:17086f00000000000000000000000000000000000000000000000072
:20088600000000000c302000000000000000000000000000000000000000000000000000f6
:2008a60000000000000000000000000000000000000000000000000000000000001800001a
:1608c600000000000000000000000000000000000000000000001c
:2008dc000000000000c3000000000000000000000000000000000000000000000000000039
:2008fc000000000000000000000000000000000000000000000000000000000000000000dc
:17091c000000000000000000000000000000000000000000000000c4
:20093300000000000c30200000000000000000000000000000000000000000000000000048
:20095300000000000000000000000000000000000000000000000004000000000000000080
:16097300000000000000000000000000000000000000000000006e
:200989000000000000c300000000000000000000000000000000000000000000000000008b
:2009a90000000000000000000000000000000000000000000000000200000000000000002c
:1709c900000000000000000000000000000000000000000000000017
:2009e000000000000c3020000000000000000000000000000000000000000000000000009b
:200a00000000000000000000000000000000000000000000000000000af04000000000009c
:160a200000000000000000000000000000000000000000000000c0
:200a36000000000000c30000000000000000000000000000000000000000000000000000dd
:200a5600000000000000000000000000000000000000000000000000000f00000000000071
:170a7600000000000000000000000000000000000000000000000069
:200a8d00000000000c302000000000000000000000000000000000000000000000000000ed
:200aad000000000000000000000000000000000000063c10000000000000000000000000d7
:160acd000000000000000000000000000000000000000000000013
:200ae3000000000000c3000000000000000000000000000000000000000000000000000030
:200b030000000000000000000000000000000000000003c00000000000000000000000000f
:170b23000000000000000000000000000000000000000000000000bb
:200b3a00000000000c3020000000000000000000000000000000000000000000000000003f
:200b5a0000000000000000000001000000000000000000000000000000000000000000007a
:160b7a000000040000000000000000000000000000000000000061
:200b90000000000000c3000000000000000000000000000000000000000000000000000082
:200bb00000000000000000000000080000000000000000000000000000000000000000001d
:170bd00000000080000000000000000000000000000000000000008e
:200be700000000000c30200000000000000000000000000000000000000000000000000092
:200c0700000000000000000000000000000380000a0000000e000000000000000000000032
:160c270000000000000000000000000000000000000000000000b7
:200c3d000000000000c30000000000000000000000000000000000000000000000000000d4
:200c5d000000000000000000000000000000200000000000008000000000000000000000d7
:170c7d0000000400000000000000000000000000000000000000005c
:200c9400000000000c302000000000000000000000000000000000000000000000000000e4
:200cb400000000000000000000000000000000000006bc1820001400000000000000000012
:160cd400000000000000000000000000000000000000000000000a
:200cea000000000000c3000000000000000000000000000000000000000000000000000027
:200d0a0000000000000000000000000000000000000003c000000000000000000000000006
:170d2a000000000000000000000000000000000000000000000000b2
:200d4100000000000c30200000000000000000000000000000000000000000000000000036
:200d6100000000000000000000000000000000080000000000000600000000000000000064
:160d8100000000000000000000000000000000000000000000005c
:200d97000000000000c3000000000000000000000000000000000000000000000000000079
:200db70000000000000000000000000000000000100000000000000000000000000000000c
:170dd700000000000000000000000000000000000000000000000005
:200dee00000000000c30200000000000000000000000000000000000000000000000000089
:200e0e000000000000000000000000000000000000063c1000000000000000000000000072
:160e2e0000000000000000000000000000000000000000000000ae
:200e44000000000000c30000000000000000000000000000000000000000000000000000cb
:200e640000000000000000000000000000000000000043c00000000000000000000000006b
:170e8400000000000000000000000000000000000000000000000057
:200e9b00000000000c302000000000000000000000000000000000000000000000000000db
:200ebb000000000000000000000000000000000000000000000000000af0400000000000dd
:160edb000000000000000000000000000000000000000000000001
:200ef1000000000000c300000000000000000000000000000000000000000000000000001e
:200f1100000000000000000000000000000000000000000000000000000f000000000000b1
:170f31000000000000000000000000000000000000000000000000a9
:200f4800000000000c3020000000000000000000000000000000000000000000000000002d
:200f6800000000000000000000000000000000000000000000000000000000000000000069
:160f88000000000000000000000000000000000000000000000053
:200f9e000000000000c3000000000000000000000000000000000000000000000000000070
:200fbe00000000000000000000000000000000000000000000000000000000000000000013
:170fde000000000000000000000000000000000000000000000000fc
:200ff500000000000c30200000000000000000000000000000000000000000000000000080
:201015000000400000000000000000000000000000000000000000001af0508000000000a1
:1610350000000000000000000000000000000000000000000000a5
:20104b000000000000c30000000000000000000000000000000000000000000000000000c2
:20106b00000004000000000000000000000000000000000000000000000f00000000000052
:17108b0000000000000000000000000000000000000000000000004e
:2010a200000000000c302000000000000000000000000000000000000000000000000000d2
:2010c20000000000000000000000000000000000000000000000000000000000000000000e
:1610e20000000000000000000000000000000000000000000000f8
:2010f8000000000000c3000000000000000000000000000000000000000000000000000015
:201118000000000000000000000000000000000000000000000000000000000000000000b7
:171138000000000000000000000000000000000000000000000000a0
:20114f00000000000c30200000000000000000000000000000000000000000000000000024
:20116f00000000000000000000000000000000000000000000000000000000000000000060
:16118f00000000000000000000000000000000000000000000004a
:2011a5000000000000c3000000000000000000000000000000000000000000000000000067
:2011c50000000000000000000000000000000000000000000000000000000000000000000a
:1711e5000000000000000000000000000000000000004000000000b3
:2011fc00000000000c30200000000000000000000000000000000000000000000000000077
:20121c000000000000000000000000000000000000000000000000000000000000000000b2
:16123c00000000000000000000000000000000000000000000009c
:201252000000000000c30000000000000000000000000000000000000000000000000000b9
:2012720000000000000000000000000000000000000000000000000000000000000000005c
:17129200000000000000000000000000000000000000000000000045
:2012a900000000000c302000000000000000000000000000000000000000000000000000c9
:2012c900000000000000000000000000000000000000000000000000000000000000000005
:1612e9000000000000000000000000000000000c000001f8f508ed
:2012ff000000000000c300000000000000000000000000000000000000000000000000000c
:20131f000000000000000000000000000000000000000000000000000000000000000000ae
:17133f0000000000000000000000000000000000400000000f5000f8
:20135600000000000c3020000000000000000000000000000000000000000000000000001b
:20137600000000000000000000000000000000000000000000000000000000000000000057
:161396000000000000000000000000000000000000000000000041
:2013ac000000000000c300000000000000000000000000000000000000000000000000005e
:2013cc00000000000000000000000000000000000000000000000000000000000000000001
:1713ec000000000000000000000000000000000000000000000000ea
:20140300000000000c3020000000000000000000000000000000000000000000000000006d
:201423000000000000000000000000000000000000000000000000000000000000000000a9
:161443000000000000000000000000000000000000000000000093
:201459000000000000c30000000000000000000000000000000000000000000000000000b0
:20147900000000000000000000000000000000000000000000000000000000000000000053
:1714990000000000000000000000000000000000000000000000003c
:2014b000000000000c302000000000000000000000000000000000000000000000000000c0
:2014d0000000000000000000000000000000000000000000000000000000000000000000fc
:1614f00000000000000000000000000000000000000000000000e6
:201506000000000000c3000000000000000000000000000000000000000000000000000002
:201526000000000000000000000000000000000000000000000000000000000000000000a5
:1715460000000000000000000000000000000000000000000000008e
:20155d00000000000c30200000000000000000000000000000000000000000000000000012
:20157d0000000000000000000000000000000000000000000000000000000000000000004e
:16159d0000000000000000000000000000000000000c000000002c
:2015b3000000000000c3000000000000000000000000000000000000000000000000000055
:2015d3000000000000000000000000000000000000000000000000000000000000000000f8
:1715f3000000000000000000000000000000000000002000000000c1
:20160a00000000000c302000000000000000000000000000008000000000000000000000e4
:20162a000000000000000000000000000000000000000000000000000000000000000000a0
:16164a00000000000000000000000000000000000000000000008a
:201660000000000000c3000000000000000000000000000000100000000000000000000097
:2016800000000000000000000000000000000000000000000000000000000000000000004a
:1716a000000000000000000000000000000000000000000000000033
:2016b700000000000c302000000000000000000000000000000000000000000000000000b7
:2016d7000000000000000000000000000000000000000000000000000000000000000000f3
:1616f70000000000000000000000000000000000000000000000dd
:20170d000000000000c30000000000000000000000000000000000000000000000000000f9
:20172d0000000000000000000000000000000000000000000000000000000000000000009c
:17174d00000000000000000000000000000000000000000000000085
:20176400000000000c30200000000000000000000000000000000000000000000000000009
:20178400000000000000000000000000000000000000000000000000000000000000000045
:1617a400000000000000000000000000000000000000000000002f
:2017ba000000000000c300000000000000000000000000000000000000000000000000004c
:2017da000000000000000000000000000000000000000000000000000000000000000000ef
:1717fa000000000000000000000000000000000000000000000000d8
:20181100000000000c3020000000000000000000000000000000000000000000000000005b
:20183100000000000000000000000000000000000000000000000000000000000000000097
:161851000000000000000000000000000000000000000000000081
:201867000000000000c300000000000000000000000000000000000000000000000000009e
:20188700000000000000000000000000000000000000000000000000000000000000000041
:1718a70000000000000000000000000000000000000000000000002a
:2018be00000000000c302000000000000000000000000000000000000000000000000000ae
:2018de000000000000000000000000000000000000000000000000000000000000000000ea
:1618fe0000000000000000000000000000000000000000000000d4
:201914000000000000c30000000000000000000000000000000000000000000000000000f0
:20193400000000000000000000000000000000000000000000000000000000000000000093
:1719540000000000000000000000000000000000000000000000007c
:20196b00000000000c30200000000000000000000000000000000000000000000000000000
:20198b0000000000000000000000000000000000000000000000000000000000000000003c
:1619ab000000000000000000000000000000000000000000000026
:2019c1000000000000c3000000000000000000000000000000000000000000000000000043
:2019e1000000000000000000000000000000000000000000000000000000000000000000e6
:171a01000000000000000000000000000000000000000000000000ce
:201a1800000000000c30200000000000000000000000000000000000000000000000000052
:201a380000000000000000000000000000000000000000000000000000000000000000008e
:161a58000000000000000000000000000000000000000000000078
:201a6e000000000000c3000000000000000000000000000000000000000000000000000095
:201a8e00000000000000000000000000000000000000000000000000000000000000000038
:171aae00000000000000000000000000000000000000000000000021
:201ac500000000000c302000000000000000000000000000000000000000000000000000a5
:201ae50000000000000000000000000000000400000000000010000000000000400000008d
:161b050000000000000000000000000000000000000000000000ca
:201b1b000000000000c30000000000000000000000000000000000000000000000000000e7
:201b3b0000000000000000000000000000000000000000000000000000000000000000008a
:171b5b00000000000000000000000000000000000100000000000072
:201b7200000000000000000000000000000000000000000000000000000000000000000053
:201b9200000000000000000000000000000000000000000000000000000000000000000033
:161bb200000000000000000000000000000000000000000000001d
:201bc8000000000000000000000000000000000000000000000000000000000000000000fd
:20202d0000000000000000040000000000001000000000000040000000000001000000003e
:20204d0000000400000000000000000000000000000000000010000000000000400000001f
:16206d00000000000000000000000000000000000000000000005d
:202083000000000000000000400000000000010000000000000400000000000000000000f8
:2020a300000000000000000000000000000000000000000000010000000000000400000018
:1720c300000000000000000000000000000000000000000000000006
:2020da000000000000000000000000000000000000000000000000000000000000000000e6
:2020fa000000000000000000000000000000000000000000000000000000000000000000c6
:16211a0000000000000000000000000000000000000000000000af
:20250800000000000000000000014000000000000000000000000000000000000000000072
:16252800000000000000000000000000000000000000000000009d
:20253e0000000000000000000000000000000000000000000000000000000000000000007d
:20255e0000000000000000000000000000000000000000000000000000000000000000005d
:17257e00000000000000000000000000000000000000000000000046
:20259500000000000000000000000000000000000000000000000000000000000000000026
:2025b500000000000000000000000000000000000000000000000000000000000000000006
:1625d50000000000000000000000000000000000000000000000f0
:2025eb000000000000000000000000000000000000000000000000000000000000000000d0
:20260b000000000000000000000000000000000000000000000000000000000000000000af
:17262b00000000000000000000000000000000000000000000000098
:20264200000000000000000000000000000000000000000000000000000000000000000078
:20266200000000000000000000000000000000000000000000000000000000000000000058
:162682000000000000000000000000000000000000000000000042
:20269800000000000000000000000000000000000000000000000000000000000000000022
:2026b800000000000000000000000000000000000000000000000000000000000000000002
:1726d8000000000000000000000000000000000000000000000000eb
:2026ef000000000000000000000000000000000000000000000000000000000000000000cb
:20270f000000000000000000000000000000000000000000000000000000000000000000aa
:16272f000000000000000000000000000000000000000000000094
:20274500000000000000000000000000000000000000000000000000000000000000000074
:20276500000000000000000000000000000000000000000000000000000000000000000054
:1727850000000000000000000000000000000000000000000000003d
:20279c0000000000000000000000000000000000000000000000000000000010000000000d
:2027bc000000000000000000000000000000000000000000000000000000000000000000fd
:1627dc0000000000000000000000000000000000000000000000e7
:2027f2000000000000000000000000000000000000000000000000000000000000000000c7
:202812000000000000000000000000000000000000000000000000000000000000000000a6
:1728320000000000000000000000000000000000000000000000008f
:2028490000000000000000000000000000000000000000000000000000000000000000006f
:2028690000000000000000000000000000000000000000000000000000000000000000004f
:162889000000000000000000000000000000000000000000000039
:20289f00000000000000000000000000000000000000000000000000000000000000000019
:2028bf000000000000000000000000000000000000000000000000000000000000000000f9
:1728df000000000000000000000000000000000000000000000000e2
:2028f6000000000000000000000000000000000000000000000000000000000000000000c2
:202916000000000000000000000000000000000000000000000000000000000000000000a1
:162936000000000000000000000000000000000200000000000089
:20294c0000000000000000000000000000000000000000000000000000000000000000006b
:20296c0000000000000000000000000000000000000000000000000000000000000000004b
:17298c00000000000000000000000000000000000000000000000034
:2029a300000000000000000000000000000000000000000000000000000000000000000014
:202fb800000000000000000000000000000000000000000000800000000000000000000079
:202fd8000000000000000000000000000000000000000000000000000000000000000000d9
:162ff80000000000000000000000000000000000000000000000c3
:20300e00000000000000000000000000000000000000000000100000000000000000000092
:20302e00000000000000000000000000000000000000000000000000000000000000000082
:17304e0000000000000000000000000000000000000000000000006b
:2030650000000000000000000000000000000000000000000000000000000000000000004b
:2030850000000000000000000000000000000000000000000000000000000000000000002b
:1630a5000000000000000000000000000000000000000000000015
:2030bb000000000000000000000000000000000000000000000000000000000000000000f5
:2030db000000000000000000000000000000000000000000000000000000000000000000d5
:1730fb000000000000000000000000000000000000000000000000be
:20311200000000000c302000000007bc10100000000000000000000000000000000000005e
:2031320000000000000000000000000000000000000000000000000000000000000000007d
:163152000000000000000000000000000000000000000000000067
:203168000000000000c3000000000043c2000000000000000000000000000000000000007f
:20318800000000000000000000000000000000000000000000000000000000000000000027
:1731a800000000000000000000000000000000000000000000000010
:2031bf00000000000c3023800000073c1000000000000000000200000000000000000000bc
:2031df000000000000000000000000000000000000000000000000000000000000000000d0
:1631ff0000000000000000000000000000000000000000000000ba
:203215000000000000c3002000000043c20100000000000000005000000000000000000060
:20323500000000000000000000000000000000000000000000000000000000000000000079
:17325500000000000000000000000000000000000000000000000062
:20326c00000000000c3023000000073c102000000000000000000000000000000000000070
:20328c00000000000000000000000000000000000000000000000000000000000000000022
:1632ac00000000000000000000000000000000000000000000000c
:2032c2000000000000c3001000000043c20000000000000000000000000000000000000014
:2032e2000000000000000000000000000000000000000000000000000000000000000000cc
:173302000000000000000000000000000000000000000000000000b4
:20331900000000000c302000000007bc100000000000000000000000000000000000000065
:20333900000000000000000000000000000000000000000000000000000000000000000074
:16335900000000000000000000000000000000000000000000005e
:20336f000000000000c3000000000003c201000000000000000000000000000000000000b5
:20338f0000000000000000000000000000000000000000000000000000000000000000001e
:1733af00000000000000000000000000000000000000000000000007
:2033c600000000000c3020000000000000000000000000000000000000000000000000008b
:2033e6000000000000000000000000000000000000000000000000000000000000000000c7
:1634060000000000000000000000000000000000000000000000b0
:20341c000000000000c300000000f0000000000000000000000000000000000000000000dd
:20343c00000000000000000000000000000000000000000000000000000000000000000070
:17345c00000000000000000000000000000000000000000000000059
:20347300000000000c302000000a00000000000000000000000000000000000000000000d3
:20349300000000000000000000000000000000000000000000000000000000000000000019
:1634b3000000000000000000000000000000000000000000000003
:2034c9000000000000c300000001b00000000000000000000000000000000000000000006f
:2034e9000000000000000000000000000000000000000000000000000000000000000000c3
:173509000000000000000000000000000000000000000000000000ab
:20352000000000000c3020000000000000000000000000000000000000000000000000002f
:2035400000000000000000000000000000000000000000000000000000000000000000006b
:163560000000000000000000000000000000000000000000000055
:203576000000000000c3000000000000000000000000000000000000000000000000000072
:20359600000000000000000000000000000000000000000000000000000000000000000015
:1735b6000000000000000000000000000000000000000000000000fe
:2035cd00000000000c30230007010000000000000000000000000000000000000000000077
:2035ed000000000000000000000000000000000000000000010000000000000000000000bd
:16360d0000000000000000000000000000000000000000000000a7
:203623000000000000c300200000d0000000000000000000000000000000000000000000d4
:20364300000000000000000000000000000000000000000000000000000000000000000067
:17366300000000000000000000000000000000000000000000000050
:20367a00000000000c30200000008314180000000400000000001980000000000000000088
:20369a00000000000000000000000000000000000000000000000000000000000000000010
:1636ba0000000000000000000000000000000000000000000000fa
:2036d0000000000000c3000000000102800100000200000000000000000000000000000091
:2036f0000000000000000000000000000000000000000000000000000000000000000000ba
:173710000000000000000000000000000000000000000000000000a2
:20372700000000000c30238000001f14100e002407d964403800000fe11d00e00002800003
:203747000003830000f717d82000000000000000000000000e000000000000380000000090
:16376700000000000000000000000000000000000000000000004c
:20377d000000000000c300200010000140018001c3c5da4082000008be2042080e006c00a8
:20379d0000002000000f43fc0200000000000000000000000080000000000002000000001a
:1737bd000000000000000000000000000000000000000000000000f5
:2037d400000000000c302100001a83141000000002f8474004000000000000000000000032
:2037f400000000000000000000000000000000000000000004000078000000300000000009
:16381400000000000000000000000000000000000000000000009e
:20382a000000000000c300300001014280010000000694208000000000000000000000008c
:20384a00000000000000000000000000000000000000000000c0000000000003000000009b
:17386a00000000000000000000000000000000000000000000000047
:20388100000000000c30230000001f9410000006600000000000000b611d00000000000016
:2038a100000000000000000000000000000000000000000000000000000000000000000007
:1638c10000000000100000000000000000000000000000000000e1
:2038d7000000000000c3001000000001400100400240000000000000be60420000000000da
:2038f7000000000000000000000000000000000000000000000000000000000000000000b1
:17391700000000000000000000000000000000000000000000000099
:20392e00000000000c302000070a8714100c0000000000000000000000000000000007c985
:20394e006000000000000000000000000000000000000000000000000000000000000000f9
:16396e000000000000000000000000000000000000000000000043
:203984000000000000c300000001010280014000000000000000000e00000000000000206d
:2039a40096000000000000000000000000000000000000000000000000000000000000006d
:1739c4000000000000000000000000000000000000000000000000ec
:2039db00001400000c3020000700000000000000237f6460300001c000000000c0603d8e13
:2039fb00343000000000000000000000000000000000000000000400000000000000000044
:163a1b000000000000000000000000000000000000000000000095
:203a31000000800000c3000000d00000000000000785da400100001000000000000003d0d8
:203a5100c300000000b0000000000000000000000000000000008000000000000000000062
:173a710000000000000000000000000000000000000000000000003e
:203a8800000000000c30200000000000000000060178f511400000000000000000400000bd
:203aa8000000000700000000000000000000000000000000000080001cf0400000008000ab
:163ac80000000000000000000000000000000000000000000000e8
:203ade000000000000c30000000000000000000000020f500400000000000000000200009e
:203afe00000000000000000000000000000000000000000000000000000f08000000090088
:173b1e00000000000000000000000000000000000000000000000090
:203b3500000000000c30200005000000000000003b7d6440000000c00000000000000000f3
:203b550000000020000000000000000000000000000000000c0000000000003000000002f2
:163b750095000000000000000000000000000000000000000000a5
:203b8b000000000000c3000000080000000000000407da4080000000000000000200240084
:203bab000000000400e000000000000000000000000000000080000000000002000000f0a4
:173bcb0016a00000000000000000000000000000000000000000002d
:203be20001000000ec3020000580000000000000000000000000000000000000014280003e
:203c0200000000000000000000000000000000000000000000000000000000028000000020
:163c22000000000003000000000000000000000000000000000089
:203c38000010040040c3000000009000000000000200000000000000000000000002400081
:203c580000000000000000000000000000000000000000000000000000000000000000004c
:173c7800000000000000000000000000000000000000000000000035
:203c8f0000000001ec30238000011e14102e20000258474000000000000000e000060000fd
:203caf0000000000000000000000000000038000000000000000000178aa0000000000004f
:163ccf00000000004000000000000000000000000000000000009f
:203ce5000000000000c300200010a04140008804400ec421002000000000000800240000a0
:203d0500000000000000000000000000000020000000000000000002830aa010002000001f
:173d2500000000000000000000000000000000000000000000000087
:203d3c000001e040ec3025000000000000000000000000000000000000000000000625e2f8
:203d5c0054000000000000000000000000030000000000000000000201e700000000000006
:163d7c000000000000058f5200000000000000000000000000004b
:203d92000000023810c3001000000000000000000000000000000000000000000000005f95
:203db200a5000000000000000000000000001000000000000000000024bdb010000000009b
:173dd20000000000000020f500400000000000000000000000000085
:203de9000101e000ec302300001a0000000c4000000000000008040000000000014281aab9
:203e0900000000000000000000000000000000010000000000000060000000000000000038
:163e29000000000000000000000000000000000000000000000083
:203e3f000000000010c30010000000000000400800000000000000000000000000346e4056
:203e5f005000000000000000000000000000000008000000000000040000000000000000e7
:173e7f0000000000000000000000000000000000000000000000002c
:203e960000000001ec3020000000879410000006000000000000000000000000000037a8bf
:203eb60000000000007f280440000000000000000100000000000000000000000000000000
:163ed6000000c00000000000000000000000000000000000000016
:203eec000000000000c300000000010280400000000000000000000000000000001c336c75
:203f0c00000000000000c280000000000000000000d0000000000000000000000000000083
:173f2c0000000400000000000000000000000000000000000000007a
:203f430000000000ac30200000001f941000001e00000000000200000000000000c76ea4a6
:203f6300002000000e00000000000000000000000006bc1820000000000000000000000016
:163f83000000080000000000000000000000000000000000000020
:203f99000000000000c300000000000140400060200000000000500000000000000276f08c
:203fb90000000000000000000000000000000000000003c005000000000000000000000020
:173fd9000000000000000000000000000000000000000000000000d1
:203ff00000000380ac3020000000900010000000000000000000000000000000000287c049
:20401000002000000000000000000000000000000000000000000000000000000000000070
:16403000000000000000000000000000000000000000000000007a
:2040460000003c7c10c300000000010294400000000000000000000000000000000002e016
:204066008000000000000000000000000000000000000000000000000000000000000000ba
:17408600000000000000000000000000000000000000000000000023
:20409d000001c001ac30200009801e941200000000000000000000000000000000007d8dee
:2040bd00a4200000000000000000000000030000000000000000000000000000000000001c
:1640dd0000000000000000000000000000000000000000000000cd
:2040f30000001c0000c300000098004140001400000000000000000000000000000022601f
:20411300a500000000d00000000000000000200000000000000000000000000000000000f7
:17413300000000000000000000000000000000000000000000000075
:20414a000000002cec302400000000000000000000000000000000000000000000001410c5
:20416a000800000001000000000000000000000000000000000000041cf0400000000000dc
:16418a00000000000000000000000000073c1800000000000000c4
:2041a00000100001d0c3000000000000000000034000000000000000000000000000282bc5
:2041c0000000000000a0000000000000000000000000000000000003c10f0010000000005c
:1741e0000000000000380000000000000043c0010000038000000009
:2041f70000004014cc30238300000000000e2c860000000000000000000000e00000048f7f
:2042170008000005800000000000000000000000000000000e0000000000003800000000b4
:164237000000e00000008f04039000000000000e0000000000005d
:20424d000000022410c300a000008000000084144000000000000000000000080000002038
:20426d000f000000b0000000000000000000040000000000008000000000000200000000ec
:17428d0000000800000010f080228000000000008000000000000070
:2042a4000000400fec302700000000000000000000000000000000037028000000061c8f1c
:2042c4000c00000000000000000000000000000000000000040000001cf04030000000004e
:1642e4000000c000000000000301000000000004000000000000fc
:2042fa000000020030c30010000000000000000000000000000000000802800000003820bd
:20431a000f0000000000000000000000000000000000000000400000000f0003000700001b
:17433a0000000c000000000000100000000000004000000000000010
:204351000100001ccc302013a0000000000c01000000000000005805f00008000062d48f39
:204371000c0000000093408000000000000040200000000000000000000000000001c03379
:16439100c10200040000000000000000000000000000000000004f
:2043a7000000000020c3000285000000000040080000000000000000740040000000202050
:2043c7000f0000000001f4002000000000000005000000000000000000000000000010009d
:1743e7003c00400080000000000000000000000000000000000000c3
:2043fe000003c04f8c302000080100000000000004000000000001e83a80000000001e8f54
:20441e000c00000001000000000000000000000000000000000000001ef040000000000023
:16443e000000000000000000000000010000000000000000000067
:2044540000003e3c00c300000090e0000000000243c000000000001eb014000000000000b4
:204474000f0000000090000000000000000000000000000000000000010f0000000f00006a
:17449400000000000000000000000000900000000000000000000081
:2044ab000003e79dec30231320001b1410000016024da1404038780f320008040800168f89
:2044cb000c0000070e00000000000000000000000000000000000468000000000080006b59
:1644eb00c100000000000000000180080000000000000000000071
:2045010000003e4010c300108400008140010060000d8d10000000883c0000002100000004
:204521000f0000000800000000000000000000000000000000000004000000000003000458
:174541003c0000000000000000000000000000000000000000000027
:204558000001e79dec302000000000000000000000000000000001e0000000000000568fbc
:204578000c00000000bfbc0040000000000000000000000000000000000000000000802bb1
:16459800c10000000700000000000000000000000000001ef041f6
:2045ae000000267c00c300000000000000000000000000000000091000000000000020202f
:2045ce000f000000000143d401000000000000000000000000000000000000000000100095
:1745ee003c000000004000000000000000000000000000010f00002a
:204605000002e247cc30201380000000000c000000d8f500000800000000000002061e8f25
:204625000c000000000000000000000000000000000000000c0000000000003000000073ba
:16464500c100c00000000000030000000000000c000000000000cf
:20465b0000001e7820c30002800000000000800000000f50900000000000000000040020b1
:20467b000f00000000c00000000000000000000000000000008000020000000200000000cc
:17469b003c0008000000000000200000000000008000020000000022
:2046b200000000000c3020080000577c3000000002ff0a00000080a3ae85020000001c8f73
:2046d2000c00000598000000000000000000002001073c100000b63c40008002ac59b1043d
:1646f200020000000000000000000000000000000040040000006c
:204708000010000000c30001000000383c0000000007d0e1000025001a744000000000009e
:204728000f0c000000000000000000000000000400d003c00000054342b0000010200a0348
:17474800c0000000000000000000000000000000000803800000000f
:20475f00000000000c3023800000723c3000803607d80a0038000000000000e000001c8f1b
:20477f000c03800800000000000000000003a0080003bc100000266dc996a03800d9b12293
:16479f005b0200004016aaa0038000000000000e00000000000076
:2047b5000000000000c30020000000003c000000429f00000200000e0000000802000000ca
:2047d5000f002000f08000000000000000002100d00003c0000001624289600600050a0ac4
:1747f50025800000000020aa0020000000000000800000000000009e
:20480c00000000000c3020000819523c30000000007a080000008015ae85020a0006548f12
:20482c000c0040200192a002000000000001000000033c18000140606996803005000122fb
:16484c005b020001400000000300000006bc1004000038000000a7
:204862000000000000c30000001080803c000000000ce000000001081e7440100000202010
:204882000f00000000ad70000000000000001000000043c00000080682b960000020000a04
:1748a2006580400000000000001000000003c000ca00040000000039
:2048b900000000000c3020000181523c300000206acf3e0000000011728500001460548f4d
:2048d9000c1000051e9f909840000000000000000003bc1800001c6068968002000001a203
:1648f9005b0000000296af5000000000073c100000000008f0402c
:20490f000000000000c30000000080803c000041401fc3c000000008937440000080202057
:20492f000f00000009ad67882400000000000000000043c00000014400b96000138000029a
:17494f0065804000004020f5004000300043c000000000010f010053
:20496600000000000c30200000007a3c3000000603cc3c02000001800000000400001e8faa
:204986000c0000000000000000000000000000001e07bc1000021e00c9968000000001a66e
:1649a6005b84c000038d8f500800039f033c1001000000000000f3
:2049bc000000000000c30000000000003c00000342f601c0000100000000000000000000df
:2049dc000f000200d00000000000000000000000000043c00000000000996000080d0002c7
:1749fc0025800406000020f500400008f043c00000c00000000000e5
:204a1300000000000c3020000d805a3c3000001429fc5e0200008180000000000000168f95
:204a33000c0300000ede3d480000000000000007400000000000000049968000000001a696
:164a53005b040000000000000000000003bc10000000000000001f
:204a69000000000000c3000000f000003c00000026c305e000000b00000000000000000065
:204a89000f201000000b43c00000000000000000080000000000000000a960000000000aa5
:174aa900258800000000000000000000f003c0000000000000000096
:204ac000000000000c30200001805a3c300041142c00000000000005bf9504000260168f4e
:204ae0000c0000200000000000000000000000039e0000000000007849968000050001a666
:164b00005b0200000640000000000700033c10400a00000000005c
:204b16000000000000c30000000000803c000a08260000000000000c1e700000800400208a
:204b36000f000000000000000000000000000028090000000000000000a960000060000aac
:174b560065800000007c0000000000080003c000000000000000001c
:204b6d00000000000c3023000d987a3c3000000028000000300000096395000002061e8f30
:204b8d000c0000000c000000000000000003000000063c100000000048f080300001a326e9
:164bad005b060000079de550030000000000000c000000000000a9
:204bc3000000000000c30010001000803c0002634600000002000000b7700000000400203b
:204be3000f08000000000000000000000000200000f003c0000008000200f00200000002ca
:174c0300658000000003f055002000000000000080000000000000cd
:204c1a00000000000c3020000000723c3000000005dfc1400000d1c16e80000000001c8f30
:204c3a000c0000001917280800000000000000000000000000000e0048968000000005225b
:164c5a005b0200000000000000000019104020000000000000005e
:204c70000000000000c30000280000003c1000000234ac3010000b8ad7b8000000000000a7
:204c90000f040018048082800000000000000004000000000000000000d9604000000002d4
:174cb000a583000000000000000000f1a0a000000000000000000094
:204cc700000000000c3023800000723c300e002000ec0f0038000003b02108e400001c8f44
:204ce7000c8380000053b8d0800000000000000800b6280800800000080f00390000002362
:164d0700c100e0000780000000000d811a65a00e0000000ef04075
:204d1d000000000000c30020000000003c008000400c00f00200000038062208aa1428004b
:204d3d000f0020000000038c4400000000000000f08b0000010400000000f00228000000ba
:174d5d003c0048000040000000000050a0ba5820800000000f0000ca
:204d7400000000000c3020001019523c300c000029eec140000000a00000000020061c8f47
:204d94000c000001803fa91800000000000000000000000000081e000000003000d8000044
:164db4000000c00000018f040000200a5225a0040000781cf0408c
:204dca000000000000c30000000080803c0040000434ec3000000010000000000000002006
:204dea000f00000000096b6a00000000000000000000000000000000000000000385000034
:174e0a0000000400000010f000000100a0a65800c00004010f00001a
:204e2100000000000c3020000199523c3000000400080f000000000000000000c000148f3f
:204e41000c040003805ba950000000000000000780063d4800000000000000000000000058
:164e6100000000000001ef06000005015265a0000000001ef0409a
:204e77000000000000c30000000080803c000040200100f00000000b00000000a000002000
:204e97000f000000000903d40000000000000200080743e8010000000000000000000000cf
:174eb70000000000002410f000000050b0ae5800000000010f0000aa
:204ece00000000000c30202000007a3c3000402601dec140000198000000000020001e85c0
:204eee00540000000e00000000008000000000000000000000000000fc0000800000000046
:164f0e00000000000001af06101003805a25a00000000000000015
:204f24000000000000c30000000000003c00020043b4fc300000090000000000060000003a
:204f4400550000000100000000000000000002803000000000000003550a000000000000e3
:174f640000000000003810f000028008003e580000000000000000de
:204f7b00000000000c30200008005a3c3000000004180f00000000100000000000000000b1
:204f9b00000000018003a81840000000000300001e5e3d4040001e200000000000000000f8
:164fbb00000000000001ef04000000005a65a0000000781cf040c9
:204fd1000000000000c3000000f000003c000001c20000f000000008000000000000000016
:204ff10000000000000b41402100c00000001000010043d4020040040000000000000000c5
:1750110000000008003800f00001080000225800000244000f000080
:20502800000000000c30200009805a3c3000000e381ef04000040003200800000260400058
:20504800000000871e0000000000000000000008000000000000000000000000600000003b
:16506800000000040001ef040000019e3225a0000004000ef04062
:20507e000040000000c30000001000803c000003e4000f0000002000960000000004200073
:20509e0000000000000000000000000000000000f0000000000800000000000000000000fa
:1750be0000000000800000f00000000800225800000022010f0000b7
:2050d500000000000c30230408005a15500c5000001c0f00304010000000000b02000790e6
:2050f500800b440000000000000000000000042000000000009e000000000030400000009a
:165115000000c500e381cf0400040000723c200c900068000000b2
:20512b000000000000c300104010008154008903c00100f00204008000000000200403ee94
:20514b000000204000e00000000000000000004400000000000500000000000204000000b5
:17516b00000008303e0010f08000401000003c008100040000000026
:205182000800000000000000019810002000000000edc14000040007fa800000000017a012
:2051a2008000010198b7e00000000000000000050b76018000000024cca000000001e1ab18
:1651c200c140000066440008000000001a25a000001401e10080cf
:2051d8000000000000000000000900000008000000349c3000000000082800000000036a09
:2051f800000100000005600001000000000000000985e42800100003c10a0004000000d4e0
:1752180003c0000002640b000000000000b6581000000000f000003d
:20522f0000000000000000000018723c200e817e040c0f000000108d3a0008e002001dcfa0
:20524f0000039809005f285080000000000380000833b0d080a04002dca000380070000080
:16526f000000e0026644896d0000001c0203c000001400e99690a3
:205285000000000000000000000100003c208068434000f00000009994000008003c02d00e
:2052a500f5202380500183440000000000002000100d010c040408003600001200008000f7
:1752c50000000800266428961000000100003c0000000000f96000dc
:2052dc00000000000000000051003a3c200c000060dc0a0000005007602800001542c00e75
:2052fc007020010000163d4000000000000000019913c81000000000000000300201d93ba2
:16531c00c180e4000384896c000000000000000000002948968053
:205332000000000000000000000800003c204000000300a00000000008028000000269c05f
:20535200db000000000083d420000000000000000089e0c0000000024000000003500c58c7
:1753720003c0008000402996100000000000000000000282c9600025
:20538900000000000000000001807a3c20000140026ea002000000082828000408400000b6
:2053a9000000400d1a76a800000000000003000000d3901000a00001ce50000001d8000051
:1653c900000000000006896c000000000000000000140148968060
:2053df000000000000000000000800803c20000000070100000000003001400021762c008e
:2053ff00000004001000028020000000000010000009e2800004e013b50000000009800028
:17541f000000000000000996100000000000000000002282f96000ca
:20543600000000000000000000001265a040003e3cfce04200001000000000200047bed062
:20545600158300038086b8d080000000000000080000000000041e70e85520000001cdb315
:16547600c10000020006996c0000000100000000002000489680d3
:20548c000000000000000000000000ba58000000471d0f0000000089000000000000404e64
:2054ac005b0010010003034c0000000000000000700000000000002665055000000000f4de
:1754cc0003c800001400089610000000f000000000014000f96000b2
:2054e300000000000000002805805a25a000801c3c180f00000010c87a800000f600000016
:20550300000000000000000000008000000000000100000000002e000000000100300000a8
:16552300000000000006996e0001000000000000002001e9968044
:2055390000000000000000010000d03e58200040260000f000000000b414000000bc2400cd
:205559000000020070000000000000000000003800c00000000001e00000000008000000df
:17557900000000000000289600000000000000000000c000896000b4
:20559000000000000000000005801a25a000001e78cda540000000bf320008000040000016
:2055b000000000018086a80000000000000320070c00000000001c20000000004000c3f8bf
:1655d000280001000006996e002400000000000000166d6896806a
:2055e60000000000000000000050a0aa582000000036ea100000050e7000020000260000b8
:2056060000000000000501400100000000001180098000000000000400000000000110f01e
:175626000000000000002996000100000000000000000282e96000e0
:20563d000000000000000004051a3a25a00c101c001c0f00024050a3628000050a4017c487
:20565d0000035790197f38d0a000000000002c501aff014000100000000000304200e000cb
:16567d000000c100000c996e000400000000000010162d68f08014
:205693000000000000000000400000ba58208100200100f00014050a0c280800214e01cb59
:2056b3000000264200e0838c00000000000001429107c0002001e0000000000204191000b5
:1756d300000008100000099600004000000000000101c28000f00095
:2056ea00000000000000000008007a25a000001e025842400000000073c10000000000af7c
:20570a00060000019800000000040000000000000e7603c000000607dcc750000001e000b4
:16572a00000000000014896c000001991000200000140149968022
:2057400000000000000000000070b0a25812000363c4ce2000000000003c0400000028009d
:20576000f001020000000000000000000000000000b700140000034226cc10000000100014
:175780000000000000000a9614000009903c000000000002c960401e
:20579700000000000000000008007a25a00ea03c04000000388000003bc100e8000001af71
:2057b70004038008087eb1d0000080000003800100ba2f108e0606076cc3603804d80000fb
:1657d7000000e00000008f06038009991225b800010000080f001b
:2057ed0000000000000000000070b0ae580484004380000002100000043c0408400000107d
:20580d00f0182001710523040000140000002000900f43f0008803424d8e200203a18c00b5
:17582d0000000800000000f00020009990a258000000000000f00039
:20584400000000000000000000015265a20020002a4e5040300000006bc10040020001af74
:20586400040000080000000000000000000000000ab603c000000029dcc750000001e03a5e
:165884008180c00260000000030000001225b00000002c01e700ed
:20589a00000000000000000000d0e022580000000405ed1001002000003c040400343000f5
:2058ba00f0090000f00000000000000000000000000d802800000000369c1000000010f44a
:1758da0014204000260000000000000000a6580400000634edb00044
:2058f100000000000000000000011265a200a04601480a00000281e06bc100000207800a22
:2059110054801085007eb1d0000000000000100808f72f1080001e000000000400101000f6
:165931000000000000000000000000001a25b002000001ee55002b
:20594700000000000000000000d0e0ae580000e0000300a080004900043c04000034734013
:205967005a090000080b270400000000000000007005c3f0000000200000000042800d0068
:1759870000000000000000000000000000265804000000060550002c
:20599e00000000000000000000005a3c2000002001fc02020000000000000000000681afdc
:2059be00061000000ebe60d0000000000003000018fa00000000200000000000000007e596
:1659de001d80080000000000000008001a65b04000000000000097
:2059f4000000000000000000000400003c200000400500000000000f0000000000000010cf
:205a1400f00800000105738c0000000000001000009141404000004300000000000000daf6
:175a340034400000000000000001005000225800000000000000001c
:205a4b00000000000000000000001a3c2000a140387a74420001500000000000d60000ef66
:205a6b000400000b0000000000000000000000580000000000007e62edc34802841811ed40
:165a8b001d80000000000000000020001a65b060402001eaaa00c4
:205aa1000000000000000000000000803c20044004060a000000200000000000001400007d
:205ac100f0014000180000000000000000000007b0a0000000000b400d8e20000120089b5b
:175ae1003440000c000000000000040000a258000202c0010aa000c1
:205af80000000000000000000000723c2040201e065f5040000000a000000000016000cf7d
:205b1800041040000000000000000000000040519ef6018000020000000000000000976d6d
:165b38001d040000000000000000001a1a65b400000e00000000db
:205b4e000000000000000000007000003c0004000205ed10800000100000000000000010e3
:205b6e00f0010401000000000000000000000400b00f2c280000000300000000000108d727
:175b8e0074400000000000000000000000a65801000020000000002d
:205ba5000000000000000000010a7a2a800c00040400000030000000000000c401c001cf18
:205bc5000611000300000000000000000000018819d330d0850000024dc34830050000001d
:165be5000000c00000000000030000003265b440001668000000de
:205bfb0000000000000000000008a002a804800242000000020080000000000ca000000042
:205c1b00f0011000080000000000000000000000d0cfc20c005000000dde200200000c008a
:175c3b000000080000000000002000000026580000000000000000ac
:205c5200000000000000000000190303c0000160685aa5000400000f63d08000000394f43a
:205c7200550000090172941420400000000080000bb3c31000001e02da000000060017f021
:165c920028000a0000000000000000005225b000000000000000a3
:205ca80000000000000000000000f0003c000001c4070500004000007f3c00000004405c44
:205cc8008510820170a93f88600a000000000005d18d602004000003ae005000001b0a0c41
:175ce800028000e00034000000000000002a5831100000000000004c
:205cff0000000000000003800800063c100eaa00000000003800008b2b9504e00000000089
:205d1f000003800d00f7809000400000000380080087a0000e00047c000000380000072ae4
:165d3f000008e0000340000003800000023c100e00000000000044
:205d5500000000000000002000f00003c00080a3400000000200000053300008000000006b
:205d7500000020001c012c28040a000000002000100325000080000280000002000b0058b0
:175d95000000080000600000002000000003c04080000000000000ec
:205dac00000000000000018007800203c00000006000000000001003694000000206208f37
:205dcc00508000df8fbfc686000a00000000038d0b53a95080001e67ed80000000380000d3
:165dec00000004000036a006030009800000000c0000301cf048a5
:205e02000000000000000010000800403c000000000000000000000000140000000402d002
:205e2200fa10000211fd3c90200000000000000019d1416c0000002376e00000000b8000bf
:175e420000000080003ad9a71804009800000000400004010f000007
:205e59000000000000000000000002bc1000002006cb50600000000b78000800200004a368
:205e790004a000001c762580000e0000000008000ad2380000002035490c50000005b975d7
:165e9900000000020000000000102000000000000000000af04087
:205eaf00000000000000000000000003c0000001c397de2208000d0030008000000001d01f
:205ecf0072190000d0000258000000000000010000036700640001c235d0418001000fd7bf
:175eef00400000003c0000000002040000000000000000010f080002
:205f0600000000000000000001800703c00000002c000000000018007bccac0000000000f9
:205f26000000000000d61010c0000000000008019a3ac3800c00042978fa01000018efb121
:165f460068080a000000000000800000000000000000000000004b
:205f5c000000000000000000000000003c0000e80700000000002300003cc000004000009b
:205f7c000000000100078204000200000000000000fd2c3c00400000360f0000000010700b
:175f9c00010000480000000000000000000000000000024000000063
:205fb3000000000000000028019903bc10002140200000000000380000000000006005f42b
:205fd3002610000380d2bd004000400000008005003b11c200001e3869014100000195e0dc
:165ff300090800000000000000000000000000000000780000000f
:2060090000000000000000010000c043c0000000040000000000008000000000003c224c85
:20602900500880000805a3d40000080000000000f00b6d6c400000029fe0300000000f78a7
:1760490010e000000020000000000000000000000000000000000030
:20606000000000000000000000080703c0008080000c0f00300000100000000000004000b3
:20608000000000098c779414004a000000000000003ad48000008000eae540000181eb7ff9
:1660a0009d000014023d8a1400010000000000000000000000005b
:2060b6000000000000000000000100403c000010000100f00100000800000000803c200067
:2060d60000000005300963880502100000000000008d2fcc0002134025ba518003a1101f0a
:1760f600bdc2000c80227fd100000000000000000000000000000016
:20610d0000000000000003000000073c1000000000180f0030001000000000040040000071
:20612d00000000059d7e81480000000000000007803b168000001673fe5a003000f0196790
:16614d009500c00000000000030000000000000c000000000000d8
:20616300000000000000002000000043c0000000000000f002000180000000000002000084
:20618300000000287980c0140000000000000000080b6c9401000047e5808002030f887bb0
:1761a30070004800000000000020000000000000800000000000008d
:2061ba00000000000000000000000303c000000000000000000081836a810400000015df18
:2061da000c0000050a174010000000000000400180d300000000202ae15a900000018000f9
:1661fa0000000000000000000003800a7a80000000000400000004
:206210000000000000000000000000003c2000000000000000000100183c00000000000cb1
:206230000f000000090b3a840000000000000400500bac100000014016a0000000000f004c
:176250000000000000000000000000010b80280400000280000000fd
:20626700000000000000038008000000000e0000001cf0403800d000000000e020001c8f7f
:206287000c03800000d680000000000000038000081b90108e040c0148f08038000000003d
:1662a70000000000070000000000000a0000000e002000000000a2
:2062bd000000000000000020007000000000800000000f0002000780000000080000000011
:2062dd000f002000100f8280040000000000200000a38280008000028000f0020000000094
:1762fd00000000000028000000000001000000008001c00000000020
:206314000000000000000300000002bc101c000000000000000000e0000000040206548fad
:206334000c00000808d6f802000000000000000018563e8040009630e8f0800000001000c3
:1663540000000000000000000020000e8201400000000000000042
:20636a00000000000000003000900003c0004000000000000000090000000000a004202063
:20638a000f00000011bb2f00400000000000000050a1c3c0040034000000f0000000090004
:1763aa000000000000000000000180310f40280000000000000000b3
:2063c10000000000000000000000063c10000000000000000000800d300d800040c0548f3d
:2063e1000c030009187e3d4440000000000000001a73401a00001671c85500000000097128
:1664010009840000020000000000151c5fa80000000000000000be
:20641700000000000000000000000003c000004000000000000001001a48c01001002020ee
:206437000f001000780083d4000400000000000001a3ae840000000002055000000000fe28
:1764570048400000000000000000000800c28000000000000000005c
:20646e0000000000000000000580000000000000001ef040000080c82a81020000001e8f99
:20648e000c0000400182a800100000000000000f80d282c0000000021c96000038000000d8
:1664ae000000000000000000000000019f9080c000000000000068
:2064c4000000000000000000000000000000000002400f0000000f00101402000000000032
:2064e4000f00000200bb0140000000000000000010076c28400000001506900800000000ed
:1765040000000000000000000000000095820c00000000000000005d
:20651b000000000000000000000000000000000000000000000000000000000000401e8f73
:20653b000c00000181db0000c000000000000001811b4410000106705b05400000001000ff
:16655b000000000000000000000000005328080000006000000047
:2065710000000000000000000000000000000003c000000000000000000000000016000031
:206591000f0000000085c02000000000000000000083b090000000003df0208000000800de
:1765b10000000000000000000000000000c280000000000000000091
:2065c8000000000000000000000e0000000000000000000000000000000000000060168fa0
:2065e8000c00100001f29014c0000000000300059a9029400000007c000000000000efa971
:1666080001420000003f8a0000000000000000000000040000006c
:20661e0000000000000000000000000000000000000000000000000000000000000000203c
:20663e000f00428000b7c1402000000000001000000700002000000200000000000010bf8b
:17665e00c68000000001f0a500000000000000000000030000000046
:20667500000000000000030000000000000ca02000000000300000010295004a16661e8ffb
:206695000c1000010f7b415440000000000000058016a940c0000007580d00300000100079
:1666b50000000001c047aa000000000f0000000c00000069a140b8
:2066cb0080000000000000200000000000008400c0000000020000000029487c0084002038
:2066eb000f00000008f970082400080000000000000d41fc040000024790c20200000a00e6
:17670b0000000000023830a001400051f00000008000003ddfb0108f
:20672200080000000c302000000100000000002e00400080000070a00000001000001c8f39
:206742000c000000015016a000000000000000038058002000000020400080000000070042
:1667620002000000000000000000000a700020000020015a0f00fb
:206778000000000000c3000000d0800000000000c00000002000009b000000000000000073
:206798000f04000050d9240002000000000000000800000008000000020000200000000845
:1767b8000000800000000000000000000000000800e0400600f0002c
:2067cf00000000000c30238000000000000001407048f08080008000000000e000001c8fd7
:2067ef000c0000001b123c200000000000000080005a3c2000808001c8f080001001e7236b
:16680f00c200000000000000038109807783e00e0020000000009c
:206825000000000000c3002000000000000000000000df0000000900000000080000000080
:206845000f00000200a0003c0000000000000000000083c04000a400000f010040001000bf
:176865003c001000000000000020001000403c00800540000000005f
:20687c00000000000c3020400000f7bcd02000006868f080800000a0000000000006548f74
:20689c000c000007005a3c2000000000000000005c123c2000000005e8f0810000000723c1
:1668bc00c280000000000000000000015603e00000000400000046
:2068d2000000000000c3000400000b240e000001c4020f000000000000000000000020208c
:2068f2000f0000007800803c0000000000000000118003c001000003820f0000000000005a
:176912003c000000000000000000000080b43c00000003800000003f
:20692900000000000c302040000000000000200e0548f08000001805e02000001066548f51
:206949000c0000000a5a154000000000000000001c523c2020010431e8f080000579e3236d
:16696900c28000000000000000002300023c000000200000000055
:20697f000000000000c3000000000000000004a00302df00100000807300000000802020ea
:20699f000f00000000a081540000000000000000100083c000000804000f0010000080084e
:1769bf003c00000000000000000000000003c0000000400000000082
:2069d600000000000c30200000000000000000207168f080008058000000000040001e8f17
:2069f6000c000000009f8600000000000000000000523c2040080001c8f080000001f3a38a
:166a1600c2040000000000000000000182128080000062da05408e
:206a2c000000000000c300000000000000000002c4020f000400100000000000000000009c
:206a4c000f0000000009a8700400000000000000008083c00000c000020f001000000e083c
:176a6c003c0000000000000000000000f5421400000004060500007d
:206a8300000000000c30200000010000000001000168f081000000012a8081000000168fea
:206aa3000c00000000000000000140000000001000323c204000002168f0a0000000e5a307
:166ac300c20200000000000000010001bf80508000800000000068
:206ad9000000000000c300000000a0000000004800000f00000000009c0000000024000023
:206af9000f00000000800000000008000000001a000083c000002000020f00000000100048
:176b19003c000000000000000000010081c3080000000000000000dc
:206b3000000000000c30200000000000000000007148f080000080017b4008002260168f55
:206b50000c00400800f78280000000000000800001523c2040060400e8f0810000f00323f0
:166b7000c2040000000000000000098017a80000080000000000f9
:206b86000000000000c3000000100000000000000400ff00000005000434000000040020b8
:206ba6000f018400700b4000010000000000000000f003c000000002020f00000007880822
:176bc6003c000000000000000000005000828000000000000000002a
:206bdd00000000000c302300000010168020000000c8f08102000001280000c002001685b2
:206bfd0054004010000000000000400000002051007a3c204081440168f08100000005a7c2
:166c1d00c2040000000000000000a8181f88508000000000000064
:206c33000000000000c30020009000016800000000000f00001000099c02820400040020f5
:206c530055008030d09000000000c800000002aa00003fc00004800200bf00000000000afa
:176c73007c000000000000000000005000408400000000000000007a
:206c8a00000000000c302000000002bc100000000468f08000000180000000000002a4b30a
:206caa00e0000008013331d04000000000000000007a15502001400168556000000001a16d
:166cca0055800000000000000000000000000000000000000000df
:206ce0000000000000c3000000040003c000000003820f0050002900000000000000007a83
:206d00003c00000010a3630400000000000000000000815490000800020551400000000810
:176d2000154100000000000000000000000000000000000000000006
:206d3700000000000c30238000000000000e002e7068f0803800000902940000000015a548
:206d5700000380000172b9501000000000038000000000000e020000000000380000e00062
:166d77000000000000000000000000000000000000000000000006
:206d8d000000000000c300200000000000008002e0000f000200000ab0000000001438f09a
:206dad0000002028b0ab321400000000000024800000000000800000000000020000400077
:176dcd0000000080000000000000000000000000000000000000002f
:206de400000000000c30230000000000000400200548f0800100000f210188000206a0c02d
:206e040010000005983331d040a14000000100001e0000000c000000000000300000000011
:166e24000000000000000000000000000000000000000000000058
:206e3a000000000000c300300010000000004002c2c20f00000800009c09400000042b4bf9
:206e5a0002000000000f77040004080000003000010000000040000000000003000000000c
:176e7a00000000000000000000000000000000000000000000000001
:206e9100000000000c302000000000000000800000e8f080000000096019800001471f80c4
:206eb100a00000059852395010400000000000100000000000000000000000000800000041
:166ed10000000000000000000000000000000000000000000000ab
:206ee7000000000000c30000000000000000040003820f0000018000b640c0400000424037
:206f070000000030000bf214000800000000001a0000000000000002000000000000000005
:176f2700000000000000000000000000000000000000000000000053
:206f3e00000000000c30200000000000000000000148f080000000000000000001e634c142
:206f5e00a02000079fb371d0000000000000000000000000000000040000000000000000b5
:166f7e0000000000000000000000000000000000000000000000fd
:206f94000000000000c30000000000000000000000000f0000000000000000000000425079
:206fb4005a20800090857304200a000000000000000000000000000380000000000000008a
:176fd4000000000000000000000000000000000000000000000000a6
:206feb00000000000c302000000000000000002004e9f0800280008000000010000015a0e6
:20700b0000000008007e3958000040000000000000000000002000000000000000000000ee
:16702b00000000000000000000000000000000000000000000004f
:207041000000000000c300000000000000000000c2c0bf000010800000000000000000f0ab
:207061000a000000100b7214000008000000000000000000000000000000000060000000fc
:177081000000000000000000000000000000000000000000000000f8
:20709800000000000c3020400008000000000000006855400000001000000000000020c245
:2070b800000000018e00000000080000000000000000000000000000000000000001e00040
:1670d80000000000000000000000000000000000000000000000a2
:2070ee000000000000c3000400000000000000000000055004000008000000000000034b0c
:20710e00100000000100000000000000000000000000000000000000000000000000100040
:17712e0000000000000000000000000000000000000000000000004a
:20714500000010000c30230000000000000c01400000000038800000000000000040000076
:20716500000100019c5fb9500000000000030000000000000c014000000000300000000084
:1671850000000000000000000000000000000000000000000000f4
:20719b000000000000c300200000000000008000000000000210000000000000000000005f
:2071bb0000001000010bf214200000000000220100f00000008008000000000200000000d5
:1771db0000000000000000000000000000000000000000000000019c
:0271f20000009b
:0371f4007200b076
:0271f700110184
:0271f900010192
:2071fb0000000000000000000000001000000000000040000000000001000000000000041f
:20721b000000000000001000000000000040000000001000000000000040000000000001b2
:16723b0000000000000004000000000000100000000000004000e9
:207251000000000000000000000000020000000000000800000000000020000000000000f3
:20727100800000000000020000000000000800000000020000000000000800000000000069
:1772910020000000000000800000000000020000000000000800003c
:2072a8000000000000000000000000000000000000000000000000000000000000000000c6
:2072c8000000000000000000000000000000000000000000000000000000000000000000a6
:1672e8000000000000000000000000000000000040000000000050
:2072fe00000000000000000000000000000000000000000000000000000000000000000070
:20731e0000000000000000000000000000000000000000000000000000000000000000004f
:17733e00000000000000000000000000000000000000000004000034
:20735500000000000000000000000000000000000000000000000000000000000000000018
:207375000000000000000000000000000000000000000000000000000000000000000000f8
:1673950000000000000000000000000000000000000000000000e2
:2073ab000000000000000000000000000000000000000000000000000000000000000000c2
:2073cb000000000000000000000000000000000000000000000000000000000000000000a2
:1773eb0000000000000000000000000000000000000000000000008b
:2074020000000000000000000000000000000000000000000000000000000000000000006a
:2074220000000000000000000000000000000000000000000000000000000000000000004a
:16744200000000000000000000000000000000000007010000002c
:20745800000000000000000000000000000000000000000000000000000000000000000014
:207478000000000000000000000000000000000000000000000000000000000000000000f4
:1774980000000000000000000000000000000000000080000000005d
:2074af000000000000000000000000000000000000000000000000000000000000000000bd
:2074cf0000000000000000000000000000000000000000000000000000000000000000009d
:1674ef000000000000000000000000000000000000000200000085
:20750500000000000000000000000000000000000000000000000000000000000000000066
